{
  "abi": [
    {
      "type": "constructor",
      "inputs": [
        {
          "name": "_rootRegistry",
          "type": "address",
          "internalType": "address"
        }
      ],
      "stateMutability": "nonpayable"
    },
    {
      "type": "function",
      "name": "CERTIFICATE_REGISTRY_ID",
      "inputs": [],
      "outputs": [
        {
          "name": "",
          "type": "bytes32",
          "internalType": "bytes32"
        }
      ],
      "stateMutability": "view"
    },
    {
      "type": "function",
      "name": "CIRCUIT_REGISTRY_ID",
      "inputs": [],
      "outputs": [
        {
          "name": "",
          "type": "bytes32",
          "internalType": "bytes32"
        }
      ],
      "stateMutability": "view"
    },
    {
      "type": "function",
      "name": "SANCTIONS_REGISTRY_ID",
      "inputs": [],
      "outputs": [
        {
          "name": "",
          "type": "bytes32",
          "internalType": "bytes32"
        }
      ],
      "stateMutability": "view"
    },
    {
      "type": "function",
      "name": "addVerifiers",
      "inputs": [
        {
          "name": "vkeyHashes",
          "type": "bytes32[]",
          "internalType": "bytes32[]"
        },
        {
          "name": "verifiers",
          "type": "address[]",
          "internalType": "address[]"
        }
      ],
      "outputs": [],
      "stateMutability": "nonpayable"
    },
    {
      "type": "function",
      "name": "admin",
      "inputs": [],
      "outputs": [
        {
          "name": "",
          "type": "address",
          "internalType": "address"
        }
      ],
      "stateMutability": "view"
    },
    {
      "type": "function",
      "name": "enforceSanctionsRoot",
      "inputs": [
        {
          "name": "params",
          "type": "tuple",
          "internalType": "struct ProofVerificationParams",
          "components": [
            {
              "name": "vkeyHash",
              "type": "bytes32",
              "internalType": "bytes32"
            },
            {
              "name": "proof",
              "type": "bytes",
              "internalType": "bytes"
            },
            {
              "name": "publicInputs",
              "type": "bytes32[]",
              "internalType": "bytes32[]"
            },
            {
              "name": "committedInputs",
              "type": "bytes",
              "internalType": "bytes"
            },
            {
              "name": "committedInputCounts",
              "type": "uint256[]",
              "internalType": "uint256[]"
            },
            {
              "name": "validityPeriodInSeconds",
              "type": "uint256",
              "internalType": "uint256"
            },
            {
              "name": "domain",
              "type": "string",
              "internalType": "string"
            },
            {
              "name": "scope",
              "type": "string",
              "internalType": "string"
            },
            {
              "name": "devMode",
              "type": "bool",
              "internalType": "bool"
            }
          ]
        }
      ],
      "outputs": [],
      "stateMutability": "view"
    },
    {
      "type": "function",
      "name": "getBoundData",
      "inputs": [
        {
          "name": "params",
          "type": "tuple",
          "internalType": "struct ProofVerificationParams",
          "components": [
            {
              "name": "vkeyHash",
              "type": "bytes32",
              "internalType": "bytes32"
            },
            {
              "name": "proof",
              "type": "bytes",
              "internalType": "bytes"
            },
            {
              "name": "publicInputs",
              "type": "bytes32[]",
              "internalType": "bytes32[]"
            },
            {
              "name": "committedInputs",
              "type": "bytes",
              "internalType": "bytes"
            },
            {
              "name": "committedInputCounts",
              "type": "uint256[]",
              "internalType": "uint256[]"
            },
            {
              "name": "validityPeriodInSeconds",
              "type": "uint256",
              "internalType": "uint256"
            },
            {
              "name": "domain",
              "type": "string",
              "internalType": "string"
            },
            {
              "name": "scope",
              "type": "string",
              "internalType": "string"
            },
            {
              "name": "devMode",
              "type": "bool",
              "internalType": "bool"
            }
          ]
        }
      ],
      "outputs": [
        {
          "name": "boundData",
          "type": "tuple",
          "internalType": "struct BoundData",
          "components": [
            {
              "name": "senderAddress",
              "type": "address",
              "internalType": "address"
            },
            {
              "name": "chainId",
              "type": "uint256",
              "internalType": "uint256"
            },
            {
              "name": "customData",
              "type": "string",
              "internalType": "string"
            }
          ]
        }
      ],
      "stateMutability": "pure"
    },
    {
      "type": "function",
      "name": "getDisclosedData",
      "inputs": [
        {
          "name": "params",
          "type": "tuple",
          "internalType": "struct ProofVerificationParams",
          "components": [
            {
              "name": "vkeyHash",
              "type": "bytes32",
              "internalType": "bytes32"
            },
            {
              "name": "proof",
              "type": "bytes",
              "internalType": "bytes"
            },
            {
              "name": "publicInputs",
              "type": "bytes32[]",
              "internalType": "bytes32[]"
            },
            {
              "name": "committedInputs",
              "type": "bytes",
              "internalType": "bytes"
            },
            {
              "name": "committedInputCounts",
              "type": "uint256[]",
              "internalType": "uint256[]"
            },
            {
              "name": "validityPeriodInSeconds",
              "type": "uint256",
              "internalType": "uint256"
            },
            {
              "name": "domain",
              "type": "string",
              "internalType": "string"
            },
            {
              "name": "scope",
              "type": "string",
              "internalType": "string"
            },
            {
              "name": "devMode",
              "type": "bool",
              "internalType": "bool"
            }
          ]
        },
        {
          "name": "isIDCard",
          "type": "bool",
          "internalType": "bool"
        }
      ],
      "outputs": [
        {
          "name": "disclosedData",
          "type": "tuple",
          "internalType": "struct DisclosedData",
          "components": [
            {
              "name": "name",
              "type": "string",
              "internalType": "string"
            },
            {
              "name": "issuingCountry",
              "type": "string",
              "internalType": "string"
            },
            {
              "name": "nationality",
              "type": "string",
              "internalType": "string"
            },
            {
              "name": "gender",
              "type": "string",
              "internalType": "string"
            },
            {
              "name": "birthDate",
              "type": "string",
              "internalType": "string"
            },
            {
              "name": "expiryDate",
              "type": "string",
              "internalType": "string"
            },
            {
              "name": "documentNumber",
              "type": "string",
              "internalType": "string"
            },
            {
              "name": "documentType",
              "type": "string",
              "internalType": "string"
            }
          ]
        }
      ],
      "stateMutability": "pure"
    },
    {
      "type": "function",
      "name": "isAgeAbove",
      "inputs": [
        {
          "name": "minAge",
          "type": "uint8",
          "internalType": "uint8"
        },
        {
          "name": "params",
          "type": "tuple",
          "internalType": "struct ProofVerificationParams",
          "components": [
            {
              "name": "vkeyHash",
              "type": "bytes32",
              "internalType": "bytes32"
            },
            {
              "name": "proof",
              "type": "bytes",
              "internalType": "bytes"
            },
            {
              "name": "publicInputs",
              "type": "bytes32[]",
              "internalType": "bytes32[]"
            },
            {
              "name": "committedInputs",
              "type": "bytes",
              "internalType": "bytes"
            },
            {
              "name": "committedInputCounts",
              "type": "uint256[]",
              "internalType": "uint256[]"
            },
            {
              "name": "validityPeriodInSeconds",
              "type": "uint256",
              "internalType": "uint256"
            },
            {
              "name": "domain",
              "type": "string",
              "internalType": "string"
            },
            {
              "name": "scope",
              "type": "string",
              "internalType": "string"
            },
            {
              "name": "devMode",
              "type": "bool",
              "internalType": "bool"
            }
          ]
        }
      ],
      "outputs": [
        {
          "name": "",
          "type": "bool",
          "internalType": "bool"
        }
      ],
      "stateMutability": "view"
    },
    {
      "type": "function",
      "name": "isAgeAboveOrEqual",
      "inputs": [
        {
          "name": "minAge",
          "type": "uint8",
          "internalType": "uint8"
        },
        {
          "name": "params",
          "type": "tuple",
          "internalType": "struct ProofVerificationParams",
          "components": [
            {
              "name": "vkeyHash",
              "type": "bytes32",
              "internalType": "bytes32"
            },
            {
              "name": "proof",
              "type": "bytes",
              "internalType": "bytes"
            },
            {
              "name": "publicInputs",
              "type": "bytes32[]",
              "internalType": "bytes32[]"
            },
            {
              "name": "committedInputs",
              "type": "bytes",
              "internalType": "bytes"
            },
            {
              "name": "committedInputCounts",
              "type": "uint256[]",
              "internalType": "uint256[]"
            },
            {
              "name": "validityPeriodInSeconds",
              "type": "uint256",
              "internalType": "uint256"
            },
            {
              "name": "domain",
              "type": "string",
              "internalType": "string"
            },
            {
              "name": "scope",
              "type": "string",
              "internalType": "string"
            },
            {
              "name": "devMode",
              "type": "bool",
              "internalType": "bool"
            }
          ]
        }
      ],
      "outputs": [
        {
          "name": "",
          "type": "bool",
          "internalType": "bool"
        }
      ],
      "stateMutability": "view"
    },
    {
      "type": "function",
      "name": "isAgeBelow",
      "inputs": [
        {
          "name": "maxAge",
          "type": "uint8",
          "internalType": "uint8"
        },
        {
          "name": "params",
          "type": "tuple",
          "internalType": "struct ProofVerificationParams",
          "components": [
            {
              "name": "vkeyHash",
              "type": "bytes32",
              "internalType": "bytes32"
            },
            {
              "name": "proof",
              "type": "bytes",
              "internalType": "bytes"
            },
            {
              "name": "publicInputs",
              "type": "bytes32[]",
              "internalType": "bytes32[]"
            },
            {
              "name": "committedInputs",
              "type": "bytes",
              "internalType": "bytes"
            },
            {
              "name": "committedInputCounts",
              "type": "uint256[]",
              "internalType": "uint256[]"
            },
            {
              "name": "validityPeriodInSeconds",
              "type": "uint256",
              "internalType": "uint256"
            },
            {
              "name": "domain",
              "type": "string",
              "internalType": "string"
            },
            {
              "name": "scope",
              "type": "string",
              "internalType": "string"
            },
            {
              "name": "devMode",
              "type": "bool",
              "internalType": "bool"
            }
          ]
        }
      ],
      "outputs": [
        {
          "name": "",
          "type": "bool",
          "internalType": "bool"
        }
      ],
      "stateMutability": "view"
    },
    {
      "type": "function",
      "name": "isAgeBelowOrEqual",
      "inputs": [
        {
          "name": "maxAge",
          "type": "uint8",
          "internalType": "uint8"
        },
        {
          "name": "params",
          "type": "tuple",
          "internalType": "struct ProofVerificationParams",
          "components": [
            {
              "name": "vkeyHash",
              "type": "bytes32",
              "internalType": "bytes32"
            },
            {
              "name": "proof",
              "type": "bytes",
              "internalType": "bytes"
            },
            {
              "name": "publicInputs",
              "type": "bytes32[]",
              "internalType": "bytes32[]"
            },
            {
              "name": "committedInputs",
              "type": "bytes",
              "internalType": "bytes"
            },
            {
              "name": "committedInputCounts",
              "type": "uint256[]",
              "internalType": "uint256[]"
            },
            {
              "name": "validityPeriodInSeconds",
              "type": "uint256",
              "internalType": "uint256"
            },
            {
              "name": "domain",
              "type": "string",
              "internalType": "string"
            },
            {
              "name": "scope",
              "type": "string",
              "internalType": "string"
            },
            {
              "name": "devMode",
              "type": "bool",
              "internalType": "bool"
            }
          ]
        }
      ],
      "outputs": [
        {
          "name": "",
          "type": "bool",
          "internalType": "bool"
        }
      ],
      "stateMutability": "view"
    },
    {
      "type": "function",
      "name": "isAgeBetween",
      "inputs": [
        {
          "name": "minAge",
          "type": "uint8",
          "internalType": "uint8"
        },
        {
          "name": "maxAge",
          "type": "uint8",
          "internalType": "uint8"
        },
        {
          "name": "params",
          "type": "tuple",
          "internalType": "struct ProofVerificationParams",
          "components": [
            {
              "name": "vkeyHash",
              "type": "bytes32",
              "internalType": "bytes32"
            },
            {
              "name": "proof",
              "type": "bytes",
              "internalType": "bytes"
            },
            {
              "name": "publicInputs",
              "type": "bytes32[]",
              "internalType": "bytes32[]"
            },
            {
              "name": "committedInputs",
              "type": "bytes",
              "internalType": "bytes"
            },
            {
              "name": "committedInputCounts",
              "type": "uint256[]",
              "internalType": "uint256[]"
            },
            {
              "name": "validityPeriodInSeconds",
              "type": "uint256",
              "internalType": "uint256"
            },
            {
              "name": "domain",
              "type": "string",
              "internalType": "string"
            },
            {
              "name": "scope",
              "type": "string",
              "internalType": "string"
            },
            {
              "name": "devMode",
              "type": "bool",
              "internalType": "bool"
            }
          ]
        }
      ],
      "outputs": [
        {
          "name": "",
          "type": "bool",
          "internalType": "bool"
        }
      ],
      "stateMutability": "view"
    },
    {
      "type": "function",
      "name": "isAgeEqual",
      "inputs": [
        {
          "name": "age",
          "type": "uint8",
          "internalType": "uint8"
        },
        {
          "name": "params",
          "type": "tuple",
          "internalType": "struct ProofVerificationParams",
          "components": [
            {
              "name": "vkeyHash",
              "type": "bytes32",
              "internalType": "bytes32"
            },
            {
              "name": "proof",
              "type": "bytes",
              "internalType": "bytes"
            },
            {
              "name": "publicInputs",
              "type": "bytes32[]",
              "internalType": "bytes32[]"
            },
            {
              "name": "committedInputs",
              "type": "bytes",
              "internalType": "bytes"
            },
            {
              "name": "committedInputCounts",
              "type": "uint256[]",
              "internalType": "uint256[]"
            },
            {
              "name": "validityPeriodInSeconds",
              "type": "uint256",
              "internalType": "uint256"
            },
            {
              "name": "domain",
              "type": "string",
              "internalType": "string"
            },
            {
              "name": "scope",
              "type": "string",
              "internalType": "string"
            },
            {
              "name": "devMode",
              "type": "bool",
              "internalType": "bool"
            }
          ]
        }
      ],
      "outputs": [
        {
          "name": "",
          "type": "bool",
          "internalType": "bool"
        }
      ],
      "stateMutability": "view"
    },
    {
      "type": "function",
      "name": "isBirthdateAfter",
      "inputs": [
        {
          "name": "minDate",
          "type": "uint256",
          "internalType": "uint256"
        },
        {
          "name": "params",
          "type": "tuple",
          "internalType": "struct ProofVerificationParams",
          "components": [
            {
              "name": "vkeyHash",
              "type": "bytes32",
              "internalType": "bytes32"
            },
            {
              "name": "proof",
              "type": "bytes",
              "internalType": "bytes"
            },
            {
              "name": "publicInputs",
              "type": "bytes32[]",
              "internalType": "bytes32[]"
            },
            {
              "name": "committedInputs",
              "type": "bytes",
              "internalType": "bytes"
            },
            {
              "name": "committedInputCounts",
              "type": "uint256[]",
              "internalType": "uint256[]"
            },
            {
              "name": "validityPeriodInSeconds",
              "type": "uint256",
              "internalType": "uint256"
            },
            {
              "name": "domain",
              "type": "string",
              "internalType": "string"
            },
            {
              "name": "scope",
              "type": "string",
              "internalType": "string"
            },
            {
              "name": "devMode",
              "type": "bool",
              "internalType": "bool"
            }
          ]
        }
      ],
      "outputs": [
        {
          "name": "",
          "type": "bool",
          "internalType": "bool"
        }
      ],
      "stateMutability": "view"
    },
    {
      "type": "function",
      "name": "isBirthdateAfterOrEqual",
      "inputs": [
        {
          "name": "minDate",
          "type": "uint256",
          "internalType": "uint256"
        },
        {
          "name": "params",
          "type": "tuple",
          "internalType": "struct ProofVerificationParams",
          "components": [
            {
              "name": "vkeyHash",
              "type": "bytes32",
              "internalType": "bytes32"
            },
            {
              "name": "proof",
              "type": "bytes",
              "internalType": "bytes"
            },
            {
              "name": "publicInputs",
              "type": "bytes32[]",
              "internalType": "bytes32[]"
            },
            {
              "name": "committedInputs",
              "type": "bytes",
              "internalType": "bytes"
            },
            {
              "name": "committedInputCounts",
              "type": "uint256[]",
              "internalType": "uint256[]"
            },
            {
              "name": "validityPeriodInSeconds",
              "type": "uint256",
              "internalType": "uint256"
            },
            {
              "name": "domain",
              "type": "string",
              "internalType": "string"
            },
            {
              "name": "scope",
              "type": "string",
              "internalType": "string"
            },
            {
              "name": "devMode",
              "type": "bool",
              "internalType": "bool"
            }
          ]
        }
      ],
      "outputs": [
        {
          "name": "",
          "type": "bool",
          "internalType": "bool"
        }
      ],
      "stateMutability": "view"
    },
    {
      "type": "function",
      "name": "isBirthdateBefore",
      "inputs": [
        {
          "name": "maxDate",
          "type": "uint256",
          "internalType": "uint256"
        },
        {
          "name": "params",
          "type": "tuple",
          "internalType": "struct ProofVerificationParams",
          "components": [
            {
              "name": "vkeyHash",
              "type": "bytes32",
              "internalType": "bytes32"
            },
            {
              "name": "proof",
              "type": "bytes",
              "internalType": "bytes"
            },
            {
              "name": "publicInputs",
              "type": "bytes32[]",
              "internalType": "bytes32[]"
            },
            {
              "name": "committedInputs",
              "type": "bytes",
              "internalType": "bytes"
            },
            {
              "name": "committedInputCounts",
              "type": "uint256[]",
              "internalType": "uint256[]"
            },
            {
              "name": "validityPeriodInSeconds",
              "type": "uint256",
              "internalType": "uint256"
            },
            {
              "name": "domain",
              "type": "string",
              "internalType": "string"
            },
            {
              "name": "scope",
              "type": "string",
              "internalType": "string"
            },
            {
              "name": "devMode",
              "type": "bool",
              "internalType": "bool"
            }
          ]
        }
      ],
      "outputs": [
        {
          "name": "",
          "type": "bool",
          "internalType": "bool"
        }
      ],
      "stateMutability": "view"
    },
    {
      "type": "function",
      "name": "isBirthdateBeforeOrEqual",
      "inputs": [
        {
          "name": "maxDate",
          "type": "uint256",
          "internalType": "uint256"
        },
        {
          "name": "params",
          "type": "tuple",
          "internalType": "struct ProofVerificationParams",
          "components": [
            {
              "name": "vkeyHash",
              "type": "bytes32",
              "internalType": "bytes32"
            },
            {
              "name": "proof",
              "type": "bytes",
              "internalType": "bytes"
            },
            {
              "name": "publicInputs",
              "type": "bytes32[]",
              "internalType": "bytes32[]"
            },
            {
              "name": "committedInputs",
              "type": "bytes",
              "internalType": "bytes"
            },
            {
              "name": "committedInputCounts",
              "type": "uint256[]",
              "internalType": "uint256[]"
            },
            {
              "name": "validityPeriodInSeconds",
              "type": "uint256",
              "internalType": "uint256"
            },
            {
              "name": "domain",
              "type": "string",
              "internalType": "string"
            },
            {
              "name": "scope",
              "type": "string",
              "internalType": "string"
            },
            {
              "name": "devMode",
              "type": "bool",
              "internalType": "bool"
            }
          ]
        }
      ],
      "outputs": [
        {
          "name": "",
          "type": "bool",
          "internalType": "bool"
        }
      ],
      "stateMutability": "view"
    },
    {
      "type": "function",
      "name": "isBirthdateBetween",
      "inputs": [
        {
          "name": "minDate",
          "type": "uint256",
          "internalType": "uint256"
        },
        {
          "name": "maxDate",
          "type": "uint256",
          "internalType": "uint256"
        },
        {
          "name": "params",
          "type": "tuple",
          "internalType": "struct ProofVerificationParams",
          "components": [
            {
              "name": "vkeyHash",
              "type": "bytes32",
              "internalType": "bytes32"
            },
            {
              "name": "proof",
              "type": "bytes",
              "internalType": "bytes"
            },
            {
              "name": "publicInputs",
              "type": "bytes32[]",
              "internalType": "bytes32[]"
            },
            {
              "name": "committedInputs",
              "type": "bytes",
              "internalType": "bytes"
            },
            {
              "name": "committedInputCounts",
              "type": "uint256[]",
              "internalType": "uint256[]"
            },
            {
              "name": "validityPeriodInSeconds",
              "type": "uint256",
              "internalType": "uint256"
            },
            {
              "name": "domain",
              "type": "string",
              "internalType": "string"
            },
            {
              "name": "scope",
              "type": "string",
              "internalType": "string"
            },
            {
              "name": "devMode",
              "type": "bool",
              "internalType": "bool"
            }
          ]
        }
      ],
      "outputs": [
        {
          "name": "",
          "type": "bool",
          "internalType": "bool"
        }
      ],
      "stateMutability": "view"
    },
    {
      "type": "function",
      "name": "isBirthdateEqual",
      "inputs": [
        {
          "name": "date",
          "type": "uint256",
          "internalType": "uint256"
        },
        {
          "name": "params",
          "type": "tuple",
          "internalType": "struct ProofVerificationParams",
          "components": [
            {
              "name": "vkeyHash",
              "type": "bytes32",
              "internalType": "bytes32"
            },
            {
              "name": "proof",
              "type": "bytes",
              "internalType": "bytes"
            },
            {
              "name": "publicInputs",
              "type": "bytes32[]",
              "internalType": "bytes32[]"
            },
            {
              "name": "committedInputs",
              "type": "bytes",
              "internalType": "bytes"
            },
            {
              "name": "committedInputCounts",
              "type": "uint256[]",
              "internalType": "uint256[]"
            },
            {
              "name": "validityPeriodInSeconds",
              "type": "uint256",
              "internalType": "uint256"
            },
            {
              "name": "domain",
              "type": "string",
              "internalType": "string"
            },
            {
              "name": "scope",
              "type": "string",
              "internalType": "string"
            },
            {
              "name": "devMode",
              "type": "bool",
              "internalType": "bool"
            }
          ]
        }
      ],
      "outputs": [
        {
          "name": "",
          "type": "bool",
          "internalType": "bool"
        }
      ],
      "stateMutability": "view"
    },
    {
      "type": "function",
      "name": "isExpiryDateAfter",
      "inputs": [
        {
          "name": "minDate",
          "type": "uint256",
          "internalType": "uint256"
        },
        {
          "name": "params",
          "type": "tuple",
          "internalType": "struct ProofVerificationParams",
          "components": [
            {
              "name": "vkeyHash",
              "type": "bytes32",
              "internalType": "bytes32"
            },
            {
              "name": "proof",
              "type": "bytes",
              "internalType": "bytes"
            },
            {
              "name": "publicInputs",
              "type": "bytes32[]",
              "internalType": "bytes32[]"
            },
            {
              "name": "committedInputs",
              "type": "bytes",
              "internalType": "bytes"
            },
            {
              "name": "committedInputCounts",
              "type": "uint256[]",
              "internalType": "uint256[]"
            },
            {
              "name": "validityPeriodInSeconds",
              "type": "uint256",
              "internalType": "uint256"
            },
            {
              "name": "domain",
              "type": "string",
              "internalType": "string"
            },
            {
              "name": "scope",
              "type": "string",
              "internalType": "string"
            },
            {
              "name": "devMode",
              "type": "bool",
              "internalType": "bool"
            }
          ]
        }
      ],
      "outputs": [
        {
          "name": "",
          "type": "bool",
          "internalType": "bool"
        }
      ],
      "stateMutability": "view"
    },
    {
      "type": "function",
      "name": "isExpiryDateAfterOrEqual",
      "inputs": [
        {
          "name": "minDate",
          "type": "uint256",
          "internalType": "uint256"
        },
        {
          "name": "params",
          "type": "tuple",
          "internalType": "struct ProofVerificationParams",
          "components": [
            {
              "name": "vkeyHash",
              "type": "bytes32",
              "internalType": "bytes32"
            },
            {
              "name": "proof",
              "type": "bytes",
              "internalType": "bytes"
            },
            {
              "name": "publicInputs",
              "type": "bytes32[]",
              "internalType": "bytes32[]"
            },
            {
              "name": "committedInputs",
              "type": "bytes",
              "internalType": "bytes"
            },
            {
              "name": "committedInputCounts",
              "type": "uint256[]",
              "internalType": "uint256[]"
            },
            {
              "name": "validityPeriodInSeconds",
              "type": "uint256",
              "internalType": "uint256"
            },
            {
              "name": "domain",
              "type": "string",
              "internalType": "string"
            },
            {
              "name": "scope",
              "type": "string",
              "internalType": "string"
            },
            {
              "name": "devMode",
              "type": "bool",
              "internalType": "bool"
            }
          ]
        }
      ],
      "outputs": [
        {
          "name": "",
          "type": "bool",
          "internalType": "bool"
        }
      ],
      "stateMutability": "view"
    },
    {
      "type": "function",
      "name": "isExpiryDateBefore",
      "inputs": [
        {
          "name": "maxDate",
          "type": "uint256",
          "internalType": "uint256"
        },
        {
          "name": "params",
          "type": "tuple",
          "internalType": "struct ProofVerificationParams",
          "components": [
            {
              "name": "vkeyHash",
              "type": "bytes32",
              "internalType": "bytes32"
            },
            {
              "name": "proof",
              "type": "bytes",
              "internalType": "bytes"
            },
            {
              "name": "publicInputs",
              "type": "bytes32[]",
              "internalType": "bytes32[]"
            },
            {
              "name": "committedInputs",
              "type": "bytes",
              "internalType": "bytes"
            },
            {
              "name": "committedInputCounts",
              "type": "uint256[]",
              "internalType": "uint256[]"
            },
            {
              "name": "validityPeriodInSeconds",
              "type": "uint256",
              "internalType": "uint256"
            },
            {
              "name": "domain",
              "type": "string",
              "internalType": "string"
            },
            {
              "name": "scope",
              "type": "string",
              "internalType": "string"
            },
            {
              "name": "devMode",
              "type": "bool",
              "internalType": "bool"
            }
          ]
        }
      ],
      "outputs": [
        {
          "name": "",
          "type": "bool",
          "internalType": "bool"
        }
      ],
      "stateMutability": "view"
    },
    {
      "type": "function",
      "name": "isExpiryDateBeforeOrEqual",
      "inputs": [
        {
          "name": "maxDate",
          "type": "uint256",
          "internalType": "uint256"
        },
        {
          "name": "params",
          "type": "tuple",
          "internalType": "struct ProofVerificationParams",
          "components": [
            {
              "name": "vkeyHash",
              "type": "bytes32",
              "internalType": "bytes32"
            },
            {
              "name": "proof",
              "type": "bytes",
              "internalType": "bytes"
            },
            {
              "name": "publicInputs",
              "type": "bytes32[]",
              "internalType": "bytes32[]"
            },
            {
              "name": "committedInputs",
              "type": "bytes",
              "internalType": "bytes"
            },
            {
              "name": "committedInputCounts",
              "type": "uint256[]",
              "internalType": "uint256[]"
            },
            {
              "name": "validityPeriodInSeconds",
              "type": "uint256",
              "internalType": "uint256"
            },
            {
              "name": "domain",
              "type": "string",
              "internalType": "string"
            },
            {
              "name": "scope",
              "type": "string",
              "internalType": "string"
            },
            {
              "name": "devMode",
              "type": "bool",
              "internalType": "bool"
            }
          ]
        }
      ],
      "outputs": [
        {
          "name": "",
          "type": "bool",
          "internalType": "bool"
        }
      ],
      "stateMutability": "view"
    },
    {
      "type": "function",
      "name": "isExpiryDateBetween",
      "inputs": [
        {
          "name": "minDate",
          "type": "uint256",
          "internalType": "uint256"
        },
        {
          "name": "maxDate",
          "type": "uint256",
          "internalType": "uint256"
        },
        {
          "name": "params",
          "type": "tuple",
          "internalType": "struct ProofVerificationParams",
          "components": [
            {
              "name": "vkeyHash",
              "type": "bytes32",
              "internalType": "bytes32"
            },
            {
              "name": "proof",
              "type": "bytes",
              "internalType": "bytes"
            },
            {
              "name": "publicInputs",
              "type": "bytes32[]",
              "internalType": "bytes32[]"
            },
            {
              "name": "committedInputs",
              "type": "bytes",
              "internalType": "bytes"
            },
            {
              "name": "committedInputCounts",
              "type": "uint256[]",
              "internalType": "uint256[]"
            },
            {
              "name": "validityPeriodInSeconds",
              "type": "uint256",
              "internalType": "uint256"
            },
            {
              "name": "domain",
              "type": "string",
              "internalType": "string"
            },
            {
              "name": "scope",
              "type": "string",
              "internalType": "string"
            },
            {
              "name": "devMode",
              "type": "bool",
              "internalType": "bool"
            }
          ]
        }
      ],
      "outputs": [
        {
          "name": "",
          "type": "bool",
          "internalType": "bool"
        }
      ],
      "stateMutability": "view"
    },
    {
      "type": "function",
      "name": "isExpiryDateEqual",
      "inputs": [
        {
          "name": "date",
          "type": "uint256",
          "internalType": "uint256"
        },
        {
          "name": "params",
          "type": "tuple",
          "internalType": "struct ProofVerificationParams",
          "components": [
            {
              "name": "vkeyHash",
              "type": "bytes32",
              "internalType": "bytes32"
            },
            {
              "name": "proof",
              "type": "bytes",
              "internalType": "bytes"
            },
            {
              "name": "publicInputs",
              "type": "bytes32[]",
              "internalType": "bytes32[]"
            },
            {
              "name": "committedInputs",
              "type": "bytes",
              "internalType": "bytes"
            },
            {
              "name": "committedInputCounts",
              "type": "uint256[]",
              "internalType": "uint256[]"
            },
            {
              "name": "validityPeriodInSeconds",
              "type": "uint256",
              "internalType": "uint256"
            },
            {
              "name": "domain",
              "type": "string",
              "internalType": "string"
            },
            {
              "name": "scope",
              "type": "string",
              "internalType": "string"
            },
            {
              "name": "devMode",
              "type": "bool",
              "internalType": "bool"
            }
          ]
        }
      ],
      "outputs": [
        {
          "name": "",
          "type": "bool",
          "internalType": "bool"
        }
      ],
      "stateMutability": "view"
    },
    {
      "type": "function",
      "name": "isFaceMatchVerified",
      "inputs": [
        {
          "name": "faceMatchMode",
          "type": "uint8",
          "internalType": "enum FaceMatchMode"
        },
        {
          "name": "params",
          "type": "tuple",
          "internalType": "struct ProofVerificationParams",
          "components": [
            {
              "name": "vkeyHash",
              "type": "bytes32",
              "internalType": "bytes32"
            },
            {
              "name": "proof",
              "type": "bytes",
              "internalType": "bytes"
            },
            {
              "name": "publicInputs",
              "type": "bytes32[]",
              "internalType": "bytes32[]"
            },
            {
              "name": "committedInputs",
              "type": "bytes",
              "internalType": "bytes"
            },
            {
              "name": "committedInputCounts",
              "type": "uint256[]",
              "internalType": "uint256[]"
            },
            {
              "name": "validityPeriodInSeconds",
              "type": "uint256",
              "internalType": "uint256"
            },
            {
              "name": "domain",
              "type": "string",
              "internalType": "string"
            },
            {
              "name": "scope",
              "type": "string",
              "internalType": "string"
            },
            {
              "name": "devMode",
              "type": "bool",
              "internalType": "bool"
            }
          ]
        }
      ],
      "outputs": [
        {
          "name": "",
          "type": "bool",
          "internalType": "bool"
        }
      ],
      "stateMutability": "pure"
    },
    {
      "type": "function",
      "name": "isIssuingCountryIn",
      "inputs": [
        {
          "name": "countryList",
          "type": "string[]",
          "internalType": "string[]"
        },
        {
          "name": "params",
          "type": "tuple",
          "internalType": "struct ProofVerificationParams",
          "components": [
            {
              "name": "vkeyHash",
              "type": "bytes32",
              "internalType": "bytes32"
            },
            {
              "name": "proof",
              "type": "bytes",
              "internalType": "bytes"
            },
            {
              "name": "publicInputs",
              "type": "bytes32[]",
              "internalType": "bytes32[]"
            },
            {
              "name": "committedInputs",
              "type": "bytes",
              "internalType": "bytes"
            },
            {
              "name": "committedInputCounts",
              "type": "uint256[]",
              "internalType": "uint256[]"
            },
            {
              "name": "validityPeriodInSeconds",
              "type": "uint256",
              "internalType": "uint256"
            },
            {
              "name": "domain",
              "type": "string",
              "internalType": "string"
            },
            {
              "name": "scope",
              "type": "string",
              "internalType": "string"
            },
            {
              "name": "devMode",
              "type": "bool",
              "internalType": "bool"
            }
          ]
        }
      ],
      "outputs": [
        {
          "name": "",
          "type": "bool",
          "internalType": "bool"
        }
      ],
      "stateMutability": "pure"
    },
    {
      "type": "function",
      "name": "isIssuingCountryOut",
      "inputs": [
        {
          "name": "countryList",
          "type": "string[]",
          "internalType": "string[]"
        },
        {
          "name": "params",
          "type": "tuple",
          "internalType": "struct ProofVerificationParams",
          "components": [
            {
              "name": "vkeyHash",
              "type": "bytes32",
              "internalType": "bytes32"
            },
            {
              "name": "proof",
              "type": "bytes",
              "internalType": "bytes"
            },
            {
              "name": "publicInputs",
              "type": "bytes32[]",
              "internalType": "bytes32[]"
            },
            {
              "name": "committedInputs",
              "type": "bytes",
              "internalType": "bytes"
            },
            {
              "name": "committedInputCounts",
              "type": "uint256[]",
              "internalType": "uint256[]"
            },
            {
              "name": "validityPeriodInSeconds",
              "type": "uint256",
              "internalType": "uint256"
            },
            {
              "name": "domain",
              "type": "string",
              "internalType": "string"
            },
            {
              "name": "scope",
              "type": "string",
              "internalType": "string"
            },
            {
              "name": "devMode",
              "type": "bool",
              "internalType": "bool"
            }
          ]
        }
      ],
      "outputs": [
        {
          "name": "",
          "type": "bool",
          "internalType": "bool"
        }
      ],
      "stateMutability": "pure"
    },
    {
      "type": "function",
      "name": "isNationalityIn",
      "inputs": [
        {
          "name": "countryList",
          "type": "string[]",
          "internalType": "string[]"
        },
        {
          "name": "params",
          "type": "tuple",
          "internalType": "struct ProofVerificationParams",
          "components": [
            {
              "name": "vkeyHash",
              "type": "bytes32",
              "internalType": "bytes32"
            },
            {
              "name": "proof",
              "type": "bytes",
              "internalType": "bytes"
            },
            {
              "name": "publicInputs",
              "type": "bytes32[]",
              "internalType": "bytes32[]"
            },
            {
              "name": "committedInputs",
              "type": "bytes",
              "internalType": "bytes"
            },
            {
              "name": "committedInputCounts",
              "type": "uint256[]",
              "internalType": "uint256[]"
            },
            {
              "name": "validityPeriodInSeconds",
              "type": "uint256",
              "internalType": "uint256"
            },
            {
              "name": "domain",
              "type": "string",
              "internalType": "string"
            },
            {
              "name": "scope",
              "type": "string",
              "internalType": "string"
            },
            {
              "name": "devMode",
              "type": "bool",
              "internalType": "bool"
            }
          ]
        }
      ],
      "outputs": [
        {
          "name": "",
          "type": "bool",
          "internalType": "bool"
        }
      ],
      "stateMutability": "pure"
    },
    {
      "type": "function",
      "name": "isNationalityOut",
      "inputs": [
        {
          "name": "countryList",
          "type": "string[]",
          "internalType": "string[]"
        },
        {
          "name": "params",
          "type": "tuple",
          "internalType": "struct ProofVerificationParams",
          "components": [
            {
              "name": "vkeyHash",
              "type": "bytes32",
              "internalType": "bytes32"
            },
            {
              "name": "proof",
              "type": "bytes",
              "internalType": "bytes"
            },
            {
              "name": "publicInputs",
              "type": "bytes32[]",
              "internalType": "bytes32[]"
            },
            {
              "name": "committedInputs",
              "type": "bytes",
              "internalType": "bytes"
            },
            {
              "name": "committedInputCounts",
              "type": "uint256[]",
              "internalType": "uint256[]"
            },
            {
              "name": "validityPeriodInSeconds",
              "type": "uint256",
              "internalType": "uint256"
            },
            {
              "name": "domain",
              "type": "string",
              "internalType": "string"
            },
            {
              "name": "scope",
              "type": "string",
              "internalType": "string"
            },
            {
              "name": "devMode",
              "type": "bool",
              "internalType": "bool"
            }
          ]
        }
      ],
      "outputs": [
        {
          "name": "",
          "type": "bool",
          "internalType": "bool"
        }
      ],
      "stateMutability": "pure"
    },
    {
      "type": "function",
      "name": "paused",
      "inputs": [],
      "outputs": [
        {
          "name": "",
          "type": "bool",
          "internalType": "bool"
        }
      ],
      "stateMutability": "view"
    },
    {
      "type": "function",
      "name": "removeVerifiers",
      "inputs": [
        {
          "name": "vkeyHashes",
          "type": "bytes32[]",
          "internalType": "bytes32[]"
        }
      ],
      "outputs": [],
      "stateMutability": "nonpayable"
    },
    {
      "type": "function",
      "name": "rootRegistry",
      "inputs": [],
      "outputs": [
        {
          "name": "",
          "type": "address",
          "internalType": "contract IRootRegistry"
        }
      ],
      "stateMutability": "view"
    },
    {
      "type": "function",
      "name": "setPaused",
      "inputs": [
        {
          "name": "_paused",
          "type": "bool",
          "internalType": "bool"
        }
      ],
      "outputs": [],
      "stateMutability": "nonpayable"
    },
    {
      "type": "function",
      "name": "transferAdmin",
      "inputs": [
        {
          "name": "newAdmin",
          "type": "address",
          "internalType": "address"
        }
      ],
      "outputs": [],
      "stateMutability": "nonpayable"
    },
    {
      "type": "function",
      "name": "updateRootRegistry",
      "inputs": [
        {
          "name": "_rootRegistry",
          "type": "address",
          "internalType": "address"
        }
      ],
      "outputs": [],
      "stateMutability": "nonpayable"
    },
    {
      "type": "function",
      "name": "verifyProof",
      "inputs": [
        {
          "name": "params",
          "type": "tuple",
          "internalType": "struct ProofVerificationParams",
          "components": [
            {
              "name": "vkeyHash",
              "type": "bytes32",
              "internalType": "bytes32"
            },
            {
              "name": "proof",
              "type": "bytes",
              "internalType": "bytes"
            },
            {
              "name": "publicInputs",
              "type": "bytes32[]",
              "internalType": "bytes32[]"
            },
            {
              "name": "committedInputs",
              "type": "bytes",
              "internalType": "bytes"
            },
            {
              "name": "committedInputCounts",
              "type": "uint256[]",
              "internalType": "uint256[]"
            },
            {
              "name": "validityPeriodInSeconds",
              "type": "uint256",
              "internalType": "uint256"
            },
            {
              "name": "domain",
              "type": "string",
              "internalType": "string"
            },
            {
              "name": "scope",
              "type": "string",
              "internalType": "string"
            },
            {
              "name": "devMode",
              "type": "bool",
              "internalType": "bool"
            }
          ]
        }
      ],
      "outputs": [
        {
          "name": "isValid",
          "type": "bool",
          "internalType": "bool"
        },
        {
          "name": "uniqueIdentifier",
          "type": "bytes32",
          "internalType": "bytes32"
        }
      ],
      "stateMutability": "view"
    },
    {
      "type": "function",
      "name": "verifyScopes",
      "inputs": [
        {
          "name": "publicInputs",
          "type": "bytes32[]",
          "internalType": "bytes32[]"
        },
        {
          "name": "domain",
          "type": "string",
          "internalType": "string"
        },
        {
          "name": "scope",
          "type": "string",
          "internalType": "string"
        }
      ],
      "outputs": [
        {
          "name": "",
          "type": "bool",
          "internalType": "bool"
        }
      ],
      "stateMutability": "pure"
    },
    {
      "type": "function",
      "name": "vkeyHashToVerifier",
      "inputs": [
        {
          "name": "",
          "type": "bytes32",
          "internalType": "bytes32"
        }
      ],
      "outputs": [
        {
          "name": "",
          "type": "address",
          "internalType": "address"
        }
      ],
      "stateMutability": "view"
    },
    {
      "type": "event",
      "name": "AdminUpdated",
      "inputs": [
        {
          "name": "oldAdmin",
          "type": "address",
          "indexed": true,
          "internalType": "address"
        },
        {
          "name": "newAdmin",
          "type": "address",
          "indexed": true,
          "internalType": "address"
        }
      ],
      "anonymous": false
    },
    {
      "type": "event",
      "name": "CertificateRegistryRootAdded",
      "inputs": [
        {
          "name": "certificateRegistryRoot",
          "type": "bytes32",
          "indexed": true,
          "internalType": "bytes32"
        }
      ],
      "anonymous": false
    },
    {
      "type": "event",
      "name": "CertificateRegistryRootRemoved",
      "inputs": [
        {
          "name": "certificateRegistryRoot",
          "type": "bytes32",
          "indexed": true,
          "internalType": "bytes32"
        }
      ],
      "anonymous": false
    },
    {
      "type": "event",
      "name": "PausedStatusChanged",
      "inputs": [
        {
          "name": "paused",
          "type": "bool",
          "indexed": false,
          "internalType": "bool"
        }
      ],
      "anonymous": false
    },
    {
      "type": "event",
      "name": "SanctionsTreesRootUpdates",
      "inputs": [
        {
          "name": "_sanctionsTreesRoot",
          "type": "bytes32",
          "indexed": true,
          "internalType": "bytes32"
        }
      ],
      "anonymous": false
    },
    {
      "type": "event",
      "name": "VerifierAdded",
      "inputs": [
        {
          "name": "vkeyHash",
          "type": "bytes32",
          "indexed": true,
          "internalType": "bytes32"
        },
        {
          "name": "verifier",
          "type": "address",
          "indexed": true,
          "internalType": "address"
        }
      ],
      "anonymous": false
    },
    {
      "type": "event",
      "name": "VerifierRemoved",
      "inputs": [
        {
          "name": "vkeyHash",
          "type": "bytes32",
          "indexed": true,
          "internalType": "bytes32"
        }
      ],
      "anonymous": false
    },
    {
      "type": "event",
      "name": "ZKPassportVerifierDeployed",
      "inputs": [
        {
          "name": "admin",
          "type": "address",
          "indexed": true,
          "internalType": "address"
        },
        {
          "name": "timestamp",
          "type": "uint256",
          "indexed": false,
          "internalType": "uint256"
        }
      ],
      "anonymous": false
    }
  ],
  "bytecode": {
    "object": "0x608060405234801561000f575f5ffd5b50604051613ab3380380613ab383398101604081905261002e916100f6565b6001600160a01b0381166100945760405162461bcd60e51b8152602060048201526024808201527f526f6f742072656769737472792063616e6e6f74206265207a65726f206164646044820152637265737360e01b606482015260840160405180910390fd5b5f8054336001600160a01b03199182168117909255600280549091166001600160a01b0384161790556040514281527ff29b53747ae7121d0958d490ad3d5cf6767119b0fdbd8389d918de3a12cf5a299060200160405180910390a250610123565b5f60208284031215610106575f5ffd5b81516001600160a01b038116811461011c575f5ffd5b9392505050565b613983806101305f395ff3fe608060405234801561000f575f5ffd5b506004361061023f575f3560e01c80638163f23111610135578063c4560786116100b4578063e420e35411610079578063e420e3541461053e578063e718bc3214610551578063ec46f77414610564578063f851a44014610577578063f87e19b114610589575f5ffd5b8063c4560786146104c8578063cfd9464a146104db578063d3f6ffff146104ee578063d7bf616a14610501578063deb7c0591461052b575f5ffd5b8063a88f1cef116100fa578063a88f1cef14610469578063aa1346ea1461047c578063b96b161c1461048f578063bf73c26c146104a2578063c0940ebd146104b5575f5ffd5b80638163f231146103dd578063847755e31461041d5780638d6937b814610430578063921076c714610443578063a6df2c0114610456575f5ffd5b80634c127428116101c1578063652ba33d11610186578063652ba33d14610394578063653cfd811461039c5780636c40d5d6146103af578063704876d6146103b757806375829def146103ca575f5ffd5b80634c1274281461032857806354dbe4d11461033b57806359545f451461034e5780635c975abb1461036e57806362067c8214610381575f5ffd5b80632e27242c116102075780632e27242c146102c657806337889655146102d95780633a86bd3d146102ec57806341a0e2c2146102ff57806346bd0a1614610315575f5ffd5b806304951b86146102435780630b90581b1461026b57806316c38b3c1461027e57806318677f2a146102935780631e26a9dc146102a6575b5f5ffd5b610256610251366004612987565b61059c565b60405190151581526020015b60405180910390f35b610256610279366004612987565b6105be565b61029161028c3660046129d7565b6105cc565b005b6102916102a1366004612a06565b610655565b6102b96102b4366004612a21565b610702565b6040516102629190612a9d565b6102566102d4366004612ba1565b610865565b6102566102e7366004612be5565b6109b7565b6102566102fa366004612cb6565b6109cc565b610307600181565b604051908152602001610262565b610256610323366004612dbe565b6109d9565b610256610336366004612987565b6109f1565b610256610349366004612be5565b6109fe565b61036161035c366004612e09565b610b4f565b6040516102629190612e3a565b5f5461025690600160a01b900460ff1681565b61025661038f366004612e70565b610c95565b610307600381565b6102916103aa366004612e09565b610f06565b610307600281565b6102566103c5366004612987565b610fa8565b6102916103d8366004612a06565b610fb5565b6104056103eb366004612eb7565b60016020525f90815260409020546001600160a01b031681565b6040516001600160a01b039091168152602001610262565b61025661042b366004612f52565b611083565b61029161043e366004612fee565b61124b565b610256610451366004612987565b61130b565b61029161046436600461302c565b611324565b610256610477366004612987565b61144e565b61025661048a366004612be5565b611467565b600254610405906001600160a01b031681565b6102566104b0366004612be5565b6115b8565b6102566104c3366004612be5565b61161f565b6102566104d6366004612dbe565b61162b565b6102566104e9366004612987565b611639565b6102566104fc366004612987565b611647565b61051461050f366004612e09565b611660565b604080519215158352602083019190915201610262565b610256610539366004612987565b611bda565b61025661054c366004612cb6565b611be7565b61025661055f366004612987565b611bf4565b610256610572366004612cb6565b611c01565b5f54610405906001600160a01b031681565b610256610597366004612cb6565b611c0e565b5f6105b56105ad84620151806130aa565b600284611c1b565b90505b92915050565b5f6105b58384600285611e76565b5f546001600160a01b031633146105fe5760405162461bcd60e51b81526004016105f5906130bd565b60405180910390fd5b5f8054821515600160a01b0260ff60a01b199091161790556040517f9a506b30e47f3823b09f67e4c0dfa5c3d8023b71825b7ceaa97677129128c9c59061064a90831515815260200190565b60405180910390a150565b5f546001600160a01b0316331461067e5760405162461bcd60e51b81526004016105f5906130bd565b6001600160a01b0381166106e05760405162461bcd60e51b8152602060048201526024808201527f526f6f742072656769737472792063616e6e6f74206265207a65726f206164646044820152637265737360e01b60648201526084016105f5565b600280546001600160a01b0319166001600160a01b0392909216919091179055565b61074a60405180610100016040528060608152602001606081526020016060815260200160608152602001606081526020016060815260200160608152602001606081525090565b5f73__$144f4fe859debe4776cdef2b99f7b97a42$__63ddf3eec961077260608701876130f4565b61077f6080890189613136565b6040518563ffffffff1660e01b815260040161079e94939291906131d3565b5f60405180830381865af41580156107b8573d5f5f3e3d5ffd5b505050506040513d5f823e601f3d908101601f191682016040526107df9190810190613248565b6040516301e9bf5760e11b815290925073__$144f4fe859debe4776cdef2b99f7b97a42$__91506303d37eae9061081c90849087906004016132a1565b5f60405180830381865af4158015610836573d5f5f3e3d5ffd5b505050506040513d5f823e601f3d908101601f1916820160405261085d91908101906132c4565b949350505050565b5f8080808073__$144f4fe859debe4776cdef2b99f7b97a42$__63c802bad161089160608901896130f4565b61089e60808b018b613136565b6040518563ffffffff1660e01b81526004016108bd94939291906131d3565b608060405180830381865af41580156108d8573d5f5f3e3d5ffd5b505050506040513d601f19601f820116820180604052508101906108fc9190613455565b929650909450925090505f600184600181111561091b5761091b6134a1565b1490505f886002811115610931576109316134a1565b836002811115610943576109436134a1565b1490507f2532418a107c5306fa8308c22255792cf77e4a290cbce8a840a642a3e591340b86147f1fa73686cf510f8f85757b0602de0dd72a13e68ae2092462be8b72662e7f179b85148380156109965750825b801561099f5750815b80156109a85750805b9b9a5050505050505050505050565b5f6105b56109c68460016134b5565b836109fe565b5f6105b5836007846121b4565b5f6109e78484600385611e76565b90505b9392505050565b5f6105b583600384611c1b565b5f80808073__$144f4fe859debe4776cdef2b99f7b97a42$__63b2b37a4c610a2960608801886130f4565b610a3660808a018a613136565b6040518563ffffffff1660e01b8152600401610a5594939291906131d3565b606060405180830381865af4158015610a70573d5f5f3e3d5ffd5b505050506040513d601f19601f82011682018060405250810190610a9491906134ce565b925092509250610aa8838660a001356122de565b610ac45760405162461bcd60e51b81526004016105f59061350f565b60ff811615610b3d576040805162461bcd60e51b81526020600482015260248101919091527f5468652070726f6f6620757070657220626f756e64206d75737420626520302c60448201527f20706c65617365207573652069734167654265747765656e20696e737465616460648201526084016105f5565b5060ff85811691161491505092915050565b60408051606080820183525f8083526020830152918101919091525f73__$144f4fe859debe4776cdef2b99f7b97a42$__634601173c610b9260608601866130f4565b610b9f6080880188613136565b6040518563ffffffff1660e01b8152600401610bbe94939291906131d3565b5f60405180830381865af4158015610bd8573d5f5f3e3d5ffd5b505050506040513d5f823e601f3d908101601f19168201604052610bff9190810190613580565b604051630578c5d360e11b815290915073__$144f4fe859debe4776cdef2b99f7b97a42$__90630af18ba690610c399084906004016135b1565b5f60405180830381865af4158015610c53573d5f5f3e3d5ffd5b505050506040513d5f823e601f3d908101601f19168201604052610c7a91908101906135c3565b604085015260208401526001600160a01b0316825250919050565b5f80808073__$144f4fe859debe4776cdef2b99f7b97a42$__63b2b37a4c610cc060608801886130f4565b610ccd60808a018a613136565b6040518563ffffffff1660e01b8152600401610cec94939291906131d3565b606060405180830381865af4158015610d07573d5f5f3e3d5ffd5b505050506040513d601f19601f82011682018060405250810190610d2b91906134ce565b925092509250610d3f838660a001356122de565b610d5b5760405162461bcd60e51b81526004016105f59061350f565b8560ff168760ff161115610dc75760405162461bcd60e51b815260206004820152602d60248201527f4d696e20616765206d757374206265206c657373207468616e206f722065717560448201526c616c20746f206d61782061676560981b60648201526084016105f5565b8160ff165f03610e545760405162461bcd60e51b815260206004820152604c60248201527f5468652070726f6f66206c6f77657220626f756e64206d757374206265206e6f60448201527f6e2d7a65726f2c20706c656173652075736520697341676542656c6f774f724560648201526b1c5d585b081a5b9cdd19585960a21b608482015260a4016105f5565b8060ff165f03610ee15760405162461bcd60e51b815260206004820152604c60248201527f5468652070726f6f6620757070657220626f756e64206d757374206265206e6f60448201527f6e2d7a65726f2c20706c656173652075736520697341676541626f76654f724560648201526b1c5d585b081a5b9cdd19585960a21b608482015260a4016105f5565b8160ff168760ff16148015610efb57508060ff168660ff16145b979650505050505050565b5f73__$144f4fe859debe4776cdef2b99f7b97a42$__63fbd24457610f2e60608501856130f4565b610f3b6080870187613136565b6040518563ffffffff1660e01b8152600401610f5a94939291906131d3565b602060405180830381865af4158015610f75573d5f5f3e3d5ffd5b505050506040513d601f19601f82011682018060405250810190610f99919061360e565b9050610fa48161230b565b5050565b5f6105b583600284611c1b565b5f546001600160a01b03163314610fde5760405162461bcd60e51b81526004016105f5906130bd565b6001600160a01b0381166110345760405162461bcd60e51b815260206004820152601c60248201527f41646d696e2063616e6e6f74206265207a65726f20616464726573730000000060448201526064016105f5565b5f80546001600160a01b038381166001600160a01b0319831681178455604051919092169283917f101b8081ff3b56bbf45deb824d86a3b0fd38b7e3dd42421105cf8abe9106db0b9190a35050565b5f5f6110c386868080601f0160208091040260200160405190810160405280939291908181526020018383808284375f920191909152506123cc92505050565b61113d576008600287876040516020016110de929190613625565b60408051601f19818403018152908290526110f891613634565b602060405180830381855afa158015611113573d5f5f3e3d5ffd5b5050506040513d601f19601f82011682018060405250810190611136919061360e565b901c61113f565b5f5b90505f61118085858080601f0160208091040260200160405190810160405280939291908181526020018383808284375f920191909152506123cc92505050565b6111fa5760086002868660405160200161119b929190613625565b60408051601f19818403018152908290526111b591613634565b602060405180830381855afa1580156111d0573d5f5f3e3d5ffd5b5050506040513d601f19601f820116820180604052508101906111f3919061360e565b901c6111fc565b5f5b905081898960038181106112125761121261364a565b9050602002013514801561123e575080898960048181106112355761123561364a565b90506020020135145b9998505050505050505050565b5f546001600160a01b031633146112745760405162461bcd60e51b81526004016105f5906130bd565b5f5b818110156113065760015f8484848181106112935761129361364a565b602090810292909201358352508101919091526040015f2080546001600160a01b03191690558282828181106112cb576112cb61364a565b905060200201357f6fdcbcf8f91bc23f2c9dcfe8fe01d80d1b1afbbf207298e94c0171ccc587424c60405160405180910390a2600101611276565b505050565b5f6105b561131c620151808561365e565b6002846123d1565b5f546001600160a01b0316331461134d5760405162461bcd60e51b81526004016105f5906130bd565b5f5b83811015611447578282828181106113695761136961364a565b905060200201602081019061137e9190612a06565b60015f8787858181106113935761139361364a565b9050602002013581526020019081526020015f205f6101000a8154816001600160a01b0302191690836001600160a01b031602179055508282828181106113dc576113dc61364a565b90506020020160208101906113f19190612a06565b6001600160a01b031685858381811061140c5761140c61364a565b905060200201357f636107338a3eb46f1f60562462f3ec11393d35fbc965991aaade3b9e7d89c3f560405160405180910390a360010161134f565b5050505050565b5f6105b561145f620151808561365e565b6003846123d1565b5f80808073__$144f4fe859debe4776cdef2b99f7b97a42$__63b2b37a4c61149260608801886130f4565b61149f60808a018a613136565b6040518563ffffffff1660e01b81526004016114be94939291906131d3565b606060405180830381865af41580156114d9573d5f5f3e3d5ffd5b505050506040513d601f19601f820116820180604052508101906114fd91906134ce565b925092509250611511838660a001356122de565b61152d5760405162461bcd60e51b81526004016105f59061350f565b60ff8216156115a6576040805162461bcd60e51b81526020600482015260248101919091527f5468652070726f6f66206c6f77657220626f756e64206d75737420626520302c60448201527f20706c65617365207573652069734167654265747765656e20696e737465616460648201526084016105f5565b60ff8681169116149250505092915050565b5f5f8360ff161161160b5760405162461bcd60e51b815260206004820152601e60248201527f4d617820616765206d7573742062652067726561746572207468616e2030000060448201526064016105f5565b6105b5611619600185613671565b83611467565b5f6105b5838484610c95565b5f6109e78484600285611e76565b5f6105b58384600385611e76565b5f6105b561165884620151806130aa565b600384611c1b565b5f80548190600160a01b900460ff16156116b15760405162461bcd60e51b815260206004820152601260248201527110dbdb9d1c9858dd081a5cc81c185d5cd95960721b60448201526064016105f5565b5f6116bc84356125d5565b90506116ea6116ce6040860186613136565b5f8181106116de576116de61364a565b9050602002013561262e565b6117176116fa6040860186613136565b600181811061170b5761170b61364a565b905060200201356126f6565b6117616117276040860186613136565b808060200260200160405190810160405280939291908181526020018383602002808284375f9201919091525050505060a08601356127b4565b6117c95760405162461bcd60e51b815260206004820152603360248201527f5468652070726f6f66207761732067656e657261746564206f757473696465206044820152721d1a19481d985b1a591a5d1e481c195c9a5bd9606a1b60648201526084016105f5565b6117f36117d96040860186613136565b6117e660c08801886130f4565b61042b60e08a018a6130f4565b61183f5760405162461bcd60e51b815260206004820152601760248201527f496e76616c696420646f6d61696e206f722073636f706500000000000000000060448201526064016105f5565b6118fa61184f6040860186613136565b600590600161186160408a018a613136565b61186c92915061365e565b926118799392919061368a565b808060200260200160405190810160405280939291908181526020018383602002808284375f920191909152506118b79250505060608701876130f4565b6118c46080890189613136565b808060200260200160405190810160405280939291908181526020018383602002808284375f920191909152506127df92505050565b5f6119086040860186613136565b60026119176040890189613136565b61192292915061365e565b8181106119315761193161364a565b905060200201355f1c600381111561194b5761194b6134a1565b90506002816003811115611961576119616134a1565b141580156119815750600381600381111561197e5761197e6134a1565b14155b806119995750611999610120860161010087016129d7565b6119f65760405162461bcd60e51b815260206004820152602860248201527f4d6f636b2070726f6f667320617265206f6e6c7920616c6c6f77656420696e20604482015267646576206d6f646560c01b60648201526084016105f5565b5f816003811115611a0957611a096134a1565b1480611a225750611a22610120860161010087016129d7565b611a825760405162461bcd60e51b815260206004820152602b60248201527f53616c746564206e756c6c69666965727320617265206e6f7420737570706f7260448201526a74656420666f72206e6f7760a81b60648201526084016105f5565b6007611a916040870187613136565b611a9c92915061365e565b611aa96080870187613136565b905014611b065760405162461bcd60e51b815260206004820152602560248201527f496e76616c696420636f6d6d697474656420696e70757420636f756e7473206c6044820152640cadccee8d60db1b60648201526084016105f5565b6001600160a01b03821663ea50d0e4611b2260208801886130f4565b611b2f60408a018a613136565b6040518563ffffffff1660e01b8152600401611b4e94939291906131d3565b602060405180830381865afa158015611b69573d5f5f3e3d5ffd5b505050506040513d601f19601f82011682018060405250810190611b8d91906136b5565b93505f6001611b9f6040880188613136565b611baa92915061365e565b9050611bb96040870187613136565b82818110611bc957611bc961364a565b905060200201359350505050915091565b5f6105b5836002846123d1565b5f6105b5836005846121b4565b5f6105b5836003846123d1565b5f6105b5836006846121b4565b5f6105b5836004846121b4565b5f80808073__$144f4fe859debe4776cdef2b99f7b97a42$__638a8b3f92611c4660608801886130f4565b611c5360808a018a613136565b8b6040518663ffffffff1660e01b8152600401611c749594939291906136d0565b606060405180830381865af4158015611c8f573d5f5f3e3d5ffd5b505050506040513d601f19601f82011682018060405250810190611cb39190613725565b925092509250611cc7838660a001356122de565b611ce35760405162461bcd60e51b81526004016105f59061350f565b600286600a811115611cf757611cf76134a1565b1480611d145750600386600a811115611d1257611d126134a1565b145b611d305760405162461bcd60e51b81526004016105f590613750565b600286600a811115611d4457611d446134a1565b03611de6578015611dcc5760405162461bcd60e51b815260206004820152604660248201527f5468652070726f6f6620757070657220626f756e64206d75737420626520302c60448201527f20706c65617365207573652069734269727468646174654265747765656e20696064820152651b9cdd19585960d21b608482015260a4016105f5565b611dda6383aa7e808361365e565b871493505050506109ea565b8015611e6a5760405162461bcd60e51b815260206004820152604760248201527f5468652070726f6f6620757070657220626f756e64206d75737420626520302c60448201527f20706c6561736520757365206973457870697279446174654265747765656e206064820152661a5b9cdd19585960ca1b608482015260a4016105f5565b50851491506109ea9050565b5f80808073__$144f4fe859debe4776cdef2b99f7b97a42$__638a8b3f92611ea160608801886130f4565b611eae60808a018a613136565b8b6040518663ffffffff1660e01b8152600401611ecf9594939291906136d0565b606060405180830381865af4158015611eea573d5f5f3e3d5ffd5b505050506040513d601f19601f82011682018060405250810190611f0e9190613725565b925092509250611f22838660a001356122de565b611f3e5760405162461bcd60e51b81526004016105f59061350f565b86881115611fa65760405162461bcd60e51b815260206004820152602f60248201527f4d696e2064617465206d757374206265206c657373207468616e206f7220657160448201526e75616c20746f206d6178206461746560881b60648201526084016105f5565b600286600a811115611fba57611fba6134a1565b1480611fd75750600386600a811115611fd557611fd56134a1565b145b611ff35760405162461bcd60e51b81526004016105f590613750565b600286600a811115612007576120076134a1565b036120ed57815f0361209c5760405162461bcd60e51b815260206004820152605260248201527f5468652070726f6f66206c6f77657220626f756e64206d757374206265206e6f60448201527f6e2d7a65726f2c20706c656173652075736520697342697274686461746542656064820152711b1bddd3dc915c5d585b081a5b9cdd19585960721b608482015260a4016105f5565b805f036120bb5760405162461bcd60e51b81526004016105f59061377c565b6120c96383aa7e808361365e565b881480156120e357506120e06383aa7e808261365e565b87145b935050505061085d565b815f0361217e5760405162461bcd60e51b815260206004820152605360248201527f5468652070726f6f66206c6f77657220626f756e64206d757374206265206e6f60448201527f6e2d7a65726f2c20706c65617365207573652069734578706972794461746542606482015272195b1bddd3dc915c5d585b081a5b9cdd195859606a1b608482015260a4016105f5565b805f0361219d5760405162461bcd60e51b81526004016105f5906137f4565b81881480156120e357509095149695505050505050565b5f808073__$144f4fe859debe4776cdef2b99f7b97a42$__6384d40ca06121de60608701876130f4565b6121eb6080890189613136565b8a6040518663ffffffff1660e01b815260040161220c9594939291906136d0565b5f60405180830381865af4158015612226573d5f5f3e3d5ffd5b505050506040513d5f823e601f3d908101601f1916820160405261224d919081019061386d565b9150915080865114612263575f925050506109ea565b5f5b818110156122d1576122ba8782815181106122825761228261364a565b602002602001015184838151811061229c5761229c61364a565b60200260200101518051602091820120825192909101919091201490565b6122c9575f93505050506109ea565b600101612265565b5060019695505050505050565b5f806122ea83856130aa565b90508342101580156122fb57508381115b801561085d575042109392505050565b6002546040516383578c1160e01b815260036004820152602481018390526001600160a01b03909116906383578c1190604401602060405180830381865afa158015612359573d5f5f3e3d5ffd5b505050506040513d601f19601f8201168201806040525081019061237d91906136b5565b6123c95760405162461bcd60e51b815260206004820152601f60248201527f496e76616c69642073616e6374696f6e7320726567697374727920726f6f740060448201526064016105f5565b50565b511590565b5f80808073__$144f4fe859debe4776cdef2b99f7b97a42$__638a8b3f926123fc60608801886130f4565b61240960808a018a613136565b8b6040518663ffffffff1660e01b815260040161242a9594939291906136d0565b606060405180830381865af4158015612445573d5f5f3e3d5ffd5b505050506040513d601f19601f820116820180604052508101906124699190613725565b92509250925061247d838660a001356122de565b6124995760405162461bcd60e51b81526004016105f59061350f565b81156125175760405162461bcd60e51b815260206004820152604160248201527f5468652070726f6f66206c6f77657220626f756e64206d75737420626520302c60448201527f20706c6561736520757365206973446174654265747765656e20696e737465616064820152601960fa1b608482015260a4016105f5565b600286600a81111561252b5761252b6134a1565b14806125485750600386600a811115612546576125466134a1565b145b6125645760405162461bcd60e51b81526004016105f590613750565b600286600a811115612578576125786134a1565b036125aa57805f0361259c5760405162461bcd60e51b81526004016105f59061377c565b611dda6383aa7e808261365e565b805f036125c95760405162461bcd60e51b81526004016105f5906137f4565b861492506109ea915050565b5f818152600160205260408120546001600160a01b0316806105b85760405162461bcd60e51b815260206004820152601260248201527115995c9a599a595c881b9bdd08199bdd5b9960721b60448201526064016105f5565b6002546040516383578c1160e01b815260016004820152602481018390526001600160a01b03909116906383578c1190604401602060405180830381865afa15801561267c573d5f5f3e3d5ffd5b505050506040513d601f19601f820116820180604052508101906126a091906136b5565b6123c95760405162461bcd60e51b815260206004820152602160248201527f496e76616c696420636572746966696361746520726567697374727920726f6f6044820152601d60fa1b60648201526084016105f5565b600280546040516383578c1160e01b81526004810192909252602482018390526001600160a01b0316906383578c1190604401602060405180830381865afa158015612744573d5f5f3e3d5ffd5b505050506040513d601f19601f8201168201806040525081019061276891906136b5565b6123c95760405162461bcd60e51b815260206004820152601d60248201527f496e76616c6964206369726375697420726567697374727920726f6f7400000060448201526064016105f5565b5f5f836002815181106127c9576127c961364a565b60200260200101515f1c905061085d81846122de565b5f805b8251811015612920575f60086002878786908887815181106128065761280661364a565b60200260200101518861281991906130aa565b9261282693929190613926565b604051602001612837929190613625565b60408051601f198184030181529082905261285191613634565b602060405180830381855afa15801561286c573d5f5f3e3d5ffd5b5050506040513d601f19601f8201168201806040525081019061288f919061360e565b901c90508682815181106128a5576128a561364a565b602002602001015181146128f05760405162461bcd60e51b8152602060048201526012602482015271125b9d985b1a590818dbdb5b5a5d1b595b9d60721b60448201526064016105f5565b8382815181106129025761290261364a565b60200260200101518361291591906130aa565b9250506001016127e2565b508083146114475760405162461bcd60e51b815260206004820152601f60248201527f496e76616c696420636f6d6d697474656420696e70757473206c656e6774680060448201526064016105f5565b5f6101208284031215612981575f5ffd5b50919050565b5f5f60408385031215612998575f5ffd5b8235915060208301356001600160401b038111156129b4575f5ffd5b6129c085828601612970565b9150509250929050565b80151581146123c9575f5ffd5b5f602082840312156129e7575f5ffd5b81356109ea816129ca565b6001600160a01b03811681146123c9575f5ffd5b5f60208284031215612a16575f5ffd5b81356109ea816129f2565b5f5f60408385031215612a32575f5ffd5b82356001600160401b03811115612a47575f5ffd5b612a5385828601612970565b9250506020830135612a64816129ca565b809150509250929050565b5f81518084528060208401602086015e5f602082860101526020601f19601f83011685010191505092915050565b602081525f82516101006020840152612aba610120840182612a6f565b90506020840151601f19848303016040850152612ad78282612a6f565b9150506040840151601f19848303016060850152612af58282612a6f565b9150506060840151601f19848303016080850152612b138282612a6f565b9150506080840151601f198483030160a0850152612b318282612a6f565b91505060a0840151601f198483030160c0850152612b4f8282612a6f565b91505060c0840151601f198483030160e0850152612b6d8282612a6f565b91505060e0840151601f1984830301610100850152612b8c8282612a6f565b95945050505050565b600381106123c9575f5ffd5b5f5f60408385031215612bb2575f5ffd5b8235612bbd81612b95565b915060208301356001600160401b038111156129b4575f5ffd5b60ff811681146123c9575f5ffd5b5f5f60408385031215612bf6575f5ffd5b8235612bbd81612bd7565b634e487b7160e01b5f52604160045260245ffd5b60405161010081016001600160401b0381118282101715612c3857612c38612c01565b60405290565b604051601f8201601f191681016001600160401b0381118282101715612c6657612c66612c01565b604052919050565b5f6001600160401b03821115612c8657612c86612c01565b5060051b60200190565b5f6001600160401b03821115612ca857612ca8612c01565b50601f01601f191660200190565b5f5f60408385031215612cc7575f5ffd5b82356001600160401b03811115612cdc575f5ffd5b8301601f81018513612cec575f5ffd5b8035612cff612cfa82612c6e565b612c3e565b8082825260208201915060208360051b850101925087831115612d20575f5ffd5b602084015b83811015612da05780356001600160401b03811115612d42575f5ffd5b8501603f81018a13612d52575f5ffd5b6020810135612d63612cfa82612c90565b8181526040838301018c1015612d77575f5ffd5b816040840160208301375f60208383010152808652505050602083019250602081019050612d25565b50945050505060208301356001600160401b038111156129b4575f5ffd5b5f5f5f60608486031215612dd0575f5ffd5b833592506020840135915060408401356001600160401b03811115612df3575f5ffd5b612dff86828701612970565b9150509250925092565b5f60208284031215612e19575f5ffd5b81356001600160401b03811115612e2e575f5ffd5b61085d84828501612970565b6020815260018060a01b038251166020820152602082015160408201525f604083015160608084015261085d6080840182612a6f565b5f5f5f60608486031215612e82575f5ffd5b8335612e8d81612bd7565b92506020840135612e9d81612bd7565b915060408401356001600160401b03811115612df3575f5ffd5b5f60208284031215612ec7575f5ffd5b5035919050565b5f5f83601f840112612ede575f5ffd5b5081356001600160401b03811115612ef4575f5ffd5b6020830191508360208260051b8501011115612f0e575f5ffd5b9250929050565b5f5f83601f840112612f25575f5ffd5b5081356001600160401b03811115612f3b575f5ffd5b602083019150836020828501011115612f0e575f5ffd5b5f5f5f5f5f5f60608789031215612f67575f5ffd5b86356001600160401b03811115612f7c575f5ffd5b612f8889828a01612ece565b90975095505060208701356001600160401b03811115612fa6575f5ffd5b612fb289828a01612f15565b90955093505060408701356001600160401b03811115612fd0575f5ffd5b612fdc89828a01612f15565b979a9699509497509295939492505050565b5f5f60208385031215612fff575f5ffd5b82356001600160401b03811115613014575f5ffd5b61302085828601612ece565b90969095509350505050565b5f5f5f5f6040858703121561303f575f5ffd5b84356001600160401b03811115613054575f5ffd5b61306087828801612ece565b90955093505060208501356001600160401b0381111561307e575f5ffd5b61308a87828801612ece565b95989497509550505050565b634e487b7160e01b5f52601160045260245ffd5b808201808211156105b8576105b8613096565b6020808252601a908201527f4e6f7420617574686f72697a65643a2061646d696e206f6e6c79000000000000604082015260600190565b5f5f8335601e19843603018112613109575f5ffd5b8301803591506001600160401b03821115613122575f5ffd5b602001915036819003821315612f0e575f5ffd5b5f5f8335601e1984360301811261314b575f5ffd5b8301803591506001600160401b03821115613164575f5ffd5b6020019150600581901b3603821315612f0e575f5ffd5b81835281816020850137505f828201602090810191909152601f909101601f19169091010190565b8183525f6001600160fb1b038311156131ba575f5ffd5b8260051b80836020870137939093016020019392505050565b604081525f6131e660408301868861317b565b8281036020840152610efb8185876131a3565b5f82601f830112613208575f5ffd5b8151602083015f61321b612cfa84612c90565b905082815285838301111561322e575f5ffd5b8282602083015e5f92810160200192909252509392505050565b5f5f60408385031215613259575f5ffd5b82516001600160401b0381111561326e575f5ffd5b61327a858286016131f9565b92505060208301516001600160401b03811115613295575f5ffd5b6129c0858286016131f9565b604081525f6132b36040830185612a6f565b905082151560208301529392505050565b5f602082840312156132d4575f5ffd5b81516001600160401b038111156132e9575f5ffd5b820161010081850312156132fb575f5ffd5b613303612c15565b81516001600160401b03811115613318575f5ffd5b613324868285016131f9565b82525060208201516001600160401b0381111561333f575f5ffd5b61334b868285016131f9565b60208301525060408201516001600160401b03811115613369575f5ffd5b613375868285016131f9565b60408301525060608201516001600160401b03811115613393575f5ffd5b61339f868285016131f9565b60608301525060808201516001600160401b038111156133bd575f5ffd5b6133c9868285016131f9565b60808301525060a08201516001600160401b038111156133e7575f5ffd5b6133f3868285016131f9565b60a08301525060c08201516001600160401b03811115613411575f5ffd5b61341d868285016131f9565b60c08301525060e08201516001600160401b0381111561343b575f5ffd5b613447868285016131f9565b60e083015250949350505050565b5f5f5f5f60808587031215613468575f5ffd5b845160208601519094506002811061347e575f5ffd5b60408601516060870151919450925061349681612b95565b939692955090935050565b634e487b7160e01b5f52602160045260245ffd5b60ff81811683821601908111156105b8576105b8613096565b5f5f5f606084860312156134e0575f5ffd5b835160208501519093506134f381612bd7565b604085015190925061350481612bd7565b809150509250925092565b6020808252604b908201527f5468652063757272656e742064617465207573656420696e207468652070726f60408201527f6f6620646f6573206e6f742066616c6c2077697468696e207468652076616c6960608201526a191a5d1e481c195c9a5bd960aa1b608082015260a00190565b5f60208284031215613590575f5ffd5b81516001600160401b038111156135a5575f5ffd5b61085d848285016131f9565b602081525f6105b56020830184612a6f565b5f5f5f606084860312156135d5575f5ffd5b83516135e0816129f2565b6020850151604086015191945092506001600160401b03811115613602575f5ffd5b612dff868287016131f9565b5f6020828403121561361e575f5ffd5b5051919050565b818382375f9101908152919050565b5f82518060208501845e5f920191825250919050565b634e487b7160e01b5f52603260045260245ffd5b818103818111156105b8576105b8613096565b60ff82811682821603908111156105b8576105b8613096565b5f5f85851115613698575f5ffd5b838611156136a4575f5ffd5b5050600583901b0193919092039150565b5f602082840312156136c5575f5ffd5b81516109ea816129ca565b606081525f6136e360608301878961317b565b82810360208401526136f68186886131a3565b915050600b831061371557634e487b7160e01b5f52602160045260245ffd5b8260408301529695505050505050565b5f5f5f60608486031215613737575f5ffd5b5050815160208301516040909301519094929350919050565b602080825260129082015271496e76616c69642070726f6f66207479706560701b604082015260600190565b60208082526052908201527f5468652070726f6f6620757070657220626f756e64206d757374206265206e6f60408201527f6e2d7a65726f2c20706c656173652075736520697342697274686461746541626060820152711bdd9953dc915c5d585b081a5b9cdd19585960721b608082015260a00190565b60208082526053908201527f5468652070726f6f6620757070657220626f756e64206d757374206265206e6f60408201527f6e2d7a65726f2c20706c65617365207573652069734578706972794461746541606082015272189bdd9953dc915c5d585b081a5b9cdd195859606a1b608082015260a00190565b5f5f6040838503121561387e575f5ffd5b82516001600160401b03811115613893575f5ffd5b8301601f810185136138a3575f5ffd5b80516138b1612cfa82612c6e565b8082825260208201915060208360051b8501019250878311156138d2575f5ffd5b602084015b838110156139125780516001600160401b038111156138f4575f5ffd5b6139038a6020838901016131f9565b845250602092830192016138d7565b506020969096015195979596505050505050565b5f5f85851115613934575f5ffd5b83861115613940575f5ffd5b505082019391909203915056fea2646970667358221220623aa0f5d6fd1ed4b32bdfd3907fb8b21b1ba73e0a28815b6397c145a04864b764736f6c634300081d0033",
    "linkReferences": {
      "src/InputsExtractor.sol": {
        "InputsExtractor": [
          {
            "start": 2173,
            "length": 20
          },
          {
            "start": 2337,
            "length": 20
          },
          {
            "start": 2460,
            "length": 20
          },
          {
            "start": 2868,
            "length": 20
          },
          {
            "start": 3229,
            "length": 20
          },
          {
            "start": 3393,
            "length": 20
          },
          {
            "start": 3531,
            "length": 20
          },
          {
            "start": 4153,
            "length": 20
          },
          {
            "start": 5533,
            "length": 20
          },
          {
            "start": 7505,
            "length": 20
          },
          {
            "start": 8108,
            "length": 20
          },
          {
            "start": 8937,
            "length": 20
          },
          {
            "start": 9479,
            "length": 20
          }
        ]
      }
    }
  },
  "methodIdentifiers": {
    "CERTIFICATE_REGISTRY_ID()": "41a0e2c2",
    "CIRCUIT_REGISTRY_ID()": "6c40d5d6",
    "SANCTIONS_REGISTRY_ID()": "652ba33d",
    "addVerifiers(bytes32[],address[])": "a6df2c01",
    "admin()": "f851a440",
    "enforceSanctionsRoot((bytes32,bytes,bytes32[],bytes,uint256[],uint256,string,string,bool))": "653cfd81",
    "getBoundData((bytes32,bytes,bytes32[],bytes,uint256[],uint256,string,string,bool))": "59545f45",
    "getDisclosedData((bytes32,bytes,bytes32[],bytes,uint256[],uint256,string,string,bool),bool)": "1e26a9dc",
    "isAgeAbove(uint8,(bytes32,bytes,bytes32[],bytes,uint256[],uint256,string,string,bool))": "37889655",
    "isAgeAboveOrEqual(uint8,(bytes32,bytes,bytes32[],bytes,uint256[],uint256,string,string,bool))": "54dbe4d1",
    "isAgeBelow(uint8,(bytes32,bytes,bytes32[],bytes,uint256[],uint256,string,string,bool))": "bf73c26c",
    "isAgeBelowOrEqual(uint8,(bytes32,bytes,bytes32[],bytes,uint256[],uint256,string,string,bool))": "aa1346ea",
    "isAgeBetween(uint8,uint8,(bytes32,bytes,bytes32[],bytes,uint256[],uint256,string,string,bool))": "62067c82",
    "isAgeEqual(uint8,(bytes32,bytes,bytes32[],bytes,uint256[],uint256,string,string,bool))": "c0940ebd",
    "isBirthdateAfter(uint256,(bytes32,bytes,bytes32[],bytes,uint256[],uint256,string,string,bool))": "04951b86",
    "isBirthdateAfterOrEqual(uint256,(bytes32,bytes,bytes32[],bytes,uint256[],uint256,string,string,bool))": "704876d6",
    "isBirthdateBefore(uint256,(bytes32,bytes,bytes32[],bytes,uint256[],uint256,string,string,bool))": "921076c7",
    "isBirthdateBeforeOrEqual(uint256,(bytes32,bytes,bytes32[],bytes,uint256[],uint256,string,string,bool))": "deb7c059",
    "isBirthdateBetween(uint256,uint256,(bytes32,bytes,bytes32[],bytes,uint256[],uint256,string,string,bool))": "c4560786",
    "isBirthdateEqual(uint256,(bytes32,bytes,bytes32[],bytes,uint256[],uint256,string,string,bool))": "0b90581b",
    "isExpiryDateAfter(uint256,(bytes32,bytes,bytes32[],bytes,uint256[],uint256,string,string,bool))": "d3f6ffff",
    "isExpiryDateAfterOrEqual(uint256,(bytes32,bytes,bytes32[],bytes,uint256[],uint256,string,string,bool))": "4c127428",
    "isExpiryDateBefore(uint256,(bytes32,bytes,bytes32[],bytes,uint256[],uint256,string,string,bool))": "a88f1cef",
    "isExpiryDateBeforeOrEqual(uint256,(bytes32,bytes,bytes32[],bytes,uint256[],uint256,string,string,bool))": "e718bc32",
    "isExpiryDateBetween(uint256,uint256,(bytes32,bytes,bytes32[],bytes,uint256[],uint256,string,string,bool))": "46bd0a16",
    "isExpiryDateEqual(uint256,(bytes32,bytes,bytes32[],bytes,uint256[],uint256,string,string,bool))": "cfd9464a",
    "isFaceMatchVerified(uint8,(bytes32,bytes,bytes32[],bytes,uint256[],uint256,string,string,bool))": "2e27242c",
    "isIssuingCountryIn(string[],(bytes32,bytes,bytes32[],bytes,uint256[],uint256,string,string,bool))": "ec46f774",
    "isIssuingCountryOut(string[],(bytes32,bytes,bytes32[],bytes,uint256[],uint256,string,string,bool))": "3a86bd3d",
    "isNationalityIn(string[],(bytes32,bytes,bytes32[],bytes,uint256[],uint256,string,string,bool))": "f87e19b1",
    "isNationalityOut(string[],(bytes32,bytes,bytes32[],bytes,uint256[],uint256,string,string,bool))": "e420e354",
    "paused()": "5c975abb",
    "removeVerifiers(bytes32[])": "8d6937b8",
    "rootRegistry()": "b96b161c",
    "setPaused(bool)": "16c38b3c",
    "transferAdmin(address)": "75829def",
    "updateRootRegistry(address)": "18677f2a",
    "verifyProof((bytes32,bytes,bytes32[],bytes,uint256[],uint256,string,string,bool))": "d7bf616a",
    "verifyScopes(bytes32[],string,string)": "847755e3",
    "vkeyHashToVerifier(bytes32)": "8163f231"
  },
  "id": 26
}