{
  "abi": [
    {
      "type": "constructor",
      "inputs": [
        {
          "name": "_rootRegistry",
          "type": "address",
          "internalType": "address"
        }
      ],
      "stateMutability": "nonpayable"
    },
    {
      "type": "function",
      "name": "CERTIFICATE_REGISTRY_ID",
      "inputs": [],
      "outputs": [
        {
          "name": "",
          "type": "bytes32",
          "internalType": "bytes32"
        }
      ],
      "stateMutability": "view"
    },
    {
      "type": "function",
      "name": "CIRCUIT_REGISTRY_ID",
      "inputs": [],
      "outputs": [
        {
          "name": "",
          "type": "bytes32",
          "internalType": "bytes32"
        }
      ],
      "stateMutability": "view"
    },
    {
      "type": "function",
      "name": "SANCTIONS_REGISTRY_ID",
      "inputs": [],
      "outputs": [
        {
          "name": "",
          "type": "bytes32",
          "internalType": "bytes32"
        }
      ],
      "stateMutability": "view"
    },
    {
      "type": "function",
      "name": "addVerifiers",
      "inputs": [
        {
          "name": "vkeyHashes",
          "type": "bytes32[]",
          "internalType": "bytes32[]"
        },
        {
          "name": "verifiers",
          "type": "address[]",
          "internalType": "address[]"
        }
      ],
      "outputs": [],
      "stateMutability": "nonpayable"
    },
    {
      "type": "function",
      "name": "admin",
      "inputs": [],
      "outputs": [
        {
          "name": "",
          "type": "address",
          "internalType": "address"
        }
      ],
      "stateMutability": "view"
    },
    {
      "type": "function",
      "name": "enforceSanctionsRoot",
      "inputs": [
        {
          "name": "commitments",
          "type": "tuple",
          "internalType": "struct Commitments",
          "components": [
            {
              "name": "committedInputs",
              "type": "bytes",
              "internalType": "bytes"
            },
            {
              "name": "committedInputCounts",
              "type": "uint256[]",
              "internalType": "uint256[]"
            }
          ]
        }
      ],
      "outputs": [],
      "stateMutability": "view"
    },
    {
      "type": "function",
      "name": "getBoundData",
      "inputs": [
        {
          "name": "commitments",
          "type": "tuple",
          "internalType": "struct Commitments",
          "components": [
            {
              "name": "committedInputs",
              "type": "bytes",
              "internalType": "bytes"
            },
            {
              "name": "committedInputCounts",
              "type": "uint256[]",
              "internalType": "uint256[]"
            }
          ]
        }
      ],
      "outputs": [
        {
          "name": "boundData",
          "type": "tuple",
          "internalType": "struct BoundData",
          "components": [
            {
              "name": "senderAddress",
              "type": "address",
              "internalType": "address"
            },
            {
              "name": "chainId",
              "type": "uint256",
              "internalType": "uint256"
            },
            {
              "name": "customData",
              "type": "string",
              "internalType": "string"
            }
          ]
        }
      ],
      "stateMutability": "pure"
    },
    {
      "type": "function",
      "name": "getDisclosedData",
      "inputs": [
        {
          "name": "commitments",
          "type": "tuple",
          "internalType": "struct Commitments",
          "components": [
            {
              "name": "committedInputs",
              "type": "bytes",
              "internalType": "bytes"
            },
            {
              "name": "committedInputCounts",
              "type": "uint256[]",
              "internalType": "uint256[]"
            }
          ]
        },
        {
          "name": "isIDCard",
          "type": "bool",
          "internalType": "bool"
        }
      ],
      "outputs": [
        {
          "name": "disclosedData",
          "type": "tuple",
          "internalType": "struct DisclosedData",
          "components": [
            {
              "name": "name",
              "type": "string",
              "internalType": "string"
            },
            {
              "name": "issuingCountry",
              "type": "string",
              "internalType": "string"
            },
            {
              "name": "nationality",
              "type": "string",
              "internalType": "string"
            },
            {
              "name": "gender",
              "type": "string",
              "internalType": "string"
            },
            {
              "name": "birthDate",
              "type": "string",
              "internalType": "string"
            },
            {
              "name": "expiryDate",
              "type": "string",
              "internalType": "string"
            },
            {
              "name": "documentNumber",
              "type": "string",
              "internalType": "string"
            },
            {
              "name": "documentType",
              "type": "string",
              "internalType": "string"
            }
          ]
        }
      ],
      "stateMutability": "pure"
    },
    {
      "type": "function",
      "name": "isAgeAbove",
      "inputs": [
        {
          "name": "minAge",
          "type": "uint8",
          "internalType": "uint8"
        },
        {
          "name": "commitments",
          "type": "tuple",
          "internalType": "struct Commitments",
          "components": [
            {
              "name": "committedInputs",
              "type": "bytes",
              "internalType": "bytes"
            },
            {
              "name": "committedInputCounts",
              "type": "uint256[]",
              "internalType": "uint256[]"
            }
          ]
        },
        {
          "name": "serviceConfig",
          "type": "tuple",
          "internalType": "struct ServiceConfig",
          "components": [
            {
              "name": "validityPeriodInSeconds",
              "type": "uint256",
              "internalType": "uint256"
            },
            {
              "name": "domain",
              "type": "string",
              "internalType": "string"
            },
            {
              "name": "scope",
              "type": "string",
              "internalType": "string"
            },
            {
              "name": "devMode",
              "type": "bool",
              "internalType": "bool"
            }
          ]
        }
      ],
      "outputs": [
        {
          "name": "",
          "type": "bool",
          "internalType": "bool"
        }
      ],
      "stateMutability": "view"
    },
    {
      "type": "function",
      "name": "isAgeAboveOrEqual",
      "inputs": [
        {
          "name": "minAge",
          "type": "uint8",
          "internalType": "uint8"
        },
        {
          "name": "commitments",
          "type": "tuple",
          "internalType": "struct Commitments",
          "components": [
            {
              "name": "committedInputs",
              "type": "bytes",
              "internalType": "bytes"
            },
            {
              "name": "committedInputCounts",
              "type": "uint256[]",
              "internalType": "uint256[]"
            }
          ]
        },
        {
          "name": "serviceConfig",
          "type": "tuple",
          "internalType": "struct ServiceConfig",
          "components": [
            {
              "name": "validityPeriodInSeconds",
              "type": "uint256",
              "internalType": "uint256"
            },
            {
              "name": "domain",
              "type": "string",
              "internalType": "string"
            },
            {
              "name": "scope",
              "type": "string",
              "internalType": "string"
            },
            {
              "name": "devMode",
              "type": "bool",
              "internalType": "bool"
            }
          ]
        }
      ],
      "outputs": [
        {
          "name": "",
          "type": "bool",
          "internalType": "bool"
        }
      ],
      "stateMutability": "view"
    },
    {
      "type": "function",
      "name": "isAgeBelow",
      "inputs": [
        {
          "name": "maxAge",
          "type": "uint8",
          "internalType": "uint8"
        },
        {
          "name": "commitments",
          "type": "tuple",
          "internalType": "struct Commitments",
          "components": [
            {
              "name": "committedInputs",
              "type": "bytes",
              "internalType": "bytes"
            },
            {
              "name": "committedInputCounts",
              "type": "uint256[]",
              "internalType": "uint256[]"
            }
          ]
        },
        {
          "name": "serviceConfig",
          "type": "tuple",
          "internalType": "struct ServiceConfig",
          "components": [
            {
              "name": "validityPeriodInSeconds",
              "type": "uint256",
              "internalType": "uint256"
            },
            {
              "name": "domain",
              "type": "string",
              "internalType": "string"
            },
            {
              "name": "scope",
              "type": "string",
              "internalType": "string"
            },
            {
              "name": "devMode",
              "type": "bool",
              "internalType": "bool"
            }
          ]
        }
      ],
      "outputs": [
        {
          "name": "",
          "type": "bool",
          "internalType": "bool"
        }
      ],
      "stateMutability": "view"
    },
    {
      "type": "function",
      "name": "isAgeBelowOrEqual",
      "inputs": [
        {
          "name": "maxAge",
          "type": "uint8",
          "internalType": "uint8"
        },
        {
          "name": "commitments",
          "type": "tuple",
          "internalType": "struct Commitments",
          "components": [
            {
              "name": "committedInputs",
              "type": "bytes",
              "internalType": "bytes"
            },
            {
              "name": "committedInputCounts",
              "type": "uint256[]",
              "internalType": "uint256[]"
            }
          ]
        },
        {
          "name": "serviceConfig",
          "type": "tuple",
          "internalType": "struct ServiceConfig",
          "components": [
            {
              "name": "validityPeriodInSeconds",
              "type": "uint256",
              "internalType": "uint256"
            },
            {
              "name": "domain",
              "type": "string",
              "internalType": "string"
            },
            {
              "name": "scope",
              "type": "string",
              "internalType": "string"
            },
            {
              "name": "devMode",
              "type": "bool",
              "internalType": "bool"
            }
          ]
        }
      ],
      "outputs": [
        {
          "name": "",
          "type": "bool",
          "internalType": "bool"
        }
      ],
      "stateMutability": "view"
    },
    {
      "type": "function",
      "name": "isAgeBetween",
      "inputs": [
        {
          "name": "minAge",
          "type": "uint8",
          "internalType": "uint8"
        },
        {
          "name": "maxAge",
          "type": "uint8",
          "internalType": "uint8"
        },
        {
          "name": "commitments",
          "type": "tuple",
          "internalType": "struct Commitments",
          "components": [
            {
              "name": "committedInputs",
              "type": "bytes",
              "internalType": "bytes"
            },
            {
              "name": "committedInputCounts",
              "type": "uint256[]",
              "internalType": "uint256[]"
            }
          ]
        },
        {
          "name": "serviceConfig",
          "type": "tuple",
          "internalType": "struct ServiceConfig",
          "components": [
            {
              "name": "validityPeriodInSeconds",
              "type": "uint256",
              "internalType": "uint256"
            },
            {
              "name": "domain",
              "type": "string",
              "internalType": "string"
            },
            {
              "name": "scope",
              "type": "string",
              "internalType": "string"
            },
            {
              "name": "devMode",
              "type": "bool",
              "internalType": "bool"
            }
          ]
        }
      ],
      "outputs": [
        {
          "name": "",
          "type": "bool",
          "internalType": "bool"
        }
      ],
      "stateMutability": "view"
    },
    {
      "type": "function",
      "name": "isAgeEqual",
      "inputs": [
        {
          "name": "age",
          "type": "uint8",
          "internalType": "uint8"
        },
        {
          "name": "commitments",
          "type": "tuple",
          "internalType": "struct Commitments",
          "components": [
            {
              "name": "committedInputs",
              "type": "bytes",
              "internalType": "bytes"
            },
            {
              "name": "committedInputCounts",
              "type": "uint256[]",
              "internalType": "uint256[]"
            }
          ]
        },
        {
          "name": "serviceConfig",
          "type": "tuple",
          "internalType": "struct ServiceConfig",
          "components": [
            {
              "name": "validityPeriodInSeconds",
              "type": "uint256",
              "internalType": "uint256"
            },
            {
              "name": "domain",
              "type": "string",
              "internalType": "string"
            },
            {
              "name": "scope",
              "type": "string",
              "internalType": "string"
            },
            {
              "name": "devMode",
              "type": "bool",
              "internalType": "bool"
            }
          ]
        }
      ],
      "outputs": [
        {
          "name": "",
          "type": "bool",
          "internalType": "bool"
        }
      ],
      "stateMutability": "view"
    },
    {
      "type": "function",
      "name": "isBirthdateAfter",
      "inputs": [
        {
          "name": "minDate",
          "type": "uint256",
          "internalType": "uint256"
        },
        {
          "name": "commitments",
          "type": "tuple",
          "internalType": "struct Commitments",
          "components": [
            {
              "name": "committedInputs",
              "type": "bytes",
              "internalType": "bytes"
            },
            {
              "name": "committedInputCounts",
              "type": "uint256[]",
              "internalType": "uint256[]"
            }
          ]
        },
        {
          "name": "serviceConfig",
          "type": "tuple",
          "internalType": "struct ServiceConfig",
          "components": [
            {
              "name": "validityPeriodInSeconds",
              "type": "uint256",
              "internalType": "uint256"
            },
            {
              "name": "domain",
              "type": "string",
              "internalType": "string"
            },
            {
              "name": "scope",
              "type": "string",
              "internalType": "string"
            },
            {
              "name": "devMode",
              "type": "bool",
              "internalType": "bool"
            }
          ]
        }
      ],
      "outputs": [
        {
          "name": "",
          "type": "bool",
          "internalType": "bool"
        }
      ],
      "stateMutability": "view"
    },
    {
      "type": "function",
      "name": "isBirthdateAfterOrEqual",
      "inputs": [
        {
          "name": "minDate",
          "type": "uint256",
          "internalType": "uint256"
        },
        {
          "name": "commitments",
          "type": "tuple",
          "internalType": "struct Commitments",
          "components": [
            {
              "name": "committedInputs",
              "type": "bytes",
              "internalType": "bytes"
            },
            {
              "name": "committedInputCounts",
              "type": "uint256[]",
              "internalType": "uint256[]"
            }
          ]
        },
        {
          "name": "serviceConfig",
          "type": "tuple",
          "internalType": "struct ServiceConfig",
          "components": [
            {
              "name": "validityPeriodInSeconds",
              "type": "uint256",
              "internalType": "uint256"
            },
            {
              "name": "domain",
              "type": "string",
              "internalType": "string"
            },
            {
              "name": "scope",
              "type": "string",
              "internalType": "string"
            },
            {
              "name": "devMode",
              "type": "bool",
              "internalType": "bool"
            }
          ]
        }
      ],
      "outputs": [
        {
          "name": "",
          "type": "bool",
          "internalType": "bool"
        }
      ],
      "stateMutability": "view"
    },
    {
      "type": "function",
      "name": "isBirthdateBefore",
      "inputs": [
        {
          "name": "maxDate",
          "type": "uint256",
          "internalType": "uint256"
        },
        {
          "name": "commitments",
          "type": "tuple",
          "internalType": "struct Commitments",
          "components": [
            {
              "name": "committedInputs",
              "type": "bytes",
              "internalType": "bytes"
            },
            {
              "name": "committedInputCounts",
              "type": "uint256[]",
              "internalType": "uint256[]"
            }
          ]
        },
        {
          "name": "serviceConfig",
          "type": "tuple",
          "internalType": "struct ServiceConfig",
          "components": [
            {
              "name": "validityPeriodInSeconds",
              "type": "uint256",
              "internalType": "uint256"
            },
            {
              "name": "domain",
              "type": "string",
              "internalType": "string"
            },
            {
              "name": "scope",
              "type": "string",
              "internalType": "string"
            },
            {
              "name": "devMode",
              "type": "bool",
              "internalType": "bool"
            }
          ]
        }
      ],
      "outputs": [
        {
          "name": "",
          "type": "bool",
          "internalType": "bool"
        }
      ],
      "stateMutability": "view"
    },
    {
      "type": "function",
      "name": "isBirthdateBeforeOrEqual",
      "inputs": [
        {
          "name": "maxDate",
          "type": "uint256",
          "internalType": "uint256"
        },
        {
          "name": "commitments",
          "type": "tuple",
          "internalType": "struct Commitments",
          "components": [
            {
              "name": "committedInputs",
              "type": "bytes",
              "internalType": "bytes"
            },
            {
              "name": "committedInputCounts",
              "type": "uint256[]",
              "internalType": "uint256[]"
            }
          ]
        },
        {
          "name": "serviceConfig",
          "type": "tuple",
          "internalType": "struct ServiceConfig",
          "components": [
            {
              "name": "validityPeriodInSeconds",
              "type": "uint256",
              "internalType": "uint256"
            },
            {
              "name": "domain",
              "type": "string",
              "internalType": "string"
            },
            {
              "name": "scope",
              "type": "string",
              "internalType": "string"
            },
            {
              "name": "devMode",
              "type": "bool",
              "internalType": "bool"
            }
          ]
        }
      ],
      "outputs": [
        {
          "name": "",
          "type": "bool",
          "internalType": "bool"
        }
      ],
      "stateMutability": "view"
    },
    {
      "type": "function",
      "name": "isBirthdateBetween",
      "inputs": [
        {
          "name": "minDate",
          "type": "uint256",
          "internalType": "uint256"
        },
        {
          "name": "maxDate",
          "type": "uint256",
          "internalType": "uint256"
        },
        {
          "name": "commitments",
          "type": "tuple",
          "internalType": "struct Commitments",
          "components": [
            {
              "name": "committedInputs",
              "type": "bytes",
              "internalType": "bytes"
            },
            {
              "name": "committedInputCounts",
              "type": "uint256[]",
              "internalType": "uint256[]"
            }
          ]
        },
        {
          "name": "serviceConfig",
          "type": "tuple",
          "internalType": "struct ServiceConfig",
          "components": [
            {
              "name": "validityPeriodInSeconds",
              "type": "uint256",
              "internalType": "uint256"
            },
            {
              "name": "domain",
              "type": "string",
              "internalType": "string"
            },
            {
              "name": "scope",
              "type": "string",
              "internalType": "string"
            },
            {
              "name": "devMode",
              "type": "bool",
              "internalType": "bool"
            }
          ]
        }
      ],
      "outputs": [
        {
          "name": "",
          "type": "bool",
          "internalType": "bool"
        }
      ],
      "stateMutability": "view"
    },
    {
      "type": "function",
      "name": "isBirthdateEqual",
      "inputs": [
        {
          "name": "date",
          "type": "uint256",
          "internalType": "uint256"
        },
        {
          "name": "commitments",
          "type": "tuple",
          "internalType": "struct Commitments",
          "components": [
            {
              "name": "committedInputs",
              "type": "bytes",
              "internalType": "bytes"
            },
            {
              "name": "committedInputCounts",
              "type": "uint256[]",
              "internalType": "uint256[]"
            }
          ]
        },
        {
          "name": "serviceConfig",
          "type": "tuple",
          "internalType": "struct ServiceConfig",
          "components": [
            {
              "name": "validityPeriodInSeconds",
              "type": "uint256",
              "internalType": "uint256"
            },
            {
              "name": "domain",
              "type": "string",
              "internalType": "string"
            },
            {
              "name": "scope",
              "type": "string",
              "internalType": "string"
            },
            {
              "name": "devMode",
              "type": "bool",
              "internalType": "bool"
            }
          ]
        }
      ],
      "outputs": [
        {
          "name": "",
          "type": "bool",
          "internalType": "bool"
        }
      ],
      "stateMutability": "view"
    },
    {
      "type": "function",
      "name": "isExpiryDateAfter",
      "inputs": [
        {
          "name": "minDate",
          "type": "uint256",
          "internalType": "uint256"
        },
        {
          "name": "commitments",
          "type": "tuple",
          "internalType": "struct Commitments",
          "components": [
            {
              "name": "committedInputs",
              "type": "bytes",
              "internalType": "bytes"
            },
            {
              "name": "committedInputCounts",
              "type": "uint256[]",
              "internalType": "uint256[]"
            }
          ]
        },
        {
          "name": "serviceConfig",
          "type": "tuple",
          "internalType": "struct ServiceConfig",
          "components": [
            {
              "name": "validityPeriodInSeconds",
              "type": "uint256",
              "internalType": "uint256"
            },
            {
              "name": "domain",
              "type": "string",
              "internalType": "string"
            },
            {
              "name": "scope",
              "type": "string",
              "internalType": "string"
            },
            {
              "name": "devMode",
              "type": "bool",
              "internalType": "bool"
            }
          ]
        }
      ],
      "outputs": [
        {
          "name": "",
          "type": "bool",
          "internalType": "bool"
        }
      ],
      "stateMutability": "view"
    },
    {
      "type": "function",
      "name": "isExpiryDateAfterOrEqual",
      "inputs": [
        {
          "name": "minDate",
          "type": "uint256",
          "internalType": "uint256"
        },
        {
          "name": "commitments",
          "type": "tuple",
          "internalType": "struct Commitments",
          "components": [
            {
              "name": "committedInputs",
              "type": "bytes",
              "internalType": "bytes"
            },
            {
              "name": "committedInputCounts",
              "type": "uint256[]",
              "internalType": "uint256[]"
            }
          ]
        },
        {
          "name": "serviceConfig",
          "type": "tuple",
          "internalType": "struct ServiceConfig",
          "components": [
            {
              "name": "validityPeriodInSeconds",
              "type": "uint256",
              "internalType": "uint256"
            },
            {
              "name": "domain",
              "type": "string",
              "internalType": "string"
            },
            {
              "name": "scope",
              "type": "string",
              "internalType": "string"
            },
            {
              "name": "devMode",
              "type": "bool",
              "internalType": "bool"
            }
          ]
        }
      ],
      "outputs": [
        {
          "name": "",
          "type": "bool",
          "internalType": "bool"
        }
      ],
      "stateMutability": "view"
    },
    {
      "type": "function",
      "name": "isExpiryDateBefore",
      "inputs": [
        {
          "name": "maxDate",
          "type": "uint256",
          "internalType": "uint256"
        },
        {
          "name": "commitments",
          "type": "tuple",
          "internalType": "struct Commitments",
          "components": [
            {
              "name": "committedInputs",
              "type": "bytes",
              "internalType": "bytes"
            },
            {
              "name": "committedInputCounts",
              "type": "uint256[]",
              "internalType": "uint256[]"
            }
          ]
        },
        {
          "name": "serviceConfig",
          "type": "tuple",
          "internalType": "struct ServiceConfig",
          "components": [
            {
              "name": "validityPeriodInSeconds",
              "type": "uint256",
              "internalType": "uint256"
            },
            {
              "name": "domain",
              "type": "string",
              "internalType": "string"
            },
            {
              "name": "scope",
              "type": "string",
              "internalType": "string"
            },
            {
              "name": "devMode",
              "type": "bool",
              "internalType": "bool"
            }
          ]
        }
      ],
      "outputs": [
        {
          "name": "",
          "type": "bool",
          "internalType": "bool"
        }
      ],
      "stateMutability": "view"
    },
    {
      "type": "function",
      "name": "isExpiryDateBeforeOrEqual",
      "inputs": [
        {
          "name": "maxDate",
          "type": "uint256",
          "internalType": "uint256"
        },
        {
          "name": "commitments",
          "type": "tuple",
          "internalType": "struct Commitments",
          "components": [
            {
              "name": "committedInputs",
              "type": "bytes",
              "internalType": "bytes"
            },
            {
              "name": "committedInputCounts",
              "type": "uint256[]",
              "internalType": "uint256[]"
            }
          ]
        },
        {
          "name": "serviceConfig",
          "type": "tuple",
          "internalType": "struct ServiceConfig",
          "components": [
            {
              "name": "validityPeriodInSeconds",
              "type": "uint256",
              "internalType": "uint256"
            },
            {
              "name": "domain",
              "type": "string",
              "internalType": "string"
            },
            {
              "name": "scope",
              "type": "string",
              "internalType": "string"
            },
            {
              "name": "devMode",
              "type": "bool",
              "internalType": "bool"
            }
          ]
        }
      ],
      "outputs": [
        {
          "name": "",
          "type": "bool",
          "internalType": "bool"
        }
      ],
      "stateMutability": "view"
    },
    {
      "type": "function",
      "name": "isExpiryDateBetween",
      "inputs": [
        {
          "name": "minDate",
          "type": "uint256",
          "internalType": "uint256"
        },
        {
          "name": "maxDate",
          "type": "uint256",
          "internalType": "uint256"
        },
        {
          "name": "commitments",
          "type": "tuple",
          "internalType": "struct Commitments",
          "components": [
            {
              "name": "committedInputs",
              "type": "bytes",
              "internalType": "bytes"
            },
            {
              "name": "committedInputCounts",
              "type": "uint256[]",
              "internalType": "uint256[]"
            }
          ]
        },
        {
          "name": "serviceConfig",
          "type": "tuple",
          "internalType": "struct ServiceConfig",
          "components": [
            {
              "name": "validityPeriodInSeconds",
              "type": "uint256",
              "internalType": "uint256"
            },
            {
              "name": "domain",
              "type": "string",
              "internalType": "string"
            },
            {
              "name": "scope",
              "type": "string",
              "internalType": "string"
            },
            {
              "name": "devMode",
              "type": "bool",
              "internalType": "bool"
            }
          ]
        }
      ],
      "outputs": [
        {
          "name": "",
          "type": "bool",
          "internalType": "bool"
        }
      ],
      "stateMutability": "view"
    },
    {
      "type": "function",
      "name": "isExpiryDateEqual",
      "inputs": [
        {
          "name": "date",
          "type": "uint256",
          "internalType": "uint256"
        },
        {
          "name": "commitments",
          "type": "tuple",
          "internalType": "struct Commitments",
          "components": [
            {
              "name": "committedInputs",
              "type": "bytes",
              "internalType": "bytes"
            },
            {
              "name": "committedInputCounts",
              "type": "uint256[]",
              "internalType": "uint256[]"
            }
          ]
        },
        {
          "name": "serviceConfig",
          "type": "tuple",
          "internalType": "struct ServiceConfig",
          "components": [
            {
              "name": "validityPeriodInSeconds",
              "type": "uint256",
              "internalType": "uint256"
            },
            {
              "name": "domain",
              "type": "string",
              "internalType": "string"
            },
            {
              "name": "scope",
              "type": "string",
              "internalType": "string"
            },
            {
              "name": "devMode",
              "type": "bool",
              "internalType": "bool"
            }
          ]
        }
      ],
      "outputs": [
        {
          "name": "",
          "type": "bool",
          "internalType": "bool"
        }
      ],
      "stateMutability": "view"
    },
    {
      "type": "function",
      "name": "isFaceMatchVerified",
      "inputs": [
        {
          "name": "faceMatchMode",
          "type": "uint8",
          "internalType": "enum FaceMatchMode"
        },
        {
          "name": "os",
          "type": "uint8",
          "internalType": "enum OS"
        },
        {
          "name": "commitments",
          "type": "tuple",
          "internalType": "struct Commitments",
          "components": [
            {
              "name": "committedInputs",
              "type": "bytes",
              "internalType": "bytes"
            },
            {
              "name": "committedInputCounts",
              "type": "uint256[]",
              "internalType": "uint256[]"
            }
          ]
        },
        {
          "name": "serviceConfig",
          "type": "tuple",
          "internalType": "struct ServiceConfig",
          "components": [
            {
              "name": "validityPeriodInSeconds",
              "type": "uint256",
              "internalType": "uint256"
            },
            {
              "name": "domain",
              "type": "string",
              "internalType": "string"
            },
            {
              "name": "scope",
              "type": "string",
              "internalType": "string"
            },
            {
              "name": "devMode",
              "type": "bool",
              "internalType": "bool"
            }
          ]
        }
      ],
      "outputs": [
        {
          "name": "",
          "type": "bool",
          "internalType": "bool"
        }
      ],
      "stateMutability": "pure"
    },
    {
      "type": "function",
      "name": "isIssuingCountryIn",
      "inputs": [
        {
          "name": "countryList",
          "type": "string[]",
          "internalType": "string[]"
        },
        {
          "name": "commitments",
          "type": "tuple",
          "internalType": "struct Commitments",
          "components": [
            {
              "name": "committedInputs",
              "type": "bytes",
              "internalType": "bytes"
            },
            {
              "name": "committedInputCounts",
              "type": "uint256[]",
              "internalType": "uint256[]"
            }
          ]
        }
      ],
      "outputs": [
        {
          "name": "",
          "type": "bool",
          "internalType": "bool"
        }
      ],
      "stateMutability": "pure"
    },
    {
      "type": "function",
      "name": "isIssuingCountryOut",
      "inputs": [
        {
          "name": "countryList",
          "type": "string[]",
          "internalType": "string[]"
        },
        {
          "name": "commitments",
          "type": "tuple",
          "internalType": "struct Commitments",
          "components": [
            {
              "name": "committedInputs",
              "type": "bytes",
              "internalType": "bytes"
            },
            {
              "name": "committedInputCounts",
              "type": "uint256[]",
              "internalType": "uint256[]"
            }
          ]
        }
      ],
      "outputs": [
        {
          "name": "",
          "type": "bool",
          "internalType": "bool"
        }
      ],
      "stateMutability": "pure"
    },
    {
      "type": "function",
      "name": "isNationalityIn",
      "inputs": [
        {
          "name": "countryList",
          "type": "string[]",
          "internalType": "string[]"
        },
        {
          "name": "commitments",
          "type": "tuple",
          "internalType": "struct Commitments",
          "components": [
            {
              "name": "committedInputs",
              "type": "bytes",
              "internalType": "bytes"
            },
            {
              "name": "committedInputCounts",
              "type": "uint256[]",
              "internalType": "uint256[]"
            }
          ]
        }
      ],
      "outputs": [
        {
          "name": "",
          "type": "bool",
          "internalType": "bool"
        }
      ],
      "stateMutability": "pure"
    },
    {
      "type": "function",
      "name": "isNationalityOut",
      "inputs": [
        {
          "name": "countryList",
          "type": "string[]",
          "internalType": "string[]"
        },
        {
          "name": "commitments",
          "type": "tuple",
          "internalType": "struct Commitments",
          "components": [
            {
              "name": "committedInputs",
              "type": "bytes",
              "internalType": "bytes"
            },
            {
              "name": "committedInputCounts",
              "type": "uint256[]",
              "internalType": "uint256[]"
            }
          ]
        }
      ],
      "outputs": [
        {
          "name": "",
          "type": "bool",
          "internalType": "bool"
        }
      ],
      "stateMutability": "pure"
    },
    {
      "type": "function",
      "name": "paused",
      "inputs": [],
      "outputs": [
        {
          "name": "",
          "type": "bool",
          "internalType": "bool"
        }
      ],
      "stateMutability": "view"
    },
    {
      "type": "function",
      "name": "removeVerifiers",
      "inputs": [
        {
          "name": "vkeyHashes",
          "type": "bytes32[]",
          "internalType": "bytes32[]"
        }
      ],
      "outputs": [],
      "stateMutability": "nonpayable"
    },
    {
      "type": "function",
      "name": "rootRegistry",
      "inputs": [],
      "outputs": [
        {
          "name": "",
          "type": "address",
          "internalType": "contract IRootRegistry"
        }
      ],
      "stateMutability": "view"
    },
    {
      "type": "function",
      "name": "setPaused",
      "inputs": [
        {
          "name": "_paused",
          "type": "bool",
          "internalType": "bool"
        }
      ],
      "outputs": [],
      "stateMutability": "nonpayable"
    },
    {
      "type": "function",
      "name": "transferAdmin",
      "inputs": [
        {
          "name": "newAdmin",
          "type": "address",
          "internalType": "address"
        }
      ],
      "outputs": [],
      "stateMutability": "nonpayable"
    },
    {
      "type": "function",
      "name": "updateRootRegistry",
      "inputs": [
        {
          "name": "_rootRegistry",
          "type": "address",
          "internalType": "address"
        }
      ],
      "outputs": [],
      "stateMutability": "nonpayable"
    },
    {
      "type": "function",
      "name": "verifyProof",
      "inputs": [
        {
          "name": "params",
          "type": "tuple",
          "internalType": "struct ProofVerificationParams",
          "components": [
            {
              "name": "proofVerificationData",
              "type": "tuple",
              "internalType": "struct ProofVerificationData",
              "components": [
                {
                  "name": "vkeyHash",
                  "type": "bytes32",
                  "internalType": "bytes32"
                },
                {
                  "name": "proof",
                  "type": "bytes",
                  "internalType": "bytes"
                },
                {
                  "name": "publicInputs",
                  "type": "bytes32[]",
                  "internalType": "bytes32[]"
                }
              ]
            },
            {
              "name": "commitments",
              "type": "tuple",
              "internalType": "struct Commitments",
              "components": [
                {
                  "name": "committedInputs",
                  "type": "bytes",
                  "internalType": "bytes"
                },
                {
                  "name": "committedInputCounts",
                  "type": "uint256[]",
                  "internalType": "uint256[]"
                }
              ]
            },
            {
              "name": "serviceConfig",
              "type": "tuple",
              "internalType": "struct ServiceConfig",
              "components": [
                {
                  "name": "validityPeriodInSeconds",
                  "type": "uint256",
                  "internalType": "uint256"
                },
                {
                  "name": "domain",
                  "type": "string",
                  "internalType": "string"
                },
                {
                  "name": "scope",
                  "type": "string",
                  "internalType": "string"
                },
                {
                  "name": "devMode",
                  "type": "bool",
                  "internalType": "bool"
                }
              ]
            }
          ]
        }
      ],
      "outputs": [
        {
          "name": "isValid",
          "type": "bool",
          "internalType": "bool"
        },
        {
          "name": "uniqueIdentifier",
          "type": "bytes32",
          "internalType": "bytes32"
        }
      ],
      "stateMutability": "view"
    },
    {
      "type": "function",
      "name": "verifyScopes",
      "inputs": [
        {
          "name": "publicInputs",
          "type": "bytes32[]",
          "internalType": "bytes32[]"
        },
        {
          "name": "domain",
          "type": "string",
          "internalType": "string"
        },
        {
          "name": "scope",
          "type": "string",
          "internalType": "string"
        }
      ],
      "outputs": [
        {
          "name": "",
          "type": "bool",
          "internalType": "bool"
        }
      ],
      "stateMutability": "pure"
    },
    {
      "type": "function",
      "name": "vkeyHashToVerifier",
      "inputs": [
        {
          "name": "",
          "type": "bytes32",
          "internalType": "bytes32"
        }
      ],
      "outputs": [
        {
          "name": "",
          "type": "address",
          "internalType": "address"
        }
      ],
      "stateMutability": "view"
    },
    {
      "type": "event",
      "name": "AdminUpdated",
      "inputs": [
        {
          "name": "oldAdmin",
          "type": "address",
          "indexed": true,
          "internalType": "address"
        },
        {
          "name": "newAdmin",
          "type": "address",
          "indexed": true,
          "internalType": "address"
        }
      ],
      "anonymous": false
    },
    {
      "type": "event",
      "name": "CertificateRegistryRootAdded",
      "inputs": [
        {
          "name": "certificateRegistryRoot",
          "type": "bytes32",
          "indexed": true,
          "internalType": "bytes32"
        }
      ],
      "anonymous": false
    },
    {
      "type": "event",
      "name": "CertificateRegistryRootRemoved",
      "inputs": [
        {
          "name": "certificateRegistryRoot",
          "type": "bytes32",
          "indexed": true,
          "internalType": "bytes32"
        }
      ],
      "anonymous": false
    },
    {
      "type": "event",
      "name": "PausedStatusChanged",
      "inputs": [
        {
          "name": "paused",
          "type": "bool",
          "indexed": false,
          "internalType": "bool"
        }
      ],
      "anonymous": false
    },
    {
      "type": "event",
      "name": "SanctionsTreesRootUpdates",
      "inputs": [
        {
          "name": "_sanctionsTreesRoot",
          "type": "bytes32",
          "indexed": true,
          "internalType": "bytes32"
        }
      ],
      "anonymous": false
    },
    {
      "type": "event",
      "name": "VerifierAdded",
      "inputs": [
        {
          "name": "vkeyHash",
          "type": "bytes32",
          "indexed": true,
          "internalType": "bytes32"
        },
        {
          "name": "verifier",
          "type": "address",
          "indexed": true,
          "internalType": "address"
        }
      ],
      "anonymous": false
    },
    {
      "type": "event",
      "name": "VerifierRemoved",
      "inputs": [
        {
          "name": "vkeyHash",
          "type": "bytes32",
          "indexed": true,
          "internalType": "bytes32"
        }
      ],
      "anonymous": false
    },
    {
      "type": "event",
      "name": "ZKPassportVerifierDeployed",
      "inputs": [
        {
          "name": "admin",
          "type": "address",
          "indexed": true,
          "internalType": "address"
        },
        {
          "name": "timestamp",
          "type": "uint256",
          "indexed": false,
          "internalType": "uint256"
        }
      ],
      "anonymous": false
    }
  ],
  "bytecode": {
    "object": "0x608060405234801561000f575f5ffd5b50604051613e06380380613e0683398101604081905261002e916100f6565b6001600160a01b0381166100945760405162461bcd60e51b8152602060048201526024808201527f526f6f742072656769737472792063616e6e6f74206265207a65726f206164646044820152637265737360e01b606482015260840160405180910390fd5b5f8054336001600160a01b03199182168117909255600280549091166001600160a01b0384161790556040514281527ff29b53747ae7121d0958d490ad3d5cf6767119b0fdbd8389d918de3a12cf5a299060200160405180910390a250610123565b5f60208284031215610106575f5ffd5b81516001600160a01b038116811461011c575f5ffd5b9392505050565b613cd6806101305f395ff3fe608060405234801561000f575f5ffd5b506004361061023f575f3560e01c80638d6937b811610135578063c3fa6f22116100b4578063ddd8f8e311610079578063ddd8f8e31461051a578063ec8e07291461052d578063f3757ad414610557578063f851a44014610577578063ff20370714610589575f5ffd5b8063c3fa6f22146104bb578063ca4051f2146104ce578063cf515d37146104e1578063d39a5cf9146104f4578063d4932b4e14610507575f5ffd5b8063ac20d678116100fa578063ac20d6781461045c578063b8bd48791461046f578063b96b161c14610482578063c04fa6fe14610495578063c1b77162146104a8575f5ffd5b80638d6937b8146103f05780638e2e2e621461040357806398e73ac3146104165780639c1a81a314610436578063a6df2c0114610449575f5ffd5b80635b7ab929116101c15780637e5a88f3116101865780637e5a88f3146103645780638163f23114610377578063818694f1146103b7578063847755e3146103ca5780638b2ec611146103dd575f5ffd5b80635b7ab9291461031b5780635c975abb1461032e578063652ba33d146103415780636c40d5d61461034957806375829def14610351575f5ffd5b8063311a335c11610207578063311a335c146102b9578063320d3b55146102cc5780633d6ed975146102df57806341a0e2c2146102f257806346b758a014610308575f5ffd5b806316c38b3c1461024357806316e3d7291461025857806318677f2a1461026b5780631fac43451461027e5780632e5ce77f146102a6575b5f5ffd5b610256610251366004612b12565b61059c565b005b610256610266366004612b43565b610625565b610256610279366004612b88565b6106ac565b61029161028c366004612bb3565b610759565b60405190151581526020015b60405180910390f35b6102916102b4366004612c2c565b610771565b6102916102c7366004612c63565b6108a5565b6102916102da366004612bb3565b6108bf565b6102916102ed366004612c63565b6108ce565b6102fa600181565b60405190815260200161029d565b610291610316366004612d8d565b6108dd565b610291610329366004612d8d565b6108f3565b5f5461029190600160a01b900460ff1681565b6102fa600381565b6102fa600281565b61025661035f366004612b88565b610900565b610291610372366004612d8d565b6109ce565b61039f610385366004612eab565b60016020525f90815260409020546001600160a01b031681565b6040516001600160a01b03909116815260200161029d565b6102916103c5366004612c2c565b6109db565b6102916103d8366004612f46565b610a43565b6102916103eb366004612bb3565b610c0b565b6102566103fe366004612fe2565b610c1a565b610291610411366004612bb3565b610cda565b610429610424366004612b43565b610ce8565b60405161029d919061304e565b610291610444366004612bb3565b610e13565b610256610457366004613084565b610e2d565b61029161046a366004612bb3565b610f57565b61029161047d366004612bb3565b610f71565b60025461039f906001600160a01b031681565b6102916104a33660046130fa565b610f8b565b6102916104b6366004612bb3565b6112a1565b6102916104c9366004612c2c565b6112af565b6102916104dc366004612bb3565b6112c5565b6102916104ef366004613142565b6112d3565b610291610502366004612d8d565b611527565b610291610515366004612c2c565b611534565b610291610528366004612bb3565b611668565b61054061053b366004613170565b611682565b60408051921515835260208301919091520161029d565b61056a6105653660046131a6565b611ca2565b60405161029d91906131f4565b5f5461039f906001600160a01b031681565b610291610597366004612c2c565b611de2565b5f546001600160a01b031633146105ce5760405162461bcd60e51b81526004016105c5906132e3565b60405180910390fd5b5f8054821515600160a01b0260ff60a01b199091161790556040517f9a506b30e47f3823b09f67e4c0dfa5c3d8023b71825b7ceaa97677129128c9c59061061a90831515815260200190565b60405180910390a150565b604051632988ebc960e21b81525f9073__$144f4fe859debe4776cdef2b99f7b97a42$__9063a623af249061065e908590600401613421565b602060405180830381865af4158015610679573d5f5f3e3d5ffd5b505050506040513d601f19601f8201168201806040525081019061069d9190613433565b90506106a881611def565b5050565b5f546001600160a01b031633146106d55760405162461bcd60e51b81526004016105c5906132e3565b6001600160a01b0381166107375760405162461bcd60e51b8152602060048201526024808201527f526f6f742072656769737472792063616e6e6f74206265207a65726f206164646044820152637265737360e01b60648201526084016105c5565b600280546001600160a01b0319166001600160a01b0392909216919091179055565b5f6107678460028585611eb0565b90505b9392505050565b5f5f5f5f73__$144f4fe859debe4776cdef2b99f7b97a42$__6384052813876040518263ffffffff1660e01b81526004016107ac9190613421565b606060405180830381865af41580156107c7573d5f5f3e3d5ffd5b505050506040513d601f19601f820116820180604052508101906107eb919061344a565b919450925090506107fd8386356120a2565b6108195760405162461bcd60e51b81526004016105c59061348b565b60ff811615610892576040805162461bcd60e51b81526020600482015260248101919091527f5468652070726f6f6620757070657220626f756e64206d75737420626520302c60448201527f20706c65617365207573652069734167654265747765656e20696e737465616460648201526084016105c5565b5060ff8681169116149150509392505050565b5f6108b48585600286866120cf565b90505b949350505050565b5f6107678485600286866120cf565b5f6108b48585600386866120cf565b5f6108ea836004846123f2565b90505b92915050565b5f6108ea836007846123f2565b5f546001600160a01b031633146109295760405162461bcd60e51b81526004016105c5906132e3565b6001600160a01b03811661097f5760405162461bcd60e51b815260206004820152601c60248201527f41646d696e2063616e6e6f74206265207a65726f20616464726573730000000060448201526064016105c5565b5f80546001600160a01b038381166001600160a01b0319831681178455604051919092169283917f101b8081ff3b56bbf45deb824d86a3b0fd38b7e3dd42421105cf8abe9106db0b9190a35050565b5f6108ea836006846123f2565b5f5f8460ff1611610a2e5760405162461bcd60e51b815260206004820152601e60248201527f4d617820616765206d7573742062652067726561746572207468616e2030000060448201526064016105c5565b610767610a3c600186613510565b8484611534565b5f5f610a8386868080601f0160208091040260200160405190810160405280939291908181526020018383808284375f9201919091525061250092505050565b610afd57600860028787604051602001610a9e929190613529565b60408051601f1981840301815290829052610ab891613538565b602060405180830381855afa158015610ad3573d5f5f3e3d5ffd5b5050506040513d601f19601f82011682018060405250810190610af69190613433565b901c610aff565b5f5b90505f610b4085858080601f0160208091040260200160405190810160405280939291908181526020018383808284375f9201919091525061250092505050565b610bba57600860028686604051602001610b5b929190613529565b60408051601f1981840301815290829052610b7591613538565b602060405180830381855afa158015610b90573d5f5f3e3d5ffd5b5050506040513d601f19601f82011682018060405250810190610bb39190613433565b901c610bbc565b5f5b90508189896003818110610bd257610bd261354e565b90506020020135148015610bfe57508089896004818110610bf557610bf561354e565b90506020020135145b9998505050505050505050565b5f6107678485600386866120cf565b5f546001600160a01b03163314610c435760405162461bcd60e51b81526004016105c5906132e3565b5f5b81811015610cd55760015f848484818110610c6257610c6261354e565b602090810292909201358352508101919091526040015f2080546001600160a01b0319169055828282818110610c9a57610c9a61354e565b905060200201357f6fdcbcf8f91bc23f2c9dcfe8fe01d80d1b1afbbf207298e94c0171ccc587424c60405160405180910390a2600101610c45565b505050565b5f6107678460038585611eb0565b60408051606080820183525f80835260208301529181019190915260405163dfda037960e01b81525f9073__$144f4fe859debe4776cdef2b99f7b97a42$__9063dfda037990610d3c908690600401613421565b5f60405180830381865af4158015610d56573d5f5f3e3d5ffd5b505050506040513d5f823e601f3d908101601f19168201604052610d7d91908101906135b1565b604051630578c5d360e11b815290915073__$144f4fe859debe4776cdef2b99f7b97a42$__90630af18ba690610db79084906004016135e2565b5f60405180830381865af4158015610dd1573d5f5f3e3d5ffd5b505050506040513d5f823e601f3d908101601f19168201604052610df891908101906135f4565b604085015260208401526001600160a01b0316825250919050565b5f610767610e24620151808661363f565b60028585611eb0565b5f546001600160a01b03163314610e565760405162461bcd60e51b81526004016105c5906132e3565b5f5b83811015610f5057828282818110610e7257610e7261354e565b9050602002016020810190610e879190612b88565b60015f878785818110610e9c57610e9c61354e565b9050602002013581526020019081526020015f205f6101000a8154816001600160a01b0302191690836001600160a01b03160217905550828282818110610ee557610ee561354e565b9050602002016020810190610efa9190612b88565b6001600160a01b0316858583818110610f1557610f1561354e565b905060200201357f636107338a3eb46f1f60562462f3ec11393d35fbc965991aaade3b9e7d89c3f560405160405180910390a3600101610e58565b5050505050565b5f610767610f688562015180613652565b60038585612505565b5f610767610f828562015180613652565b60028585612505565b5f5f5f5f5f5f73__$144f4fe859debe4776cdef2b99f7b97a42$__63defa8ed9896040518263ffffffff1660e01b8152600401610fc89190613421565b60a060405180830381865af4158015610fe3573d5f5f3e3d5ffd5b505050506040513d601f19601f820116820180604052508101906110079190613665565b9398509196509450925090505f6001856001811115611028576110286136bd565b1490505f8b600281111561103e5761103e6136bd565b836002811115611050576110506136bd565b1490505f7f2532418a107c5306fa8308c22255792cf77e4a290cbce8a840a642a3e591340b881480156110ae575060018c6002811115611092576110926136bd565b14806110ae57505f8c60028111156110ac576110ac6136bd565b145b8061110e57507f16700a2d9168a194fc85f237af5829b5a2be05b8ae8ac4879ada34cf54a9c2118814801561110e575060028c60028111156110f2576110f26136bd565b148061110e57505f8c600281111561110c5761110c6136bd565b145b90505f7f1fa73686cf510f8f85757b0602de0dd72a13e68ae2092462be8b72662e7f179b8714801561116b575060018d600281111561114f5761114f6136bd565b148061116b57505f8d6002811115611169576111696136bd565b145b806111cb57507f24d9929b248be7eeecaa98e105c034a50539610f3fdd4cb9c8983ef4100d615d871480156111cb575060028d60028111156111af576111af6136bd565b14806111cb57505f8d60028111156111c9576111c96136bd565b145b90505f86158015611207575060018e60028111156111eb576111eb6136bd565b148061120757505f8e6002811115611205576112056136bd565b145b8061126757507f12e3dc7cc8fec0205b51ff21825630865028f3be5bc64a6eec9ee5e71221319f87148015611267575060028e600281111561124b5761124b6136bd565b148061126757505f8e6002811115611265576112656136bd565b145b90508480156112735750835b801561127c5750825b80156112855750815b801561128e5750805b9f9e505050505050505050505050505050565b5f6107678460028585612505565b5f6107676112be8560016136d1565b8484610771565b5f6107678460038585612505565b5f5f5f5f73__$144f4fe859debe4776cdef2b99f7b97a42$__6384052813876040518263ffffffff1660e01b815260040161130e9190613421565b606060405180830381865af4158015611329573d5f5f3e3d5ffd5b505050506040513d601f19601f8201168201806040525081019061134d919061344a565b9194509250905061135f8386356120a2565b61137b5760405162461bcd60e51b81526004016105c59061348b565b8660ff168860ff1611156113e75760405162461bcd60e51b815260206004820152602d60248201527f4d696e20616765206d757374206265206c657373207468616e206f722065717560448201526c616c20746f206d61782061676560981b60648201526084016105c5565b8160ff165f036114745760405162461bcd60e51b815260206004820152604c60248201527f5468652070726f6f66206c6f77657220626f756e64206d757374206265206e6f60448201527f6e2d7a65726f2c20706c656173652075736520697341676542656c6f774f724560648201526b1c5d585b081a5b9cdd19585960a21b608482015260a4016105c5565b8060ff165f036115015760405162461bcd60e51b815260206004820152604c60248201527f5468652070726f6f6620757070657220626f756e64206d757374206265206e6f60448201527f6e2d7a65726f2c20706c656173652075736520697341676541626f76654f724560648201526b1c5d585b081a5b9cdd19585960a21b608482015260a4016105c5565b8160ff168860ff1614801561151b57508060ff168760ff16145b98975050505050505050565b5f6108ea836005846123f2565b5f5f5f5f73__$144f4fe859debe4776cdef2b99f7b97a42$__6384052813876040518263ffffffff1660e01b815260040161156f9190613421565b606060405180830381865af415801561158a573d5f5f3e3d5ffd5b505050506040513d601f19601f820116820180604052508101906115ae919061344a565b919450925090506115c08386356120a2565b6115dc5760405162461bcd60e51b81526004016105c59061348b565b60ff821615611655576040805162461bcd60e51b81526020600482015260248101919091527f5468652070726f6f66206c6f77657220626f756e64206d75737420626520302c60448201527f20706c65617365207573652069734167654265747765656e20696e737465616460648201526084016105c5565b60ff878116911614925050509392505050565b5f610767611679620151808661363f565b60038585611eb0565b5f80548190600160a01b900460ff16156116d35760405162461bcd60e51b815260206004820152601260248201527110dbdb9d1c9858dd081a5cc81c185d5cd95960721b60448201526064016105c5565b5f6116e76116e185806136ea565b35612736565b90506117206116f685806136ea565b611704906040810190613708565b5f8181106117145761171461354e565b9050602002013561278f565b61175861172d85806136ea565b61173b906040810190613708565b600181811061174c5761174c61354e565b90506020020135612857565b6117b761176585806136ea565b611773906040810190613708565b808060200260200160405190810160405280939291908181526020018383602002808284375f920191909152506117b192505050604087018761374d565b35612915565b61181f5760405162461bcd60e51b815260206004820152603360248201527f5468652070726f6f66207761732067656e657261746564206f757473696465206044820152721d1a19481d985b1a591a5d1e481c195c9a5bd9606a1b60648201526084016105c5565b61187061182c85806136ea565b61183a906040810190613708565b611847604088018861374d565b611855906020810190613761565b61186260408a018a61374d565b6103d8906040810190613761565b6118bc5760405162461bcd60e51b815260206004820152601760248201527f496e76616c696420646f6d61696e206f722073636f706500000000000000000060448201526064016105c5565b61194f6118c985806136ea565b6118d7906040810190613708565b60059060016118e689806136ea565b6118f4906040810190613708565b6118ff92915061363f565b9261190c939291906137a3565b808060200260200160405190810160405280939291908181526020018383602002808284375f9201919091525061194a9250505060208701876137ce565b612940565b5f61195a85806136ea565b611968906040810190613708565b600261197488806136ea565b611982906040810190613708565b61198d92915061363f565b81811061199c5761199c61354e565b905060200201355f1c60038111156119b6576119b66136bd565b905060028160038111156119cc576119cc6136bd565b141580156119ec575060038160038111156119e9576119e96136bd565b14155b80611a1057506119ff604086018661374d565b611a10906080810190606001612b12565b611a6d5760405162461bcd60e51b815260206004820152602860248201527f4d6f636b2070726f6f667320617265206f6e6c7920616c6c6f77656420696e20604482015267646576206d6f646560c01b60648201526084016105c5565b5f816003811115611a8057611a806136bd565b1480611aa55750611a94604086018661374d565b611aa5906080810190606001612b12565b611b055760405162461bcd60e51b815260206004820152602b60248201527f53616c746564206e756c6c69666965727320617265206e6f7420737570706f7260448201526a74656420666f72206e6f7760a81b60648201526084016105c5565b6007611b1186806136ea565b611b1f906040810190613708565b611b2a92915061363f565b611b3760208701876137ce565b611b45906020810190613708565b905014611ba25760405162461bcd60e51b815260206004820152602560248201527f496e76616c696420636f6d6d697474656420696e70757420636f756e7473206c6044820152640cadccee8d60db1b60648201526084016105c5565b6001600160a01b03821663ea50d0e4611bbb87806136ea565b611bc9906020810190613761565b611bd389806136ea565b611be1906040810190613708565b6040518563ffffffff1660e01b8152600401611c0094939291906137e2565b602060405180830381865afa158015611c1b573d5f5f3e3d5ffd5b505050506040513d601f19601f82011682018060405250810190611c3f9190613813565b93505f6001611c4e87806136ea565b611c5c906040810190613708565b611c6792915061363f565b9050611c7386806136ea565b611c81906040810190613708565b82818110611c9157611c9161354e565b905060200201359350505050915091565b611cea60405180610100016040528060608152602001606081526020016060815260200160608152602001606081526020016060815260200160608152602001606081525090565b604051635450abb360e11b81525f9073__$144f4fe859debe4776cdef2b99f7b97a42$__9063a8a1576690611d23908790600401613421565b5f60405180830381865af4158015611d3d573d5f5f3e3d5ffd5b505050506040513d5f823e601f3d908101601f19168201604052611d64919081019061382e565b6040516301e9bf5760e11b815290925073__$144f4fe859debe4776cdef2b99f7b97a42$__91506303d37eae90611da19084908790600401613887565b5f60405180830381865af4158015611dbb573d5f5f3e3d5ffd5b505050506040513d5f823e601f3d908101601f191682016040526108b791908101906138aa565b5f610767848585856112d3565b6002546040516383578c1160e01b815260036004820152602481018390526001600160a01b03909116906383578c1190604401602060405180830381865afa158015611e3d573d5f5f3e3d5ffd5b505050506040513d601f19601f82011682018060405250810190611e619190613813565b611ead5760405162461bcd60e51b815260206004820152601f60248201527f496e76616c69642073616e6374696f6e7320726567697374727920726f6f740060448201526064016105c5565b50565b5f5f5f5f73__$144f4fe859debe4776cdef2b99f7b97a42$__6374d9a37e87896040518363ffffffff1660e01b8152600401611eed929190613a3b565b606060405180830381865af4158015611f08573d5f5f3e3d5ffd5b505050506040513d601f19601f82011682018060405250810190611f2c9190613a78565b91945092509050611f3e8386356120a2565b611f5a5760405162461bcd60e51b81526004016105c59061348b565b8115611fd85760405162461bcd60e51b815260206004820152604160248201527f5468652070726f6f66206c6f77657220626f756e64206d75737420626520302c60448201527f20706c6561736520757365206973446174654265747765656e20696e737465616064820152601960fa1b608482015260a4016105c5565b600287600a811115611fec57611fec6136bd565b14806120095750600387600a811115612007576120076136bd565b145b6120255760405162461bcd60e51b81526004016105c590613aa3565b600287600a811115612039576120396136bd565b0361207757805f0361205d5760405162461bcd60e51b81526004016105c590613acf565b61206b6383aa7e808261363f565b881493505050506108b7565b805f036120965760405162461bcd60e51b81526004016105c590613b47565b871492506108b7915050565b5f806120ae8385613652565b90508342101580156120bf57508381115b80156108b7575042109392505050565b5f5f5f5f73__$144f4fe859debe4776cdef2b99f7b97a42$__6374d9a37e87896040518363ffffffff1660e01b815260040161210c929190613a3b565b606060405180830381865af4158015612127573d5f5f3e3d5ffd5b505050506040513d601f19601f8201168201806040525081019061214b9190613a78565b9194509250905061215d8386356120a2565b6121795760405162461bcd60e51b81526004016105c59061348b565b878911156121e15760405162461bcd60e51b815260206004820152602f60248201527f4d696e2064617465206d757374206265206c657373207468616e206f7220657160448201526e75616c20746f206d6178206461746560881b60648201526084016105c5565b600287600a8111156121f5576121f56136bd565b14806122125750600387600a811115612210576122106136bd565b145b61222e5760405162461bcd60e51b81526004016105c590613aa3565b600287600a811115612242576122426136bd565b0361232857815f036122d75760405162461bcd60e51b815260206004820152605260248201527f5468652070726f6f66206c6f77657220626f756e64206d757374206265206e6f60448201527f6e2d7a65726f2c20706c656173652075736520697342697274686461746542656064820152711b1bddd3dc915c5d585b081a5b9cdd19585960721b608482015260a4016105c5565b805f036122f65760405162461bcd60e51b81526004016105c590613acf565b6123046383aa7e808361363f565b8914801561231e575061231b6383aa7e808261363f565b88145b93505050506123e9565b815f036123b95760405162461bcd60e51b815260206004820152605360248201527f5468652070726f6f66206c6f77657220626f756e64206d757374206265206e6f60448201527f6e2d7a65726f2c20706c65617365207573652069734578706972794461746542606482015272195b1bddd3dc915c5d585b081a5b9cdd195859606a1b608482015260a4016105c5565b805f036123d85760405162461bcd60e51b81526004016105c590613b47565b818914801561231e57508714925050505b95945050505050565b5f5f5f73__$144f4fe859debe4776cdef2b99f7b97a42$__63dc8c5e9a85876040518363ffffffff1660e01b815260040161242e929190613a3b565b5f60405180830381865af4158015612448573d5f5f3e3d5ffd5b505050506040513d5f823e601f3d908101601f1916820160405261246f9190810190613bc0565b9150915080865114612485575f9250505061076a565b5f5b818110156124f3576124dc8782815181106124a4576124a461354e565b60200260200101518483815181106124be576124be61354e565b60200260200101518051602091820120825192909101919091201490565b6124eb575f935050505061076a565b600101612487565b5060019695505050505050565b511590565b5f5f5f5f73__$144f4fe859debe4776cdef2b99f7b97a42$__6374d9a37e87896040518363ffffffff1660e01b8152600401612542929190613a3b565b606060405180830381865af415801561255d573d5f5f3e3d5ffd5b505050506040513d601f19601f820116820180604052508101906125819190613a78565b919450925090506125938386356120a2565b6125af5760405162461bcd60e51b81526004016105c59061348b565b600287600a8111156125c3576125c36136bd565b14806125e05750600387600a8111156125de576125de6136bd565b145b6125fc5760405162461bcd60e51b81526004016105c590613aa3565b600287600a811115612610576126106136bd565b036126a65780156126985760405162461bcd60e51b815260206004820152604660248201527f5468652070726f6f6620757070657220626f756e64206d75737420626520302c60448201527f20706c65617365207573652069734269727468646174654265747765656e20696064820152651b9cdd19585960d21b608482015260a4016105c5565b61206b6383aa7e808361363f565b801561272a5760405162461bcd60e51b815260206004820152604760248201527f5468652070726f6f6620757070657220626f756e64206d75737420626520302c60448201527f20706c6561736520757365206973457870697279446174654265747765656e206064820152661a5b9cdd19585960ca1b608482015260a4016105c5565b50861491506108b79050565b5f818152600160205260408120546001600160a01b0316806108ed5760405162461bcd60e51b815260206004820152601260248201527115995c9a599a595c881b9bdd08199bdd5b9960721b60448201526064016105c5565b6002546040516383578c1160e01b815260016004820152602481018390526001600160a01b03909116906383578c1190604401602060405180830381865afa1580156127dd573d5f5f3e3d5ffd5b505050506040513d601f19601f820116820180604052508101906128019190613813565b611ead5760405162461bcd60e51b815260206004820152602160248201527f496e76616c696420636572746966696361746520726567697374727920726f6f6044820152601d60fa1b60648201526084016105c5565b600280546040516383578c1160e01b81526004810192909252602482018390526001600160a01b0316906383578c1190604401602060405180830381865afa1580156128a5573d5f5f3e3d5ffd5b505050506040513d601f19601f820116820180604052508101906128c99190613813565b611ead5760405162461bcd60e51b815260206004820152601d60248201527f496e76616c6964206369726375697420726567697374727920726f6f7400000060448201526064016105c5565b5f5f8360028151811061292a5761292a61354e565b60200260200101515f1c90506108b781846120a2565b5f805b6129506020840184613708565b9050811015612aaa575f600860026129688680613761565b869061297760208a018a613708565b888181106129875761298761354e565b90506020020135886129999190613652565b926129a693929190613c79565b6040516020016129b7929190613529565b60408051601f19818403018152908290526129d191613538565b602060405180830381855afa1580156129ec573d5f5f3e3d5ffd5b5050506040513d601f19601f82011682018060405250810190612a0f9190613433565b901c9050848281518110612a2557612a2561354e565b60200260200101518114612a705760405162461bcd60e51b8152602060048201526012602482015271125b9d985b1a590818dbdb5b5a5d1b595b9d60721b60448201526064016105c5565b612a7d6020850185613708565b83818110612a8d57612a8d61354e565b9050602002013583612a9f9190613652565b925050600101612943565b50612ab58280613761565b90508114610cd55760405162461bcd60e51b815260206004820152601f60248201527f496e76616c696420636f6d6d697474656420696e70757473206c656e6774680060448201526064016105c5565b8015158114611ead575f5ffd5b5f60208284031215612b22575f5ffd5b813561076a81612b05565b5f60408284031215612b3d575f5ffd5b50919050565b5f60208284031215612b53575f5ffd5b81356001600160401b03811115612b68575f5ffd5b6108b784828501612b2d565b6001600160a01b0381168114611ead575f5ffd5b5f60208284031215612b98575f5ffd5b813561076a81612b74565b5f60808284031215612b3d575f5ffd5b5f5f5f60608486031215612bc5575f5ffd5b8335925060208401356001600160401b03811115612be1575f5ffd5b612bed86828701612b2d565b92505060408401356001600160401b03811115612c08575f5ffd5b612c1486828701612ba3565b9150509250925092565b60ff81168114611ead575f5ffd5b5f5f5f60608486031215612c3e575f5ffd5b8335612c4981612c1e565b925060208401356001600160401b03811115612be1575f5ffd5b5f5f5f5f60808587031215612c76575f5ffd5b843593506020850135925060408501356001600160401b03811115612c99575f5ffd5b612ca587828801612b2d565b92505060608501356001600160401b03811115612cc0575f5ffd5b612ccc87828801612ba3565b91505092959194509250565b634e487b7160e01b5f52604160045260245ffd5b60405161010081016001600160401b0381118282101715612d0f57612d0f612cd8565b60405290565b604051601f8201601f191681016001600160401b0381118282101715612d3d57612d3d612cd8565b604052919050565b5f6001600160401b03821115612d5d57612d5d612cd8565b5060051b60200190565b5f6001600160401b03821115612d7f57612d7f612cd8565b50601f01601f191660200190565b5f5f60408385031215612d9e575f5ffd5b82356001600160401b03811115612db3575f5ffd5b8301601f81018513612dc3575f5ffd5b8035612dd6612dd182612d45565b612d15565b8082825260208201915060208360051b850101925087831115612df7575f5ffd5b602084015b83811015612e775780356001600160401b03811115612e19575f5ffd5b8501603f81018a13612e29575f5ffd5b6020810135612e3a612dd182612d67565b8181526040838301018c1015612e4e575f5ffd5b816040840160208301375f60208383010152808652505050602083019250602081019050612dfc565b50945050505060208301356001600160401b03811115612e95575f5ffd5b612ea185828601612b2d565b9150509250929050565b5f60208284031215612ebb575f5ffd5b5035919050565b5f5f83601f840112612ed2575f5ffd5b5081356001600160401b03811115612ee8575f5ffd5b6020830191508360208260051b8501011115612f02575f5ffd5b9250929050565b5f5f83601f840112612f19575f5ffd5b5081356001600160401b03811115612f2f575f5ffd5b602083019150836020828501011115612f02575f5ffd5b5f5f5f5f5f5f60608789031215612f5b575f5ffd5b86356001600160401b03811115612f70575f5ffd5b612f7c89828a01612ec2565b90975095505060208701356001600160401b03811115612f9a575f5ffd5b612fa689828a01612f09565b90955093505060408701356001600160401b03811115612fc4575f5ffd5b612fd089828a01612f09565b979a9699509497509295939492505050565b5f5f60208385031215612ff3575f5ffd5b82356001600160401b03811115613008575f5ffd5b61301485828601612ec2565b90969095509350505050565b5f81518084528060208401602086015e5f602082860101526020601f19601f83011685010191505092915050565b6020815260018060a01b038251166020820152602082015160408201525f60408301516060808401526108b76080840182613020565b5f5f5f5f60408587031215613097575f5ffd5b84356001600160401b038111156130ac575f5ffd5b6130b887828801612ec2565b90955093505060208501356001600160401b038111156130d6575f5ffd5b6130e287828801612ec2565b95989497509550505050565b60038110611ead575f5ffd5b5f5f5f5f6080858703121561310d575f5ffd5b8435613118816130ee565b93506020850135613128816130ee565b925060408501356001600160401b03811115612c99575f5ffd5b5f5f5f5f60808587031215613155575f5ffd5b843561316081612c1e565b9350602085013561312881612c1e565b5f60208284031215613180575f5ffd5b81356001600160401b03811115613195575f5ffd5b82016060818503121561076a575f5ffd5b5f5f604083850312156131b7575f5ffd5b82356001600160401b038111156131cc575f5ffd5b6131d885828601612b2d565b92505060208301356131e981612b05565b809150509250929050565b602081525f82516101006020840152613211610120840182613020565b90506020840151601f1984830301604085015261322e8282613020565b9150506040840151601f1984830301606085015261324c8282613020565b9150506060840151601f1984830301608085015261326a8282613020565b9150506080840151601f198483030160a08501526132888282613020565b91505060a0840151601f198483030160c08501526132a68282613020565b91505060c0840151601f198483030160e08501526132c48282613020565b91505060e0840151601f19848303016101008501526123e98282613020565b6020808252601a908201527f4e6f7420617574686f72697a65643a2061646d696e206f6e6c79000000000000604082015260600190565b81835281816020850137505f828201602090810191909152601f909101601f19169091010190565b8183525f6001600160fb1b03831115613359575f5ffd5b8260051b80836020870137939093016020019392505050565b5f8135601e1983360301808212613387575f5ffd5b602091840191820191356001600160401b038111156133a4575f5ffd5b8036038313156133b2575f5ffd5b604086526133c460408701828561331a565b92505060208401358181126133d7575f5ffd5b8401602081019150356001600160401b038111156133f3575f5ffd5b8060051b3603821315613404575f5ffd5b8583036020870152613417838284613342565b9695505050505050565b602081525f6108ea6020830184613372565b5f60208284031215613443575f5ffd5b5051919050565b5f5f5f6060848603121561345c575f5ffd5b8351602085015190935061346f81612c1e565b604085015190925061348081612c1e565b809150509250925092565b6020808252604b908201527f5468652063757272656e742064617465207573656420696e207468652070726f60408201527f6f6620646f6573206e6f742066616c6c2077697468696e207468652076616c6960608201526a191a5d1e481c195c9a5bd960aa1b608082015260a00190565b634e487b7160e01b5f52601160045260245ffd5b60ff82811682821603908111156108ed576108ed6134fc565b818382375f9101908152919050565b5f82518060208501845e5f920191825250919050565b634e487b7160e01b5f52603260045260245ffd5b5f82601f830112613571575f5ffd5b8151602083015f613584612dd184612d67565b9050828152858383011115613597575f5ffd5b8282602083015e5f92810160200192909252509392505050565b5f602082840312156135c1575f5ffd5b81516001600160401b038111156135d6575f5ffd5b6108b784828501613562565b602081525f6108ea6020830184613020565b5f5f5f60608486031215613606575f5ffd5b835161361181612b74565b6020850151604086015191945092506001600160401b03811115613633575f5ffd5b612c1486828701613562565b818103818111156108ed576108ed6134fc565b808201808211156108ed576108ed6134fc565b5f5f5f5f5f60a08688031215613679575f5ffd5b855160208701519095506002811061368f575f5ffd5b60408701516060880151608089015192965090945092506136af816130ee565b809150509295509295909350565b634e487b7160e01b5f52602160045260245ffd5b60ff81811683821601908111156108ed576108ed6134fc565b5f8235605e198336030181126136fe575f5ffd5b9190910192915050565b5f5f8335601e1984360301811261371d575f5ffd5b8301803591506001600160401b03821115613736575f5ffd5b6020019150600581901b3603821315612f02575f5ffd5b5f8235607e198336030181126136fe575f5ffd5b5f5f8335601e19843603018112613776575f5ffd5b8301803591506001600160401b0382111561378f575f5ffd5b602001915036819003821315612f02575f5ffd5b5f5f858511156137b1575f5ffd5b838611156137bd575f5ffd5b5050600583901b0193919092039150565b5f8235603e198336030181126136fe575f5ffd5b604081525f6137f560408301868861331a565b8281036020840152613808818587613342565b979650505050505050565b5f60208284031215613823575f5ffd5b815161076a81612b05565b5f5f6040838503121561383f575f5ffd5b82516001600160401b03811115613854575f5ffd5b61386085828601613562565b92505060208301516001600160401b0381111561387b575f5ffd5b612ea185828601613562565b604081525f6138996040830185613020565b905082151560208301529392505050565b5f602082840312156138ba575f5ffd5b81516001600160401b038111156138cf575f5ffd5b820161010081850312156138e1575f5ffd5b6138e9612cec565b81516001600160401b038111156138fe575f5ffd5b61390a86828501613562565b82525060208201516001600160401b03811115613925575f5ffd5b61393186828501613562565b60208301525060408201516001600160401b0381111561394f575f5ffd5b61395b86828501613562565b60408301525060608201516001600160401b03811115613979575f5ffd5b61398586828501613562565b60608301525060808201516001600160401b038111156139a3575f5ffd5b6139af86828501613562565b60808301525060a08201516001600160401b038111156139cd575f5ffd5b6139d986828501613562565b60a08301525060c08201516001600160401b038111156139f7575f5ffd5b613a0386828501613562565b60c08301525060e08201516001600160401b03811115613a21575f5ffd5b613a2d86828501613562565b60e083015250949350505050565b604081525f613a4d6040830185613372565b9050600b8310613a6b57634e487b7160e01b5f52602160045260245ffd5b8260208301529392505050565b5f5f5f60608486031215613a8a575f5ffd5b5050815160208301516040909301519094929350919050565b602080825260129082015271496e76616c69642070726f6f66207479706560701b604082015260600190565b60208082526052908201527f5468652070726f6f6620757070657220626f756e64206d757374206265206e6f60408201527f6e2d7a65726f2c20706c656173652075736520697342697274686461746541626060820152711bdd9953dc915c5d585b081a5b9cdd19585960721b608082015260a00190565b60208082526053908201527f5468652070726f6f6620757070657220626f756e64206d757374206265206e6f60408201527f6e2d7a65726f2c20706c65617365207573652069734578706972794461746541606082015272189bdd9953dc915c5d585b081a5b9cdd195859606a1b608082015260a00190565b5f5f60408385031215613bd1575f5ffd5b82516001600160401b03811115613be6575f5ffd5b8301601f81018513613bf6575f5ffd5b8051613c04612dd182612d45565b8082825260208201915060208360051b850101925087831115613c25575f5ffd5b602084015b83811015613c655780516001600160401b03811115613c47575f5ffd5b613c568a602083890101613562565b84525060209283019201613c2a565b506020969096015195979596505050505050565b5f5f85851115613c87575f5ffd5b83861115613c93575f5ffd5b505082019391909203915056fea264697066735822122003976ad8bc435d1afd265436a8ca6c800493492d2b2a0afcb7cacd312db60e3f64736f6c634300081d0033",
    "linkReferences": {
      "src/InputsExtractor.sol": {
        "InputsExtractor": [
          {
            "start": 1894,
            "length": 20
          },
          {
            "start": 2215,
            "length": 20
          },
          {
            "start": 3652,
            "length": 20
          },
          {
            "start": 3775,
            "length": 20
          },
          {
            "start": 4291,
            "length": 20
          },
          {
            "start": 5129,
            "length": 20
          },
          {
            "start": 5738,
            "length": 20
          },
          {
            "start": 7723,
            "length": 20
          },
          {
            "start": 7846,
            "length": 20
          },
          {
            "start": 8166,
            "length": 20
          },
          {
            "start": 8709,
            "length": 20
          },
          {
            "start": 9511,
            "length": 20
          },
          {
            "start": 9787,
            "length": 20
          }
        ]
      }
    }
  },
  "methodIdentifiers": {
    "CERTIFICATE_REGISTRY_ID()": "41a0e2c2",
    "CIRCUIT_REGISTRY_ID()": "6c40d5d6",
    "SANCTIONS_REGISTRY_ID()": "652ba33d",
    "addVerifiers(bytes32[],address[])": "a6df2c01",
    "admin()": "f851a440",
    "enforceSanctionsRoot((bytes,uint256[]))": "16e3d729",
    "getBoundData((bytes,uint256[]))": "98e73ac3",
    "getDisclosedData((bytes,uint256[]),bool)": "f3757ad4",
    "isAgeAbove(uint8,(bytes,uint256[]),(uint256,string,string,bool))": "c3fa6f22",
    "isAgeAboveOrEqual(uint8,(bytes,uint256[]),(uint256,string,string,bool))": "2e5ce77f",
    "isAgeBelow(uint8,(bytes,uint256[]),(uint256,string,string,bool))": "818694f1",
    "isAgeBelowOrEqual(uint8,(bytes,uint256[]),(uint256,string,string,bool))": "d4932b4e",
    "isAgeBetween(uint8,uint8,(bytes,uint256[]),(uint256,string,string,bool))": "cf515d37",
    "isAgeEqual(uint8,(bytes,uint256[]),(uint256,string,string,bool))": "ff203707",
    "isBirthdateAfter(uint256,(bytes,uint256[]),(uint256,string,string,bool))": "b8bd4879",
    "isBirthdateAfterOrEqual(uint256,(bytes,uint256[]),(uint256,string,string,bool))": "c1b77162",
    "isBirthdateBefore(uint256,(bytes,uint256[]),(uint256,string,string,bool))": "9c1a81a3",
    "isBirthdateBeforeOrEqual(uint256,(bytes,uint256[]),(uint256,string,string,bool))": "1fac4345",
    "isBirthdateBetween(uint256,uint256,(bytes,uint256[]),(uint256,string,string,bool))": "311a335c",
    "isBirthdateEqual(uint256,(bytes,uint256[]),(uint256,string,string,bool))": "320d3b55",
    "isExpiryDateAfter(uint256,(bytes,uint256[]),(uint256,string,string,bool))": "ac20d678",
    "isExpiryDateAfterOrEqual(uint256,(bytes,uint256[]),(uint256,string,string,bool))": "ca4051f2",
    "isExpiryDateBefore(uint256,(bytes,uint256[]),(uint256,string,string,bool))": "ddd8f8e3",
    "isExpiryDateBeforeOrEqual(uint256,(bytes,uint256[]),(uint256,string,string,bool))": "8e2e2e62",
    "isExpiryDateBetween(uint256,uint256,(bytes,uint256[]),(uint256,string,string,bool))": "3d6ed975",
    "isExpiryDateEqual(uint256,(bytes,uint256[]),(uint256,string,string,bool))": "8b2ec611",
    "isFaceMatchVerified(uint8,uint8,(bytes,uint256[]),(uint256,string,string,bool))": "c04fa6fe",
    "isIssuingCountryIn(string[],(bytes,uint256[]))": "7e5a88f3",
    "isIssuingCountryOut(string[],(bytes,uint256[]))": "5b7ab929",
    "isNationalityIn(string[],(bytes,uint256[]))": "46b758a0",
    "isNationalityOut(string[],(bytes,uint256[]))": "d39a5cf9",
    "paused()": "5c975abb",
    "removeVerifiers(bytes32[])": "8d6937b8",
    "rootRegistry()": "b96b161c",
    "setPaused(bool)": "16c38b3c",
    "transferAdmin(address)": "75829def",
    "updateRootRegistry(address)": "18677f2a",
    "verifyProof(((bytes32,bytes,bytes32[]),(bytes,uint256[]),(uint256,string,string,bool)))": "ec8e0729",
    "verifyScopes(bytes32[],string,string)": "847755e3",
    "vkeyHashToVerifier(bytes32)": "8163f231"
  },
  "id": 26
}