{
  "abi": [
    {
      "type": "constructor",
      "inputs": [
        {
          "name": "_admin",
          "type": "address",
          "internalType": "address"
        },
        {
          "name": "_guardian",
          "type": "address",
          "internalType": "address"
        },
        {
          "name": "_rootRegistry",
          "type": "address",
          "internalType": "contract RootRegistry"
        },
        {
          "name": "_defaultOPRFPubKeyHash",
          "type": "bytes32",
          "internalType": "bytes32"
        }
      ],
      "stateMutability": "nonpayable"
    },
    {
      "type": "function",
      "name": "addHelper",
      "inputs": [
        {
          "name": "version",
          "type": "bytes32",
          "internalType": "bytes32"
        },
        {
          "name": "newHelper",
          "type": "address",
          "internalType": "address"
        }
      ],
      "outputs": [],
      "stateMutability": "nonpayable"
    },
    {
      "type": "function",
      "name": "addSubVerifier",
      "inputs": [
        {
          "name": "version",
          "type": "bytes32",
          "internalType": "bytes32"
        },
        {
          "name": "subVerifier",
          "type": "address",
          "internalType": "contract SubVerifier"
        }
      ],
      "outputs": [],
      "stateMutability": "nonpayable"
    },
    {
      "type": "function",
      "name": "admin",
      "inputs": [],
      "outputs": [
        {
          "name": "",
          "type": "address",
          "internalType": "address"
        }
      ],
      "stateMutability": "view"
    },
    {
      "type": "function",
      "name": "config",
      "inputs": [
        {
          "name": "key",
          "type": "bytes32",
          "internalType": "bytes32"
        }
      ],
      "outputs": [
        {
          "name": "value",
          "type": "bytes32",
          "internalType": "bytes32"
        }
      ],
      "stateMutability": "view"
    },
    {
      "type": "function",
      "name": "defaultOPRFPubKeyHash",
      "inputs": [],
      "outputs": [
        {
          "name": "",
          "type": "bytes32",
          "internalType": "bytes32"
        }
      ],
      "stateMutability": "view"
    },
    {
      "type": "function",
      "name": "getHelper",
      "inputs": [
        {
          "name": "version",
          "type": "bytes32",
          "internalType": "bytes32"
        }
      ],
      "outputs": [
        {
          "name": "",
          "type": "address",
          "internalType": "address"
        }
      ],
      "stateMutability": "view"
    },
    {
      "type": "function",
      "name": "getSubVerifier",
      "inputs": [
        {
          "name": "version",
          "type": "bytes32",
          "internalType": "bytes32"
        }
      ],
      "outputs": [
        {
          "name": "",
          "type": "address",
          "internalType": "address"
        }
      ],
      "stateMutability": "view"
    },
    {
      "type": "function",
      "name": "guardian",
      "inputs": [],
      "outputs": [
        {
          "name": "",
          "type": "address",
          "internalType": "address"
        }
      ],
      "stateMutability": "view"
    },
    {
      "type": "function",
      "name": "helperCount",
      "inputs": [],
      "outputs": [
        {
          "name": "",
          "type": "uint256",
          "internalType": "uint256"
        }
      ],
      "stateMutability": "view"
    },
    {
      "type": "function",
      "name": "helpers",
      "inputs": [
        {
          "name": "",
          "type": "bytes32",
          "internalType": "bytes32"
        }
      ],
      "outputs": [
        {
          "name": "",
          "type": "address",
          "internalType": "contract VerifierHelper"
        }
      ],
      "stateMutability": "view"
    },
    {
      "type": "function",
      "name": "pause",
      "inputs": [],
      "outputs": [],
      "stateMutability": "nonpayable"
    },
    {
      "type": "function",
      "name": "paused",
      "inputs": [],
      "outputs": [
        {
          "name": "",
          "type": "bool",
          "internalType": "bool"
        }
      ],
      "stateMutability": "view"
    },
    {
      "type": "function",
      "name": "removeHelper",
      "inputs": [
        {
          "name": "version",
          "type": "bytes32",
          "internalType": "bytes32"
        }
      ],
      "outputs": [],
      "stateMutability": "nonpayable"
    },
    {
      "type": "function",
      "name": "removeSubVerifier",
      "inputs": [
        {
          "name": "version",
          "type": "bytes32",
          "internalType": "bytes32"
        }
      ],
      "outputs": [],
      "stateMutability": "nonpayable"
    },
    {
      "type": "function",
      "name": "rootRegistry",
      "inputs": [],
      "outputs": [
        {
          "name": "",
          "type": "address",
          "internalType": "contract RootRegistry"
        }
      ],
      "stateMutability": "view"
    },
    {
      "type": "function",
      "name": "setDefaultOPRFPubKeyHash",
      "inputs": [
        {
          "name": "newHash",
          "type": "bytes32",
          "internalType": "bytes32"
        }
      ],
      "outputs": [],
      "stateMutability": "nonpayable"
    },
    {
      "type": "function",
      "name": "setGuardian",
      "inputs": [
        {
          "name": "newGuardian",
          "type": "address",
          "internalType": "address"
        }
      ],
      "outputs": [],
      "stateMutability": "nonpayable"
    },
    {
      "type": "function",
      "name": "subverifierCount",
      "inputs": [],
      "outputs": [
        {
          "name": "",
          "type": "uint256",
          "internalType": "uint256"
        }
      ],
      "stateMutability": "view"
    },
    {
      "type": "function",
      "name": "subverifiers",
      "inputs": [
        {
          "name": "",
          "type": "bytes32",
          "internalType": "bytes32"
        }
      ],
      "outputs": [
        {
          "name": "",
          "type": "address",
          "internalType": "contract SubVerifier"
        }
      ],
      "stateMutability": "view"
    },
    {
      "type": "function",
      "name": "transferAdmin",
      "inputs": [
        {
          "name": "newAdmin",
          "type": "address",
          "internalType": "address"
        }
      ],
      "outputs": [],
      "stateMutability": "nonpayable"
    },
    {
      "type": "function",
      "name": "unpause",
      "inputs": [],
      "outputs": [],
      "stateMutability": "nonpayable"
    },
    {
      "type": "function",
      "name": "updateConfig",
      "inputs": [
        {
          "name": "key",
          "type": "bytes32",
          "internalType": "bytes32"
        },
        {
          "name": "value",
          "type": "bytes32",
          "internalType": "bytes32"
        }
      ],
      "outputs": [],
      "stateMutability": "nonpayable"
    },
    {
      "type": "function",
      "name": "updateHelper",
      "inputs": [
        {
          "name": "version",
          "type": "bytes32",
          "internalType": "bytes32"
        },
        {
          "name": "newHelper",
          "type": "address",
          "internalType": "address"
        }
      ],
      "outputs": [],
      "stateMutability": "nonpayable"
    },
    {
      "type": "function",
      "name": "updateSubVerifier",
      "inputs": [
        {
          "name": "version",
          "type": "bytes32",
          "internalType": "bytes32"
        },
        {
          "name": "newSubVerifier",
          "type": "address",
          "internalType": "address"
        }
      ],
      "outputs": [],
      "stateMutability": "nonpayable"
    },
    {
      "type": "function",
      "name": "verify",
      "inputs": [
        {
          "name": "params",
          "type": "tuple",
          "internalType": "struct ProofVerificationParams",
          "components": [
            {
              "name": "version",
              "type": "bytes32",
              "internalType": "bytes32"
            },
            {
              "name": "proofVerificationData",
              "type": "tuple",
              "internalType": "struct ProofVerificationData",
              "components": [
                {
                  "name": "vkeyHash",
                  "type": "bytes32",
                  "internalType": "bytes32"
                },
                {
                  "name": "proof",
                  "type": "bytes",
                  "internalType": "bytes"
                },
                {
                  "name": "publicInputs",
                  "type": "bytes32[]",
                  "internalType": "bytes32[]"
                }
              ]
            },
            {
              "name": "committedInputs",
              "type": "bytes",
              "internalType": "bytes"
            },
            {
              "name": "serviceConfig",
              "type": "tuple",
              "internalType": "struct ServiceConfig",
              "components": [
                {
                  "name": "validityPeriodInSeconds",
                  "type": "uint256",
                  "internalType": "uint256"
                },
                {
                  "name": "domain",
                  "type": "string",
                  "internalType": "string"
                },
                {
                  "name": "scope",
                  "type": "string",
                  "internalType": "string"
                },
                {
                  "name": "devMode",
                  "type": "bool",
                  "internalType": "bool"
                }
              ]
            }
          ]
        }
      ],
      "outputs": [
        {
          "name": "valid",
          "type": "bool",
          "internalType": "bool"
        },
        {
          "name": "uniqueIdentifier",
          "type": "bytes32",
          "internalType": "bytes32"
        },
        {
          "name": "helper",
          "type": "address",
          "internalType": "contract VerifierHelper"
        }
      ],
      "stateMutability": "view"
    },
    {
      "type": "event",
      "name": "AdminUpdated",
      "inputs": [
        {
          "name": "oldAdmin",
          "type": "address",
          "indexed": true,
          "internalType": "address"
        },
        {
          "name": "newAdmin",
          "type": "address",
          "indexed": true,
          "internalType": "address"
        }
      ],
      "anonymous": false
    },
    {
      "type": "event",
      "name": "ConfigUpdated",
      "inputs": [
        {
          "name": "key",
          "type": "bytes32",
          "indexed": true,
          "internalType": "bytes32"
        },
        {
          "name": "oldValue",
          "type": "bytes32",
          "indexed": false,
          "internalType": "bytes32"
        },
        {
          "name": "newValue",
          "type": "bytes32",
          "indexed": false,
          "internalType": "bytes32"
        }
      ],
      "anonymous": false
    },
    {
      "type": "event",
      "name": "DefaultOPRFPubKeyHashUpdated",
      "inputs": [
        {
          "name": "oldHash",
          "type": "bytes32",
          "indexed": false,
          "internalType": "bytes32"
        },
        {
          "name": "newHash",
          "type": "bytes32",
          "indexed": false,
          "internalType": "bytes32"
        }
      ],
      "anonymous": false
    },
    {
      "type": "event",
      "name": "GuardianUpdated",
      "inputs": [
        {
          "name": "oldGuardian",
          "type": "address",
          "indexed": true,
          "internalType": "address"
        },
        {
          "name": "newGuardian",
          "type": "address",
          "indexed": true,
          "internalType": "address"
        }
      ],
      "anonymous": false
    },
    {
      "type": "event",
      "name": "HelperAdded",
      "inputs": [
        {
          "name": "version",
          "type": "bytes32",
          "indexed": true,
          "internalType": "bytes32"
        },
        {
          "name": "helper",
          "type": "address",
          "indexed": true,
          "internalType": "address"
        }
      ],
      "anonymous": false
    },
    {
      "type": "event",
      "name": "HelperRemoved",
      "inputs": [
        {
          "name": "version",
          "type": "bytes32",
          "indexed": true,
          "internalType": "bytes32"
        },
        {
          "name": "helper",
          "type": "address",
          "indexed": true,
          "internalType": "address"
        }
      ],
      "anonymous": false
    },
    {
      "type": "event",
      "name": "HelperUpdated",
      "inputs": [
        {
          "name": "version",
          "type": "bytes32",
          "indexed": true,
          "internalType": "bytes32"
        },
        {
          "name": "oldHelper",
          "type": "address",
          "indexed": true,
          "internalType": "address"
        },
        {
          "name": "newHelper",
          "type": "address",
          "indexed": true,
          "internalType": "address"
        }
      ],
      "anonymous": false
    },
    {
      "type": "event",
      "name": "PausedStatusChanged",
      "inputs": [
        {
          "name": "paused",
          "type": "bool",
          "indexed": false,
          "internalType": "bool"
        }
      ],
      "anonymous": false
    },
    {
      "type": "event",
      "name": "RootRegistryUpdated",
      "inputs": [
        {
          "name": "oldRootRegistry",
          "type": "address",
          "indexed": true,
          "internalType": "address"
        },
        {
          "name": "newRootRegistry",
          "type": "address",
          "indexed": true,
          "internalType": "address"
        }
      ],
      "anonymous": false
    },
    {
      "type": "event",
      "name": "RootVerifierDeployed",
      "inputs": [
        {
          "name": "admin",
          "type": "address",
          "indexed": false,
          "internalType": "address"
        },
        {
          "name": "guardian",
          "type": "address",
          "indexed": false,
          "internalType": "address"
        },
        {
          "name": "rootRegistry",
          "type": "address",
          "indexed": false,
          "internalType": "address"
        }
      ],
      "anonymous": false
    },
    {
      "type": "event",
      "name": "SubVerifierAdded",
      "inputs": [
        {
          "name": "version",
          "type": "bytes32",
          "indexed": true,
          "internalType": "bytes32"
        },
        {
          "name": "subVerifier",
          "type": "address",
          "indexed": true,
          "internalType": "address"
        }
      ],
      "anonymous": false
    },
    {
      "type": "event",
      "name": "SubVerifierRemoved",
      "inputs": [
        {
          "name": "version",
          "type": "bytes32",
          "indexed": true,
          "internalType": "bytes32"
        },
        {
          "name": "subVerifier",
          "type": "address",
          "indexed": true,
          "internalType": "address"
        }
      ],
      "anonymous": false
    },
    {
      "type": "event",
      "name": "SubVerifierUpdated",
      "inputs": [
        {
          "name": "version",
          "type": "bytes32",
          "indexed": true,
          "internalType": "bytes32"
        },
        {
          "name": "oldSubVerifier",
          "type": "address",
          "indexed": true,
          "internalType": "address"
        },
        {
          "name": "newSubVerifier",
          "type": "address",
          "indexed": true,
          "internalType": "address"
        }
      ],
      "anonymous": false
    }
  ],
  "bytecode": {
    "object": "0x608060405234801561000f575f5ffd5b506040516115cd3803806115cd83398101604081905261002e91610164565b6001600160a01b0384166100885760405162461bcd60e51b815260206004820152601c60248201527f41646d696e2063616e6e6f74206265207a65726f206164647265737300000000604482015260640160405180910390fd5b5f80546001600160a01b038681166001600160a01b03199283168117909355600180548783169084168117909155600280549287169290931682179092556008849055604080519384526020840192909252908201527f49958336430bdf59d989fb74186fd9ed78af011655d4ffe62fa2fbe5193edbda9060600160405180910390a1604080515f8152602081018390527f748956aa23d31e349f0a88960f2feb833a49a731af392d67a35563ca96249fb6910160405180910390a1505050506101b4565b6001600160a01b0381168114610161575f5ffd5b50565b5f5f5f5f60808587031215610177575f5ffd5b84516101828161014d565b60208601519094506101938161014d565b60408601519093506101a48161014d565b6060959095015193969295505050565b61140c806101c15f395ff3fe608060405234801561000f575f5ffd5b506004361061016d575f3560e01c80638988afbd116100d9578063b96b161c11610093578063cc718f761161006e578063cc718f7614610379578063da0ff2c614610398578063f2649807146103a1578063f851a440146103c9575f5ffd5b8063b96b161c1461034a578063ba5f3f9d1461035d578063c961ba7e14610370575f5ffd5b80638988afbd1461029d5780638a0dac4a146102d65780639bfefbfd146102e9578063a7ad58bf146102fc578063b3c83d9914610324578063b950506d14610337575f5ffd5b80635dd41f2f1161012a5780635dd41f2f1461021d57806366b4dfc4146102455780636f9076381461025c57806375829def1461026f5780638456cb5914610282578063889eba3b1461028a575f5ffd5b806307915439146101715780633f4ba83a14610186578063452a93201461018e578063492f34fb146101be57806352741df5146101e65780635c975abb146101f9575b5f5ffd5b61018461017f366004610f9f565b6103db565b005b6101846104e0565b6001546101a1906001600160a01b031681565b6040516001600160a01b0390911681526020015b60405180910390f35b6101a16101cc366004610fcd565b60036020525f90815260409020546001600160a01b031681565b6101846101f4366004610f9f565b61054c565b60015461020d90600160a01b900460ff1681565b60405190151581526020016101b5565b6101a161022b366004610fcd565b5f908152600560205260409020546001600160a01b031690565b61024e60085481565b6040519081526020016101b5565b61018461026a366004610fcd565b6106c8565b61018461027d366004610fe4565b6107a9565b610184610877565b610184610298366004611006565b610937565b6102b06102ab366004611026565b6109b5565b60408051931515845260208401929092526001600160a01b0316908201526060016101b5565b6101846102e4366004610fe4565b610ae2565b6101846102f7366004610fcd565b610b5c565b6101a161030a366004610fcd565b60056020525f90815260409020546001600160a01b031681565b610184610332366004610f9f565b610c6d565b610184610345366004610fcd565b610dbe565b6002546101a1906001600160a01b031681565b61018461036b366004610f9f565b610e2c565b61024e60045481565b61024e610387366004610fcd565b60076020525f908152604090205481565b61024e60065481565b6101a16103af366004610fcd565b5f908152600360205260409020546001600160a01b031690565b5f546101a1906001600160a01b031681565b5f546001600160a01b0316331461040d5760405162461bcd60e51b81526004016104049061105d565b60405180910390fd5b8161042a5760405162461bcd60e51b815260040161040490611094565b6001600160a01b0381166104505760405162461bcd60e51b8152600401610404906110c4565b5f828152600360205260409020546001600160a01b03166104835760405162461bcd60e51b815260040161040490611106565b5f8281526003602052604080822080546001600160a01b031981166001600160a01b038681169182179093559251911692839186917fa643a1aa11f9709b2990b31638a0b368d6d0c3b8f025a98a3249fea2bd5821d791a4505050565b5f546001600160a01b031633146105095760405162461bcd60e51b81526004016104049061105d565b6001805460ff60a01b191690556040515f81527f9a506b30e47f3823b09f67e4c0dfa5c3d8023b71825b7ceaa97677129128c9c5906020015b60405180910390a1565b5f546001600160a01b031633146105755760405162461bcd60e51b81526004016104049061105d565b6001600160a01b0381166105cb5760405162461bcd60e51b815260206004820152601d60248201527f48656c7065722063616e6e6f74206265207a65726f20616464726573730000006044820152606401610404565b816105e85760405162461bcd60e51b815260040161040490611094565b5f828152600560205260409020546001600160a01b0316156106565760405162461bcd60e51b815260206004820152602160248201527f48656c70657220616c72656164792065786973747320666f722076657273696f6044820152603760f91b6064820152608401610404565b5f82815260056020526040812080546001600160a01b0319166001600160a01b038416179055600680549161068a8361115b565b90915550506040516001600160a01b0382169083907fe3eccbb854b4a5c161cda43f1e76981a22f8c4a4190a1e1b44bb8c69039b85b2905f90a35050565b5f546001600160a01b031633146106f15760405162461bcd60e51b81526004016104049061105d565b8061070e5760405162461bcd60e51b815260040161040490611094565b5f818152600360205260409020546001600160a01b0316806107425760405162461bcd60e51b815260040161040490611106565b5f82815260036020526040812080546001600160a01b0319169055600480549161076b83611173565b90915550506040516001600160a01b0382169083907f2632c7adc4cecbf41bb3ee7c156aae99b0bcd9da3efa5b9315f77dcdf6ef3e66905f90a35050565b5f546001600160a01b031633146107d25760405162461bcd60e51b81526004016104049061105d565b6001600160a01b0381166108285760405162461bcd60e51b815260206004820152601c60248201527f41646d696e2063616e6e6f74206265207a65726f2061646472657373000000006044820152606401610404565b5f80546001600160a01b038381166001600160a01b0319831681178455604051919092169283917f101b8081ff3b56bbf45deb824d86a3b0fd38b7e3dd42421105cf8abe9106db0b9190a35050565b5f546001600160a01b031633148061089957506001546001600160a01b031633145b6108f45760405162461bcd60e51b815260206004820152602660248201527f4e6f7420617574686f72697a65643a2061646d696e206f7220677561726469616044820152656e206f6e6c7960d01b6064820152608401610404565b6001805460ff60a01b1916600160a01b1781556040519081527f9a506b30e47f3823b09f67e4c0dfa5c3d8023b71825b7ceaa97677129128c9c590602001610542565b5f546001600160a01b031633146109605760405162461bcd60e51b81526004016104049061105d565b5f8281526007602090815260409182902080549084905582518181529182018490529184917fbb4f63ec43349b7ec7c292d3e97704824bcdd2d758200521ad62d3e9a127f782910160405180910390a2505050565b5f5f5f600160149054906101000a900460ff1615610a155760405162461bcd60e51b815260206004820152601760248201527f526f6f74207665726966696572206973207061757365640000000000000000006044820152606401610404565b83355f908152600360205260409020546001600160a01b031680610a4b5760405162461bcd60e51b815260040161040490611106565b60025460405163bffd4b5160e01b81526001600160a01b038381169263bffd4b5192610a7f92909116908990600401611298565b6040805180830381865afa158015610a99573d5f5f3e3d5ffd5b505050506040513d601f19601f82011682018060405250810190610abd91906113d3565b95355f9081526005602052604090205490966001600160a01b03909116945092505050565b5f546001600160a01b03163314610b0b5760405162461bcd60e51b81526004016104049061105d565b600180546001600160a01b038381166001600160a01b0319831681179093556040519116919082907f064d28d3d3071c5cbc271a261c10c2f0f0d9e319390397101aa0eb23c6bad909905f90a35050565b5f546001600160a01b03163314610b855760405162461bcd60e51b81526004016104049061105d565b80610ba25760405162461bcd60e51b815260040161040490611094565b5f818152600560205260409020546001600160a01b031680610c065760405162461bcd60e51b815260206004820152601c60248201527f48656c706572206e6f7420666f756e6420666f722076657273696f6e000000006044820152606401610404565b5f82815260056020526040812080546001600160a01b03191690556006805491610c2f83611173565b90915550506040516001600160a01b0382169083907f6a7d5ce7bf32942d5ee1a06318777e6921ab7173478635304ac93845d7de61e0905f90a35050565b5f546001600160a01b03163314610c965760405162461bcd60e51b81526004016104049061105d565b6001600160a01b038116610cbc5760405162461bcd60e51b8152600401610404906110c4565b81610cd95760405162461bcd60e51b815260040161040490611094565b5f828152600360205260409020546001600160a01b031615610d4c5760405162461bcd60e51b815260206004820152602660248201527f537562766572696669657220616c72656164792065786973747320666f72207660448201526532b939b4b7b760d11b6064820152608401610404565b5f82815260036020526040812080546001600160a01b0319166001600160a01b0384161790556004805491610d808361115b565b90915550506040516001600160a01b0382169083907fa65f9939af3939f730447054d525d5526c5f9e75ccea14966e1de1876631f404905f90a35050565b5f546001600160a01b03163314610de75760405162461bcd60e51b81526004016104049061105d565b600880549082905560408051828152602081018490527f748956aa23d31e349f0a88960f2feb833a49a731af392d67a35563ca96249fb6910160405180910390a15050565b5f546001600160a01b03163314610e555760405162461bcd60e51b81526004016104049061105d565b81610e725760405162461bcd60e51b815260040161040490611094565b6001600160a01b038116610ec85760405162461bcd60e51b815260206004820152601d60248201527f48656c7065722063616e6e6f74206265207a65726f20616464726573730000006044820152606401610404565b5f828152600560205260409020546001600160a01b0316610f2b5760405162461bcd60e51b815260206004820152601c60248201527f48656c706572206e6f7420666f756e6420666f722076657273696f6e000000006044820152606401610404565b5f8281526005602052604080822080546001600160a01b031981166001600160a01b038681169182179093559251911692839186917fb9393e6de8fe36cc235a7d08d2fa004db98bbb2a2be241250df83a276bc0d62e91a4505050565b6001600160a01b0381168114610f9c575f5ffd5b50565b5f5f60408385031215610fb0575f5ffd5b823591506020830135610fc281610f88565b809150509250929050565b5f60208284031215610fdd575f5ffd5b5035919050565b5f60208284031215610ff4575f5ffd5b8135610fff81610f88565b9392505050565b5f5f60408385031215611017575f5ffd5b50508035926020909101359150565b5f60208284031215611036575f5ffd5b813567ffffffffffffffff81111561104c575f5ffd5b820160808185031215610fff575f5ffd5b6020808252601a908201527f4e6f7420617574686f72697a65643a2061646d696e206f6e6c79000000000000604082015260600190565b60208082526016908201527556657273696f6e2063616e6e6f74206265207a65726f60501b604082015260600190565b60208082526022908201527f53756276657269666965722063616e6e6f74206265207a65726f206164647265604082015261737360f01b606082015260800190565b60208082526021908201527f5375627665726966696572206e6f7420666f756e6420666f722076657273696f6040820152603760f91b606082015260800190565b634e487b7160e01b5f52601160045260245ffd5b5f6001820161116c5761116c611147565b5060010190565b5f8161118157611181611147565b505f190190565b5f5f8335601e1984360301811261119d575f5ffd5b830160208101925035905067ffffffffffffffff8111156111bc575f5ffd5b8036038213156111ca575f5ffd5b9250929050565b81835281816020850137505f828201602090810191909152601f909101601f19169091010190565b5f8235609e1983360301811261120d575f5ffd5b90910192915050565b8015158114610f9c575f5ffd5b803582525f6112356020830183611188565b60a0602086015261124a60a0860182846111d1565b91505061125a6040840184611188565b858303604087015261126d8382846111d1565b92505050606083013561127f81611216565b1515606085015260809283013592909301919091525090565b6001600160a01b0383168152604060208083018290528335918301919091525f9083013536849003605e190181126112ce575f5ffd5b608060608401528301803560c08401526112eb6020820182611188565b606060e0860152611301610120860182846111d1565b9150506040820135601e1983360301811261131a575f5ffd5b60209201918201913567ffffffffffffffff811115611337575f5ffd5b8060051b803603841315611349575f5ffd5b85830360bf19016101008701528183526001600160fb1b0382111561136c575f5ffd5b8084602085013780830193505050506113886040850185611188565b601f198584030160808601526113a26020840182846111d1565b925050506113b360608501856111f9565b838203603f190160a08501526113c98282611223565b9695505050505050565b5f5f604083850312156113e4575f5ffd5b82516113ef81611216565b602093909301519294929350505056fea164736f6c634300081e000a",
    "linkReferences": {}
  },
  "methodIdentifiers": {
    "addHelper(bytes32,address)": "52741df5",
    "addSubVerifier(bytes32,address)": "b3c83d99",
    "admin()": "f851a440",
    "config(bytes32)": "cc718f76",
    "defaultOPRFPubKeyHash()": "66b4dfc4",
    "getHelper(bytes32)": "5dd41f2f",
    "getSubVerifier(bytes32)": "f2649807",
    "guardian()": "452a9320",
    "helperCount()": "da0ff2c6",
    "helpers(bytes32)": "a7ad58bf",
    "pause()": "8456cb59",
    "paused()": "5c975abb",
    "removeHelper(bytes32)": "9bfefbfd",
    "removeSubVerifier(bytes32)": "6f907638",
    "rootRegistry()": "b96b161c",
    "setDefaultOPRFPubKeyHash(bytes32)": "b950506d",
    "setGuardian(address)": "8a0dac4a",
    "subverifierCount()": "c961ba7e",
    "subverifiers(bytes32)": "492f34fb",
    "transferAdmin(address)": "75829def",
    "unpause()": "3f4ba83a",
    "updateConfig(bytes32,bytes32)": "889eba3b",
    "updateHelper(bytes32,address)": "ba5f3f9d",
    "updateSubVerifier(bytes32,address)": "07915439",
    "verify((bytes32,(bytes32,bytes,bytes32[]),bytes,(uint256,string,string,bool,bytes32)))": "8988afbd"
  },
  "id": 26
}