{
  "abi": [
    {
      "type": "constructor",
      "inputs": [
        {
          "name": "_rootRegistry",
          "type": "address",
          "internalType": "address"
        }
      ],
      "stateMutability": "nonpayable"
    },
    {
      "type": "function",
      "name": "CERTIFICATE_REGISTRY_ID",
      "inputs": [],
      "outputs": [
        {
          "name": "",
          "type": "bytes32",
          "internalType": "bytes32"
        }
      ],
      "stateMutability": "view"
    },
    {
      "type": "function",
      "name": "CIRCUIT_REGISTRY_ID",
      "inputs": [],
      "outputs": [
        {
          "name": "",
          "type": "bytes32",
          "internalType": "bytes32"
        }
      ],
      "stateMutability": "view"
    },
    {
      "type": "function",
      "name": "addCertificateRegistryRoot",
      "inputs": [
        {
          "name": "certificateRegistryRoot",
          "type": "bytes32",
          "internalType": "bytes32"
        }
      ],
      "outputs": [],
      "stateMutability": "nonpayable"
    },
    {
      "type": "function",
      "name": "addVerifiers",
      "inputs": [
        {
          "name": "vkeyHashes",
          "type": "bytes32[]",
          "internalType": "bytes32[]"
        },
        {
          "name": "verifiers",
          "type": "address[]",
          "internalType": "address[]"
        }
      ],
      "outputs": [],
      "stateMutability": "nonpayable"
    },
    {
      "type": "function",
      "name": "admin",
      "inputs": [],
      "outputs": [
        {
          "name": "",
          "type": "address",
          "internalType": "address"
        }
      ],
      "stateMutability": "view"
    },
    {
      "type": "function",
      "name": "getAgeProofInputs",
      "inputs": [
        {
          "name": "committedInputs",
          "type": "bytes",
          "internalType": "bytes"
        },
        {
          "name": "committedInputCounts",
          "type": "uint256[]",
          "internalType": "uint256[]"
        }
      ],
      "outputs": [
        {
          "name": "currentDate",
          "type": "uint256",
          "internalType": "uint256"
        },
        {
          "name": "minAge",
          "type": "uint8",
          "internalType": "uint8"
        },
        {
          "name": "maxAge",
          "type": "uint8",
          "internalType": "uint8"
        }
      ],
      "stateMutability": "pure"
    },
    {
      "type": "function",
      "name": "getBindProofInputs",
      "inputs": [
        {
          "name": "committedInputs",
          "type": "bytes",
          "internalType": "bytes"
        },
        {
          "name": "committedInputCounts",
          "type": "uint256[]",
          "internalType": "uint256[]"
        }
      ],
      "outputs": [
        {
          "name": "data",
          "type": "bytes",
          "internalType": "bytes"
        }
      ],
      "stateMutability": "pure"
    },
    {
      "type": "function",
      "name": "getBoundData",
      "inputs": [
        {
          "name": "data",
          "type": "bytes",
          "internalType": "bytes"
        }
      ],
      "outputs": [
        {
          "name": "senderAddress",
          "type": "address",
          "internalType": "address"
        },
        {
          "name": "chainId",
          "type": "uint256",
          "internalType": "uint256"
        },
        {
          "name": "customData",
          "type": "string",
          "internalType": "string"
        }
      ],
      "stateMutability": "pure"
    },
    {
      "type": "function",
      "name": "getCountryProofInputs",
      "inputs": [
        {
          "name": "committedInputs",
          "type": "bytes",
          "internalType": "bytes"
        },
        {
          "name": "committedInputCounts",
          "type": "uint256[]",
          "internalType": "uint256[]"
        },
        {
          "name": "proofType",
          "type": "uint8",
          "internalType": "enum ProofType"
        }
      ],
      "outputs": [
        {
          "name": "countryList",
          "type": "string[]",
          "internalType": "string[]"
        }
      ],
      "stateMutability": "pure"
    },
    {
      "type": "function",
      "name": "getDateProofInputs",
      "inputs": [
        {
          "name": "committedInputs",
          "type": "bytes",
          "internalType": "bytes"
        },
        {
          "name": "committedInputCounts",
          "type": "uint256[]",
          "internalType": "uint256[]"
        },
        {
          "name": "proofType",
          "type": "uint8",
          "internalType": "enum ProofType"
        }
      ],
      "outputs": [
        {
          "name": "currentDate",
          "type": "uint256",
          "internalType": "uint256"
        },
        {
          "name": "minDate",
          "type": "uint256",
          "internalType": "uint256"
        },
        {
          "name": "maxDate",
          "type": "uint256",
          "internalType": "uint256"
        }
      ],
      "stateMutability": "pure"
    },
    {
      "type": "function",
      "name": "getDiscloseProofInputs",
      "inputs": [
        {
          "name": "committedInputs",
          "type": "bytes",
          "internalType": "bytes"
        },
        {
          "name": "committedInputCounts",
          "type": "uint256[]",
          "internalType": "uint256[]"
        }
      ],
      "outputs": [
        {
          "name": "discloseMask",
          "type": "bytes",
          "internalType": "bytes"
        },
        {
          "name": "discloseBytes",
          "type": "bytes",
          "internalType": "bytes"
        }
      ],
      "stateMutability": "pure"
    },
    {
      "type": "function",
      "name": "getDisclosedData",
      "inputs": [
        {
          "name": "discloseBytes",
          "type": "bytes",
          "internalType": "bytes"
        },
        {
          "name": "isIDCard",
          "type": "bool",
          "internalType": "bool"
        }
      ],
      "outputs": [
        {
          "name": "name",
          "type": "string",
          "internalType": "string"
        },
        {
          "name": "issuingCountry",
          "type": "string",
          "internalType": "string"
        },
        {
          "name": "nationality",
          "type": "string",
          "internalType": "string"
        },
        {
          "name": "gender",
          "type": "string",
          "internalType": "string"
        },
        {
          "name": "birthDate",
          "type": "string",
          "internalType": "string"
        },
        {
          "name": "expiryDate",
          "type": "string",
          "internalType": "string"
        },
        {
          "name": "documentNumber",
          "type": "string",
          "internalType": "string"
        },
        {
          "name": "documentType",
          "type": "string",
          "internalType": "string"
        }
      ],
      "stateMutability": "pure"
    },
    {
      "type": "function",
      "name": "isValidCertificateRegistryRoot",
      "inputs": [
        {
          "name": "",
          "type": "bytes32",
          "internalType": "bytes32"
        }
      ],
      "outputs": [
        {
          "name": "",
          "type": "bool",
          "internalType": "bool"
        }
      ],
      "stateMutability": "view"
    },
    {
      "type": "function",
      "name": "paused",
      "inputs": [],
      "outputs": [
        {
          "name": "",
          "type": "bool",
          "internalType": "bool"
        }
      ],
      "stateMutability": "view"
    },
    {
      "type": "function",
      "name": "removeCertificateRegistryRoot",
      "inputs": [
        {
          "name": "certificateRegistryRoot",
          "type": "bytes32",
          "internalType": "bytes32"
        }
      ],
      "outputs": [],
      "stateMutability": "nonpayable"
    },
    {
      "type": "function",
      "name": "removeVerifiers",
      "inputs": [
        {
          "name": "vkeyHashes",
          "type": "bytes32[]",
          "internalType": "bytes32[]"
        }
      ],
      "outputs": [],
      "stateMutability": "nonpayable"
    },
    {
      "type": "function",
      "name": "rootRegistry",
      "inputs": [],
      "outputs": [
        {
          "name": "",
          "type": "address",
          "internalType": "contract IRootRegistry"
        }
      ],
      "stateMutability": "view"
    },
    {
      "type": "function",
      "name": "setPaused",
      "inputs": [
        {
          "name": "_paused",
          "type": "bool",
          "internalType": "bool"
        }
      ],
      "outputs": [],
      "stateMutability": "nonpayable"
    },
    {
      "type": "function",
      "name": "transferAdmin",
      "inputs": [
        {
          "name": "newAdmin",
          "type": "address",
          "internalType": "address"
        }
      ],
      "outputs": [],
      "stateMutability": "nonpayable"
    },
    {
      "type": "function",
      "name": "updateRootRegistry",
      "inputs": [
        {
          "name": "_rootRegistry",
          "type": "address",
          "internalType": "address"
        }
      ],
      "outputs": [],
      "stateMutability": "nonpayable"
    },
    {
      "type": "function",
      "name": "verifyProof",
      "inputs": [
        {
          "name": "params",
          "type": "tuple",
          "internalType": "struct ProofVerificationParams",
          "components": [
            {
              "name": "vkeyHash",
              "type": "bytes32",
              "internalType": "bytes32"
            },
            {
              "name": "proof",
              "type": "bytes",
              "internalType": "bytes"
            },
            {
              "name": "publicInputs",
              "type": "bytes32[]",
              "internalType": "bytes32[]"
            },
            {
              "name": "committedInputs",
              "type": "bytes",
              "internalType": "bytes"
            },
            {
              "name": "committedInputCounts",
              "type": "uint256[]",
              "internalType": "uint256[]"
            },
            {
              "name": "validityPeriodInDays",
              "type": "uint256",
              "internalType": "uint256"
            },
            {
              "name": "domain",
              "type": "string",
              "internalType": "string"
            },
            {
              "name": "scope",
              "type": "string",
              "internalType": "string"
            },
            {
              "name": "devMode",
              "type": "bool",
              "internalType": "bool"
            }
          ]
        }
      ],
      "outputs": [
        {
          "name": "",
          "type": "bool",
          "internalType": "bool"
        },
        {
          "name": "",
          "type": "bytes32",
          "internalType": "bytes32"
        }
      ],
      "stateMutability": "view"
    },
    {
      "type": "function",
      "name": "verifyScopes",
      "inputs": [
        {
          "name": "publicInputs",
          "type": "bytes32[]",
          "internalType": "bytes32[]"
        },
        {
          "name": "domain",
          "type": "string",
          "internalType": "string"
        },
        {
          "name": "scope",
          "type": "string",
          "internalType": "string"
        }
      ],
      "outputs": [
        {
          "name": "",
          "type": "bool",
          "internalType": "bool"
        }
      ],
      "stateMutability": "pure"
    },
    {
      "type": "function",
      "name": "vkeyHashToVerifier",
      "inputs": [
        {
          "name": "",
          "type": "bytes32",
          "internalType": "bytes32"
        }
      ],
      "outputs": [
        {
          "name": "",
          "type": "address",
          "internalType": "address"
        }
      ],
      "stateMutability": "view"
    },
    {
      "type": "event",
      "name": "AdminUpdated",
      "inputs": [
        {
          "name": "oldAdmin",
          "type": "address",
          "indexed": true,
          "internalType": "address"
        },
        {
          "name": "newAdmin",
          "type": "address",
          "indexed": true,
          "internalType": "address"
        }
      ],
      "anonymous": false
    },
    {
      "type": "event",
      "name": "CertificateRegistryRootAdded",
      "inputs": [
        {
          "name": "certificateRegistryRoot",
          "type": "bytes32",
          "indexed": true,
          "internalType": "bytes32"
        }
      ],
      "anonymous": false
    },
    {
      "type": "event",
      "name": "CertificateRegistryRootRemoved",
      "inputs": [
        {
          "name": "certificateRegistryRoot",
          "type": "bytes32",
          "indexed": true,
          "internalType": "bytes32"
        }
      ],
      "anonymous": false
    },
    {
      "type": "event",
      "name": "PausedStatusChanged",
      "inputs": [
        {
          "name": "paused",
          "type": "bool",
          "indexed": false,
          "internalType": "bool"
        }
      ],
      "anonymous": false
    },
    {
      "type": "event",
      "name": "VerifierAdded",
      "inputs": [
        {
          "name": "vkeyHash",
          "type": "bytes32",
          "indexed": true,
          "internalType": "bytes32"
        },
        {
          "name": "verifier",
          "type": "address",
          "indexed": true,
          "internalType": "address"
        }
      ],
      "anonymous": false
    },
    {
      "type": "event",
      "name": "VerifierRemoved",
      "inputs": [
        {
          "name": "vkeyHash",
          "type": "bytes32",
          "indexed": true,
          "internalType": "bytes32"
        }
      ],
      "anonymous": false
    },
    {
      "type": "event",
      "name": "ZKPassportVerifierDeployed",
      "inputs": [
        {
          "name": "admin",
          "type": "address",
          "indexed": true,
          "internalType": "address"
        },
        {
          "name": "timestamp",
          "type": "uint256",
          "indexed": false,
          "internalType": "uint256"
        }
      ],
      "anonymous": false
    }
  ],
  "bytecode": {
    "object": "0x608060405234801561000f575f5ffd5b5060405161341538038061341583398101604081905261002e916100f6565b6001600160a01b0381166100945760405162461bcd60e51b8152602060048201526024808201527f526f6f742072656769737472792063616e6e6f74206265207a65726f206164646044820152637265737360e01b606482015260840160405180910390fd5b5f8054336001600160a01b03199182168117909255600380549091166001600160a01b0384161790556040514281527ff29b53747ae7121d0958d490ad3d5cf6767119b0fdbd8389d918de3a12cf5a299060200160405180910390a250610123565b5f60208284031215610106575f5ffd5b81516001600160a01b038116811461011c575f5ffd5b9392505050565b6132e5806101305f395ff3fe608060405234801561000f575f5ffd5b5060043610610148575f3560e01c806375829def116100bf578063b2b37a4c11610079578063b2b37a4c1461031b578063b96b161c1461034d578063d7bf616a14610360578063ddf3eec91461038a578063ec1374cd146103ab578063f851a440146103d9575f5ffd5b806375829def1461027c5780638163f2311461028f578063847755e3146102cf578063886c3533146102e25780638d6937b8146102f5578063a6df2c0114610308575f5ffd5b80633a316e62116101105780633a316e62146101e657806341a0e2c2146101f957806345e21c901461020f5780634601173c146102415780635c975abb146102615780636c40d5d614610274575f5ffd5b806303d37eae1461014c5780630af18ba61461017c578063126f75591461019e57806316c38b3c146101be57806318677f2a146101d3575b5f5ffd5b61015f61015a366004612a33565b6103eb565b604051610173989796959493929190612ab3565b60405180910390f35b61018f61018a366004612b60565b610956565b60405161017393929190612b9e565b6101b16101ac366004612c04565b610c43565b6040516101739190612c88565b6101d16101cc366004612ceb565b610e82565b005b6101d16101e1366004612d0d565b610f02565b6101d16101f4366004612d33565b610faf565b610201600181565b604051908152602001610173565b61023161021d366004612d33565b60026020525f908152604090205460ff1681565b6040519015158152602001610173565b61025461024f366004612d4a565b61101a565b6040516101739190612db4565b5f5461023190600160a01b900460ff1681565b610201600281565b6101d161028a366004612d0d565b6113de565b6102b761029d366004612d33565b60016020525f90815260409020546001600160a01b031681565b6040516001600160a01b039091168152602001610173565b6102316102dd366004612dc6565b6114ac565b6101d16102f0366004612d33565b611674565b6101d1610303366004612e62565b6116dc565b6101d1610316366004612e94565b61179c565b61032e610329366004612d4a565b6118c6565b6040805193845260ff9283166020850152911690820152606001610173565b6003546102b7906001600160a01b031681565b61037361036e366004612ec8565b611a7d565b604080519215158352602083019190915201610173565b61039d610398366004612d4a565b611e70565b604051610173929190612eff565b6103be6103b9366004612c04565b61202a565b60408051938452602084019290925290820152606001610173565b5f546102b7906001600160a01b031681565b606080606080606080606080886106a5578a60058b61040b826027612f37565b9261041893929190612f4a565b8080601f0160208091040260200160405190810160405280939291908181526020018383808284375f92019190915250929a508d9250600291508c9050610460826003612f37565b9261046d93929190612f4a565b8080601f0160208091040260200160405190810160405280939291908181526020018383808284375f920191909152509299508d9250603691508c90506104b5826003612f37565b926104c293929190612f4a565b8080601f0160208091040260200160405190810160405280939291908181526020018383808284375f920191909152509298508d9250604091508c905061050a826001612f37565b9261051793929190612f4a565b8080601f0160208091040260200160405190810160405280939291908181526020018383808284375f920191909152509297508d9250603991508c905061055f826006612f37565b9261056c93929190612f4a565b8080601f0160208091040260200160405190810160405280939291908181526020018383808284375f920191909152509296508d9250604191508c90506105b4826006612f37565b926105c193929190612f4a565b8080601f0160208091040260200160405190810160405280939291908181526020018383808284375f920191909152509295508d9250602c91508c9050610609826009612f37565b9261061693929190612f4a565b8080601f0160208091040260200160405190810160405280939291908181526020018383808284375f9201829052509395508e9392508d915061065c9050826002612f37565b9261066993929190612f4a565b8080601f0160208091040260200160405190810160405280939291908181526020018383808284375f9201919091525092935061094992505050565b8a603c8b6106b482601e612f37565b926106c193929190612f4a565b8080601f0160208091040260200160405190810160405280939291908181526020018383808284375f92019190915250929a508d9250600291508c9050610709826003612f37565b9261071693929190612f4a565b8080601f0160208091040260200160405190810160405280939291908181526020018383808284375f920191909152509299508d9250602d91508c905061075e826003612f37565b9261076b93929190612f4a565b8080601f0160208091040260200160405190810160405280939291908181526020018383808284375f920191909152509298508d9250602591508c90506107b3826001612f37565b926107c093929190612f4a565b8080601f0160208091040260200160405190810160405280939291908181526020018383808284375f920191909152509297508d9250601e91508c9050610808826006612f37565b9261081593929190612f4a565b8080601f0160208091040260200160405190810160405280939291908181526020018383808284375f920191909152509296508d9250602691508c905061085d826006612f37565b9261086a93929190612f4a565b8080601f0160208091040260200160405190810160405280939291908181526020018383808284375f920191909152509295508d9250600591508c90506108b2826009612f37565b926108bf93929190612f4a565b8080601f0160208091040260200160405190810160405280939291908181526020018383808284375f9201829052509395508e9392508d91506109059050826002612f37565b9261091293929190612f4a565b8080601f0160208091040260200160405190810160405280939291908181526020018383808284375f920191909152509293505050505b9397509397509397509397565b5f806060815b6101f4811015610c3b57600160f81b86868381811061097d5761097d612f85565b9050013560f81c60f81b6001600160f81b03191603610a3a575f86866109a4846001612f37565b906109b0856003612f37565b926109bd93929190612f4a565b6109c691612f99565b60f01c905086866109d8846003612f37565b9061ffff84166109e9866003612f37565b6109f39190612f37565b92610a0093929190612f4a565b610a0991612fd1565b60601c9450610a19816002613011565b610a24906001613011565b610a329061ffff1683612f37565b91505061095c565b600160f91b868683818110610a5157610a51612f85565b9050013560f81c60f81b6001600160f81b03191603610b5d575f8686610a78846001612f37565b90610a84856003612f37565b92610a9193929190612f4a565b610a9a91612f99565b60f01c90506020811115610af55760405162461bcd60e51b815260206004820152601860248201527f436861696e206964206c656e67746820746f6f206c6f6e67000000000000000060448201526064015b60405180910390fd5b610b0081600861302b565b610b0c90610100613048565b61ffff168787610b1d856003612f37565b9061ffff8516610b2e876003612f37565b610b389190612f37565b92610b4593929190612f4a565b610b4e91613062565b901c9350610a19816002613011565b600360f81b868683818110610b7457610b74612f85565b9050013560f81c60f81b6001600160f81b03191603610c3b575f8686610b9b846001612f37565b90610ba7856003612f37565b92610bb493929190612f4a565b610bbd91612f99565b60f01c90508686610bcf846003612f37565b9061ffff8416610be0866003612f37565b610bea9190612f37565b92610bf793929190612f4a565b8080601f0160208091040260200160405190810160405280939291908181526020018383808284375f92019190915250929550610a19925083915060029050613011565b509250925092565b60605f80805b85811015610e2957868682818110610c6357610c63612f85565b90506020020135610259148015610cbc5750846008811115610c8757610c87612f71565b60f81b6001600160f81b031916898985818110610ca657610ca6612f85565b9050013560f81c60f81b6001600160f81b031916145b15610dfb576040805160c8808252611920820190925290816020015b6060815260200190600190039081610cd85790505093505f5b60c8811015610df5578989610d0783600361307f565b610d119087612f37565b610d1c906001612f37565b818110610d2b57610d2b612f85565b909101356001600160f81b031916159050610df5578989610d4d83600361307f565b610d579087612f37565b610d62906001612f37565b90610d6e84600361307f565b610d789088612f37565b610d83906003612f37565b610d8e906001612f37565b92610d9b93929190612f4a565b8080601f0160208091040260200160405190810160405280939291908181526020018383808284375f920191909152505087518892508491508110610de257610de2612f85565b6020908102919091010152600101610cf1565b50600191505b868682818110610e0d57610e0d612f85565b9050602002013583610e1f9190612f37565b9250600101610c49565b5080610e775760405162461bcd60e51b815260206004820152601e60248201527f436f756e7472792070726f6f6620696e70757473206e6f7420666f756e6400006044820152606401610aec565b505095945050505050565b5f546001600160a01b03163314610eab5760405162461bcd60e51b8152600401610aec90613096565b5f8054821515600160a01b0260ff60a01b199091161790556040517f9a506b30e47f3823b09f67e4c0dfa5c3d8023b71825b7ceaa97677129128c9c590610ef790831515815260200190565b60405180910390a150565b5f546001600160a01b03163314610f2b5760405162461bcd60e51b8152600401610aec90613096565b6001600160a01b038116610f8d5760405162461bcd60e51b8152602060048201526024808201527f526f6f742072656769737472792063616e6e6f74206265207a65726f206164646044820152637265737360e01b6064820152608401610aec565b600380546001600160a01b0319166001600160a01b0392909216919091179055565b5f546001600160a01b03163314610fd85760405162461bcd60e51b8152600401610aec90613096565b5f81815260026020526040808220805460ff191660011790555182917f28b645e250fa5c9d240590b408225ec310e29b861312e75a76b0d55f7d927a2f91a250565b60605f80805b848110156113865785858281811061103a5761103a612f85565b905060200201356101f50361135857600160fb1b88888581811061106057611060612f85565b9050013560f81c60f81b6001600160f81b031916146110915760405162461bcd60e51b8152600401610aec906130cd565b5f5b6101f481101561121757600160f81b8989836110b0886001612f37565b6110ba9190612f37565b8181106110c9576110c9612f85565b9050013560f81c60f81b6001600160f81b0319160361116f575f8989836110f1886001612f37565b6110fb9190612f37565b611106906001612f37565b9084611113896001612f37565b61111d9190612f37565b611128906003612f37565b9261113593929190612f4a565b61113e91612f99565b60f01c905061114e816002613011565b611159906001613011565b6111679061ffff1683612f37565b915050611093565b600160f91b898983611182886001612f37565b61118c9190612f37565b81811061119b5761119b612f85565b9050013560f81c60f81b6001600160f81b031916036111c3575f8989836110f1886001612f37565b600360f81b8989836111d6886001612f37565b6111e09190612f37565b8181106111ef576111ef612f85565b9050013560f81c60f81b6001600160f81b03191603611217575f8989836110f1886001612f37565b5f8111801561122857506101f48111155b61126a5760405162461bcd60e51b8152602060048201526013602482015272092dcecc2d8d2c840c8c2e8c240d8cadccee8d606b1b6044820152606401610aec565b805b6101f48110156112f457898982611284886001612f37565b61128e9190612f37565b81811061129d5761129d612f85565b909101356001600160f81b0319161590506112ec5760405162461bcd60e51b815260206004820152600f60248201526e496e76616c69642070616464696e6760881b6044820152606401610aec565b60010161126c565b508888611302866001612f37565b9061130f876101f5612f37565b9261131c93929190612f4a565b8080601f0160208091040260200160405190810160405280939291908181526020018383808284375f9201919091525092975060019550505050505b85858281811061136a5761136a612f85565b905060200201358361137c9190612f37565b9250600101611020565b50806113d45760405162461bcd60e51b815260206004820181905260248201527f42696e6420646174612070726f6f6620696e70757473206e6f7420666f756e646044820152606401610aec565b5050949350505050565b5f546001600160a01b031633146114075760405162461bcd60e51b8152600401610aec90613096565b6001600160a01b03811661145d5760405162461bcd60e51b815260206004820152601c60248201527f41646d696e2063616e6e6f74206265207a65726f2061646472657373000000006044820152606401610aec565b5f80546001600160a01b038381166001600160a01b0319831681178455604051919092169283917f101b8081ff3b56bbf45deb824d86a3b0fd38b7e3dd42421105cf8abe9106db0b9190a35050565b5f5f6114ec86868080601f0160208091040260200160405190810160405280939291908181526020018383808284375f9201919091525061218492505050565b611566576008600287876040516020016115079291906130f9565b60408051601f198184030181529082905261152191613108565b602060405180830381855afa15801561153c573d5f5f3e3d5ffd5b5050506040513d601f19601f8201168201806040525081019061155f919061311e565b901c611568565b5f5b90505f6115a985858080601f0160208091040260200160405190810160405280939291908181526020018383808284375f9201919091525061218492505050565b611623576008600286866040516020016115c49291906130f9565b60408051601f19818403018152908290526115de91613108565b602060405180830381855afa1580156115f9573d5f5f3e3d5ffd5b5050506040513d601f19601f8201168201806040525081019061161c919061311e565b901c611625565b5f5b9050818989600a81811061163b5761163b612f85565b905060200201351480156116675750808989600b81811061165e5761165e612f85565b90506020020135145b9998505050505050505050565b5f546001600160a01b0316331461169d5760405162461bcd60e51b8152600401610aec90613096565b5f81815260026020526040808220805460ff191690555182917fc4da3a189adfa305afb4c073f96be9bd96f1ebea4e42a5e7e2e98818509a682791a250565b5f546001600160a01b031633146117055760405162461bcd60e51b8152600401610aec90613096565b5f5b818110156117975760015f84848481811061172457611724612f85565b602090810292909201358352508101919091526040015f2080546001600160a01b031916905582828281811061175c5761175c612f85565b905060200201357f6fdcbcf8f91bc23f2c9dcfe8fe01d80d1b1afbbf207298e94c0171ccc587424c60405160405180910390a2600101611707565b505050565b5f546001600160a01b031633146117c55760405162461bcd60e51b8152600401610aec90613096565b5f5b838110156118bf578282828181106117e1576117e1612f85565b90506020020160208101906117f69190612d0d565b60015f87878581811061180b5761180b612f85565b9050602002013581526020019081526020015f205f6101000a8154816001600160a01b0302191690836001600160a01b0316021790555082828281811061185457611854612f85565b90506020020160208101906118699190612d0d565b6001600160a01b031685858381811061188457611884612f85565b905060200201357f636107338a3eb46f1f60562462f3ec11393d35fbc965991aaade3b9e7d89c3f560405160405180910390a36001016117c7565b5050505050565b5f80808080805b86811015611a23578787828181106118e7576118e7612f85565b90506020020135600b036119f557600160f81b8a8a8581811061190c5761190c612f85565b9050013560f81c60f81b6001600160f81b0319161461193d5760405162461bcd60e51b8152600401610aec906130cd565b61199f8a8a61194d866001612f37565b90611959876009612f37565b9261196693929190612f4a565b8080601f0160208091040260200160405190810160405280939291908181526020018383808284375f9201919091525061218992505050565b955089896119ae856009612f37565b8181106119bd576119bd612f85565b919091013560f81c95508a9050896119d685600a612f37565b8181106119e5576119e5612f85565b919091013560f81c945060019250505b878782818110611a0757611a07612f85565b9050602002013583611a199190612f37565b92506001016118cd565b5080611a715760405162461bcd60e51b815260206004820152601a60248201527f4167652070726f6f6620696e70757473206e6f7420666f756e640000000000006044820152606401610aec565b50509450945094915050565b5f80548190600160a01b900460ff1615611ace5760405162461bcd60e51b815260206004820152601260248201527110dbdb9d1c9858dd081a5cc81c185d5cd95960721b6044820152606401610aec565b5f611ad98435612498565b9050611b07611aeb6040860186613135565b5f818110611afb57611afb612f85565b905060200201356124f7565b611b34611b176040860186613135565b6001818110611b2857611b28612f85565b905060200201356125d9565b611b7e611b446040860186613135565b808060200260200160405190810160405280939291908181526020018383602002808284375f9201919091525050505060a0860135612697565b611bca5760405162461bcd60e51b815260206004820181905260248201527f50726f6f662065787069726564206f72206461746520697320696e76616c69646044820152606401610aec565b611bf4611bda6040860186613135565b611be760c088018861317a565b6102dd60e08a018a61317a565b611c315760405162461bcd60e51b815260206004820152600e60248201526d496e76616c69642073636f70657360901b6044820152606401610aec565b611cec611c416040860186613135565b600c906001611c5360408a018a613135565b611c5e9291506131bc565b92611c6b939291906131cf565b808060200260200160405190810160405280939291908181526020018383602002808284375f92019190915250611ca992505050606087018761317a565b611cb66080890189613135565b808060200260200160405190810160405280939291908181526020018383602002808284375f9201919091525061273392505050565b6001611cfb6040860186613135565b6001611d0a6040890189613135565b611d159291506131bc565b818110611d2457611d24612f85565b90506020020135141580611d455750611d4561012085016101008601612ceb565b611da25760405162461bcd60e51b815260206004820152602860248201527f4d6f636b2070726f6f667320617265206f6e6c7920616c6c6f77656420696e20604482015267646576206d6f646560c01b6064820152608401610aec565b6001600160a01b03811663ea50d0e4611dbe602087018761317a565b611dcb6040890189613135565b6040518563ffffffff1660e01b8152600401611dea94939291906131fa565b602060405180830381865afa158015611e05573d5f5f3e3d5ffd5b505050506040513d601f19601f82011682018060405250810190611e29919061325c565b611e366040860186613135565b6001611e456040890189613135565b611e509291506131bc565b818110611e5f57611e5f612f85565b905060200201359250925050915091565b6060805f80805b85811015611fd157868682818110611e9157611e91612f85565b9050602002013560b503611fa3575f898985818110611eb257611eb2612f85565b9050013560f81c60f81b6001600160f81b03191614611ee35760405162461bcd60e51b8152600401610aec906130cd565b8888611ef0856001612f37565b90611efc86605b612f37565b92611f0993929190612f4a565b8080601f0160208091040260200160405190810160405280939291908181526020018383808284375f920191909152509297508b92508a9150611f4f905085605b612f37565b90611f5b8660b5612f37565b92611f6893929190612f4a565b8080601f0160208091040260200160405190810160405280939291908181526020018383808284375f92019190915250929650600194505050505b868682818110611fb557611fb5612f85565b9050602002013583611fc79190612f37565b9250600101611e77565b508061201f5760405162461bcd60e51b815260206004820152601f60248201527f446973636c6f73652070726f6f6620696e70757473206e6f7420666f756e64006044820152606401610aec565b505094509492505050565b5f80808080805b878110156121295788888281811061204b5761204b612f85565b9050602002013560191480156120a3575086600881111561206e5761206e612f71565b60f81b6001600160f81b0319168b8b8581811061208d5761208d612f85565b9050013560f81c60f81b6001600160f81b031916145b156120fb576120b88b8b61194d866001612f37565b95506120d68b8b6120ca866009612f37565b90611959876011612f37565b94506120f48b8b6120e8866011612f37565b90611959876019612f37565b9350600191505b88888281811061210d5761210d612f85565b905060200201358361211f9190612f37565b9250600101612031565b50806121775760405162461bcd60e51b815260206004820152601b60248201527f446174652070726f6f6620696e70757473206e6f7420666f756e6400000000006044820152606401610aec565b5050955095509592505050565b511590565b604080518082019091526008815267313131313131313160c01b6020918201528151908201205f907fc21a5c94d030b6b0ea6834442967d237d4cc49a2b74bbb3846572bb3c8021a30016121de57505f919050565b5f612209836003815181106121f5576121f5612f85565b01602001516001600160f81b03191661287c565b61221f846002815181106121f5576121f5612f85565b61222a90600a61307f565b612240856001815181106121f5576121f5612f85565b61224b90606461307f565b612260865f815181106121f5576121f5612f85565b61226c906103e861307f565b6122769190612f37565b6122809190612f37565b61228a9190612f37565b90505f6122a3846005815181106121f5576121f5612f85565b6122b9856004815181106121f5576121f5612f85565b6122c490600a61307f565b6122ce9190612f37565b90505f6122e7856007815181106121f5576121f5612f85565b6122fd866006815181106121f5576121f5612f85565b61230890600a61307f565b6123129190612f37565b90506107b283101561235f5760405162461bcd60e51b81526020600482015260166024820152750b2cac2e440c4caccdee4ca40aa9c92b040cae0dec6d60531b6044820152606401610aec565b600182101580156123715750600c8211155b6123ad5760405162461bcd60e51b815260206004820152600d60248201526c092dcecc2d8d2c840dadedce8d609b1b6044820152606401610aec565b600181101580156123c757506123c38284612895565b8111155b6124015760405162461bcd60e51b815260206004820152600b60248201526a496e76616c69642064617960a81b6044820152606401610aec565b5f6107b25b8481101561243f5761241781612948565b6124235761016d612427565b61016e5b6124359061ffff1683612f37565b9150600101612406565b5060015b83811015612469576124558186612895565b61245f9083612f37565b9150600101612443565b506124756001836131bc565b61247f9082612f37565b905061248e620151808261307f565b9695505050505050565b5f818152600160205260408120546001600160a01b0316806124f15760405162461bcd60e51b815260206004820152601260248201527115995c9a599a595c881b9bdd08199bdd5b9960721b6044820152606401610aec565b92915050565b5f8181526002602052604090205460ff168061258057506003546040516383578c1160e01b815260016004820152602481018390526001600160a01b03909116906383578c1190604401602060405180830381865afa15801561255c573d5f5f3e3d5ffd5b505050506040513d601f19601f82011682018060405250810190612580919061325c565b6125d65760405162461bcd60e51b815260206004820152602160248201527f496e76616c696420636572746966696361746520726567697374727920726f6f6044820152601d60fa1b6064820152608401610aec565b50565b6003546040516383578c1160e01b815260026004820152602481018390526001600160a01b03909116906383578c1190604401602060405180830381865afa158015612627573d5f5f3e3d5ffd5b505050506040513d601f19601f8201168201806040525081019061264b919061325c565b6125d65760405162461bcd60e51b815260206004820152601d60248201527f496e76616c6964206369726375697420726567697374727920726f6f740000006044820152606401610aec565b6040805160088082528183019092525f9182919060208201818036833701905050905060025b600a8110156127205760f88582815181106126da576126da612f85565b6020026020010151901b826002836126f291906131bc565b8151811061270257612702612f85565b60200101906001600160f81b03191690815f1a9053506001016126bd565b5061272b8184612998565b949350505050565b5f805b8251811015612874575f600860028787869088878151811061275a5761275a612f85565b60200260200101518861276d9190612f37565b9261277a93929190612f4a565b60405160200161278b9291906130f9565b60408051601f19818403018152908290526127a591613108565b602060405180830381855afa1580156127c0573d5f5f3e3d5ffd5b5050506040513d601f19601f820116820180604052508101906127e3919061311e565b901c90508682815181106127f9576127f9612f85565b602002602001015181146128445760405162461bcd60e51b8152602060048201526012602482015271125b9d985b1a590818dbdb5b5a5d1b595b9d60721b6044820152606401610aec565b83828151811061285657612856612f85565b6020026020010151836128699190612f37565b925050600101612736565b505050505050565b5f61288c603060f884901c613277565b60ff1692915050565b5f600183101580156128a85750600c8311155b6128e45760405162461bcd60e51b815260206004820152600d60248201526c092dcecc2d8d2c840dadedce8d609b1b6044820152606401610aec565b8260020361290d576128f582612948565b61290057601c612903565b601d5b60ff1690506124f1565b826004148061291c5750826006145b806129275750826009145b80612932575082600b145b1561293f5750601e6124f1565b50601f92915050565b5f612954600483613290565b1561296057505f919050565b61296b606483613290565b1561297857506001919050565b61298461019083613290565b1561299057505f919050565b506001919050565b5f5f6129a384612189565b90505f6129b3620151808561307f565b6129bd9083612f37565b90508142101580156129ce57508181115b80156129d957504281115b95945050505050565b5f5f83601f8401126129f2575f5ffd5b5081356001600160401b03811115612a08575f5ffd5b602083019150836020828501011115612a1f575f5ffd5b9250929050565b80151581146125d6575f5ffd5b5f5f5f60408486031215612a45575f5ffd5b83356001600160401b03811115612a5a575f5ffd5b612a66868287016129e2565b9094509250506020840135612a7a81612a26565b809150509250925092565b5f81518084528060208401602086015e5f602082860101526020601f19601f83011685010191505092915050565b61010081525f612ac761010083018b612a85565b8281036020840152612ad9818b612a85565b90508281036040840152612aed818a612a85565b90508281036060840152612b018189612a85565b90508281036080840152612b158188612a85565b905082810360a0840152612b298187612a85565b905082810360c0840152612b3d8186612a85565b905082810360e0840152612b518185612a85565b9b9a5050505050505050505050565b5f5f60208385031215612b71575f5ffd5b82356001600160401b03811115612b86575f5ffd5b612b92858286016129e2565b90969095509350505050565b60018060a01b0384168152826020820152606060408201525f6129d96060830184612a85565b5f5f83601f840112612bd4575f5ffd5b5081356001600160401b03811115612bea575f5ffd5b6020830191508360208260051b8501011115612a1f575f5ffd5b5f5f5f5f5f60608688031215612c18575f5ffd5b85356001600160401b03811115612c2d575f5ffd5b612c39888289016129e2565b90965094505060208601356001600160401b03811115612c57575f5ffd5b612c6388828901612bc4565b909450925050604086013560098110612c7a575f5ffd5b809150509295509295909350565b5f602082016020835280845180835260408501915060408160051b8601019250602086015f5b82811015612cdf57603f19878603018452612cca858351612a85565b94506020938401939190910190600101612cae565b50929695505050505050565b5f60208284031215612cfb575f5ffd5b8135612d0681612a26565b9392505050565b5f60208284031215612d1d575f5ffd5b81356001600160a01b0381168114612d06575f5ffd5b5f60208284031215612d43575f5ffd5b5035919050565b5f5f5f5f60408587031215612d5d575f5ffd5b84356001600160401b03811115612d72575f5ffd5b612d7e878288016129e2565b90955093505060208501356001600160401b03811115612d9c575f5ffd5b612da887828801612bc4565b95989497509550505050565b602081525f612d066020830184612a85565b5f5f5f5f5f5f60608789031215612ddb575f5ffd5b86356001600160401b03811115612df0575f5ffd5b612dfc89828a01612bc4565b90975095505060208701356001600160401b03811115612e1a575f5ffd5b612e2689828a016129e2565b90955093505060408701356001600160401b03811115612e44575f5ffd5b612e5089828a016129e2565b979a9699509497509295939492505050565b5f5f60208385031215612e73575f5ffd5b82356001600160401b03811115612e88575f5ffd5b612b9285828601612bc4565b5f5f5f5f60408587031215612ea7575f5ffd5b84356001600160401b03811115612ebc575f5ffd5b612d7e87828801612bc4565b5f60208284031215612ed8575f5ffd5b81356001600160401b03811115612eed575f5ffd5b82016101208185031215612d06575f5ffd5b604081525f612f116040830185612a85565b82810360208401526129d98185612a85565b634e487b7160e01b5f52601160045260245ffd5b808201808211156124f1576124f1612f23565b5f5f85851115612f58575f5ffd5b83861115612f64575f5ffd5b5050820193919092039150565b634e487b7160e01b5f52602160045260245ffd5b634e487b7160e01b5f52603260045260245ffd5b80356001600160f01b03198116906002841015612fca576001600160f01b0319600285900360031b81901b82161691505b5092915050565b80356bffffffffffffffffffffffff198116906014841015612fca576bffffffffffffffffffffffff1960149490940360031b84901b1690921692915050565b61ffff81811683821601908111156124f1576124f1612f23565b61ffff8181168382160290811690818114612fca57612fca612f23565b61ffff82811682821603908111156124f1576124f1612f23565b803560208310156124f1575f19602084900360031b1b1692915050565b80820281158282048414176124f1576124f1612f23565b6020808252601a908201527f4e6f7420617574686f72697a65643a2061646d696e206f6e6c79000000000000604082015260600190565b602080825260129082015271496e76616c69642070726f6f66207479706560701b604082015260600190565b818382375f9101908152919050565b5f82518060208501845e5f920191825250919050565b5f6020828403121561312e575f5ffd5b5051919050565b5f5f8335601e1984360301811261314a575f5ffd5b8301803591506001600160401b03821115613163575f5ffd5b6020019150600581901b3603821315612a1f575f5ffd5b5f5f8335601e1984360301811261318f575f5ffd5b8301803591506001600160401b038211156131a8575f5ffd5b602001915036819003821315612a1f575f5ffd5b818103818111156124f1576124f1612f23565b5f5f858511156131dd575f5ffd5b838611156131e9575f5ffd5b5050600583901b0193919092039150565b60408152836040820152838560608301375f60608583018101829052601f19601f8701168301838103820160208501529081018490526001600160fb1b03841115613243575f5ffd5b8360051b80866080840137016080019695505050505050565b5f6020828403121561326c575f5ffd5b8151612d0681612a26565b60ff82811682821603908111156124f1576124f1612f23565b5f826132aa57634e487b7160e01b5f52601260045260245ffd5b50069056fea2646970667358221220180287d1bebac02d20d69b87b2e2daa9c956b95a87e57b6e06b6e9c14847fa6c64736f6c634300081d0033",
    "linkReferences": {}
  },
  "methodIdentifiers": {
    "CERTIFICATE_REGISTRY_ID()": "41a0e2c2",
    "CIRCUIT_REGISTRY_ID()": "6c40d5d6",
    "addCertificateRegistryRoot(bytes32)": "3a316e62",
    "addVerifiers(bytes32[],address[])": "a6df2c01",
    "admin()": "f851a440",
    "getAgeProofInputs(bytes,uint256[])": "b2b37a4c",
    "getBindProofInputs(bytes,uint256[])": "4601173c",
    "getBoundData(bytes)": "0af18ba6",
    "getCountryProofInputs(bytes,uint256[],uint8)": "126f7559",
    "getDateProofInputs(bytes,uint256[],uint8)": "ec1374cd",
    "getDiscloseProofInputs(bytes,uint256[])": "ddf3eec9",
    "getDisclosedData(bytes,bool)": "03d37eae",
    "isValidCertificateRegistryRoot(bytes32)": "45e21c90",
    "paused()": "5c975abb",
    "removeCertificateRegistryRoot(bytes32)": "886c3533",
    "removeVerifiers(bytes32[])": "8d6937b8",
    "rootRegistry()": "b96b161c",
    "setPaused(bool)": "16c38b3c",
    "transferAdmin(address)": "75829def",
    "updateRootRegistry(address)": "18677f2a",
    "verifyProof((bytes32,bytes,bytes32[],bytes,uint256[],uint256,string,string,bool))": "d7bf616a",
    "verifyScopes(bytes32[],string,string)": "847755e3",
    "vkeyHashToVerifier(bytes32)": "8163f231"
  },
  "id": 30
}