{
  "abi": [
    {
      "type": "constructor",
      "inputs": [
        {
          "name": "_admin",
          "type": "address",
          "internalType": "address"
        },
        {
          "name": "_guardian",
          "type": "address",
          "internalType": "address"
        },
        {
          "name": "_rootRegistry",
          "type": "address",
          "internalType": "contract IRootRegistry"
        }
      ],
      "stateMutability": "nonpayable"
    },
    {
      "type": "function",
      "name": "addHelper",
      "inputs": [
        {
          "name": "version",
          "type": "uint256",
          "internalType": "uint256"
        },
        {
          "name": "newHelper",
          "type": "address",
          "internalType": "address"
        }
      ],
      "outputs": [],
      "stateMutability": "nonpayable"
    },
    {
      "type": "function",
      "name": "addSubVerifier",
      "inputs": [
        {
          "name": "version",
          "type": "uint256",
          "internalType": "uint256"
        },
        {
          "name": "subVerifier",
          "type": "address",
          "internalType": "contract ZKPassportSubVerifier"
        }
      ],
      "outputs": [],
      "stateMutability": "nonpayable"
    },
    {
      "type": "function",
      "name": "admin",
      "inputs": [],
      "outputs": [
        {
          "name": "",
          "type": "address",
          "internalType": "address"
        }
      ],
      "stateMutability": "view"
    },
    {
      "type": "function",
      "name": "configs",
      "inputs": [
        {
          "name": "",
          "type": "bytes32",
          "internalType": "bytes32"
        }
      ],
      "outputs": [
        {
          "name": "",
          "type": "bytes32",
          "internalType": "bytes32"
        }
      ],
      "stateMutability": "view"
    },
    {
      "type": "function",
      "name": "getSubVerifier",
      "inputs": [
        {
          "name": "version",
          "type": "uint256",
          "internalType": "uint256"
        }
      ],
      "outputs": [
        {
          "name": "",
          "type": "address",
          "internalType": "address"
        }
      ],
      "stateMutability": "view"
    },
    {
      "type": "function",
      "name": "guardian",
      "inputs": [],
      "outputs": [
        {
          "name": "",
          "type": "address",
          "internalType": "address"
        }
      ],
      "stateMutability": "view"
    },
    {
      "type": "function",
      "name": "helpers",
      "inputs": [
        {
          "name": "",
          "type": "uint256",
          "internalType": "uint256"
        }
      ],
      "outputs": [
        {
          "name": "",
          "type": "address",
          "internalType": "contract ZKPassportHelper"
        }
      ],
      "stateMutability": "view"
    },
    {
      "type": "function",
      "name": "paused",
      "inputs": [],
      "outputs": [
        {
          "name": "",
          "type": "bool",
          "internalType": "bool"
        }
      ],
      "stateMutability": "view"
    },
    {
      "type": "function",
      "name": "removeHelper",
      "inputs": [
        {
          "name": "version",
          "type": "uint256",
          "internalType": "uint256"
        }
      ],
      "outputs": [],
      "stateMutability": "nonpayable"
    },
    {
      "type": "function",
      "name": "removeSubVerifier",
      "inputs": [
        {
          "name": "version",
          "type": "uint256",
          "internalType": "uint256"
        }
      ],
      "outputs": [],
      "stateMutability": "nonpayable"
    },
    {
      "type": "function",
      "name": "rootRegistry",
      "inputs": [],
      "outputs": [
        {
          "name": "",
          "type": "address",
          "internalType": "contract IRootRegistry"
        }
      ],
      "stateMutability": "view"
    },
    {
      "type": "function",
      "name": "setGuardian",
      "inputs": [
        {
          "name": "newGuardian",
          "type": "address",
          "internalType": "address"
        }
      ],
      "outputs": [],
      "stateMutability": "nonpayable"
    },
    {
      "type": "function",
      "name": "setPaused",
      "inputs": [
        {
          "name": "_paused",
          "type": "bool",
          "internalType": "bool"
        }
      ],
      "outputs": [],
      "stateMutability": "nonpayable"
    },
    {
      "type": "function",
      "name": "subverifiers",
      "inputs": [
        {
          "name": "",
          "type": "uint256",
          "internalType": "uint256"
        }
      ],
      "outputs": [
        {
          "name": "",
          "type": "address",
          "internalType": "contract ZKPassportSubVerifier"
        }
      ],
      "stateMutability": "view"
    },
    {
      "type": "function",
      "name": "transferAdmin",
      "inputs": [
        {
          "name": "newAdmin",
          "type": "address",
          "internalType": "address"
        }
      ],
      "outputs": [],
      "stateMutability": "nonpayable"
    },
    {
      "type": "function",
      "name": "updateHelper",
      "inputs": [
        {
          "name": "version",
          "type": "uint256",
          "internalType": "uint256"
        },
        {
          "name": "newHelper",
          "type": "address",
          "internalType": "address"
        }
      ],
      "outputs": [],
      "stateMutability": "nonpayable"
    },
    {
      "type": "function",
      "name": "updateSubVerifier",
      "inputs": [
        {
          "name": "version",
          "type": "uint256",
          "internalType": "uint256"
        },
        {
          "name": "newSubVerifier",
          "type": "address",
          "internalType": "address"
        }
      ],
      "outputs": [],
      "stateMutability": "nonpayable"
    },
    {
      "type": "function",
      "name": "verify",
      "inputs": [
        {
          "name": "params",
          "type": "tuple",
          "internalType": "struct ProofVerificationParams",
          "components": [
            {
              "name": "version",
              "type": "uint256",
              "internalType": "uint256"
            },
            {
              "name": "proofVerificationData",
              "type": "tuple",
              "internalType": "struct ProofVerificationData",
              "components": [
                {
                  "name": "vkeyHash",
                  "type": "bytes32",
                  "internalType": "bytes32"
                },
                {
                  "name": "proof",
                  "type": "bytes",
                  "internalType": "bytes"
                },
                {
                  "name": "publicInputs",
                  "type": "bytes32[]",
                  "internalType": "bytes32[]"
                }
              ]
            },
            {
              "name": "committedInputs",
              "type": "bytes",
              "internalType": "bytes"
            },
            {
              "name": "serviceConfig",
              "type": "tuple",
              "internalType": "struct ServiceConfig",
              "components": [
                {
                  "name": "validityPeriodInSeconds",
                  "type": "uint256",
                  "internalType": "uint256"
                },
                {
                  "name": "domain",
                  "type": "string",
                  "internalType": "string"
                },
                {
                  "name": "scope",
                  "type": "string",
                  "internalType": "string"
                },
                {
                  "name": "devMode",
                  "type": "bool",
                  "internalType": "bool"
                }
              ]
            }
          ]
        }
      ],
      "outputs": [
        {
          "name": "valid",
          "type": "bool",
          "internalType": "bool"
        },
        {
          "name": "uniqueIdentifier",
          "type": "bytes32",
          "internalType": "bytes32"
        },
        {
          "name": "helper",
          "type": "address",
          "internalType": "contract ZKPassportHelper"
        }
      ],
      "stateMutability": "view"
    },
    {
      "type": "event",
      "name": "AdminUpdated",
      "inputs": [
        {
          "name": "oldAdmin",
          "type": "address",
          "indexed": true,
          "internalType": "address"
        },
        {
          "name": "newAdmin",
          "type": "address",
          "indexed": true,
          "internalType": "address"
        }
      ],
      "anonymous": false
    },
    {
      "type": "event",
      "name": "GuardianUpdated",
      "inputs": [
        {
          "name": "oldGuardian",
          "type": "address",
          "indexed": true,
          "internalType": "address"
        },
        {
          "name": "newGuardian",
          "type": "address",
          "indexed": true,
          "internalType": "address"
        }
      ],
      "anonymous": false
    },
    {
      "type": "event",
      "name": "HelperAdded",
      "inputs": [
        {
          "name": "version",
          "type": "uint256",
          "indexed": true,
          "internalType": "uint256"
        },
        {
          "name": "helper",
          "type": "address",
          "indexed": true,
          "internalType": "address"
        }
      ],
      "anonymous": false
    },
    {
      "type": "event",
      "name": "HelperRemoved",
      "inputs": [
        {
          "name": "version",
          "type": "uint256",
          "indexed": true,
          "internalType": "uint256"
        },
        {
          "name": "helper",
          "type": "address",
          "indexed": true,
          "internalType": "address"
        }
      ],
      "anonymous": false
    },
    {
      "type": "event",
      "name": "HelperUpdated",
      "inputs": [
        {
          "name": "version",
          "type": "uint256",
          "indexed": true,
          "internalType": "uint256"
        },
        {
          "name": "oldHelper",
          "type": "address",
          "indexed": true,
          "internalType": "address"
        },
        {
          "name": "newHelper",
          "type": "address",
          "indexed": true,
          "internalType": "address"
        }
      ],
      "anonymous": false
    },
    {
      "type": "event",
      "name": "PausedStatusChanged",
      "inputs": [
        {
          "name": "paused",
          "type": "bool",
          "indexed": false,
          "internalType": "bool"
        }
      ],
      "anonymous": false
    },
    {
      "type": "event",
      "name": "RootRegistryUpdated",
      "inputs": [
        {
          "name": "oldRootRegistry",
          "type": "address",
          "indexed": true,
          "internalType": "address"
        },
        {
          "name": "newRootRegistry",
          "type": "address",
          "indexed": true,
          "internalType": "address"
        }
      ],
      "anonymous": false
    },
    {
      "type": "event",
      "name": "RootVerifierDeployed",
      "inputs": [
        {
          "name": "admin",
          "type": "address",
          "indexed": false,
          "internalType": "address"
        },
        {
          "name": "guardian",
          "type": "address",
          "indexed": false,
          "internalType": "address"
        },
        {
          "name": "rootRegistry",
          "type": "address",
          "indexed": false,
          "internalType": "address"
        }
      ],
      "anonymous": false
    },
    {
      "type": "event",
      "name": "SubVerifierAdded",
      "inputs": [
        {
          "name": "version",
          "type": "uint256",
          "indexed": true,
          "internalType": "uint256"
        },
        {
          "name": "subVerifier",
          "type": "address",
          "indexed": true,
          "internalType": "address"
        }
      ],
      "anonymous": false
    },
    {
      "type": "event",
      "name": "SubVerifierRemoved",
      "inputs": [
        {
          "name": "version",
          "type": "uint256",
          "indexed": true,
          "internalType": "uint256"
        },
        {
          "name": "subVerifier",
          "type": "address",
          "indexed": true,
          "internalType": "address"
        }
      ],
      "anonymous": false
    },
    {
      "type": "event",
      "name": "SubVerifierUpdated",
      "inputs": [
        {
          "name": "version",
          "type": "uint256",
          "indexed": true,
          "internalType": "uint256"
        },
        {
          "name": "oldSubVerifier",
          "type": "address",
          "indexed": true,
          "internalType": "address"
        },
        {
          "name": "newSubVerifier",
          "type": "address",
          "indexed": true,
          "internalType": "address"
        }
      ],
      "anonymous": false
    }
  ],
  "bytecode": {
    "object": "0x608060405234801561000f575f5ffd5b5060405161132038038061132083398101604081905261002e91610125565b6001600160a01b0383166100885760405162461bcd60e51b815260206004820152601c60248201527f41646d696e2063616e6e6f74206265207a65726f206164647265737300000000604482015260640160405180910390fd5b5f80546001600160a01b038581166001600160a01b0319928316811790935560018054868316908416811790915560028054928616929093168217909255604080519384526020840192909252908201527f49958336430bdf59d989fb74186fd9ed78af011655d4ffe62fa2fbe5193edbda9060600160405180910390a150505061016f565b6001600160a01b0381168114610122575f5ffd5b50565b5f5f5f60608486031215610137575f5ffd5b83516101428161010e565b60208501519093506101538161010e565b60408501519092506101648161010e565b809150509250925092565b6111a48061017c5f395ff3fe608060405234801561000f575f5ffd5b5060043610610111575f3560e01c80638a0dac4a1161009e578063ce8f60781161006e578063ce8f60781461028c578063db96d2a7146102b9578063e9b52677146102cc578063f851a440146102df578063fc9308e1146102f1575f5ffd5b80638a0dac4a1461022b5780638e7d36dc1461023e578063a826747b14610266578063b96b161c14610279575f5ffd5b8063452a9320116100e4578063452a93201461018e5780635c975abb146101b957806375829def146101dd578063786a8e34146101f05780638075f0ff14610203575f5ffd5b806316c38b3c14610115578063253c8db21461012a57806331f0055b1461013d5780633b12284c1461017b575b5f5ffd5b610128610123366004610d4a565b610319565b005b610128610138366004610d80565b6103d0565b61015061014b366004610dae565b610534565b60408051931515845260208401929092526001600160a01b0316908201526060015b60405180910390f35b610128610189366004610d80565b610690565b6001546101a1906001600160a01b031681565b6040516001600160a01b039091168152602001610172565b6001546101cd90600160a01b900460ff1681565b6040519015158152602001610172565b6101286101eb366004610de5565b61078e565b6101286101fe366004610e00565b61085c565b6101a1610211366004610e00565b5f908152600360205260409020546001600160a01b031690565b610128610239366004610de5565b61095a565b6101a161024c366004610e00565b60046020525f90815260409020546001600160a01b031681565b610128610274366004610d80565b6109d4565b6002546101a1906001600160a01b031681565b6102ab61029a366004610e00565b60056020525f908152604090205481565b604051908152602001610172565b6101286102c7366004610d80565b610b32565b6101286102da366004610e00565b610c6c565b5f546101a1906001600160a01b031681565b6101a16102ff366004610e00565b60036020525f90815260409020546001600160a01b031681565b6001546001600160a01b031633146103785760405162461bcd60e51b815260206004820152601d60248201527f4e6f7420617574686f72697a65643a20677561726469616e206f6e6c7900000060448201526064015b60405180910390fd5b60018054821515600160a01b0260ff60a01b199091161790556040517f9a506b30e47f3823b09f67e4c0dfa5c3d8023b71825b7ceaa97677129128c9c5906103c590831515815260200190565b60405180910390a150565b5f546001600160a01b031633146103f95760405162461bcd60e51b815260040161036f90610e17565b6001600160a01b03811661044f5760405162461bcd60e51b815260206004820152601d60248201527f48656c7065722063616e6e6f74206265207a65726f2061646472657373000000604482015260640161036f565b5f821161046e5760405162461bcd60e51b815260040161036f90610e4e565b5f828152600460205260409020546001600160a01b0316156104dc5760405162461bcd60e51b815260206004820152602160248201527f48656c70657220616c72656164792065786973747320666f722076657273696f6044820152603760f91b606482015260840161036f565b5f8281526004602052604080822080546001600160a01b0319166001600160a01b0385169081179091559051909184917f8583ceac9673868c6df78a559b4e9fef174155e9d83d4246a43db6f50c09e1159190a35050565b5f5f5f600160149054906101000a900460ff16156105895760405162461bcd60e51b815260206004820152601260248201527110dbdb9d1c9858dd081a5cc81c185d5cd95960721b604482015260640161036f565b83355f908152600360205260409020546001600160a01b0316806105f95760405162461bcd60e51b815260206004820152602160248201527f5375627665726966696572206e6f7420666f756e6420666f722076657273696f6044820152603760f91b606482015260840161036f565b60025460405163541d571b60e01b81526001600160a01b038381169263541d571b9261062d92909116908990600401610f82565b6040805180830381865afa158015610647573d5f5f3e3d5ffd5b505050506040513d601f19601f8201168201806040525081019061066b91906110bd565b95355f9081526004602052604090205490966001600160a01b03909116945092505050565b5f546001600160a01b031633146106b95760405162461bcd60e51b815260040161036f90610e17565b5f82116106d85760405162461bcd60e51b815260040161036f90610e4e565b6001600160a01b0381166106fe5760405162461bcd60e51b815260040161036f906110e9565b5f828152600360205260409020546001600160a01b03166107315760405162461bcd60e51b815260040161036f9061112c565b5f8281526003602052604080822080546001600160a01b031981166001600160a01b038681169182179093559251911692839186917f5f1275af7ee523dc003a0845a477f09eae37254f42c8449b7433f4286512d86b91a4505050565b5f546001600160a01b031633146107b75760405162461bcd60e51b815260040161036f90610e17565b6001600160a01b03811661080d5760405162461bcd60e51b815260206004820152601c60248201527f41646d696e2063616e6e6f74206265207a65726f206164647265737300000000604482015260640161036f565b5f80546001600160a01b038381166001600160a01b0319831681178455604051919092169283917f101b8081ff3b56bbf45deb824d86a3b0fd38b7e3dd42421105cf8abe9106db0b9190a35050565b5f546001600160a01b031633146108855760405162461bcd60e51b815260040161036f90610e17565b5f81116108a45760405162461bcd60e51b815260040161036f90610e4e565b5f818152600460205260409020546001600160a01b0316806109085760405162461bcd60e51b815260206004820152601c60248201527f48656c706572206e6f7420666f756e6420666f722076657273696f6e00000000604482015260640161036f565b5f8281526004602052604080822080546001600160a01b0319169055516001600160a01b0383169184917f792e33512cec807b192db2ff4bb44935be5e67d1d535699cec347dfeec1a2ccb9190a35050565b5f546001600160a01b031633146109835760405162461bcd60e51b815260040161036f90610e17565b600180546001600160a01b038381166001600160a01b0319831681179093556040519116919082907f064d28d3d3071c5cbc271a261c10c2f0f0d9e319390397101aa0eb23c6bad909905f90a35050565b5f546001600160a01b031633146109fd5760405162461bcd60e51b815260040161036f90610e17565b5f8211610a1c5760405162461bcd60e51b815260040161036f90610e4e565b6001600160a01b038116610a725760405162461bcd60e51b815260206004820152601d60248201527f48656c7065722063616e6e6f74206265207a65726f2061646472657373000000604482015260640161036f565b5f828152600460205260409020546001600160a01b0316610ad55760405162461bcd60e51b815260206004820152601c60248201527f48656c706572206e6f7420666f756e6420666f722076657273696f6e00000000604482015260640161036f565b5f8281526004602052604080822080546001600160a01b031981166001600160a01b038681169182179093559251911692839186917fd1b53a4c1580d1fadc6bbd71b4d0bd7e0cdd49c423d0749f9f502dff5b2b680291a4505050565b5f546001600160a01b03163314610b5b5760405162461bcd60e51b815260040161036f90610e17565b6001600160a01b038116610b815760405162461bcd60e51b815260040161036f906110e9565b5f8211610ba05760405162461bcd60e51b815260040161036f90610e4e565b5f828152600360205260409020546001600160a01b031615610c145760405162461bcd60e51b815260206004820152602760248201527f53756220766572696669657220616c72656164792065786973747320666f72206044820152663b32b939b4b7b760c91b606482015260840161036f565b5f8281526003602052604080822080546001600160a01b0319166001600160a01b0385169081179091559051909184917f9446c0f3e783537e1ea3a99ea0ef6cf5b94429d1b0ec3ea32737895a74146e529190a35050565b5f546001600160a01b03163314610c955760405162461bcd60e51b815260040161036f90610e17565b5f8111610cb45760405162461bcd60e51b815260040161036f90610e4e565b5f818152600360205260409020546001600160a01b031680610ce85760405162461bcd60e51b815260040161036f9061112c565b5f8281526003602052604080822080546001600160a01b0319169055516001600160a01b0383169184917ffb6bc9898965b707f022380f89208daca2df78be366d58ab985d2002b3b537ed9190a35050565b8015158114610d47575f5ffd5b50565b5f60208284031215610d5a575f5ffd5b8135610d6581610d3a565b9392505050565b6001600160a01b0381168114610d47575f5ffd5b5f5f60408385031215610d91575f5ffd5b823591506020830135610da381610d6c565b809150509250929050565b5f60208284031215610dbe575f5ffd5b813567ffffffffffffffff811115610dd4575f5ffd5b820160808185031215610d65575f5ffd5b5f60208284031215610df5575f5ffd5b8135610d6581610d6c565b5f60208284031215610e10575f5ffd5b5035919050565b6020808252601a908201527f4e6f7420617574686f72697a65643a2061646d696e206f6e6c79000000000000604082015260600190565b6020808252601e908201527f56657273696f6e206d7573742062652067726561746572207468616e20300000604082015260600190565b5f5f8335601e19843603018112610e9a575f5ffd5b830160208101925035905067ffffffffffffffff811115610eb9575f5ffd5b803603821315610ec7575f5ffd5b9250929050565b81835281816020850137505f828201602090810191909152601f909101601f19169091010190565b5f8235607e19833603018112610f0a575f5ffd5b90910192915050565b803582525f610f256020830183610e85565b60806020860152610f3a608086018284610ece565b915050610f4a6040840184610e85565b8583036040870152610f5d838284610ece565b925050506060830135610f6f81610d3a565b8015156060860152508091505092915050565b6001600160a01b0383168152604060208083018290528335918301919091525f9083013536849003605e19018112610fb8575f5ffd5b608060608401528301803560c0840152610fd56020820182610e85565b606060e0860152610feb61012086018284610ece565b9150506040820135601e19833603018112611004575f5ffd5b60209201918201913567ffffffffffffffff811115611021575f5ffd5b8060051b803603841315611033575f5ffd5b85830360bf19016101008701528183526001600160fb1b03821115611056575f5ffd5b8084602085013780830193505050506110726040850185610e85565b601f1985840301608086015261108c602084018284610ece565b9250505061109d6060850185610ef6565b838203603f190160a08501526110b38282610f13565b9695505050505050565b5f5f604083850312156110ce575f5ffd5b82516110d981610d3a565b6020939093015192949293505050565b60208082526023908201527f5375622076657269666965722063616e6e6f74206265207a65726f206164647260408201526265737360e81b606082015260800190565b60208082526022908201527f537562207665726966696572206e6f7420666f756e6420666f7220766572736960408201526137b760f11b60608201526080019056fea2646970667358221220a69fdca416abac3f1592146a966f2b6193e8c2d9f67297d2f5b68074fd254e5864736f6c634300081d0033",
    "linkReferences": {}
  },
  "methodIdentifiers": {
    "addHelper(uint256,address)": "253c8db2",
    "addSubVerifier(uint256,address)": "db96d2a7",
    "admin()": "f851a440",
    "configs(bytes32)": "ce8f6078",
    "getSubVerifier(uint256)": "8075f0ff",
    "guardian()": "452a9320",
    "helpers(uint256)": "8e7d36dc",
    "paused()": "5c975abb",
    "removeHelper(uint256)": "786a8e34",
    "removeSubVerifier(uint256)": "e9b52677",
    "rootRegistry()": "b96b161c",
    "setGuardian(address)": "8a0dac4a",
    "setPaused(bool)": "16c38b3c",
    "subverifiers(uint256)": "fc9308e1",
    "transferAdmin(address)": "75829def",
    "updateHelper(uint256,address)": "a826747b",
    "updateSubVerifier(uint256,address)": "3b12284c",
    "verify((uint256,(bytes32,bytes,bytes32[]),bytes,(uint256,string,string,bool)))": "31f0055b"
  },
  "id": 26
}