{
  "abi": [
    {
      "type": "constructor",
      "inputs": [
        {
          "name": "_rootRegistry",
          "type": "address",
          "internalType": "address"
        }
      ],
      "stateMutability": "nonpayable"
    },
    {
      "type": "function",
      "name": "CERTIFICATE_REGISTRY_ID",
      "inputs": [],
      "outputs": [
        {
          "name": "",
          "type": "bytes32",
          "internalType": "bytes32"
        }
      ],
      "stateMutability": "view"
    },
    {
      "type": "function",
      "name": "CIRCUIT_REGISTRY_ID",
      "inputs": [],
      "outputs": [
        {
          "name": "",
          "type": "bytes32",
          "internalType": "bytes32"
        }
      ],
      "stateMutability": "view"
    },
    {
      "type": "function",
      "name": "SANCTIONS_REGISTRY_ID",
      "inputs": [],
      "outputs": [
        {
          "name": "",
          "type": "bytes32",
          "internalType": "bytes32"
        }
      ],
      "stateMutability": "view"
    },
    {
      "type": "function",
      "name": "addVerifiers",
      "inputs": [
        {
          "name": "vkeyHashes",
          "type": "bytes32[]",
          "internalType": "bytes32[]"
        },
        {
          "name": "verifiers",
          "type": "address[]",
          "internalType": "address[]"
        }
      ],
      "outputs": [],
      "stateMutability": "nonpayable"
    },
    {
      "type": "function",
      "name": "admin",
      "inputs": [],
      "outputs": [
        {
          "name": "",
          "type": "address",
          "internalType": "address"
        }
      ],
      "stateMutability": "view"
    },
    {
      "type": "function",
      "name": "enforceSanctionsRoot",
      "inputs": [
        {
          "name": "committedInputs",
          "type": "bytes",
          "internalType": "bytes"
        },
        {
          "name": "committedInputCounts",
          "type": "uint256[]",
          "internalType": "uint256[]"
        }
      ],
      "outputs": [],
      "stateMutability": "view"
    },
    {
      "type": "function",
      "name": "getAgeProofInputs",
      "inputs": [
        {
          "name": "committedInputs",
          "type": "bytes",
          "internalType": "bytes"
        },
        {
          "name": "committedInputCounts",
          "type": "uint256[]",
          "internalType": "uint256[]"
        }
      ],
      "outputs": [
        {
          "name": "currentDate",
          "type": "uint256",
          "internalType": "uint256"
        },
        {
          "name": "minAge",
          "type": "uint8",
          "internalType": "uint8"
        },
        {
          "name": "maxAge",
          "type": "uint8",
          "internalType": "uint8"
        }
      ],
      "stateMutability": "pure"
    },
    {
      "type": "function",
      "name": "getBindProofInputs",
      "inputs": [
        {
          "name": "committedInputs",
          "type": "bytes",
          "internalType": "bytes"
        },
        {
          "name": "committedInputCounts",
          "type": "uint256[]",
          "internalType": "uint256[]"
        }
      ],
      "outputs": [
        {
          "name": "data",
          "type": "bytes",
          "internalType": "bytes"
        }
      ],
      "stateMutability": "pure"
    },
    {
      "type": "function",
      "name": "getBoundData",
      "inputs": [
        {
          "name": "data",
          "type": "bytes",
          "internalType": "bytes"
        }
      ],
      "outputs": [
        {
          "name": "senderAddress",
          "type": "address",
          "internalType": "address"
        },
        {
          "name": "chainId",
          "type": "uint256",
          "internalType": "uint256"
        },
        {
          "name": "customData",
          "type": "string",
          "internalType": "string"
        }
      ],
      "stateMutability": "pure"
    },
    {
      "type": "function",
      "name": "getCountryProofInputs",
      "inputs": [
        {
          "name": "committedInputs",
          "type": "bytes",
          "internalType": "bytes"
        },
        {
          "name": "committedInputCounts",
          "type": "uint256[]",
          "internalType": "uint256[]"
        },
        {
          "name": "proofType",
          "type": "uint8",
          "internalType": "enum ProofType"
        }
      ],
      "outputs": [
        {
          "name": "countryList",
          "type": "string[]",
          "internalType": "string[]"
        }
      ],
      "stateMutability": "pure"
    },
    {
      "type": "function",
      "name": "getDateProofInputs",
      "inputs": [
        {
          "name": "committedInputs",
          "type": "bytes",
          "internalType": "bytes"
        },
        {
          "name": "committedInputCounts",
          "type": "uint256[]",
          "internalType": "uint256[]"
        },
        {
          "name": "proofType",
          "type": "uint8",
          "internalType": "enum ProofType"
        }
      ],
      "outputs": [
        {
          "name": "currentDate",
          "type": "uint256",
          "internalType": "uint256"
        },
        {
          "name": "minDate",
          "type": "uint256",
          "internalType": "uint256"
        },
        {
          "name": "maxDate",
          "type": "uint256",
          "internalType": "uint256"
        }
      ],
      "stateMutability": "pure"
    },
    {
      "type": "function",
      "name": "getDiscloseProofInputs",
      "inputs": [
        {
          "name": "committedInputs",
          "type": "bytes",
          "internalType": "bytes"
        },
        {
          "name": "committedInputCounts",
          "type": "uint256[]",
          "internalType": "uint256[]"
        }
      ],
      "outputs": [
        {
          "name": "discloseMask",
          "type": "bytes",
          "internalType": "bytes"
        },
        {
          "name": "discloseBytes",
          "type": "bytes",
          "internalType": "bytes"
        }
      ],
      "stateMutability": "pure"
    },
    {
      "type": "function",
      "name": "getDisclosedData",
      "inputs": [
        {
          "name": "discloseBytes",
          "type": "bytes",
          "internalType": "bytes"
        },
        {
          "name": "isIDCard",
          "type": "bool",
          "internalType": "bool"
        }
      ],
      "outputs": [
        {
          "name": "name",
          "type": "string",
          "internalType": "string"
        },
        {
          "name": "issuingCountry",
          "type": "string",
          "internalType": "string"
        },
        {
          "name": "nationality",
          "type": "string",
          "internalType": "string"
        },
        {
          "name": "gender",
          "type": "string",
          "internalType": "string"
        },
        {
          "name": "birthDate",
          "type": "string",
          "internalType": "string"
        },
        {
          "name": "expiryDate",
          "type": "string",
          "internalType": "string"
        },
        {
          "name": "documentNumber",
          "type": "string",
          "internalType": "string"
        },
        {
          "name": "documentType",
          "type": "string",
          "internalType": "string"
        }
      ],
      "stateMutability": "pure"
    },
    {
      "type": "function",
      "name": "getSanctionsProofInputs",
      "inputs": [
        {
          "name": "committedInputs",
          "type": "bytes",
          "internalType": "bytes"
        },
        {
          "name": "committedInputCounts",
          "type": "uint256[]",
          "internalType": "uint256[]"
        }
      ],
      "outputs": [
        {
          "name": "sanctionsTreesCommitment",
          "type": "bytes32",
          "internalType": "bytes32"
        }
      ],
      "stateMutability": "pure"
    },
    {
      "type": "function",
      "name": "paused",
      "inputs": [],
      "outputs": [
        {
          "name": "",
          "type": "bool",
          "internalType": "bool"
        }
      ],
      "stateMutability": "view"
    },
    {
      "type": "function",
      "name": "removeVerifiers",
      "inputs": [
        {
          "name": "vkeyHashes",
          "type": "bytes32[]",
          "internalType": "bytes32[]"
        }
      ],
      "outputs": [],
      "stateMutability": "nonpayable"
    },
    {
      "type": "function",
      "name": "rootRegistry",
      "inputs": [],
      "outputs": [
        {
          "name": "",
          "type": "address",
          "internalType": "contract IRootRegistry"
        }
      ],
      "stateMutability": "view"
    },
    {
      "type": "function",
      "name": "setPaused",
      "inputs": [
        {
          "name": "_paused",
          "type": "bool",
          "internalType": "bool"
        }
      ],
      "outputs": [],
      "stateMutability": "nonpayable"
    },
    {
      "type": "function",
      "name": "transferAdmin",
      "inputs": [
        {
          "name": "newAdmin",
          "type": "address",
          "internalType": "address"
        }
      ],
      "outputs": [],
      "stateMutability": "nonpayable"
    },
    {
      "type": "function",
      "name": "updateRootRegistry",
      "inputs": [
        {
          "name": "_rootRegistry",
          "type": "address",
          "internalType": "address"
        }
      ],
      "outputs": [],
      "stateMutability": "nonpayable"
    },
    {
      "type": "function",
      "name": "verifyProof",
      "inputs": [
        {
          "name": "params",
          "type": "tuple",
          "internalType": "struct ProofVerificationParams",
          "components": [
            {
              "name": "vkeyHash",
              "type": "bytes32",
              "internalType": "bytes32"
            },
            {
              "name": "proof",
              "type": "bytes",
              "internalType": "bytes"
            },
            {
              "name": "publicInputs",
              "type": "bytes32[]",
              "internalType": "bytes32[]"
            },
            {
              "name": "committedInputs",
              "type": "bytes",
              "internalType": "bytes"
            },
            {
              "name": "committedInputCounts",
              "type": "uint256[]",
              "internalType": "uint256[]"
            },
            {
              "name": "validityPeriodInSeconds",
              "type": "uint256",
              "internalType": "uint256"
            },
            {
              "name": "domain",
              "type": "string",
              "internalType": "string"
            },
            {
              "name": "scope",
              "type": "string",
              "internalType": "string"
            },
            {
              "name": "devMode",
              "type": "bool",
              "internalType": "bool"
            }
          ]
        }
      ],
      "outputs": [
        {
          "name": "",
          "type": "bool",
          "internalType": "bool"
        },
        {
          "name": "",
          "type": "bytes32",
          "internalType": "bytes32"
        }
      ],
      "stateMutability": "view"
    },
    {
      "type": "function",
      "name": "verifyScopes",
      "inputs": [
        {
          "name": "publicInputs",
          "type": "bytes32[]",
          "internalType": "bytes32[]"
        },
        {
          "name": "domain",
          "type": "string",
          "internalType": "string"
        },
        {
          "name": "scope",
          "type": "string",
          "internalType": "string"
        }
      ],
      "outputs": [
        {
          "name": "",
          "type": "bool",
          "internalType": "bool"
        }
      ],
      "stateMutability": "pure"
    },
    {
      "type": "function",
      "name": "vkeyHashToVerifier",
      "inputs": [
        {
          "name": "",
          "type": "bytes32",
          "internalType": "bytes32"
        }
      ],
      "outputs": [
        {
          "name": "",
          "type": "address",
          "internalType": "address"
        }
      ],
      "stateMutability": "view"
    },
    {
      "type": "event",
      "name": "AdminUpdated",
      "inputs": [
        {
          "name": "oldAdmin",
          "type": "address",
          "indexed": true,
          "internalType": "address"
        },
        {
          "name": "newAdmin",
          "type": "address",
          "indexed": true,
          "internalType": "address"
        }
      ],
      "anonymous": false
    },
    {
      "type": "event",
      "name": "CertificateRegistryRootAdded",
      "inputs": [
        {
          "name": "certificateRegistryRoot",
          "type": "bytes32",
          "indexed": true,
          "internalType": "bytes32"
        }
      ],
      "anonymous": false
    },
    {
      "type": "event",
      "name": "CertificateRegistryRootRemoved",
      "inputs": [
        {
          "name": "certificateRegistryRoot",
          "type": "bytes32",
          "indexed": true,
          "internalType": "bytes32"
        }
      ],
      "anonymous": false
    },
    {
      "type": "event",
      "name": "PausedStatusChanged",
      "inputs": [
        {
          "name": "paused",
          "type": "bool",
          "indexed": false,
          "internalType": "bool"
        }
      ],
      "anonymous": false
    },
    {
      "type": "event",
      "name": "SanctionsTreesRootUpdates",
      "inputs": [
        {
          "name": "_sanctionsTreesRoot",
          "type": "bytes32",
          "indexed": true,
          "internalType": "bytes32"
        }
      ],
      "anonymous": false
    },
    {
      "type": "event",
      "name": "VerifierAdded",
      "inputs": [
        {
          "name": "vkeyHash",
          "type": "bytes32",
          "indexed": true,
          "internalType": "bytes32"
        },
        {
          "name": "verifier",
          "type": "address",
          "indexed": true,
          "internalType": "address"
        }
      ],
      "anonymous": false
    },
    {
      "type": "event",
      "name": "VerifierRemoved",
      "inputs": [
        {
          "name": "vkeyHash",
          "type": "bytes32",
          "indexed": true,
          "internalType": "bytes32"
        }
      ],
      "anonymous": false
    },
    {
      "type": "event",
      "name": "ZKPassportVerifierDeployed",
      "inputs": [
        {
          "name": "admin",
          "type": "address",
          "indexed": true,
          "internalType": "address"
        },
        {
          "name": "timestamp",
          "type": "uint256",
          "indexed": false,
          "internalType": "uint256"
        }
      ],
      "anonymous": false
    }
  ],
  "bytecode": {
    "object": "0x608060405234801561000f575f5ffd5b5060405161305038038061305083398101604081905261002e916100f6565b6001600160a01b0381166100945760405162461bcd60e51b8152602060048201526024808201527f526f6f742072656769737472792063616e6e6f74206265207a65726f206164646044820152637265737360e01b606482015260840160405180910390fd5b5f8054336001600160a01b03199182168117909255600280549091166001600160a01b0384161790556040514281527ff29b53747ae7121d0958d490ad3d5cf6767119b0fdbd8389d918de3a12cf5a299060200160405180910390a250610123565b5f60208284031215610106575f5ffd5b81516001600160a01b038116811461011c575f5ffd5b9392505050565b612f20806101305f395ff3fe608060405234801561000f575f5ffd5b5060043610610148575f3560e01c806375829def116100bf578063b96b161c11610079578063b96b161c14610320578063d7bf616a14610333578063ddf3eec91461035d578063ec1374cd1461037e578063f851a440146103ac578063fbd24457146103be575f5ffd5b806375829def146102625780638163f23114610275578063847755e3146102b55780638d6937b8146102c8578063a6df2c01146102db578063b2b37a4c146102ee575f5ffd5b80632d4f11e9116101105780632d4f11e9146101e657806341a0e2c2146101f95780634601173c1461020f5780635c975abb1461022f578063652ba33d146102525780636c40d5d61461025a575f5ffd5b806303d37eae1461014c5780630af18ba61461017c578063126f75591461019e57806316c38b3c146101be57806318677f2a146101d3575b5f5ffd5b61015f61015a36600461269d565b6103d1565b60405161017398979695949392919061271d565b60405180910390f35b61018f61018a3660046127ca565b61093c565b60405161017393929190612808565b6101b16101ac366004612877565b610c29565b60405161017391906128fb565b6101d16101cc36600461295e565b610e68565b005b6101d16101e1366004612980565b610ee8565b6101d16101f43660046129a6565b610f95565b610201600181565b604051908152602001610173565b61022261021d3660046129a6565b610fb4565b6040516101739190612a10565b5f5461024290600160a01b900460ff1681565b6040519015158152602001610173565b610201600381565b610201600281565b6101d1610270366004612980565b611378565b61029d610283366004612a22565b60016020525f90815260409020546001600160a01b031681565b6040516001600160a01b039091168152602001610173565b6102426102c3366004612a39565b611446565b6101d16102d6366004612ad5565b61160e565b6101d16102e9366004612b07565b6116ce565b6103016102fc3660046129a6565b6117f1565b6040805193845260ff9283166020850152911690820152606001610173565b60025461029d906001600160a01b031681565b610346610341366004612b3b565b611979565b604080519215158352602083019190915201610173565b61037061036b3660046129a6565b611d6c565b604051610173929190612b72565b61039161038c366004612877565b611f26565b60408051938452602084019290925290820152606001610173565b5f5461029d906001600160a01b031681565b6102016103cc3660046129a6565b6120d1565b6060806060806060806060808861068b578a60058b6103f1826027612baa565b926103fe93929190612bbd565b8080601f0160208091040260200160405190810160405280939291908181526020018383808284375f92019190915250929a508d9250600291508c9050610446826003612baa565b9261045393929190612bbd565b8080601f0160208091040260200160405190810160405280939291908181526020018383808284375f920191909152509299508d9250603691508c905061049b826003612baa565b926104a893929190612bbd565b8080601f0160208091040260200160405190810160405280939291908181526020018383808284375f920191909152509298508d9250604091508c90506104f0826001612baa565b926104fd93929190612bbd565b8080601f0160208091040260200160405190810160405280939291908181526020018383808284375f920191909152509297508d9250603991508c9050610545826006612baa565b9261055293929190612bbd565b8080601f0160208091040260200160405190810160405280939291908181526020018383808284375f920191909152509296508d9250604191508c905061059a826006612baa565b926105a793929190612bbd565b8080601f0160208091040260200160405190810160405280939291908181526020018383808284375f920191909152509295508d9250602c91508c90506105ef826009612baa565b926105fc93929190612bbd565b8080601f0160208091040260200160405190810160405280939291908181526020018383808284375f9201829052509395508e9392508d91506106429050826002612baa565b9261064f93929190612bbd565b8080601f0160208091040260200160405190810160405280939291908181526020018383808284375f9201919091525092935061092f92505050565b8a603c8b61069a82601e612baa565b926106a793929190612bbd565b8080601f0160208091040260200160405190810160405280939291908181526020018383808284375f92019190915250929a508d9250600291508c90506106ef826003612baa565b926106fc93929190612bbd565b8080601f0160208091040260200160405190810160405280939291908181526020018383808284375f920191909152509299508d9250602d91508c9050610744826003612baa565b9261075193929190612bbd565b8080601f0160208091040260200160405190810160405280939291908181526020018383808284375f920191909152509298508d9250602591508c9050610799826001612baa565b926107a693929190612bbd565b8080601f0160208091040260200160405190810160405280939291908181526020018383808284375f920191909152509297508d9250601e91508c90506107ee826006612baa565b926107fb93929190612bbd565b8080601f0160208091040260200160405190810160405280939291908181526020018383808284375f920191909152509296508d9250602691508c9050610843826006612baa565b9261085093929190612bbd565b8080601f0160208091040260200160405190810160405280939291908181526020018383808284375f920191909152509295508d9250600591508c9050610898826009612baa565b926108a593929190612bbd565b8080601f0160208091040260200160405190810160405280939291908181526020018383808284375f9201829052509395508e9392508d91506108eb9050826002612baa565b926108f893929190612bbd565b8080601f0160208091040260200160405190810160405280939291908181526020018383808284375f920191909152509293505050505b9397509397509397509397565b5f806060815b6101f4811015610c2157600160f81b86868381811061096357610963612bf8565b9050013560f81c60f81b6001600160f81b03191603610a20575f868661098a846001612baa565b90610996856003612baa565b926109a393929190612bbd565b6109ac91612c0c565b60f01c905086866109be846003612baa565b9061ffff84166109cf866003612baa565b6109d99190612baa565b926109e693929190612bbd565b6109ef91612c44565b60601c94506109ff816002612c84565b610a0a906001612c84565b610a189061ffff1683612baa565b915050610942565b600160f91b868683818110610a3757610a37612bf8565b9050013560f81c60f81b6001600160f81b03191603610b43575f8686610a5e846001612baa565b90610a6a856003612baa565b92610a7793929190612bbd565b610a8091612c0c565b60f01c90506020811115610adb5760405162461bcd60e51b815260206004820152601860248201527f436861696e206964206c656e67746820746f6f206c6f6e67000000000000000060448201526064015b60405180910390fd5b610ae6816008612c9e565b610af290610100612cbb565b61ffff168787610b03856003612baa565b9061ffff8516610b14876003612baa565b610b1e9190612baa565b92610b2b93929190612bbd565b610b3491612cd5565b901c93506109ff816002612c84565b600360f81b868683818110610b5a57610b5a612bf8565b9050013560f81c60f81b6001600160f81b03191603610c21575f8686610b81846001612baa565b90610b8d856003612baa565b92610b9a93929190612bbd565b610ba391612c0c565b60f01c90508686610bb5846003612baa565b9061ffff8416610bc6866003612baa565b610bd09190612baa565b92610bdd93929190612bbd565b8080601f0160208091040260200160405190810160405280939291908181526020018383808284375f920191909152509295506109ff925083915060029050612c84565b509250925092565b60605f80805b85811015610e0f57610259878783818110610c4c57610c4c612bf8565b90506020020135148015610ca25750846009811115610c6d57610c6d612be4565b60f81b6001600160f81b031916898985818110610c8c57610c8c612bf8565b9050013560f81c60f81b6001600160f81b031916145b15610de1576040805160c8808252611920820190925290816020015b6060815260200190600190039081610cbe5790505093505f5b60c8811015610ddb578989610ced836003612cf2565b610cf79087612baa565b610d02906001612baa565b818110610d1157610d11612bf8565b909101356001600160f81b031916159050610ddb578989610d33836003612cf2565b610d3d9087612baa565b610d48906001612baa565b90610d54846003612cf2565b610d5e9088612baa565b610d69906003612baa565b610d74906001612baa565b92610d8193929190612bbd565b8080601f0160208091040260200160405190810160405280939291908181526020018383808284375f920191909152505087518892508491508110610dc857610dc8612bf8565b6020908102919091010152600101610cd7565b50600191505b868682818110610df357610df3612bf8565b9050602002013583610e059190612baa565b9250600101610c2f565b5080610e5d5760405162461bcd60e51b815260206004820152601e60248201527f436f756e7472792070726f6f6620696e70757473206e6f7420666f756e6400006044820152606401610ad2565b505095945050505050565b5f546001600160a01b03163314610e915760405162461bcd60e51b8152600401610ad290612d09565b5f8054821515600160a01b0260ff60a01b199091161790556040517f9a506b30e47f3823b09f67e4c0dfa5c3d8023b71825b7ceaa97677129128c9c590610edd90831515815260200190565b60405180910390a150565b5f546001600160a01b03163314610f115760405162461bcd60e51b8152600401610ad290612d09565b6001600160a01b038116610f735760405162461bcd60e51b8152602060048201526024808201527f526f6f742072656769737472792063616e6e6f74206265207a65726f206164646044820152637265737360e01b6064820152608401610ad2565b600280546001600160a01b0319166001600160a01b0392909216919091179055565b5f610fa2858585856120d1565b9050610fad816121f8565b5050505050565b60605f80805b84811015611320576101f5868683818110610fd757610fd7612bf8565b90506020020135036112f257600160fb1b888885818110610ffa57610ffa612bf8565b9050013560f81c60f81b6001600160f81b0319161461102b5760405162461bcd60e51b8152600401610ad290612d40565b5f5b6101f48110156111b157600160f81b89898361104a886001612baa565b6110549190612baa565b81811061106357611063612bf8565b9050013560f81c60f81b6001600160f81b03191603611109575f89898361108b886001612baa565b6110959190612baa565b6110a0906001612baa565b90846110ad896001612baa565b6110b79190612baa565b6110c2906003612baa565b926110cf93929190612bbd565b6110d891612c0c565b60f01c90506110e8816002612c84565b6110f3906001612c84565b6111019061ffff1683612baa565b91505061102d565b600160f91b89898361111c886001612baa565b6111269190612baa565b81811061113557611135612bf8565b9050013560f81c60f81b6001600160f81b0319160361115d575f89898361108b886001612baa565b600360f81b898983611170886001612baa565b61117a9190612baa565b81811061118957611189612bf8565b9050013560f81c60f81b6001600160f81b031916036111b1575f89898361108b886001612baa565b5f811180156111c257506101f48111155b6112045760405162461bcd60e51b8152602060048201526013602482015272092dcecc2d8d2c840c8c2e8c240d8cadccee8d606b1b6044820152606401610ad2565b805b6101f481101561128e5789898261121e886001612baa565b6112289190612baa565b81811061123757611237612bf8565b909101356001600160f81b0319161590506112865760405162461bcd60e51b815260206004820152600f60248201526e496e76616c69642070616464696e6760881b6044820152606401610ad2565b600101611206565b50888861129c866001612baa565b906112a9876101f5612baa565b926112b693929190612bbd565b8080601f0160208091040260200160405190810160405280939291908181526020018383808284375f9201919091525092975060019550505050505b85858281811061130457611304612bf8565b90506020020135836113169190612baa565b9250600101610fba565b508061136e5760405162461bcd60e51b815260206004820181905260248201527f42696e6420646174612070726f6f6620696e70757473206e6f7420666f756e646044820152606401610ad2565b5050949350505050565b5f546001600160a01b031633146113a15760405162461bcd60e51b8152600401610ad290612d09565b6001600160a01b0381166113f75760405162461bcd60e51b815260206004820152601c60248201527f41646d696e2063616e6e6f74206265207a65726f2061646472657373000000006044820152606401610ad2565b5f80546001600160a01b038381166001600160a01b0319831681178455604051919092169283917f101b8081ff3b56bbf45deb824d86a3b0fd38b7e3dd42421105cf8abe9106db0b9190a35050565b5f5f61148686868080601f0160208091040260200160405190810160405280939291908181526020018383808284375f920191909152506122b992505050565b611500576008600287876040516020016114a1929190612d6c565b60408051601f19818403018152908290526114bb91612d7b565b602060405180830381855afa1580156114d6573d5f5f3e3d5ffd5b5050506040513d601f19601f820116820180604052508101906114f99190612d91565b901c611502565b5f5b90505f61154385858080601f0160208091040260200160405190810160405280939291908181526020018383808284375f920191909152506122b992505050565b6115bd5760086002868660405160200161155e929190612d6c565b60408051601f198184030181529082905261157891612d7b565b602060405180830381855afa158015611593573d5f5f3e3d5ffd5b5050506040513d601f19601f820116820180604052508101906115b69190612d91565b901c6115bf565b5f5b905081898960038181106115d5576115d5612bf8565b90506020020135148015611601575080898960048181106115f8576115f8612bf8565b90506020020135145b9998505050505050505050565b5f546001600160a01b031633146116375760405162461bcd60e51b8152600401610ad290612d09565b5f5b818110156116c95760015f84848481811061165657611656612bf8565b602090810292909201358352508101919091526040015f2080546001600160a01b031916905582828281811061168e5761168e612bf8565b905060200201357f6fdcbcf8f91bc23f2c9dcfe8fe01d80d1b1afbbf207298e94c0171ccc587424c60405160405180910390a2600101611639565b505050565b5f546001600160a01b031633146116f75760405162461bcd60e51b8152600401610ad290612d09565b5f5b83811015610fad5782828281811061171357611713612bf8565b90506020020160208101906117289190612980565b60015f87878581811061173d5761173d612bf8565b9050602002013581526020019081526020015f205f6101000a8154816001600160a01b0302191690836001600160a01b0316021790555082828281811061178657611786612bf8565b905060200201602081019061179b9190612980565b6001600160a01b03168585838181106117b6576117b6612bf8565b905060200201357f636107338a3eb46f1f60562462f3ec11393d35fbc965991aaade3b9e7d89c3f560405160405180910390a36001016116f9565b5f80808080805b8681101561191f57600b88888381811061181457611814612bf8565b90506020020135036118f157600160f81b8a8a8581811061183757611837612bf8565b9050013560f81c60f81b6001600160f81b031916146118685760405162461bcd60e51b8152600401610ad290612d40565b60c08a8a611877866001612baa565b90611883876009612baa565b9261189093929190612bbd565b61189991612cd5565b901c955089896118aa856009612baa565b8181106118b9576118b9612bf8565b919091013560f81c95508a9050896118d285600a612baa565b8181106118e1576118e1612bf8565b919091013560f81c945060019250505b87878281811061190357611903612bf8565b90506020020135836119159190612baa565b92506001016117f8565b508061196d5760405162461bcd60e51b815260206004820152601a60248201527f4167652070726f6f6620696e70757473206e6f7420666f756e640000000000006044820152606401610ad2565b50509450945094915050565b5f80548190600160a01b900460ff16156119ca5760405162461bcd60e51b815260206004820152601260248201527110dbdb9d1c9858dd081a5cc81c185d5cd95960721b6044820152606401610ad2565b5f6119d584356122be565b9050611a036119e76040860186612da8565b5f8181106119f7576119f7612bf8565b9050602002013561231d565b611a30611a136040860186612da8565b6001818110611a2457611a24612bf8565b905060200201356123e5565b611a7a611a406040860186612da8565b808060200260200160405190810160405280939291908181526020018383602002808284375f9201919091525050505060a08601356124a3565b611ac65760405162461bcd60e51b815260206004820181905260248201527f50726f6f662065787069726564206f72206461746520697320696e76616c69646044820152606401610ad2565b611af0611ad66040860186612da8565b611ae360c0880188612ded565b6102c360e08a018a612ded565b611b2d5760405162461bcd60e51b815260206004820152600e60248201526d496e76616c69642073636f70657360901b6044820152606401610ad2565b611be8611b3d6040860186612da8565b6005906001611b4f60408a018a612da8565b611b5a929150612e2f565b92611b6793929190612e42565b808060200260200160405190810160405280939291908181526020018383602002808284375f92019190915250611ba5925050506060870187612ded565b611bb26080890189612da8565b808060200260200160405190810160405280939291908181526020018383602002808284375f920191909152506124d692505050565b6001611bf76040860186612da8565b6001611c066040890189612da8565b611c11929150612e2f565b818110611c2057611c20612bf8565b90506020020135141580611c415750611c416101208501610100860161295e565b611c9e5760405162461bcd60e51b815260206004820152602860248201527f4d6f636b2070726f6f667320617265206f6e6c7920616c6c6f77656420696e20604482015267646576206d6f646560c01b6064820152608401610ad2565b6001600160a01b03811663ea50d0e4611cba6020870187612ded565b611cc76040890189612da8565b6040518563ffffffff1660e01b8152600401611ce69493929190612e6d565b602060405180830381865afa158015611d01573d5f5f3e3d5ffd5b505050506040513d601f19601f82011682018060405250810190611d259190612ecf565b611d326040860186612da8565b6001611d416040890189612da8565b611d4c929150612e2f565b818110611d5b57611d5b612bf8565b905060200201359250925050915091565b6060805f80805b85811015611ecd5760b5878783818110611d8f57611d8f612bf8565b9050602002013503611e9f575f898985818110611dae57611dae612bf8565b9050013560f81c60f81b6001600160f81b03191614611ddf5760405162461bcd60e51b8152600401610ad290612d40565b8888611dec856001612baa565b90611df886605b612baa565b92611e0593929190612bbd565b8080601f0160208091040260200160405190810160405280939291908181526020018383808284375f920191909152509297508b92508a9150611e4b905085605b612baa565b90611e578660b5612baa565b92611e6493929190612bbd565b8080601f0160208091040260200160405190810160405280939291908181526020018383808284375f92019190915250929650600194505050505b868682818110611eb157611eb1612bf8565b9050602002013583611ec39190612baa565b9250600101611d73565b5080611f1b5760405162461bcd60e51b815260206004820152601f60248201527f446973636c6f73652070726f6f6620696e70757473206e6f7420666f756e64006044820152606401610ad2565b505094509492505050565b5f80808080805b87811015612076576019898983818110611f4957611f49612bf8565b90506020020135148015611f9f5750866009811115611f6a57611f6a612be4565b60f81b6001600160f81b0319168b8b85818110611f8957611f89612bf8565b9050013560f81c60f81b6001600160f81b031916145b156120485760c08b8b611fb3866001612baa565b90611fbf876009612baa565b92611fcc93929190612bbd565b611fd591612cd5565b901c955060c08b8b611fe8866009612baa565b90611ff4876011612baa565b9261200193929190612bbd565b61200a91612cd5565b901c945060c08b8b61201d866011612baa565b90612029876019612baa565b9261203693929190612bbd565b61203f91612cd5565b901c9350600191505b88888281811061205a5761205a612bf8565b905060200201358361206c9190612baa565b9250600101611f2d565b50806120c45760405162461bcd60e51b815260206004820152601b60248201527f446174652070726f6f6620696e70757473206e6f7420666f756e6400000000006044820152606401610ad2565b5050955095509592505050565b5f8080805b848110156121aa5760218686838181106120f2576120f2612bf8565b905060200201350361217c57600960f81b88888581811061211557612115612bf8565b9050013560f81c60f81b6001600160f81b031916146121465760405162461bcd60e51b8152600401610ad290612d40565b8787612153856001612baa565b9061215f866021612baa565b9261216c93929190612bbd565b61217591612cd5565b9350600191505b85858281811061218e5761218e612bf8565b90506020020135836121a09190612baa565b92506001016120d6565b508061136e5760405162461bcd60e51b815260206004820181905260248201527f53616e6374696f6e732070726f6f6620696e70757473206e6f7420666f756e646044820152606401610ad2565b6002546040516383578c1160e01b815260036004820152602481018390526001600160a01b03909116906383578c1190604401602060405180830381865afa158015612246573d5f5f3e3d5ffd5b505050506040513d601f19601f8201168201806040525081019061226a9190612ecf565b6122b65760405162461bcd60e51b815260206004820152601f60248201527f496e76616c69642073616e6374696f6e7320726567697374727920726f6f74006044820152606401610ad2565b50565b511590565b5f818152600160205260408120546001600160a01b0316806123175760405162461bcd60e51b815260206004820152601260248201527115995c9a599a595c881b9bdd08199bdd5b9960721b6044820152606401610ad2565b92915050565b6002546040516383578c1160e01b815260016004820152602481018390526001600160a01b03909116906383578c1190604401602060405180830381865afa15801561236b573d5f5f3e3d5ffd5b505050506040513d601f19601f8201168201806040525081019061238f9190612ecf565b6122b65760405162461bcd60e51b815260206004820152602160248201527f496e76616c696420636572746966696361746520726567697374727920726f6f6044820152601d60fa1b6064820152608401610ad2565b600280546040516383578c1160e01b81526004810192909252602482018390526001600160a01b0316906383578c1190604401602060405180830381865afa158015612433573d5f5f3e3d5ffd5b505050506040513d601f19601f820116820180604052508101906124579190612ecf565b6122b65760405162461bcd60e51b815260206004820152601d60248201527f496e76616c6964206369726375697420726567697374727920726f6f740000006044820152606401610ad2565b5f5f836002815181106124b8576124b8612bf8565b60200260200101515f1c90506124ce818461261f565b949350505050565b5f805b8251811015612617575f60086002878786908887815181106124fd576124fd612bf8565b6020026020010151886125109190612baa565b9261251d93929190612bbd565b60405160200161252e929190612d6c565b60408051601f198184030181529082905261254891612d7b565b602060405180830381855afa158015612563573d5f5f3e3d5ffd5b5050506040513d601f19601f820116820180604052508101906125869190612d91565b901c905086828151811061259c5761259c612bf8565b602002602001015181146125e75760405162461bcd60e51b8152602060048201526012602482015271125b9d985b1a590818dbdb5b5a5d1b595b9d60721b6044820152606401610ad2565b8382815181106125f9576125f9612bf8565b60200260200101518361260c9190612baa565b9250506001016124d9565b505050505050565b5f8061262b8385612baa565b905083421015801561263c57508381115b80156124ce575042109392505050565b5f5f83601f84011261265c575f5ffd5b5081356001600160401b03811115612672575f5ffd5b602083019150836020828501011115612689575f5ffd5b9250929050565b80151581146122b6575f5ffd5b5f5f5f604084860312156126af575f5ffd5b83356001600160401b038111156126c4575f5ffd5b6126d08682870161264c565b90945092505060208401356126e481612690565b809150509250925092565b5f81518084528060208401602086015e5f602082860101526020601f19601f83011685010191505092915050565b61010081525f61273161010083018b6126ef565b8281036020840152612743818b6126ef565b90508281036040840152612757818a6126ef565b9050828103606084015261276b81896126ef565b9050828103608084015261277f81886126ef565b905082810360a084015261279381876126ef565b905082810360c08401526127a781866126ef565b905082810360e08401526127bb81856126ef565b9b9a5050505050505050505050565b5f5f602083850312156127db575f5ffd5b82356001600160401b038111156127f0575f5ffd5b6127fc8582860161264c565b90969095509350505050565b60018060a01b0384168152826020820152606060408201525f61282e60608301846126ef565b95945050505050565b5f5f83601f840112612847575f5ffd5b5081356001600160401b0381111561285d575f5ffd5b6020830191508360208260051b8501011115612689575f5ffd5b5f5f5f5f5f6060868803121561288b575f5ffd5b85356001600160401b038111156128a0575f5ffd5b6128ac8882890161264c565b90965094505060208601356001600160401b038111156128ca575f5ffd5b6128d688828901612837565b9094509250506040860135600a81106128ed575f5ffd5b809150509295509295909350565b5f602082016020835280845180835260408501915060408160051b8601019250602086015f5b8281101561295257603f1987860301845261293d8583516126ef565b94506020938401939190910190600101612921565b50929695505050505050565b5f6020828403121561296e575f5ffd5b813561297981612690565b9392505050565b5f60208284031215612990575f5ffd5b81356001600160a01b0381168114612979575f5ffd5b5f5f5f5f604085870312156129b9575f5ffd5b84356001600160401b038111156129ce575f5ffd5b6129da8782880161264c565b90955093505060208501356001600160401b038111156129f8575f5ffd5b612a0487828801612837565b95989497509550505050565b602081525f61297960208301846126ef565b5f60208284031215612a32575f5ffd5b5035919050565b5f5f5f5f5f5f60608789031215612a4e575f5ffd5b86356001600160401b03811115612a63575f5ffd5b612a6f89828a01612837565b90975095505060208701356001600160401b03811115612a8d575f5ffd5b612a9989828a0161264c565b90955093505060408701356001600160401b03811115612ab7575f5ffd5b612ac389828a0161264c565b979a9699509497509295939492505050565b5f5f60208385031215612ae6575f5ffd5b82356001600160401b03811115612afb575f5ffd5b6127fc85828601612837565b5f5f5f5f60408587031215612b1a575f5ffd5b84356001600160401b03811115612b2f575f5ffd5b6129da87828801612837565b5f60208284031215612b4b575f5ffd5b81356001600160401b03811115612b60575f5ffd5b82016101208185031215612979575f5ffd5b604081525f612b8460408301856126ef565b828103602084015261282e81856126ef565b634e487b7160e01b5f52601160045260245ffd5b8082018082111561231757612317612b96565b5f5f85851115612bcb575f5ffd5b83861115612bd7575f5ffd5b5050820193919092039150565b634e487b7160e01b5f52602160045260245ffd5b634e487b7160e01b5f52603260045260245ffd5b80356001600160f01b03198116906002841015612c3d576001600160f01b0319600285900360031b81901b82161691505b5092915050565b80356bffffffffffffffffffffffff198116906014841015612c3d576bffffffffffffffffffffffff1960149490940360031b84901b1690921692915050565b61ffff818116838216019081111561231757612317612b96565b61ffff8181168382160290811690818114612c3d57612c3d612b96565b61ffff828116828216039081111561231757612317612b96565b80356020831015612317575f19602084900360031b1b1692915050565b808202811582820484141761231757612317612b96565b6020808252601a908201527f4e6f7420617574686f72697a65643a2061646d696e206f6e6c79000000000000604082015260600190565b602080825260129082015271496e76616c69642070726f6f66207479706560701b604082015260600190565b818382375f9101908152919050565b5f82518060208501845e5f920191825250919050565b5f60208284031215612da1575f5ffd5b5051919050565b5f5f8335601e19843603018112612dbd575f5ffd5b8301803591506001600160401b03821115612dd6575f5ffd5b6020019150600581901b3603821315612689575f5ffd5b5f5f8335601e19843603018112612e02575f5ffd5b8301803591506001600160401b03821115612e1b575f5ffd5b602001915036819003821315612689575f5ffd5b8181038181111561231757612317612b96565b5f5f85851115612e50575f5ffd5b83861115612e5c575f5ffd5b5050600583901b0193919092039150565b60408152836040820152838560608301375f60608583018101829052601f19601f8701168301838103820160208501529081018490526001600160fb1b03841115612eb6575f5ffd5b8360051b80866080840137016080019695505050505050565b5f60208284031215612edf575f5ffd5b81516129798161269056fea26469706673582212206da3bb8a925a3bdc0b97056c2a9a66044cffc01d8da6c0309b9e2c1b16cfc61464736f6c634300081d0033",
    "linkReferences": {}
  },
  "methodIdentifiers": {
    "CERTIFICATE_REGISTRY_ID()": "41a0e2c2",
    "CIRCUIT_REGISTRY_ID()": "6c40d5d6",
    "SANCTIONS_REGISTRY_ID()": "652ba33d",
    "addVerifiers(bytes32[],address[])": "a6df2c01",
    "admin()": "f851a440",
    "enforceSanctionsRoot(bytes,uint256[])": "2d4f11e9",
    "getAgeProofInputs(bytes,uint256[])": "b2b37a4c",
    "getBindProofInputs(bytes,uint256[])": "4601173c",
    "getBoundData(bytes)": "0af18ba6",
    "getCountryProofInputs(bytes,uint256[],uint8)": "126f7559",
    "getDateProofInputs(bytes,uint256[],uint8)": "ec1374cd",
    "getDiscloseProofInputs(bytes,uint256[])": "ddf3eec9",
    "getDisclosedData(bytes,bool)": "03d37eae",
    "getSanctionsProofInputs(bytes,uint256[])": "fbd24457",
    "paused()": "5c975abb",
    "removeVerifiers(bytes32[])": "8d6937b8",
    "rootRegistry()": "b96b161c",
    "setPaused(bool)": "16c38b3c",
    "transferAdmin(address)": "75829def",
    "updateRootRegistry(address)": "18677f2a",
    "verifyProof((bytes32,bytes,bytes32[],bytes,uint256[],uint256,string,string,bool))": "d7bf616a",
    "verifyScopes(bytes32[],string,string)": "847755e3",
    "vkeyHashToVerifier(bytes32)": "8163f231"
  },
  "id": 29
}