{
  "abi": [
    {
      "type": "constructor",
      "inputs": [
        {
          "name": "_rootRegistry",
          "type": "address",
          "internalType": "address"
        }
      ],
      "stateMutability": "nonpayable"
    },
    {
      "type": "function",
      "name": "CERTIFICATE_REGISTRY_ID",
      "inputs": [],
      "outputs": [
        {
          "name": "",
          "type": "bytes32",
          "internalType": "bytes32"
        }
      ],
      "stateMutability": "view"
    },
    {
      "type": "function",
      "name": "CIRCUIT_REGISTRY_ID",
      "inputs": [],
      "outputs": [
        {
          "name": "",
          "type": "bytes32",
          "internalType": "bytes32"
        }
      ],
      "stateMutability": "view"
    },
    {
      "type": "function",
      "name": "SANCTIONS_REGISTRY_ID",
      "inputs": [],
      "outputs": [
        {
          "name": "",
          "type": "bytes32",
          "internalType": "bytes32"
        }
      ],
      "stateMutability": "view"
    },
    {
      "type": "function",
      "name": "addVerifiers",
      "inputs": [
        {
          "name": "vkeyHashes",
          "type": "bytes32[]",
          "internalType": "bytes32[]"
        },
        {
          "name": "verifiers",
          "type": "address[]",
          "internalType": "address[]"
        }
      ],
      "outputs": [],
      "stateMutability": "nonpayable"
    },
    {
      "type": "function",
      "name": "admin",
      "inputs": [],
      "outputs": [
        {
          "name": "",
          "type": "address",
          "internalType": "address"
        }
      ],
      "stateMutability": "view"
    },
    {
      "type": "function",
      "name": "enforceSanctionsRoot",
      "inputs": [
        {
          "name": "commitments",
          "type": "tuple",
          "internalType": "struct Commitments",
          "components": [
            {
              "name": "committedInputs",
              "type": "bytes",
              "internalType": "bytes"
            },
            {
              "name": "committedInputCounts",
              "type": "uint256[]",
              "internalType": "uint256[]"
            }
          ]
        }
      ],
      "outputs": [],
      "stateMutability": "view"
    },
    {
      "type": "function",
      "name": "getBoundData",
      "inputs": [
        {
          "name": "commitments",
          "type": "tuple",
          "internalType": "struct Commitments",
          "components": [
            {
              "name": "committedInputs",
              "type": "bytes",
              "internalType": "bytes"
            },
            {
              "name": "committedInputCounts",
              "type": "uint256[]",
              "internalType": "uint256[]"
            }
          ]
        }
      ],
      "outputs": [
        {
          "name": "boundData",
          "type": "tuple",
          "internalType": "struct BoundData",
          "components": [
            {
              "name": "senderAddress",
              "type": "address",
              "internalType": "address"
            },
            {
              "name": "chainId",
              "type": "uint256",
              "internalType": "uint256"
            },
            {
              "name": "customData",
              "type": "string",
              "internalType": "string"
            }
          ]
        }
      ],
      "stateMutability": "pure"
    },
    {
      "type": "function",
      "name": "getDisclosedData",
      "inputs": [
        {
          "name": "commitments",
          "type": "tuple",
          "internalType": "struct Commitments",
          "components": [
            {
              "name": "committedInputs",
              "type": "bytes",
              "internalType": "bytes"
            },
            {
              "name": "committedInputCounts",
              "type": "uint256[]",
              "internalType": "uint256[]"
            }
          ]
        },
        {
          "name": "isIDCard",
          "type": "bool",
          "internalType": "bool"
        }
      ],
      "outputs": [
        {
          "name": "disclosedData",
          "type": "tuple",
          "internalType": "struct DisclosedData",
          "components": [
            {
              "name": "name",
              "type": "string",
              "internalType": "string"
            },
            {
              "name": "issuingCountry",
              "type": "string",
              "internalType": "string"
            },
            {
              "name": "nationality",
              "type": "string",
              "internalType": "string"
            },
            {
              "name": "gender",
              "type": "string",
              "internalType": "string"
            },
            {
              "name": "birthDate",
              "type": "string",
              "internalType": "string"
            },
            {
              "name": "expiryDate",
              "type": "string",
              "internalType": "string"
            },
            {
              "name": "documentNumber",
              "type": "string",
              "internalType": "string"
            },
            {
              "name": "documentType",
              "type": "string",
              "internalType": "string"
            }
          ]
        }
      ],
      "stateMutability": "pure"
    },
    {
      "type": "function",
      "name": "isAgeAbove",
      "inputs": [
        {
          "name": "minAge",
          "type": "uint8",
          "internalType": "uint8"
        },
        {
          "name": "commitments",
          "type": "tuple",
          "internalType": "struct Commitments",
          "components": [
            {
              "name": "committedInputs",
              "type": "bytes",
              "internalType": "bytes"
            },
            {
              "name": "committedInputCounts",
              "type": "uint256[]",
              "internalType": "uint256[]"
            }
          ]
        },
        {
          "name": "serviceConfig",
          "type": "tuple",
          "internalType": "struct ServiceConfig",
          "components": [
            {
              "name": "validityPeriodInSeconds",
              "type": "uint256",
              "internalType": "uint256"
            },
            {
              "name": "domain",
              "type": "string",
              "internalType": "string"
            },
            {
              "name": "scope",
              "type": "string",
              "internalType": "string"
            },
            {
              "name": "devMode",
              "type": "bool",
              "internalType": "bool"
            }
          ]
        }
      ],
      "outputs": [
        {
          "name": "",
          "type": "bool",
          "internalType": "bool"
        }
      ],
      "stateMutability": "view"
    },
    {
      "type": "function",
      "name": "isAgeAboveOrEqual",
      "inputs": [
        {
          "name": "minAge",
          "type": "uint8",
          "internalType": "uint8"
        },
        {
          "name": "commitments",
          "type": "tuple",
          "internalType": "struct Commitments",
          "components": [
            {
              "name": "committedInputs",
              "type": "bytes",
              "internalType": "bytes"
            },
            {
              "name": "committedInputCounts",
              "type": "uint256[]",
              "internalType": "uint256[]"
            }
          ]
        },
        {
          "name": "serviceConfig",
          "type": "tuple",
          "internalType": "struct ServiceConfig",
          "components": [
            {
              "name": "validityPeriodInSeconds",
              "type": "uint256",
              "internalType": "uint256"
            },
            {
              "name": "domain",
              "type": "string",
              "internalType": "string"
            },
            {
              "name": "scope",
              "type": "string",
              "internalType": "string"
            },
            {
              "name": "devMode",
              "type": "bool",
              "internalType": "bool"
            }
          ]
        }
      ],
      "outputs": [
        {
          "name": "",
          "type": "bool",
          "internalType": "bool"
        }
      ],
      "stateMutability": "view"
    },
    {
      "type": "function",
      "name": "isAgeBelow",
      "inputs": [
        {
          "name": "maxAge",
          "type": "uint8",
          "internalType": "uint8"
        },
        {
          "name": "commitments",
          "type": "tuple",
          "internalType": "struct Commitments",
          "components": [
            {
              "name": "committedInputs",
              "type": "bytes",
              "internalType": "bytes"
            },
            {
              "name": "committedInputCounts",
              "type": "uint256[]",
              "internalType": "uint256[]"
            }
          ]
        },
        {
          "name": "serviceConfig",
          "type": "tuple",
          "internalType": "struct ServiceConfig",
          "components": [
            {
              "name": "validityPeriodInSeconds",
              "type": "uint256",
              "internalType": "uint256"
            },
            {
              "name": "domain",
              "type": "string",
              "internalType": "string"
            },
            {
              "name": "scope",
              "type": "string",
              "internalType": "string"
            },
            {
              "name": "devMode",
              "type": "bool",
              "internalType": "bool"
            }
          ]
        }
      ],
      "outputs": [
        {
          "name": "",
          "type": "bool",
          "internalType": "bool"
        }
      ],
      "stateMutability": "view"
    },
    {
      "type": "function",
      "name": "isAgeBelowOrEqual",
      "inputs": [
        {
          "name": "maxAge",
          "type": "uint8",
          "internalType": "uint8"
        },
        {
          "name": "commitments",
          "type": "tuple",
          "internalType": "struct Commitments",
          "components": [
            {
              "name": "committedInputs",
              "type": "bytes",
              "internalType": "bytes"
            },
            {
              "name": "committedInputCounts",
              "type": "uint256[]",
              "internalType": "uint256[]"
            }
          ]
        },
        {
          "name": "serviceConfig",
          "type": "tuple",
          "internalType": "struct ServiceConfig",
          "components": [
            {
              "name": "validityPeriodInSeconds",
              "type": "uint256",
              "internalType": "uint256"
            },
            {
              "name": "domain",
              "type": "string",
              "internalType": "string"
            },
            {
              "name": "scope",
              "type": "string",
              "internalType": "string"
            },
            {
              "name": "devMode",
              "type": "bool",
              "internalType": "bool"
            }
          ]
        }
      ],
      "outputs": [
        {
          "name": "",
          "type": "bool",
          "internalType": "bool"
        }
      ],
      "stateMutability": "view"
    },
    {
      "type": "function",
      "name": "isAgeBetween",
      "inputs": [
        {
          "name": "minAge",
          "type": "uint8",
          "internalType": "uint8"
        },
        {
          "name": "maxAge",
          "type": "uint8",
          "internalType": "uint8"
        },
        {
          "name": "commitments",
          "type": "tuple",
          "internalType": "struct Commitments",
          "components": [
            {
              "name": "committedInputs",
              "type": "bytes",
              "internalType": "bytes"
            },
            {
              "name": "committedInputCounts",
              "type": "uint256[]",
              "internalType": "uint256[]"
            }
          ]
        },
        {
          "name": "serviceConfig",
          "type": "tuple",
          "internalType": "struct ServiceConfig",
          "components": [
            {
              "name": "validityPeriodInSeconds",
              "type": "uint256",
              "internalType": "uint256"
            },
            {
              "name": "domain",
              "type": "string",
              "internalType": "string"
            },
            {
              "name": "scope",
              "type": "string",
              "internalType": "string"
            },
            {
              "name": "devMode",
              "type": "bool",
              "internalType": "bool"
            }
          ]
        }
      ],
      "outputs": [
        {
          "name": "",
          "type": "bool",
          "internalType": "bool"
        }
      ],
      "stateMutability": "view"
    },
    {
      "type": "function",
      "name": "isAgeEqual",
      "inputs": [
        {
          "name": "age",
          "type": "uint8",
          "internalType": "uint8"
        },
        {
          "name": "commitments",
          "type": "tuple",
          "internalType": "struct Commitments",
          "components": [
            {
              "name": "committedInputs",
              "type": "bytes",
              "internalType": "bytes"
            },
            {
              "name": "committedInputCounts",
              "type": "uint256[]",
              "internalType": "uint256[]"
            }
          ]
        },
        {
          "name": "serviceConfig",
          "type": "tuple",
          "internalType": "struct ServiceConfig",
          "components": [
            {
              "name": "validityPeriodInSeconds",
              "type": "uint256",
              "internalType": "uint256"
            },
            {
              "name": "domain",
              "type": "string",
              "internalType": "string"
            },
            {
              "name": "scope",
              "type": "string",
              "internalType": "string"
            },
            {
              "name": "devMode",
              "type": "bool",
              "internalType": "bool"
            }
          ]
        }
      ],
      "outputs": [
        {
          "name": "",
          "type": "bool",
          "internalType": "bool"
        }
      ],
      "stateMutability": "view"
    },
    {
      "type": "function",
      "name": "isBirthdateAfter",
      "inputs": [
        {
          "name": "minDate",
          "type": "uint256",
          "internalType": "uint256"
        },
        {
          "name": "commitments",
          "type": "tuple",
          "internalType": "struct Commitments",
          "components": [
            {
              "name": "committedInputs",
              "type": "bytes",
              "internalType": "bytes"
            },
            {
              "name": "committedInputCounts",
              "type": "uint256[]",
              "internalType": "uint256[]"
            }
          ]
        },
        {
          "name": "serviceConfig",
          "type": "tuple",
          "internalType": "struct ServiceConfig",
          "components": [
            {
              "name": "validityPeriodInSeconds",
              "type": "uint256",
              "internalType": "uint256"
            },
            {
              "name": "domain",
              "type": "string",
              "internalType": "string"
            },
            {
              "name": "scope",
              "type": "string",
              "internalType": "string"
            },
            {
              "name": "devMode",
              "type": "bool",
              "internalType": "bool"
            }
          ]
        }
      ],
      "outputs": [
        {
          "name": "",
          "type": "bool",
          "internalType": "bool"
        }
      ],
      "stateMutability": "view"
    },
    {
      "type": "function",
      "name": "isBirthdateAfterOrEqual",
      "inputs": [
        {
          "name": "minDate",
          "type": "uint256",
          "internalType": "uint256"
        },
        {
          "name": "commitments",
          "type": "tuple",
          "internalType": "struct Commitments",
          "components": [
            {
              "name": "committedInputs",
              "type": "bytes",
              "internalType": "bytes"
            },
            {
              "name": "committedInputCounts",
              "type": "uint256[]",
              "internalType": "uint256[]"
            }
          ]
        },
        {
          "name": "serviceConfig",
          "type": "tuple",
          "internalType": "struct ServiceConfig",
          "components": [
            {
              "name": "validityPeriodInSeconds",
              "type": "uint256",
              "internalType": "uint256"
            },
            {
              "name": "domain",
              "type": "string",
              "internalType": "string"
            },
            {
              "name": "scope",
              "type": "string",
              "internalType": "string"
            },
            {
              "name": "devMode",
              "type": "bool",
              "internalType": "bool"
            }
          ]
        }
      ],
      "outputs": [
        {
          "name": "",
          "type": "bool",
          "internalType": "bool"
        }
      ],
      "stateMutability": "view"
    },
    {
      "type": "function",
      "name": "isBirthdateBefore",
      "inputs": [
        {
          "name": "maxDate",
          "type": "uint256",
          "internalType": "uint256"
        },
        {
          "name": "commitments",
          "type": "tuple",
          "internalType": "struct Commitments",
          "components": [
            {
              "name": "committedInputs",
              "type": "bytes",
              "internalType": "bytes"
            },
            {
              "name": "committedInputCounts",
              "type": "uint256[]",
              "internalType": "uint256[]"
            }
          ]
        },
        {
          "name": "serviceConfig",
          "type": "tuple",
          "internalType": "struct ServiceConfig",
          "components": [
            {
              "name": "validityPeriodInSeconds",
              "type": "uint256",
              "internalType": "uint256"
            },
            {
              "name": "domain",
              "type": "string",
              "internalType": "string"
            },
            {
              "name": "scope",
              "type": "string",
              "internalType": "string"
            },
            {
              "name": "devMode",
              "type": "bool",
              "internalType": "bool"
            }
          ]
        }
      ],
      "outputs": [
        {
          "name": "",
          "type": "bool",
          "internalType": "bool"
        }
      ],
      "stateMutability": "view"
    },
    {
      "type": "function",
      "name": "isBirthdateBeforeOrEqual",
      "inputs": [
        {
          "name": "maxDate",
          "type": "uint256",
          "internalType": "uint256"
        },
        {
          "name": "commitments",
          "type": "tuple",
          "internalType": "struct Commitments",
          "components": [
            {
              "name": "committedInputs",
              "type": "bytes",
              "internalType": "bytes"
            },
            {
              "name": "committedInputCounts",
              "type": "uint256[]",
              "internalType": "uint256[]"
            }
          ]
        },
        {
          "name": "serviceConfig",
          "type": "tuple",
          "internalType": "struct ServiceConfig",
          "components": [
            {
              "name": "validityPeriodInSeconds",
              "type": "uint256",
              "internalType": "uint256"
            },
            {
              "name": "domain",
              "type": "string",
              "internalType": "string"
            },
            {
              "name": "scope",
              "type": "string",
              "internalType": "string"
            },
            {
              "name": "devMode",
              "type": "bool",
              "internalType": "bool"
            }
          ]
        }
      ],
      "outputs": [
        {
          "name": "",
          "type": "bool",
          "internalType": "bool"
        }
      ],
      "stateMutability": "view"
    },
    {
      "type": "function",
      "name": "isBirthdateBetween",
      "inputs": [
        {
          "name": "minDate",
          "type": "uint256",
          "internalType": "uint256"
        },
        {
          "name": "maxDate",
          "type": "uint256",
          "internalType": "uint256"
        },
        {
          "name": "commitments",
          "type": "tuple",
          "internalType": "struct Commitments",
          "components": [
            {
              "name": "committedInputs",
              "type": "bytes",
              "internalType": "bytes"
            },
            {
              "name": "committedInputCounts",
              "type": "uint256[]",
              "internalType": "uint256[]"
            }
          ]
        },
        {
          "name": "serviceConfig",
          "type": "tuple",
          "internalType": "struct ServiceConfig",
          "components": [
            {
              "name": "validityPeriodInSeconds",
              "type": "uint256",
              "internalType": "uint256"
            },
            {
              "name": "domain",
              "type": "string",
              "internalType": "string"
            },
            {
              "name": "scope",
              "type": "string",
              "internalType": "string"
            },
            {
              "name": "devMode",
              "type": "bool",
              "internalType": "bool"
            }
          ]
        }
      ],
      "outputs": [
        {
          "name": "",
          "type": "bool",
          "internalType": "bool"
        }
      ],
      "stateMutability": "view"
    },
    {
      "type": "function",
      "name": "isBirthdateEqual",
      "inputs": [
        {
          "name": "date",
          "type": "uint256",
          "internalType": "uint256"
        },
        {
          "name": "commitments",
          "type": "tuple",
          "internalType": "struct Commitments",
          "components": [
            {
              "name": "committedInputs",
              "type": "bytes",
              "internalType": "bytes"
            },
            {
              "name": "committedInputCounts",
              "type": "uint256[]",
              "internalType": "uint256[]"
            }
          ]
        },
        {
          "name": "serviceConfig",
          "type": "tuple",
          "internalType": "struct ServiceConfig",
          "components": [
            {
              "name": "validityPeriodInSeconds",
              "type": "uint256",
              "internalType": "uint256"
            },
            {
              "name": "domain",
              "type": "string",
              "internalType": "string"
            },
            {
              "name": "scope",
              "type": "string",
              "internalType": "string"
            },
            {
              "name": "devMode",
              "type": "bool",
              "internalType": "bool"
            }
          ]
        }
      ],
      "outputs": [
        {
          "name": "",
          "type": "bool",
          "internalType": "bool"
        }
      ],
      "stateMutability": "view"
    },
    {
      "type": "function",
      "name": "isExpiryDateAfter",
      "inputs": [
        {
          "name": "minDate",
          "type": "uint256",
          "internalType": "uint256"
        },
        {
          "name": "commitments",
          "type": "tuple",
          "internalType": "struct Commitments",
          "components": [
            {
              "name": "committedInputs",
              "type": "bytes",
              "internalType": "bytes"
            },
            {
              "name": "committedInputCounts",
              "type": "uint256[]",
              "internalType": "uint256[]"
            }
          ]
        },
        {
          "name": "serviceConfig",
          "type": "tuple",
          "internalType": "struct ServiceConfig",
          "components": [
            {
              "name": "validityPeriodInSeconds",
              "type": "uint256",
              "internalType": "uint256"
            },
            {
              "name": "domain",
              "type": "string",
              "internalType": "string"
            },
            {
              "name": "scope",
              "type": "string",
              "internalType": "string"
            },
            {
              "name": "devMode",
              "type": "bool",
              "internalType": "bool"
            }
          ]
        }
      ],
      "outputs": [
        {
          "name": "",
          "type": "bool",
          "internalType": "bool"
        }
      ],
      "stateMutability": "view"
    },
    {
      "type": "function",
      "name": "isExpiryDateAfterOrEqual",
      "inputs": [
        {
          "name": "minDate",
          "type": "uint256",
          "internalType": "uint256"
        },
        {
          "name": "commitments",
          "type": "tuple",
          "internalType": "struct Commitments",
          "components": [
            {
              "name": "committedInputs",
              "type": "bytes",
              "internalType": "bytes"
            },
            {
              "name": "committedInputCounts",
              "type": "uint256[]",
              "internalType": "uint256[]"
            }
          ]
        },
        {
          "name": "serviceConfig",
          "type": "tuple",
          "internalType": "struct ServiceConfig",
          "components": [
            {
              "name": "validityPeriodInSeconds",
              "type": "uint256",
              "internalType": "uint256"
            },
            {
              "name": "domain",
              "type": "string",
              "internalType": "string"
            },
            {
              "name": "scope",
              "type": "string",
              "internalType": "string"
            },
            {
              "name": "devMode",
              "type": "bool",
              "internalType": "bool"
            }
          ]
        }
      ],
      "outputs": [
        {
          "name": "",
          "type": "bool",
          "internalType": "bool"
        }
      ],
      "stateMutability": "view"
    },
    {
      "type": "function",
      "name": "isExpiryDateBefore",
      "inputs": [
        {
          "name": "maxDate",
          "type": "uint256",
          "internalType": "uint256"
        },
        {
          "name": "commitments",
          "type": "tuple",
          "internalType": "struct Commitments",
          "components": [
            {
              "name": "committedInputs",
              "type": "bytes",
              "internalType": "bytes"
            },
            {
              "name": "committedInputCounts",
              "type": "uint256[]",
              "internalType": "uint256[]"
            }
          ]
        },
        {
          "name": "serviceConfig",
          "type": "tuple",
          "internalType": "struct ServiceConfig",
          "components": [
            {
              "name": "validityPeriodInSeconds",
              "type": "uint256",
              "internalType": "uint256"
            },
            {
              "name": "domain",
              "type": "string",
              "internalType": "string"
            },
            {
              "name": "scope",
              "type": "string",
              "internalType": "string"
            },
            {
              "name": "devMode",
              "type": "bool",
              "internalType": "bool"
            }
          ]
        }
      ],
      "outputs": [
        {
          "name": "",
          "type": "bool",
          "internalType": "bool"
        }
      ],
      "stateMutability": "view"
    },
    {
      "type": "function",
      "name": "isExpiryDateBeforeOrEqual",
      "inputs": [
        {
          "name": "maxDate",
          "type": "uint256",
          "internalType": "uint256"
        },
        {
          "name": "commitments",
          "type": "tuple",
          "internalType": "struct Commitments",
          "components": [
            {
              "name": "committedInputs",
              "type": "bytes",
              "internalType": "bytes"
            },
            {
              "name": "committedInputCounts",
              "type": "uint256[]",
              "internalType": "uint256[]"
            }
          ]
        },
        {
          "name": "serviceConfig",
          "type": "tuple",
          "internalType": "struct ServiceConfig",
          "components": [
            {
              "name": "validityPeriodInSeconds",
              "type": "uint256",
              "internalType": "uint256"
            },
            {
              "name": "domain",
              "type": "string",
              "internalType": "string"
            },
            {
              "name": "scope",
              "type": "string",
              "internalType": "string"
            },
            {
              "name": "devMode",
              "type": "bool",
              "internalType": "bool"
            }
          ]
        }
      ],
      "outputs": [
        {
          "name": "",
          "type": "bool",
          "internalType": "bool"
        }
      ],
      "stateMutability": "view"
    },
    {
      "type": "function",
      "name": "isExpiryDateBetween",
      "inputs": [
        {
          "name": "minDate",
          "type": "uint256",
          "internalType": "uint256"
        },
        {
          "name": "maxDate",
          "type": "uint256",
          "internalType": "uint256"
        },
        {
          "name": "commitments",
          "type": "tuple",
          "internalType": "struct Commitments",
          "components": [
            {
              "name": "committedInputs",
              "type": "bytes",
              "internalType": "bytes"
            },
            {
              "name": "committedInputCounts",
              "type": "uint256[]",
              "internalType": "uint256[]"
            }
          ]
        },
        {
          "name": "serviceConfig",
          "type": "tuple",
          "internalType": "struct ServiceConfig",
          "components": [
            {
              "name": "validityPeriodInSeconds",
              "type": "uint256",
              "internalType": "uint256"
            },
            {
              "name": "domain",
              "type": "string",
              "internalType": "string"
            },
            {
              "name": "scope",
              "type": "string",
              "internalType": "string"
            },
            {
              "name": "devMode",
              "type": "bool",
              "internalType": "bool"
            }
          ]
        }
      ],
      "outputs": [
        {
          "name": "",
          "type": "bool",
          "internalType": "bool"
        }
      ],
      "stateMutability": "view"
    },
    {
      "type": "function",
      "name": "isExpiryDateEqual",
      "inputs": [
        {
          "name": "date",
          "type": "uint256",
          "internalType": "uint256"
        },
        {
          "name": "commitments",
          "type": "tuple",
          "internalType": "struct Commitments",
          "components": [
            {
              "name": "committedInputs",
              "type": "bytes",
              "internalType": "bytes"
            },
            {
              "name": "committedInputCounts",
              "type": "uint256[]",
              "internalType": "uint256[]"
            }
          ]
        },
        {
          "name": "serviceConfig",
          "type": "tuple",
          "internalType": "struct ServiceConfig",
          "components": [
            {
              "name": "validityPeriodInSeconds",
              "type": "uint256",
              "internalType": "uint256"
            },
            {
              "name": "domain",
              "type": "string",
              "internalType": "string"
            },
            {
              "name": "scope",
              "type": "string",
              "internalType": "string"
            },
            {
              "name": "devMode",
              "type": "bool",
              "internalType": "bool"
            }
          ]
        }
      ],
      "outputs": [
        {
          "name": "",
          "type": "bool",
          "internalType": "bool"
        }
      ],
      "stateMutability": "view"
    },
    {
      "type": "function",
      "name": "isFaceMatchVerified",
      "inputs": [
        {
          "name": "faceMatchMode",
          "type": "uint8",
          "internalType": "enum FaceMatchMode"
        },
        {
          "name": "os",
          "type": "uint8",
          "internalType": "enum OS"
        },
        {
          "name": "commitments",
          "type": "tuple",
          "internalType": "struct Commitments",
          "components": [
            {
              "name": "committedInputs",
              "type": "bytes",
              "internalType": "bytes"
            },
            {
              "name": "committedInputCounts",
              "type": "uint256[]",
              "internalType": "uint256[]"
            }
          ]
        }
      ],
      "outputs": [
        {
          "name": "",
          "type": "bool",
          "internalType": "bool"
        }
      ],
      "stateMutability": "pure"
    },
    {
      "type": "function",
      "name": "isIssuingCountryIn",
      "inputs": [
        {
          "name": "countryList",
          "type": "string[]",
          "internalType": "string[]"
        },
        {
          "name": "commitments",
          "type": "tuple",
          "internalType": "struct Commitments",
          "components": [
            {
              "name": "committedInputs",
              "type": "bytes",
              "internalType": "bytes"
            },
            {
              "name": "committedInputCounts",
              "type": "uint256[]",
              "internalType": "uint256[]"
            }
          ]
        }
      ],
      "outputs": [
        {
          "name": "",
          "type": "bool",
          "internalType": "bool"
        }
      ],
      "stateMutability": "pure"
    },
    {
      "type": "function",
      "name": "isIssuingCountryOut",
      "inputs": [
        {
          "name": "countryList",
          "type": "string[]",
          "internalType": "string[]"
        },
        {
          "name": "commitments",
          "type": "tuple",
          "internalType": "struct Commitments",
          "components": [
            {
              "name": "committedInputs",
              "type": "bytes",
              "internalType": "bytes"
            },
            {
              "name": "committedInputCounts",
              "type": "uint256[]",
              "internalType": "uint256[]"
            }
          ]
        }
      ],
      "outputs": [
        {
          "name": "",
          "type": "bool",
          "internalType": "bool"
        }
      ],
      "stateMutability": "pure"
    },
    {
      "type": "function",
      "name": "isNationalityIn",
      "inputs": [
        {
          "name": "countryList",
          "type": "string[]",
          "internalType": "string[]"
        },
        {
          "name": "commitments",
          "type": "tuple",
          "internalType": "struct Commitments",
          "components": [
            {
              "name": "committedInputs",
              "type": "bytes",
              "internalType": "bytes"
            },
            {
              "name": "committedInputCounts",
              "type": "uint256[]",
              "internalType": "uint256[]"
            }
          ]
        }
      ],
      "outputs": [
        {
          "name": "",
          "type": "bool",
          "internalType": "bool"
        }
      ],
      "stateMutability": "pure"
    },
    {
      "type": "function",
      "name": "isNationalityOut",
      "inputs": [
        {
          "name": "countryList",
          "type": "string[]",
          "internalType": "string[]"
        },
        {
          "name": "commitments",
          "type": "tuple",
          "internalType": "struct Commitments",
          "components": [
            {
              "name": "committedInputs",
              "type": "bytes",
              "internalType": "bytes"
            },
            {
              "name": "committedInputCounts",
              "type": "uint256[]",
              "internalType": "uint256[]"
            }
          ]
        }
      ],
      "outputs": [
        {
          "name": "",
          "type": "bool",
          "internalType": "bool"
        }
      ],
      "stateMutability": "pure"
    },
    {
      "type": "function",
      "name": "paused",
      "inputs": [],
      "outputs": [
        {
          "name": "",
          "type": "bool",
          "internalType": "bool"
        }
      ],
      "stateMutability": "view"
    },
    {
      "type": "function",
      "name": "removeVerifiers",
      "inputs": [
        {
          "name": "vkeyHashes",
          "type": "bytes32[]",
          "internalType": "bytes32[]"
        }
      ],
      "outputs": [],
      "stateMutability": "nonpayable"
    },
    {
      "type": "function",
      "name": "rootRegistry",
      "inputs": [],
      "outputs": [
        {
          "name": "",
          "type": "address",
          "internalType": "contract IRootRegistry"
        }
      ],
      "stateMutability": "view"
    },
    {
      "type": "function",
      "name": "setPaused",
      "inputs": [
        {
          "name": "_paused",
          "type": "bool",
          "internalType": "bool"
        }
      ],
      "outputs": [],
      "stateMutability": "nonpayable"
    },
    {
      "type": "function",
      "name": "transferAdmin",
      "inputs": [
        {
          "name": "newAdmin",
          "type": "address",
          "internalType": "address"
        }
      ],
      "outputs": [],
      "stateMutability": "nonpayable"
    },
    {
      "type": "function",
      "name": "updateRootRegistry",
      "inputs": [
        {
          "name": "_rootRegistry",
          "type": "address",
          "internalType": "address"
        }
      ],
      "outputs": [],
      "stateMutability": "nonpayable"
    },
    {
      "type": "function",
      "name": "verifyProof",
      "inputs": [
        {
          "name": "params",
          "type": "tuple",
          "internalType": "struct ProofVerificationParams",
          "components": [
            {
              "name": "proofVerificationData",
              "type": "tuple",
              "internalType": "struct ProofVerificationData",
              "components": [
                {
                  "name": "vkeyHash",
                  "type": "bytes32",
                  "internalType": "bytes32"
                },
                {
                  "name": "proof",
                  "type": "bytes",
                  "internalType": "bytes"
                },
                {
                  "name": "publicInputs",
                  "type": "bytes32[]",
                  "internalType": "bytes32[]"
                }
              ]
            },
            {
              "name": "commitments",
              "type": "tuple",
              "internalType": "struct Commitments",
              "components": [
                {
                  "name": "committedInputs",
                  "type": "bytes",
                  "internalType": "bytes"
                },
                {
                  "name": "committedInputCounts",
                  "type": "uint256[]",
                  "internalType": "uint256[]"
                }
              ]
            },
            {
              "name": "serviceConfig",
              "type": "tuple",
              "internalType": "struct ServiceConfig",
              "components": [
                {
                  "name": "validityPeriodInSeconds",
                  "type": "uint256",
                  "internalType": "uint256"
                },
                {
                  "name": "domain",
                  "type": "string",
                  "internalType": "string"
                },
                {
                  "name": "scope",
                  "type": "string",
                  "internalType": "string"
                },
                {
                  "name": "devMode",
                  "type": "bool",
                  "internalType": "bool"
                }
              ]
            }
          ]
        }
      ],
      "outputs": [
        {
          "name": "isValid",
          "type": "bool",
          "internalType": "bool"
        },
        {
          "name": "uniqueIdentifier",
          "type": "bytes32",
          "internalType": "bytes32"
        }
      ],
      "stateMutability": "view"
    },
    {
      "type": "function",
      "name": "verifyScopes",
      "inputs": [
        {
          "name": "publicInputs",
          "type": "bytes32[]",
          "internalType": "bytes32[]"
        },
        {
          "name": "domain",
          "type": "string",
          "internalType": "string"
        },
        {
          "name": "scope",
          "type": "string",
          "internalType": "string"
        }
      ],
      "outputs": [
        {
          "name": "",
          "type": "bool",
          "internalType": "bool"
        }
      ],
      "stateMutability": "pure"
    },
    {
      "type": "function",
      "name": "vkeyHashToVerifier",
      "inputs": [
        {
          "name": "",
          "type": "bytes32",
          "internalType": "bytes32"
        }
      ],
      "outputs": [
        {
          "name": "",
          "type": "address",
          "internalType": "address"
        }
      ],
      "stateMutability": "view"
    },
    {
      "type": "event",
      "name": "AdminUpdated",
      "inputs": [
        {
          "name": "oldAdmin",
          "type": "address",
          "indexed": true,
          "internalType": "address"
        },
        {
          "name": "newAdmin",
          "type": "address",
          "indexed": true,
          "internalType": "address"
        }
      ],
      "anonymous": false
    },
    {
      "type": "event",
      "name": "CertificateRegistryRootAdded",
      "inputs": [
        {
          "name": "certificateRegistryRoot",
          "type": "bytes32",
          "indexed": true,
          "internalType": "bytes32"
        }
      ],
      "anonymous": false
    },
    {
      "type": "event",
      "name": "CertificateRegistryRootRemoved",
      "inputs": [
        {
          "name": "certificateRegistryRoot",
          "type": "bytes32",
          "indexed": true,
          "internalType": "bytes32"
        }
      ],
      "anonymous": false
    },
    {
      "type": "event",
      "name": "PausedStatusChanged",
      "inputs": [
        {
          "name": "paused",
          "type": "bool",
          "indexed": false,
          "internalType": "bool"
        }
      ],
      "anonymous": false
    },
    {
      "type": "event",
      "name": "SanctionsTreesRootUpdates",
      "inputs": [
        {
          "name": "_sanctionsTreesRoot",
          "type": "bytes32",
          "indexed": true,
          "internalType": "bytes32"
        }
      ],
      "anonymous": false
    },
    {
      "type": "event",
      "name": "VerifierAdded",
      "inputs": [
        {
          "name": "vkeyHash",
          "type": "bytes32",
          "indexed": true,
          "internalType": "bytes32"
        },
        {
          "name": "verifier",
          "type": "address",
          "indexed": true,
          "internalType": "address"
        }
      ],
      "anonymous": false
    },
    {
      "type": "event",
      "name": "VerifierRemoved",
      "inputs": [
        {
          "name": "vkeyHash",
          "type": "bytes32",
          "indexed": true,
          "internalType": "bytes32"
        }
      ],
      "anonymous": false
    },
    {
      "type": "event",
      "name": "ZKPassportVerifierDeployed",
      "inputs": [
        {
          "name": "admin",
          "type": "address",
          "indexed": true,
          "internalType": "address"
        },
        {
          "name": "timestamp",
          "type": "uint256",
          "indexed": false,
          "internalType": "uint256"
        }
      ],
      "anonymous": false
    }
  ],
  "bytecode": {
    "object": "0x608060405234801561000f575f5ffd5b50604051613d70380380613d7083398101604081905261002e916100f6565b6001600160a01b0381166100945760405162461bcd60e51b8152602060048201526024808201527f526f6f742072656769737472792063616e6e6f74206265207a65726f206164646044820152637265737360e01b606482015260840160405180910390fd5b5f8054336001600160a01b03199182168117909255600280549091166001600160a01b0384161790556040514281527ff29b53747ae7121d0958d490ad3d5cf6767119b0fdbd8389d918de3a12cf5a299060200160405180910390a250610123565b5f60208284031215610106575f5ffd5b81516001600160a01b038116811461011c575f5ffd5b9392505050565b613c40806101305f395ff3fe608060405234801561000f575f5ffd5b506004361061023f575f3560e01c80638b2ec61111610135578063c3fa6f22116100b4578063ddd8f8e311610079578063ddd8f8e31461051a578063ec8e07291461052d578063f3757ad414610557578063f851a44014610577578063ff20370714610589575f5ffd5b8063c3fa6f22146104bb578063ca4051f2146104ce578063cf515d37146104e1578063d39a5cf9146104f4578063d4932b4e14610507575f5ffd5b8063a6df2c01116100fa578063a6df2c011461045c578063ac20d6781461046f578063b8bd487914610482578063b96b161c14610495578063c1b77162146104a8575f5ffd5b80638b2ec611146103f05780638d6937b8146104035780638e2e2e621461041657806398e73ac3146104295780639c1a81a314610449575f5ffd5b806346b758a0116101c157806375829def1161018657806375829def146103645780637e5a88f3146103775780638163f2311461038a578063818694f1146103ca578063847755e3146103dd575f5ffd5b806346b758a01461031b5780635b7ab9291461032e5780635c975abb14610341578063652ba33d146103545780636c40d5d61461035c575f5ffd5b80632e5ce77f116102075780632e5ce77f146102b9578063311a335c146102cc578063320d3b55146102df5780633d6ed975146102f257806341a0e2c214610305575f5ffd5b8063106a2f6d1461024357806316c38b3c1461026b57806316e3d7291461028057806318677f2a146102935780631fac4345146102a6575b5f5ffd5b610256610251366004612a78565b61059c565b60405190151581526020015b60405180910390f35b61027e610279366004612ae2565b610809565b005b61027e61028e366004612afd565b610892565b61027e6102a1366004612b42565b610919565b6102566102b4366004612b6d565b6109c6565b6102566102c7366004612bdc565b6109dc565b6102566102da366004612c13565b610b10565b6102566102ed366004612b6d565b610b28565b610256610300366004612c13565b610b37565b61030d600181565b604051908152602001610262565b610256610329366004612d3d565b610b46565b61025661033c366004612d3d565b610b5c565b5f5461025690600160a01b900460ff1681565b61030d600381565b61030d600281565b61027e610372366004612b42565b610b69565b610256610385366004612d3d565b610c37565b6103b2610398366004612e5b565b60016020525f90815260409020546001600160a01b031681565b6040516001600160a01b039091168152602001610262565b6102566103d8366004612bdc565b610c44565b6102566103eb366004612ef6565b610cac565b6102566103fe366004612b6d565b610e74565b61027e610411366004612f92565b610e83565b610256610424366004612b6d565b610f43565b61043c610437366004612afd565b610f51565b6040516102629190612ffe565b610256610457366004612b6d565b61107c565b61027e61046a366004613034565b611096565b61025661047d366004612b6d565b6111c0565b610256610490366004612b6d565b6111da565b6002546103b2906001600160a01b031681565b6102566104b6366004612b6d565b6111f4565b6102566104c9366004612bdc565b611202565b6102566104dc366004612b6d565b611218565b6102566104ef36600461309e565b611226565b610256610502366004612d3d565b61147a565b610256610515366004612bdc565b611487565b610256610528366004612b6d565b6115bb565b61054061053b3660046130e6565b6115d5565b604080519215158352602083019190915201610262565b61056a61056536600461311c565b611bf5565b604051610262919061316a565b5f546103b2906001600160a01b031681565b610256610597366004612bdc565b611d35565b5f5f5f5f5f73__$144f4fe859debe4776cdef2b99f7b97a42$__63defa8ed9876040518263ffffffff1660e01b81526004016105d89190613360565b608060405180830381865af41580156105f3573d5f5f3e3d5ffd5b505050506040513d601f19601f820116820180604052508101906106179190613372565b929650909450925090505f6001846001811115610636576106366133be565b1490505f89600281111561064c5761064c6133be565b83600281111561065e5761065e6133be565b1490505f7f2532418a107c5306fa8308c22255792cf77e4a290cbce8a840a642a3e591340b871480156106bc575060018a60028111156106a0576106a06133be565b14806106bc57505f8a60028111156106ba576106ba6133be565b145b8061071c57507f16700a2d9168a194fc85f237af5829b5a2be05b8ae8ac4879ada34cf54a9c2118714801561071c575060028a6002811115610700576107006133be565b148061071c57505f8a600281111561071a5761071a6133be565b145b90505f7f1fa73686cf510f8f85757b0602de0dd72a13e68ae2092462be8b72662e7f179b86148015610779575060018b600281111561075d5761075d6133be565b148061077957505f8b6002811115610777576107776133be565b145b806107d957507f24d9929b248be7eeecaa98e105c034a50539610f3fdd4cb9c8983ef4100d615d861480156107d9575060028b60028111156107bd576107bd6133be565b14806107d957505f8b60028111156107d7576107d76133be565b145b90508380156107e55750825b80156107ee5750815b80156107f75750805b985050505050505050505b9392505050565b5f546001600160a01b0316331461083b5760405162461bcd60e51b8152600401610832906133d2565b60405180910390fd5b5f8054821515600160a01b0260ff60a01b199091161790556040517f9a506b30e47f3823b09f67e4c0dfa5c3d8023b71825b7ceaa97677129128c9c59061088790831515815260200190565b60405180910390a150565b604051632988ebc960e21b81525f9073__$144f4fe859debe4776cdef2b99f7b97a42$__9063a623af24906108cb908590600401613360565b602060405180830381865af41580156108e6573d5f5f3e3d5ffd5b505050506040513d601f19601f8201168201806040525081019061090a9190613409565b905061091581611d42565b5050565b5f546001600160a01b031633146109425760405162461bcd60e51b8152600401610832906133d2565b6001600160a01b0381166109a45760405162461bcd60e51b8152602060048201526024808201527f526f6f742072656769737472792063616e6e6f74206265207a65726f206164646044820152637265737360e01b6064820152608401610832565b600280546001600160a01b0319166001600160a01b0392909216919091179055565b5f6109d48460028585611e03565b949350505050565b5f5f5f5f73__$144f4fe859debe4776cdef2b99f7b97a42$__6384052813876040518263ffffffff1660e01b8152600401610a179190613360565b606060405180830381865af4158015610a32573d5f5f3e3d5ffd5b505050506040513d601f19601f82011682018060405250810190610a569190613420565b91945092509050610a68838635611ff5565b610a845760405162461bcd60e51b815260040161083290613461565b60ff811615610afd576040805162461bcd60e51b81526020600482015260248101919091527f5468652070726f6f6620757070657220626f756e64206d75737420626520302c60448201527f20706c65617365207573652069734167654265747765656e20696e73746561646064820152608401610832565b5060ff8681169116149150509392505050565b5f610b1f858560028686612022565b95945050505050565b5f6109d4848560028686612022565b5f610b1f858560038686612022565b5f610b5383600484612343565b90505b92915050565b5f610b5383600784612343565b5f546001600160a01b03163314610b925760405162461bcd60e51b8152600401610832906133d2565b6001600160a01b038116610be85760405162461bcd60e51b815260206004820152601c60248201527f41646d696e2063616e6e6f74206265207a65726f2061646472657373000000006044820152606401610832565b5f80546001600160a01b038381166001600160a01b0319831681178455604051919092169283917f101b8081ff3b56bbf45deb824d86a3b0fd38b7e3dd42421105cf8abe9106db0b9190a35050565b5f610b5383600684612343565b5f5f8460ff1611610c975760405162461bcd60e51b815260206004820152601e60248201527f4d617820616765206d7573742062652067726561746572207468616e203000006044820152606401610832565b6109d4610ca56001866134e6565b8484611487565b5f5f610cec86868080601f0160208091040260200160405190810160405280939291908181526020018383808284375f9201919091525061245192505050565b610d6657600860028787604051602001610d079291906134ff565b60408051601f1981840301815290829052610d219161350e565b602060405180830381855afa158015610d3c573d5f5f3e3d5ffd5b5050506040513d601f19601f82011682018060405250810190610d5f9190613409565b901c610d68565b5f5b90505f610da985858080601f0160208091040260200160405190810160405280939291908181526020018383808284375f9201919091525061245192505050565b610e2357600860028686604051602001610dc49291906134ff565b60408051601f1981840301815290829052610dde9161350e565b602060405180830381855afa158015610df9573d5f5f3e3d5ffd5b5050506040513d601f19601f82011682018060405250810190610e1c9190613409565b901c610e25565b5f5b90508189896003818110610e3b57610e3b613524565b90506020020135148015610e6757508089896004818110610e5e57610e5e613524565b90506020020135145b9998505050505050505050565b5f6109d4848560038686612022565b5f546001600160a01b03163314610eac5760405162461bcd60e51b8152600401610832906133d2565b5f5b81811015610f3e5760015f848484818110610ecb57610ecb613524565b602090810292909201358352508101919091526040015f2080546001600160a01b0319169055828282818110610f0357610f03613524565b905060200201357f6fdcbcf8f91bc23f2c9dcfe8fe01d80d1b1afbbf207298e94c0171ccc587424c60405160405180910390a2600101610eae565b505050565b5f6109d48460038585611e03565b60408051606080820183525f80835260208301529181019190915260405163dfda037960e01b81525f9073__$144f4fe859debe4776cdef2b99f7b97a42$__9063dfda037990610fa5908690600401613360565b5f60405180830381865af4158015610fbf573d5f5f3e3d5ffd5b505050506040513d5f823e601f3d908101601f19168201604052610fe69190810190613587565b604051630578c5d360e11b815290915073__$144f4fe859debe4776cdef2b99f7b97a42$__90630af18ba6906110209084906004016135b8565b5f60405180830381865af415801561103a573d5f5f3e3d5ffd5b505050506040513d5f823e601f3d908101601f1916820160405261106191908101906135ca565b604085015260208401526001600160a01b0316825250919050565b5f6109d461108d6201518086613615565b60028585611e03565b5f546001600160a01b031633146110bf5760405162461bcd60e51b8152600401610832906133d2565b5f5b838110156111b9578282828181106110db576110db613524565b90506020020160208101906110f09190612b42565b60015f87878581811061110557611105613524565b9050602002013581526020019081526020015f205f6101000a8154816001600160a01b0302191690836001600160a01b0316021790555082828281811061114e5761114e613524565b90506020020160208101906111639190612b42565b6001600160a01b031685858381811061117e5761117e613524565b905060200201357f636107338a3eb46f1f60562462f3ec11393d35fbc965991aaade3b9e7d89c3f560405160405180910390a36001016110c1565b5050505050565b5f6109d46111d18562015180613628565b60038585612456565b5f6109d46111eb8562015180613628565b60028585612456565b5f6109d48460028585612456565b5f6109d461121185600161363b565b84846109dc565b5f6109d48460038585612456565b5f5f5f5f73__$144f4fe859debe4776cdef2b99f7b97a42$__6384052813876040518263ffffffff1660e01b81526004016112619190613360565b606060405180830381865af415801561127c573d5f5f3e3d5ffd5b505050506040513d601f19601f820116820180604052508101906112a09190613420565b919450925090506112b2838635611ff5565b6112ce5760405162461bcd60e51b815260040161083290613461565b8660ff168860ff16111561133a5760405162461bcd60e51b815260206004820152602d60248201527f4d696e20616765206d757374206265206c657373207468616e206f722065717560448201526c616c20746f206d61782061676560981b6064820152608401610832565b8160ff165f036113c75760405162461bcd60e51b815260206004820152604c60248201527f5468652070726f6f66206c6f77657220626f756e64206d757374206265206e6f60448201527f6e2d7a65726f2c20706c656173652075736520697341676542656c6f774f724560648201526b1c5d585b081a5b9cdd19585960a21b608482015260a401610832565b8060ff165f036114545760405162461bcd60e51b815260206004820152604c60248201527f5468652070726f6f6620757070657220626f756e64206d757374206265206e6f60448201527f6e2d7a65726f2c20706c656173652075736520697341676541626f76654f724560648201526b1c5d585b081a5b9cdd19585960a21b608482015260a401610832565b8160ff168860ff1614801561146e57508060ff168760ff16145b98975050505050505050565b5f610b5383600584612343565b5f5f5f5f73__$144f4fe859debe4776cdef2b99f7b97a42$__6384052813876040518263ffffffff1660e01b81526004016114c29190613360565b606060405180830381865af41580156114dd573d5f5f3e3d5ffd5b505050506040513d601f19601f820116820180604052508101906115019190613420565b91945092509050611513838635611ff5565b61152f5760405162461bcd60e51b815260040161083290613461565b60ff8216156115a8576040805162461bcd60e51b81526020600482015260248101919091527f5468652070726f6f66206c6f77657220626f756e64206d75737420626520302c60448201527f20706c65617365207573652069734167654265747765656e20696e73746561646064820152608401610832565b60ff878116911614925050509392505050565b5f6109d46115cc6201518086613615565b60038585611e03565b5f80548190600160a01b900460ff16156116265760405162461bcd60e51b815260206004820152601260248201527110dbdb9d1c9858dd081a5cc81c185d5cd95960721b6044820152606401610832565b5f61163a6116348580613654565b35612687565b90506116736116498580613654565b611657906040810190613672565b5f81811061166757611667613524565b905060200201356126e0565b6116ab6116808580613654565b61168e906040810190613672565b600181811061169f5761169f613524565b905060200201356127a8565b61170a6116b88580613654565b6116c6906040810190613672565b808060200260200160405190810160405280939291908181526020018383602002808284375f920191909152506117049250505060408701876136b7565b35612866565b6117725760405162461bcd60e51b815260206004820152603360248201527f5468652070726f6f66207761732067656e657261746564206f757473696465206044820152721d1a19481d985b1a591a5d1e481c195c9a5bd9606a1b6064820152608401610832565b6117c361177f8580613654565b61178d906040810190613672565b61179a60408801886136b7565b6117a89060208101906136cb565b6117b560408a018a6136b7565b6103eb9060408101906136cb565b61180f5760405162461bcd60e51b815260206004820152601760248201527f496e76616c696420646f6d61696e206f722073636f70650000000000000000006044820152606401610832565b6118a261181c8580613654565b61182a906040810190613672565b60059060016118398980613654565b611847906040810190613672565b611852929150613615565b9261185f9392919061370d565b808060200260200160405190810160405280939291908181526020018383602002808284375f9201919091525061189d925050506020870187613738565b612891565b5f6118ad8580613654565b6118bb906040810190613672565b60026118c78880613654565b6118d5906040810190613672565b6118e0929150613615565b8181106118ef576118ef613524565b905060200201355f1c6003811115611909576119096133be565b9050600281600381111561191f5761191f6133be565b1415801561193f5750600381600381111561193c5761193c6133be565b14155b80611963575061195260408601866136b7565b611963906080810190606001612ae2565b6119c05760405162461bcd60e51b815260206004820152602860248201527f4d6f636b2070726f6f667320617265206f6e6c7920616c6c6f77656420696e20604482015267646576206d6f646560c01b6064820152608401610832565b5f8160038111156119d3576119d36133be565b14806119f857506119e760408601866136b7565b6119f8906080810190606001612ae2565b611a585760405162461bcd60e51b815260206004820152602b60248201527f53616c746564206e756c6c69666965727320617265206e6f7420737570706f7260448201526a74656420666f72206e6f7760a81b6064820152608401610832565b6007611a648680613654565b611a72906040810190613672565b611a7d929150613615565b611a8a6020870187613738565b611a98906020810190613672565b905014611af55760405162461bcd60e51b815260206004820152602560248201527f496e76616c696420636f6d6d697474656420696e70757420636f756e7473206c6044820152640cadccee8d60db1b6064820152608401610832565b6001600160a01b03821663ea50d0e4611b0e8780613654565b611b1c9060208101906136cb565b611b268980613654565b611b34906040810190613672565b6040518563ffffffff1660e01b8152600401611b53949392919061374c565b602060405180830381865afa158015611b6e573d5f5f3e3d5ffd5b505050506040513d601f19601f82011682018060405250810190611b92919061377d565b93505f6001611ba18780613654565b611baf906040810190613672565b611bba929150613615565b9050611bc68680613654565b611bd4906040810190613672565b82818110611be457611be4613524565b905060200201359350505050915091565b611c3d60405180610100016040528060608152602001606081526020016060815260200160608152602001606081526020016060815260200160608152602001606081525090565b604051635450abb360e11b81525f9073__$144f4fe859debe4776cdef2b99f7b97a42$__9063a8a1576690611c76908790600401613360565b5f60405180830381865af4158015611c90573d5f5f3e3d5ffd5b505050506040513d5f823e601f3d908101601f19168201604052611cb79190810190613798565b6040516301e9bf5760e11b815290925073__$144f4fe859debe4776cdef2b99f7b97a42$__91506303d37eae90611cf490849087906004016137f1565b5f60405180830381865af4158015611d0e573d5f5f3e3d5ffd5b505050506040513d5f823e601f3d908101601f191682016040526109d49190810190613814565b5f6109d484858585611226565b6002546040516383578c1160e01b815260036004820152602481018390526001600160a01b03909116906383578c1190604401602060405180830381865afa158015611d90573d5f5f3e3d5ffd5b505050506040513d601f19601f82011682018060405250810190611db4919061377d565b611e005760405162461bcd60e51b815260206004820152601f60248201527f496e76616c69642073616e6374696f6e7320726567697374727920726f6f74006044820152606401610832565b50565b5f5f5f5f73__$144f4fe859debe4776cdef2b99f7b97a42$__6374d9a37e87896040518363ffffffff1660e01b8152600401611e409291906139a5565b606060405180830381865af4158015611e5b573d5f5f3e3d5ffd5b505050506040513d601f19601f82011682018060405250810190611e7f91906139e2565b91945092509050611e91838635611ff5565b611ead5760405162461bcd60e51b815260040161083290613461565b8115611f2b5760405162461bcd60e51b815260206004820152604160248201527f5468652070726f6f66206c6f77657220626f756e64206d75737420626520302c60448201527f20706c6561736520757365206973446174654265747765656e20696e737465616064820152601960fa1b608482015260a401610832565b600287600a811115611f3f57611f3f6133be565b1480611f5c5750600387600a811115611f5a57611f5a6133be565b145b611f785760405162461bcd60e51b815260040161083290613a0d565b600287600a811115611f8c57611f8c6133be565b03611fca57805f03611fb05760405162461bcd60e51b815260040161083290613a39565b611fbe6383aa7e8082613615565b881493505050506109d4565b805f03611fe95760405162461bcd60e51b815260040161083290613ab1565b871492506109d4915050565b5f806120018385613628565b905083421015801561201257508381115b80156109d4575042109392505050565b5f5f5f5f73__$144f4fe859debe4776cdef2b99f7b97a42$__6374d9a37e87896040518363ffffffff1660e01b815260040161205f9291906139a5565b606060405180830381865af415801561207a573d5f5f3e3d5ffd5b505050506040513d601f19601f8201168201806040525081019061209e91906139e2565b919450925090506120b0838635611ff5565b6120cc5760405162461bcd60e51b815260040161083290613461565b878911156121345760405162461bcd60e51b815260206004820152602f60248201527f4d696e2064617465206d757374206265206c657373207468616e206f7220657160448201526e75616c20746f206d6178206461746560881b6064820152608401610832565b600287600a811115612148576121486133be565b14806121655750600387600a811115612163576121636133be565b145b6121815760405162461bcd60e51b815260040161083290613a0d565b600287600a811115612195576121956133be565b0361227b57815f0361222a5760405162461bcd60e51b815260206004820152605260248201527f5468652070726f6f66206c6f77657220626f756e64206d757374206265206e6f60448201527f6e2d7a65726f2c20706c656173652075736520697342697274686461746542656064820152711b1bddd3dc915c5d585b081a5b9cdd19585960721b608482015260a401610832565b805f036122495760405162461bcd60e51b815260040161083290613a39565b6122576383aa7e8083613615565b89148015612271575061226e6383aa7e8082613615565b88145b9350505050610b1f565b815f0361230c5760405162461bcd60e51b815260206004820152605360248201527f5468652070726f6f66206c6f77657220626f756e64206d757374206265206e6f60448201527f6e2d7a65726f2c20706c65617365207573652069734578706972794461746542606482015272195b1bddd3dc915c5d585b081a5b9cdd195859606a1b608482015260a401610832565b805f0361232b5760405162461bcd60e51b815260040161083290613ab1565b81891480156122715750909614979650505050505050565b5f5f5f73__$144f4fe859debe4776cdef2b99f7b97a42$__63dc8c5e9a85876040518363ffffffff1660e01b815260040161237f9291906139a5565b5f60405180830381865af4158015612399573d5f5f3e3d5ffd5b505050506040513d5f823e601f3d908101601f191682016040526123c09190810190613b2a565b91509150808651146123d6575f92505050610802565b5f5b818110156124445761242d8782815181106123f5576123f5613524565b602002602001015184838151811061240f5761240f613524565b60200260200101518051602091820120825192909101919091201490565b61243c575f9350505050610802565b6001016123d8565b5060019695505050505050565b511590565b5f5f5f5f73__$144f4fe859debe4776cdef2b99f7b97a42$__6374d9a37e87896040518363ffffffff1660e01b81526004016124939291906139a5565b606060405180830381865af41580156124ae573d5f5f3e3d5ffd5b505050506040513d601f19601f820116820180604052508101906124d291906139e2565b919450925090506124e4838635611ff5565b6125005760405162461bcd60e51b815260040161083290613461565b600287600a811115612514576125146133be565b14806125315750600387600a81111561252f5761252f6133be565b145b61254d5760405162461bcd60e51b815260040161083290613a0d565b600287600a811115612561576125616133be565b036125f75780156125e95760405162461bcd60e51b815260206004820152604660248201527f5468652070726f6f6620757070657220626f756e64206d75737420626520302c60448201527f20706c65617365207573652069734269727468646174654265747765656e20696064820152651b9cdd19585960d21b608482015260a401610832565b611fbe6383aa7e8083613615565b801561267b5760405162461bcd60e51b815260206004820152604760248201527f5468652070726f6f6620757070657220626f756e64206d75737420626520302c60448201527f20706c6561736520757365206973457870697279446174654265747765656e206064820152661a5b9cdd19585960ca1b608482015260a401610832565b50861491506109d49050565b5f818152600160205260408120546001600160a01b031680610b565760405162461bcd60e51b815260206004820152601260248201527115995c9a599a595c881b9bdd08199bdd5b9960721b6044820152606401610832565b6002546040516383578c1160e01b815260016004820152602481018390526001600160a01b03909116906383578c1190604401602060405180830381865afa15801561272e573d5f5f3e3d5ffd5b505050506040513d601f19601f82011682018060405250810190612752919061377d565b611e005760405162461bcd60e51b815260206004820152602160248201527f496e76616c696420636572746966696361746520726567697374727920726f6f6044820152601d60fa1b6064820152608401610832565b600280546040516383578c1160e01b81526004810192909252602482018390526001600160a01b0316906383578c1190604401602060405180830381865afa1580156127f6573d5f5f3e3d5ffd5b505050506040513d601f19601f8201168201806040525081019061281a919061377d565b611e005760405162461bcd60e51b815260206004820152601d60248201527f496e76616c6964206369726375697420726567697374727920726f6f740000006044820152606401610832565b5f5f8360028151811061287b5761287b613524565b60200260200101515f1c90506109d48184611ff5565b5f805b6128a16020840184613672565b90508110156129fb575f600860026128b986806136cb565b86906128c860208a018a613672565b888181106128d8576128d8613524565b90506020020135886128ea9190613628565b926128f793929190613be3565b6040516020016129089291906134ff565b60408051601f19818403018152908290526129229161350e565b602060405180830381855afa15801561293d573d5f5f3e3d5ffd5b5050506040513d601f19601f820116820180604052508101906129609190613409565b901c905084828151811061297657612976613524565b602002602001015181146129c15760405162461bcd60e51b8152602060048201526012602482015271125b9d985b1a590818dbdb5b5a5d1b595b9d60721b6044820152606401610832565b6129ce6020850185613672565b838181106129de576129de613524565b90506020020135836129f09190613628565b925050600101612894565b50612a0682806136cb565b90508114610f3e5760405162461bcd60e51b815260206004820152601f60248201527f496e76616c696420636f6d6d697474656420696e70757473206c656e677468006044820152606401610832565b60038110611e00575f5ffd5b5f60408284031215612a72575f5ffd5b50919050565b5f5f5f60608486031215612a8a575f5ffd5b8335612a9581612a56565b92506020840135612aa581612a56565b915060408401356001600160401b03811115612abf575f5ffd5b612acb86828701612a62565b9150509250925092565b8015158114611e00575f5ffd5b5f60208284031215612af2575f5ffd5b813561080281612ad5565b5f60208284031215612b0d575f5ffd5b81356001600160401b03811115612b22575f5ffd5b6109d484828501612a62565b6001600160a01b0381168114611e00575f5ffd5b5f60208284031215612b52575f5ffd5b813561080281612b2e565b5f60808284031215612a72575f5ffd5b5f5f5f60608486031215612b7f575f5ffd5b8335925060208401356001600160401b03811115612b9b575f5ffd5b612ba786828701612a62565b92505060408401356001600160401b03811115612bc2575f5ffd5b612acb86828701612b5d565b60ff81168114611e00575f5ffd5b5f5f5f60608486031215612bee575f5ffd5b8335612bf981612bce565b925060208401356001600160401b03811115612b9b575f5ffd5b5f5f5f5f60808587031215612c26575f5ffd5b843593506020850135925060408501356001600160401b03811115612c49575f5ffd5b612c5587828801612a62565b92505060608501356001600160401b03811115612c70575f5ffd5b612c7c87828801612b5d565b91505092959194509250565b634e487b7160e01b5f52604160045260245ffd5b60405161010081016001600160401b0381118282101715612cbf57612cbf612c88565b60405290565b604051601f8201601f191681016001600160401b0381118282101715612ced57612ced612c88565b604052919050565b5f6001600160401b03821115612d0d57612d0d612c88565b5060051b60200190565b5f6001600160401b03821115612d2f57612d2f612c88565b50601f01601f191660200190565b5f5f60408385031215612d4e575f5ffd5b82356001600160401b03811115612d63575f5ffd5b8301601f81018513612d73575f5ffd5b8035612d86612d8182612cf5565b612cc5565b8082825260208201915060208360051b850101925087831115612da7575f5ffd5b602084015b83811015612e275780356001600160401b03811115612dc9575f5ffd5b8501603f81018a13612dd9575f5ffd5b6020810135612dea612d8182612d17565b8181526040838301018c1015612dfe575f5ffd5b816040840160208301375f60208383010152808652505050602083019250602081019050612dac565b50945050505060208301356001600160401b03811115612e45575f5ffd5b612e5185828601612a62565b9150509250929050565b5f60208284031215612e6b575f5ffd5b5035919050565b5f5f83601f840112612e82575f5ffd5b5081356001600160401b03811115612e98575f5ffd5b6020830191508360208260051b8501011115612eb2575f5ffd5b9250929050565b5f5f83601f840112612ec9575f5ffd5b5081356001600160401b03811115612edf575f5ffd5b602083019150836020828501011115612eb2575f5ffd5b5f5f5f5f5f5f60608789031215612f0b575f5ffd5b86356001600160401b03811115612f20575f5ffd5b612f2c89828a01612e72565b90975095505060208701356001600160401b03811115612f4a575f5ffd5b612f5689828a01612eb9565b90955093505060408701356001600160401b03811115612f74575f5ffd5b612f8089828a01612eb9565b979a9699509497509295939492505050565b5f5f60208385031215612fa3575f5ffd5b82356001600160401b03811115612fb8575f5ffd5b612fc485828601612e72565b90969095509350505050565b5f81518084528060208401602086015e5f602082860101526020601f19601f83011685010191505092915050565b6020815260018060a01b038251166020820152602082015160408201525f60408301516060808401526109d46080840182612fd0565b5f5f5f5f60408587031215613047575f5ffd5b84356001600160401b0381111561305c575f5ffd5b61306887828801612e72565b90955093505060208501356001600160401b03811115613086575f5ffd5b61309287828801612e72565b95989497509550505050565b5f5f5f5f608085870312156130b1575f5ffd5b84356130bc81612bce565b935060208501356130cc81612bce565b925060408501356001600160401b03811115612c49575f5ffd5b5f602082840312156130f6575f5ffd5b81356001600160401b0381111561310b575f5ffd5b820160608185031215610802575f5ffd5b5f5f6040838503121561312d575f5ffd5b82356001600160401b03811115613142575f5ffd5b61314e85828601612a62565b925050602083013561315f81612ad5565b809150509250929050565b602081525f82516101006020840152613187610120840182612fd0565b90506020840151601f198483030160408501526131a48282612fd0565b9150506040840151601f198483030160608501526131c28282612fd0565b9150506060840151601f198483030160808501526131e08282612fd0565b9150506080840151601f198483030160a08501526131fe8282612fd0565b91505060a0840151601f198483030160c085015261321c8282612fd0565b91505060c0840151601f198483030160e085015261323a8282612fd0565b91505060e0840151601f1984830301610100850152610b1f8282612fd0565b81835281816020850137505f828201602090810191909152601f909101601f19169091010190565b8183525f6001600160fb1b03831115613298575f5ffd5b8260051b80836020870137939093016020019392505050565b5f8135601e19833603018082126132c6575f5ffd5b602091840191820191356001600160401b038111156132e3575f5ffd5b8036038313156132f1575f5ffd5b60408652613303604087018285613259565b9250506020840135818112613316575f5ffd5b8401602081019150356001600160401b03811115613332575f5ffd5b8060051b3603821315613343575f5ffd5b8583036020870152613356838284613281565b9695505050505050565b602081525f610b5360208301846132b1565b5f5f5f5f60808587031215613385575f5ffd5b845160208601519094506002811061339b575f5ffd5b6040860151606087015191945092506133b381612a56565b939692955090935050565b634e487b7160e01b5f52602160045260245ffd5b6020808252601a908201527f4e6f7420617574686f72697a65643a2061646d696e206f6e6c79000000000000604082015260600190565b5f60208284031215613419575f5ffd5b5051919050565b5f5f5f60608486031215613432575f5ffd5b8351602085015190935061344581612bce565b604085015190925061345681612bce565b809150509250925092565b6020808252604b908201527f5468652063757272656e742064617465207573656420696e207468652070726f60408201527f6f6620646f6573206e6f742066616c6c2077697468696e207468652076616c6960608201526a191a5d1e481c195c9a5bd960aa1b608082015260a00190565b634e487b7160e01b5f52601160045260245ffd5b60ff8281168282160390811115610b5657610b566134d2565b818382375f9101908152919050565b5f82518060208501845e5f920191825250919050565b634e487b7160e01b5f52603260045260245ffd5b5f82601f830112613547575f5ffd5b8151602083015f61355a612d8184612d17565b905082815285838301111561356d575f5ffd5b8282602083015e5f92810160200192909252509392505050565b5f60208284031215613597575f5ffd5b81516001600160401b038111156135ac575f5ffd5b6109d484828501613538565b602081525f610b536020830184612fd0565b5f5f5f606084860312156135dc575f5ffd5b83516135e781612b2e565b6020850151604086015191945092506001600160401b03811115613609575f5ffd5b612acb86828701613538565b81810381811115610b5657610b566134d2565b80820180821115610b5657610b566134d2565b60ff8181168382160190811115610b5657610b566134d2565b5f8235605e19833603018112613668575f5ffd5b9190910192915050565b5f5f8335601e19843603018112613687575f5ffd5b8301803591506001600160401b038211156136a0575f5ffd5b6020019150600581901b3603821315612eb2575f5ffd5b5f8235607e19833603018112613668575f5ffd5b5f5f8335601e198436030181126136e0575f5ffd5b8301803591506001600160401b038211156136f9575f5ffd5b602001915036819003821315612eb2575f5ffd5b5f5f8585111561371b575f5ffd5b83861115613727575f5ffd5b5050600583901b0193919092039150565b5f8235603e19833603018112613668575f5ffd5b604081525f61375f604083018688613259565b8281036020840152613772818587613281565b979650505050505050565b5f6020828403121561378d575f5ffd5b815161080281612ad5565b5f5f604083850312156137a9575f5ffd5b82516001600160401b038111156137be575f5ffd5b6137ca85828601613538565b92505060208301516001600160401b038111156137e5575f5ffd5b612e5185828601613538565b604081525f6138036040830185612fd0565b905082151560208301529392505050565b5f60208284031215613824575f5ffd5b81516001600160401b03811115613839575f5ffd5b8201610100818503121561384b575f5ffd5b613853612c9c565b81516001600160401b03811115613868575f5ffd5b61387486828501613538565b82525060208201516001600160401b0381111561388f575f5ffd5b61389b86828501613538565b60208301525060408201516001600160401b038111156138b9575f5ffd5b6138c586828501613538565b60408301525060608201516001600160401b038111156138e3575f5ffd5b6138ef86828501613538565b60608301525060808201516001600160401b0381111561390d575f5ffd5b61391986828501613538565b60808301525060a08201516001600160401b03811115613937575f5ffd5b61394386828501613538565b60a08301525060c08201516001600160401b03811115613961575f5ffd5b61396d86828501613538565b60c08301525060e08201516001600160401b0381111561398b575f5ffd5b61399786828501613538565b60e083015250949350505050565b604081525f6139b760408301856132b1565b9050600b83106139d557634e487b7160e01b5f52602160045260245ffd5b8260208301529392505050565b5f5f5f606084860312156139f4575f5ffd5b5050815160208301516040909301519094929350919050565b602080825260129082015271496e76616c69642070726f6f66207479706560701b604082015260600190565b60208082526052908201527f5468652070726f6f6620757070657220626f756e64206d757374206265206e6f60408201527f6e2d7a65726f2c20706c656173652075736520697342697274686461746541626060820152711bdd9953dc915c5d585b081a5b9cdd19585960721b608082015260a00190565b60208082526053908201527f5468652070726f6f6620757070657220626f756e64206d757374206265206e6f60408201527f6e2d7a65726f2c20706c65617365207573652069734578706972794461746541606082015272189bdd9953dc915c5d585b081a5b9cdd195859606a1b608082015260a00190565b5f5f60408385031215613b3b575f5ffd5b82516001600160401b03811115613b50575f5ffd5b8301601f81018513613b60575f5ffd5b8051613b6e612d8182612cf5565b8082825260208201915060208360051b850101925087831115613b8f575f5ffd5b602084015b83811015613bcf5780516001600160401b03811115613bb1575f5ffd5b613bc08a602083890101613538565b84525060209283019201613b94565b506020969096015195979596505050505050565b5f5f85851115613bf1575f5ffd5b83861115613bfd575f5ffd5b505082019391909203915056fea2646970667358221220f991155c5f0495dd21a11592eb81a72baddd6126ad66ff51d0de5dd26a8c865164736f6c634300081d0033",
    "linkReferences": {
      "src/InputsExtractor.sol": {
        "InputsExtractor": [
          {
            "start": 1747,
            "length": 20
          },
          {
            "start": 2515,
            "length": 20
          },
          {
            "start": 2834,
            "length": 20
          },
          {
            "start": 4269,
            "length": 20
          },
          {
            "start": 4392,
            "length": 20
          },
          {
            "start": 4956,
            "length": 20
          },
          {
            "start": 5565,
            "length": 20
          },
          {
            "start": 7550,
            "length": 20
          },
          {
            "start": 7673,
            "length": 20
          },
          {
            "start": 7993,
            "length": 20
          },
          {
            "start": 8536,
            "length": 20
          },
          {
            "start": 9336,
            "length": 20
          },
          {
            "start": 9612,
            "length": 20
          }
        ]
      }
    }
  },
  "methodIdentifiers": {
    "CERTIFICATE_REGISTRY_ID()": "41a0e2c2",
    "CIRCUIT_REGISTRY_ID()": "6c40d5d6",
    "SANCTIONS_REGISTRY_ID()": "652ba33d",
    "addVerifiers(bytes32[],address[])": "a6df2c01",
    "admin()": "f851a440",
    "enforceSanctionsRoot((bytes,uint256[]))": "16e3d729",
    "getBoundData((bytes,uint256[]))": "98e73ac3",
    "getDisclosedData((bytes,uint256[]),bool)": "f3757ad4",
    "isAgeAbove(uint8,(bytes,uint256[]),(uint256,string,string,bool))": "c3fa6f22",
    "isAgeAboveOrEqual(uint8,(bytes,uint256[]),(uint256,string,string,bool))": "2e5ce77f",
    "isAgeBelow(uint8,(bytes,uint256[]),(uint256,string,string,bool))": "818694f1",
    "isAgeBelowOrEqual(uint8,(bytes,uint256[]),(uint256,string,string,bool))": "d4932b4e",
    "isAgeBetween(uint8,uint8,(bytes,uint256[]),(uint256,string,string,bool))": "cf515d37",
    "isAgeEqual(uint8,(bytes,uint256[]),(uint256,string,string,bool))": "ff203707",
    "isBirthdateAfter(uint256,(bytes,uint256[]),(uint256,string,string,bool))": "b8bd4879",
    "isBirthdateAfterOrEqual(uint256,(bytes,uint256[]),(uint256,string,string,bool))": "c1b77162",
    "isBirthdateBefore(uint256,(bytes,uint256[]),(uint256,string,string,bool))": "9c1a81a3",
    "isBirthdateBeforeOrEqual(uint256,(bytes,uint256[]),(uint256,string,string,bool))": "1fac4345",
    "isBirthdateBetween(uint256,uint256,(bytes,uint256[]),(uint256,string,string,bool))": "311a335c",
    "isBirthdateEqual(uint256,(bytes,uint256[]),(uint256,string,string,bool))": "320d3b55",
    "isExpiryDateAfter(uint256,(bytes,uint256[]),(uint256,string,string,bool))": "ac20d678",
    "isExpiryDateAfterOrEqual(uint256,(bytes,uint256[]),(uint256,string,string,bool))": "ca4051f2",
    "isExpiryDateBefore(uint256,(bytes,uint256[]),(uint256,string,string,bool))": "ddd8f8e3",
    "isExpiryDateBeforeOrEqual(uint256,(bytes,uint256[]),(uint256,string,string,bool))": "8e2e2e62",
    "isExpiryDateBetween(uint256,uint256,(bytes,uint256[]),(uint256,string,string,bool))": "3d6ed975",
    "isExpiryDateEqual(uint256,(bytes,uint256[]),(uint256,string,string,bool))": "8b2ec611",
    "isFaceMatchVerified(uint8,uint8,(bytes,uint256[]))": "106a2f6d",
    "isIssuingCountryIn(string[],(bytes,uint256[]))": "7e5a88f3",
    "isIssuingCountryOut(string[],(bytes,uint256[]))": "5b7ab929",
    "isNationalityIn(string[],(bytes,uint256[]))": "46b758a0",
    "isNationalityOut(string[],(bytes,uint256[]))": "d39a5cf9",
    "paused()": "5c975abb",
    "removeVerifiers(bytes32[])": "8d6937b8",
    "rootRegistry()": "b96b161c",
    "setPaused(bool)": "16c38b3c",
    "transferAdmin(address)": "75829def",
    "updateRootRegistry(address)": "18677f2a",
    "verifyProof(((bytes32,bytes,bytes32[]),(bytes,uint256[]),(uint256,string,string,bool)))": "ec8e0729",
    "verifyScopes(bytes32[],string,string)": "847755e3",
    "vkeyHashToVerifier(bytes32)": "8163f231"
  },
  "id": 26
}