{
  "abi": [
    {
      "type": "constructor",
      "inputs": [
        {
          "name": "_rootRegistry",
          "type": "address",
          "internalType": "address"
        }
      ],
      "stateMutability": "nonpayable"
    },
    {
      "type": "function",
      "name": "CERTIFICATE_REGISTRY_ID",
      "inputs": [],
      "outputs": [
        {
          "name": "",
          "type": "bytes32",
          "internalType": "bytes32"
        }
      ],
      "stateMutability": "view"
    },
    {
      "type": "function",
      "name": "CIRCUIT_REGISTRY_ID",
      "inputs": [],
      "outputs": [
        {
          "name": "",
          "type": "bytes32",
          "internalType": "bytes32"
        }
      ],
      "stateMutability": "view"
    },
    {
      "type": "function",
      "name": "SANCTIONS_REGISTRY_ID",
      "inputs": [],
      "outputs": [
        {
          "name": "",
          "type": "bytes32",
          "internalType": "bytes32"
        }
      ],
      "stateMutability": "view"
    },
    {
      "type": "function",
      "name": "addVerifiers",
      "inputs": [
        {
          "name": "vkeyHashes",
          "type": "bytes32[]",
          "internalType": "bytes32[]"
        },
        {
          "name": "verifiers",
          "type": "address[]",
          "internalType": "address[]"
        }
      ],
      "outputs": [],
      "stateMutability": "nonpayable"
    },
    {
      "type": "function",
      "name": "admin",
      "inputs": [],
      "outputs": [
        {
          "name": "",
          "type": "address",
          "internalType": "address"
        }
      ],
      "stateMutability": "view"
    },
    {
      "type": "function",
      "name": "enforceSanctionsRoot",
      "inputs": [
        {
          "name": "isStrict",
          "type": "bool",
          "internalType": "bool"
        },
        {
          "name": "commitments",
          "type": "tuple",
          "internalType": "struct Commitments",
          "components": [
            {
              "name": "committedInputs",
              "type": "bytes",
              "internalType": "bytes"
            }
          ]
        }
      ],
      "outputs": [],
      "stateMutability": "view"
    },
    {
      "type": "function",
      "name": "getBoundData",
      "inputs": [
        {
          "name": "commitments",
          "type": "tuple",
          "internalType": "struct Commitments",
          "components": [
            {
              "name": "committedInputs",
              "type": "bytes",
              "internalType": "bytes"
            }
          ]
        }
      ],
      "outputs": [
        {
          "name": "boundData",
          "type": "tuple",
          "internalType": "struct BoundData",
          "components": [
            {
              "name": "senderAddress",
              "type": "address",
              "internalType": "address"
            },
            {
              "name": "chainId",
              "type": "uint256",
              "internalType": "uint256"
            },
            {
              "name": "customData",
              "type": "string",
              "internalType": "string"
            }
          ]
        }
      ],
      "stateMutability": "pure"
    },
    {
      "type": "function",
      "name": "getDisclosedData",
      "inputs": [
        {
          "name": "commitments",
          "type": "tuple",
          "internalType": "struct Commitments",
          "components": [
            {
              "name": "committedInputs",
              "type": "bytes",
              "internalType": "bytes"
            }
          ]
        },
        {
          "name": "isIDCard",
          "type": "bool",
          "internalType": "bool"
        }
      ],
      "outputs": [
        {
          "name": "disclosedData",
          "type": "tuple",
          "internalType": "struct DisclosedData",
          "components": [
            {
              "name": "name",
              "type": "string",
              "internalType": "string"
            },
            {
              "name": "issuingCountry",
              "type": "string",
              "internalType": "string"
            },
            {
              "name": "nationality",
              "type": "string",
              "internalType": "string"
            },
            {
              "name": "gender",
              "type": "string",
              "internalType": "string"
            },
            {
              "name": "birthDate",
              "type": "string",
              "internalType": "string"
            },
            {
              "name": "expiryDate",
              "type": "string",
              "internalType": "string"
            },
            {
              "name": "documentNumber",
              "type": "string",
              "internalType": "string"
            },
            {
              "name": "documentType",
              "type": "string",
              "internalType": "string"
            }
          ]
        }
      ],
      "stateMutability": "pure"
    },
    {
      "type": "function",
      "name": "isAgeAbove",
      "inputs": [
        {
          "name": "minAge",
          "type": "uint8",
          "internalType": "uint8"
        },
        {
          "name": "commitments",
          "type": "tuple",
          "internalType": "struct Commitments",
          "components": [
            {
              "name": "committedInputs",
              "type": "bytes",
              "internalType": "bytes"
            }
          ]
        }
      ],
      "outputs": [
        {
          "name": "",
          "type": "bool",
          "internalType": "bool"
        }
      ],
      "stateMutability": "view"
    },
    {
      "type": "function",
      "name": "isAgeAboveOrEqual",
      "inputs": [
        {
          "name": "minAge",
          "type": "uint8",
          "internalType": "uint8"
        },
        {
          "name": "commitments",
          "type": "tuple",
          "internalType": "struct Commitments",
          "components": [
            {
              "name": "committedInputs",
              "type": "bytes",
              "internalType": "bytes"
            }
          ]
        }
      ],
      "outputs": [
        {
          "name": "",
          "type": "bool",
          "internalType": "bool"
        }
      ],
      "stateMutability": "view"
    },
    {
      "type": "function",
      "name": "isAgeBelow",
      "inputs": [
        {
          "name": "maxAge",
          "type": "uint8",
          "internalType": "uint8"
        },
        {
          "name": "commitments",
          "type": "tuple",
          "internalType": "struct Commitments",
          "components": [
            {
              "name": "committedInputs",
              "type": "bytes",
              "internalType": "bytes"
            }
          ]
        }
      ],
      "outputs": [
        {
          "name": "",
          "type": "bool",
          "internalType": "bool"
        }
      ],
      "stateMutability": "view"
    },
    {
      "type": "function",
      "name": "isAgeBelowOrEqual",
      "inputs": [
        {
          "name": "maxAge",
          "type": "uint8",
          "internalType": "uint8"
        },
        {
          "name": "commitments",
          "type": "tuple",
          "internalType": "struct Commitments",
          "components": [
            {
              "name": "committedInputs",
              "type": "bytes",
              "internalType": "bytes"
            }
          ]
        }
      ],
      "outputs": [
        {
          "name": "",
          "type": "bool",
          "internalType": "bool"
        }
      ],
      "stateMutability": "view"
    },
    {
      "type": "function",
      "name": "isAgeBetween",
      "inputs": [
        {
          "name": "minAge",
          "type": "uint8",
          "internalType": "uint8"
        },
        {
          "name": "maxAge",
          "type": "uint8",
          "internalType": "uint8"
        },
        {
          "name": "commitments",
          "type": "tuple",
          "internalType": "struct Commitments",
          "components": [
            {
              "name": "committedInputs",
              "type": "bytes",
              "internalType": "bytes"
            }
          ]
        }
      ],
      "outputs": [
        {
          "name": "",
          "type": "bool",
          "internalType": "bool"
        }
      ],
      "stateMutability": "view"
    },
    {
      "type": "function",
      "name": "isAgeEqual",
      "inputs": [
        {
          "name": "age",
          "type": "uint8",
          "internalType": "uint8"
        },
        {
          "name": "commitments",
          "type": "tuple",
          "internalType": "struct Commitments",
          "components": [
            {
              "name": "committedInputs",
              "type": "bytes",
              "internalType": "bytes"
            }
          ]
        }
      ],
      "outputs": [
        {
          "name": "",
          "type": "bool",
          "internalType": "bool"
        }
      ],
      "stateMutability": "view"
    },
    {
      "type": "function",
      "name": "isBirthdateAfter",
      "inputs": [
        {
          "name": "minDate",
          "type": "uint256",
          "internalType": "uint256"
        },
        {
          "name": "commitments",
          "type": "tuple",
          "internalType": "struct Commitments",
          "components": [
            {
              "name": "committedInputs",
              "type": "bytes",
              "internalType": "bytes"
            }
          ]
        }
      ],
      "outputs": [
        {
          "name": "",
          "type": "bool",
          "internalType": "bool"
        }
      ],
      "stateMutability": "view"
    },
    {
      "type": "function",
      "name": "isBirthdateAfterOrEqual",
      "inputs": [
        {
          "name": "minDate",
          "type": "uint256",
          "internalType": "uint256"
        },
        {
          "name": "commitments",
          "type": "tuple",
          "internalType": "struct Commitments",
          "components": [
            {
              "name": "committedInputs",
              "type": "bytes",
              "internalType": "bytes"
            }
          ]
        }
      ],
      "outputs": [
        {
          "name": "",
          "type": "bool",
          "internalType": "bool"
        }
      ],
      "stateMutability": "view"
    },
    {
      "type": "function",
      "name": "isBirthdateBefore",
      "inputs": [
        {
          "name": "maxDate",
          "type": "uint256",
          "internalType": "uint256"
        },
        {
          "name": "commitments",
          "type": "tuple",
          "internalType": "struct Commitments",
          "components": [
            {
              "name": "committedInputs",
              "type": "bytes",
              "internalType": "bytes"
            }
          ]
        }
      ],
      "outputs": [
        {
          "name": "",
          "type": "bool",
          "internalType": "bool"
        }
      ],
      "stateMutability": "view"
    },
    {
      "type": "function",
      "name": "isBirthdateBeforeOrEqual",
      "inputs": [
        {
          "name": "maxDate",
          "type": "uint256",
          "internalType": "uint256"
        },
        {
          "name": "commitments",
          "type": "tuple",
          "internalType": "struct Commitments",
          "components": [
            {
              "name": "committedInputs",
              "type": "bytes",
              "internalType": "bytes"
            }
          ]
        }
      ],
      "outputs": [
        {
          "name": "",
          "type": "bool",
          "internalType": "bool"
        }
      ],
      "stateMutability": "view"
    },
    {
      "type": "function",
      "name": "isBirthdateBetween",
      "inputs": [
        {
          "name": "minDate",
          "type": "uint256",
          "internalType": "uint256"
        },
        {
          "name": "maxDate",
          "type": "uint256",
          "internalType": "uint256"
        },
        {
          "name": "commitments",
          "type": "tuple",
          "internalType": "struct Commitments",
          "components": [
            {
              "name": "committedInputs",
              "type": "bytes",
              "internalType": "bytes"
            }
          ]
        }
      ],
      "outputs": [
        {
          "name": "",
          "type": "bool",
          "internalType": "bool"
        }
      ],
      "stateMutability": "view"
    },
    {
      "type": "function",
      "name": "isBirthdateEqual",
      "inputs": [
        {
          "name": "date",
          "type": "uint256",
          "internalType": "uint256"
        },
        {
          "name": "commitments",
          "type": "tuple",
          "internalType": "struct Commitments",
          "components": [
            {
              "name": "committedInputs",
              "type": "bytes",
              "internalType": "bytes"
            }
          ]
        }
      ],
      "outputs": [
        {
          "name": "",
          "type": "bool",
          "internalType": "bool"
        }
      ],
      "stateMutability": "view"
    },
    {
      "type": "function",
      "name": "isExpiryDateAfter",
      "inputs": [
        {
          "name": "minDate",
          "type": "uint256",
          "internalType": "uint256"
        },
        {
          "name": "commitments",
          "type": "tuple",
          "internalType": "struct Commitments",
          "components": [
            {
              "name": "committedInputs",
              "type": "bytes",
              "internalType": "bytes"
            }
          ]
        }
      ],
      "outputs": [
        {
          "name": "",
          "type": "bool",
          "internalType": "bool"
        }
      ],
      "stateMutability": "view"
    },
    {
      "type": "function",
      "name": "isExpiryDateAfterOrEqual",
      "inputs": [
        {
          "name": "minDate",
          "type": "uint256",
          "internalType": "uint256"
        },
        {
          "name": "commitments",
          "type": "tuple",
          "internalType": "struct Commitments",
          "components": [
            {
              "name": "committedInputs",
              "type": "bytes",
              "internalType": "bytes"
            }
          ]
        }
      ],
      "outputs": [
        {
          "name": "",
          "type": "bool",
          "internalType": "bool"
        }
      ],
      "stateMutability": "view"
    },
    {
      "type": "function",
      "name": "isExpiryDateBefore",
      "inputs": [
        {
          "name": "maxDate",
          "type": "uint256",
          "internalType": "uint256"
        },
        {
          "name": "commitments",
          "type": "tuple",
          "internalType": "struct Commitments",
          "components": [
            {
              "name": "committedInputs",
              "type": "bytes",
              "internalType": "bytes"
            }
          ]
        }
      ],
      "outputs": [
        {
          "name": "",
          "type": "bool",
          "internalType": "bool"
        }
      ],
      "stateMutability": "view"
    },
    {
      "type": "function",
      "name": "isExpiryDateBeforeOrEqual",
      "inputs": [
        {
          "name": "maxDate",
          "type": "uint256",
          "internalType": "uint256"
        },
        {
          "name": "commitments",
          "type": "tuple",
          "internalType": "struct Commitments",
          "components": [
            {
              "name": "committedInputs",
              "type": "bytes",
              "internalType": "bytes"
            }
          ]
        }
      ],
      "outputs": [
        {
          "name": "",
          "type": "bool",
          "internalType": "bool"
        }
      ],
      "stateMutability": "view"
    },
    {
      "type": "function",
      "name": "isExpiryDateBetween",
      "inputs": [
        {
          "name": "minDate",
          "type": "uint256",
          "internalType": "uint256"
        },
        {
          "name": "maxDate",
          "type": "uint256",
          "internalType": "uint256"
        },
        {
          "name": "commitments",
          "type": "tuple",
          "internalType": "struct Commitments",
          "components": [
            {
              "name": "committedInputs",
              "type": "bytes",
              "internalType": "bytes"
            }
          ]
        }
      ],
      "outputs": [
        {
          "name": "",
          "type": "bool",
          "internalType": "bool"
        }
      ],
      "stateMutability": "view"
    },
    {
      "type": "function",
      "name": "isExpiryDateEqual",
      "inputs": [
        {
          "name": "date",
          "type": "uint256",
          "internalType": "uint256"
        },
        {
          "name": "commitments",
          "type": "tuple",
          "internalType": "struct Commitments",
          "components": [
            {
              "name": "committedInputs",
              "type": "bytes",
              "internalType": "bytes"
            }
          ]
        }
      ],
      "outputs": [
        {
          "name": "",
          "type": "bool",
          "internalType": "bool"
        }
      ],
      "stateMutability": "view"
    },
    {
      "type": "function",
      "name": "isFaceMatchVerified",
      "inputs": [
        {
          "name": "faceMatchMode",
          "type": "uint8",
          "internalType": "enum FaceMatchMode"
        },
        {
          "name": "os",
          "type": "uint8",
          "internalType": "enum OS"
        },
        {
          "name": "commitments",
          "type": "tuple",
          "internalType": "struct Commitments",
          "components": [
            {
              "name": "committedInputs",
              "type": "bytes",
              "internalType": "bytes"
            }
          ]
        }
      ],
      "outputs": [
        {
          "name": "",
          "type": "bool",
          "internalType": "bool"
        }
      ],
      "stateMutability": "pure"
    },
    {
      "type": "function",
      "name": "isIssuingCountryIn",
      "inputs": [
        {
          "name": "countryList",
          "type": "string[]",
          "internalType": "string[]"
        },
        {
          "name": "commitments",
          "type": "tuple",
          "internalType": "struct Commitments",
          "components": [
            {
              "name": "committedInputs",
              "type": "bytes",
              "internalType": "bytes"
            }
          ]
        }
      ],
      "outputs": [
        {
          "name": "",
          "type": "bool",
          "internalType": "bool"
        }
      ],
      "stateMutability": "pure"
    },
    {
      "type": "function",
      "name": "isIssuingCountryOut",
      "inputs": [
        {
          "name": "countryList",
          "type": "string[]",
          "internalType": "string[]"
        },
        {
          "name": "commitments",
          "type": "tuple",
          "internalType": "struct Commitments",
          "components": [
            {
              "name": "committedInputs",
              "type": "bytes",
              "internalType": "bytes"
            }
          ]
        }
      ],
      "outputs": [
        {
          "name": "",
          "type": "bool",
          "internalType": "bool"
        }
      ],
      "stateMutability": "pure"
    },
    {
      "type": "function",
      "name": "isNationalityIn",
      "inputs": [
        {
          "name": "countryList",
          "type": "string[]",
          "internalType": "string[]"
        },
        {
          "name": "commitments",
          "type": "tuple",
          "internalType": "struct Commitments",
          "components": [
            {
              "name": "committedInputs",
              "type": "bytes",
              "internalType": "bytes"
            }
          ]
        }
      ],
      "outputs": [
        {
          "name": "",
          "type": "bool",
          "internalType": "bool"
        }
      ],
      "stateMutability": "pure"
    },
    {
      "type": "function",
      "name": "isNationalityOut",
      "inputs": [
        {
          "name": "countryList",
          "type": "string[]",
          "internalType": "string[]"
        },
        {
          "name": "commitments",
          "type": "tuple",
          "internalType": "struct Commitments",
          "components": [
            {
              "name": "committedInputs",
              "type": "bytes",
              "internalType": "bytes"
            }
          ]
        }
      ],
      "outputs": [
        {
          "name": "",
          "type": "bool",
          "internalType": "bool"
        }
      ],
      "stateMutability": "pure"
    },
    {
      "type": "function",
      "name": "paused",
      "inputs": [],
      "outputs": [
        {
          "name": "",
          "type": "bool",
          "internalType": "bool"
        }
      ],
      "stateMutability": "view"
    },
    {
      "type": "function",
      "name": "removeVerifiers",
      "inputs": [
        {
          "name": "vkeyHashes",
          "type": "bytes32[]",
          "internalType": "bytes32[]"
        }
      ],
      "outputs": [],
      "stateMutability": "nonpayable"
    },
    {
      "type": "function",
      "name": "rootRegistry",
      "inputs": [],
      "outputs": [
        {
          "name": "",
          "type": "address",
          "internalType": "contract IRootRegistry"
        }
      ],
      "stateMutability": "view"
    },
    {
      "type": "function",
      "name": "setPaused",
      "inputs": [
        {
          "name": "_paused",
          "type": "bool",
          "internalType": "bool"
        }
      ],
      "outputs": [],
      "stateMutability": "nonpayable"
    },
    {
      "type": "function",
      "name": "transferAdmin",
      "inputs": [
        {
          "name": "newAdmin",
          "type": "address",
          "internalType": "address"
        }
      ],
      "outputs": [],
      "stateMutability": "nonpayable"
    },
    {
      "type": "function",
      "name": "updateRootRegistry",
      "inputs": [
        {
          "name": "_rootRegistry",
          "type": "address",
          "internalType": "address"
        }
      ],
      "outputs": [],
      "stateMutability": "nonpayable"
    },
    {
      "type": "function",
      "name": "verifyProof",
      "inputs": [
        {
          "name": "params",
          "type": "tuple",
          "internalType": "struct ProofVerificationParams",
          "components": [
            {
              "name": "proofVerificationData",
              "type": "tuple",
              "internalType": "struct ProofVerificationData",
              "components": [
                {
                  "name": "vkeyHash",
                  "type": "bytes32",
                  "internalType": "bytes32"
                },
                {
                  "name": "proof",
                  "type": "bytes",
                  "internalType": "bytes"
                },
                {
                  "name": "publicInputs",
                  "type": "bytes32[]",
                  "internalType": "bytes32[]"
                }
              ]
            },
            {
              "name": "commitments",
              "type": "tuple",
              "internalType": "struct Commitments",
              "components": [
                {
                  "name": "committedInputs",
                  "type": "bytes",
                  "internalType": "bytes"
                }
              ]
            },
            {
              "name": "serviceConfig",
              "type": "tuple",
              "internalType": "struct ServiceConfig",
              "components": [
                {
                  "name": "validityPeriodInSeconds",
                  "type": "uint256",
                  "internalType": "uint256"
                },
                {
                  "name": "domain",
                  "type": "string",
                  "internalType": "string"
                },
                {
                  "name": "scope",
                  "type": "string",
                  "internalType": "string"
                },
                {
                  "name": "devMode",
                  "type": "bool",
                  "internalType": "bool"
                }
              ]
            }
          ]
        }
      ],
      "outputs": [
        {
          "name": "isValid",
          "type": "bool",
          "internalType": "bool"
        },
        {
          "name": "uniqueIdentifier",
          "type": "bytes32",
          "internalType": "bytes32"
        }
      ],
      "stateMutability": "view"
    },
    {
      "type": "function",
      "name": "verifyScopes",
      "inputs": [
        {
          "name": "publicInputs",
          "type": "bytes32[]",
          "internalType": "bytes32[]"
        },
        {
          "name": "domain",
          "type": "string",
          "internalType": "string"
        },
        {
          "name": "scope",
          "type": "string",
          "internalType": "string"
        }
      ],
      "outputs": [
        {
          "name": "",
          "type": "bool",
          "internalType": "bool"
        }
      ],
      "stateMutability": "pure"
    },
    {
      "type": "function",
      "name": "vkeyHashToVerifier",
      "inputs": [
        {
          "name": "",
          "type": "bytes32",
          "internalType": "bytes32"
        }
      ],
      "outputs": [
        {
          "name": "",
          "type": "address",
          "internalType": "address"
        }
      ],
      "stateMutability": "view"
    },
    {
      "type": "event",
      "name": "AdminUpdated",
      "inputs": [
        {
          "name": "oldAdmin",
          "type": "address",
          "indexed": true,
          "internalType": "address"
        },
        {
          "name": "newAdmin",
          "type": "address",
          "indexed": true,
          "internalType": "address"
        }
      ],
      "anonymous": false
    },
    {
      "type": "event",
      "name": "CertificateRegistryRootAdded",
      "inputs": [
        {
          "name": "certificateRegistryRoot",
          "type": "bytes32",
          "indexed": true,
          "internalType": "bytes32"
        }
      ],
      "anonymous": false
    },
    {
      "type": "event",
      "name": "CertificateRegistryRootRemoved",
      "inputs": [
        {
          "name": "certificateRegistryRoot",
          "type": "bytes32",
          "indexed": true,
          "internalType": "bytes32"
        }
      ],
      "anonymous": false
    },
    {
      "type": "event",
      "name": "PausedStatusChanged",
      "inputs": [
        {
          "name": "paused",
          "type": "bool",
          "indexed": false,
          "internalType": "bool"
        }
      ],
      "anonymous": false
    },
    {
      "type": "event",
      "name": "SanctionsTreesRootUpdates",
      "inputs": [
        {
          "name": "_sanctionsTreesRoot",
          "type": "bytes32",
          "indexed": true,
          "internalType": "bytes32"
        }
      ],
      "anonymous": false
    },
    {
      "type": "event",
      "name": "VerifierAdded",
      "inputs": [
        {
          "name": "vkeyHash",
          "type": "bytes32",
          "indexed": true,
          "internalType": "bytes32"
        },
        {
          "name": "verifier",
          "type": "address",
          "indexed": true,
          "internalType": "address"
        }
      ],
      "anonymous": false
    },
    {
      "type": "event",
      "name": "VerifierRemoved",
      "inputs": [
        {
          "name": "vkeyHash",
          "type": "bytes32",
          "indexed": true,
          "internalType": "bytes32"
        }
      ],
      "anonymous": false
    },
    {
      "type": "event",
      "name": "ZKPassportVerifierDeployed",
      "inputs": [
        {
          "name": "admin",
          "type": "address",
          "indexed": true,
          "internalType": "address"
        },
        {
          "name": "timestamp",
          "type": "uint256",
          "indexed": false,
          "internalType": "uint256"
        }
      ],
      "anonymous": false
    }
  ],
  "bytecode": {
    "object": "0x608060405234801561000f575f5ffd5b50604051613c34380380613c3483398101604081905261002e916100f6565b6001600160a01b0381166100945760405162461bcd60e51b8152602060048201526024808201527f526f6f742072656769737472792063616e6e6f74206265207a65726f206164646044820152637265737360e01b606482015260840160405180910390fd5b5f8054336001600160a01b03199182168117909255600280549091166001600160a01b0384161790556040514281527ff29b53747ae7121d0958d490ad3d5cf6767119b0fdbd8389d918de3a12cf5a299060200160405180910390a250610123565b5f60208284031215610106575f5ffd5b81516001600160a01b038116811461011c575f5ffd5b9392505050565b613b04806101305f395ff3fe608060405234801561000f575f5ffd5b506004361061023f575f3560e01c806375829def11610135578063a30470b2116100b4578063c17361df11610079578063c17361df1461053e578063d2bbe05f14610551578063e3e6525e14610564578063e8ba670514610577578063f851a4401461058a575f5ffd5b8063a30470b2146104df578063a6df2c01146104f2578063a72a8a4914610505578063b1bab8f214610518578063b96b161c1461052b575f5ffd5b8063822d00f8116100fa578063822d00f814610473578063847755e3146104935780638d6937b8146104a657806390e44dd7146104b95780639facc38a146104cc575f5ffd5b806375829def146103e7578063782f2497146103fa5780637db36adf1461040d5780637f303f26146104205780638163f23114610433575f5ffd5b80634035b41d116101c15780635c975abb116101865780635c975abb1461039157806364ce783d146103a4578063652ba33d146103b75780636c40d5d6146103bf578063712f5e1c146103c7575f5ffd5b80634035b41d1461031857806341a0e2c2146103425780634736a71414610358578063518e9b921461036b5780635c0578431461037e575f5ffd5b806322eb54d51161020757806322eb54d5146102b957806329354ea6146102cc578063307ad1ee146102df5780633a1e38bd146102f25780633e11569a14610305575f5ffd5b806302298d5614610243578063074bd4e21461026b5780630ed1cb511461028057806316c38b3c1461029357806318677f2a146102a6575b5f5ffd5b610256610251366004612a16565b61059c565b60405190151581526020015b60405180910390f35b61027e610279366004612a66565b6105b2565b005b61025661028e366004612aaa565b610694565b61027e6102a1366004612ac6565b6106fb565b61027e6102b4366004612af5565b61077b565b6102566102c7366004612a16565b610828565b6102566102da366004612b1c565b610841565b6102566102ed366004612aaa565b610b58565b610256610300366004612a16565b610b6d565b610256610313366004612a16565b610b7a565b61032b610326366004612b79565b610b87565b604080519215158352602083019190915201610262565b61034a600181565b604051908152602001610262565b610256610366366004612baf565b61110a565b610256610379366004612a16565b611120565b61025661038c366004612aaa565b61112e565b5f5461025690600160a01b900460ff1681565b6102566103b2366004612aaa565b61113a565b61034a600381565b61034a600281565b6103da6103d5366004612be4565b611241565b6040516102629190612c43565b61027e6103f5366004612af5565b61136c565b610256610408366004612a16565b61143a565b61025661041b366004612d2e565b611448565b61025661042e366004612d2e565b611455565b61045b610441366004612e36565b60016020525f90815260409020546001600160a01b031681565b6040516001600160a01b039091168152602001610262565b610486610481366004612e4d565b611462565b6040516102629190612e9b565b6102566104a1366004613017565b6115a2565b61027e6104b43660046130b3565b61176a565b6102566104c73660046130f1565b61182a565b6102566104da366004612a16565b611a50565b6102566104ed366004612d2e565b611a69565b61027e61050036600461311e565b611a76565b610256610513366004612a16565b611ba0565b610256610526366004612a16565b611bb9565b60025461045b906001600160a01b031681565b61025661054c366004612a16565b611bd2565b61025661055f366004612d2e565b611bdf565b610256610572366004612aaa565b611bec565b610256610585366004612baf565b611cf3565b5f5461045b906001600160a01b031681565b5f6105a983600384611d01565b90505b92915050565b5f5f73__$144f4fe859debe4776cdef2b99f7b97a42$__63a623af24846040518263ffffffff1660e01b81526004016105eb91906131ff565b6040805180830381865af4158015610605573d5f5f3e3d5ffd5b505050506040513d601f19601f820116820180604052508101906106299190613211565b91509150801515841515146106855760405162461bcd60e51b815260206004820152601c60248201527f496e76616c69642073616e6374696f6e7320636865636b206d6f64650000000060448201526064015b60405180910390fd5b61068e82611ec6565b50505050565b5f5f8360ff16116106e75760405162461bcd60e51b815260206004820152601e60248201527f4d617820616765206d7573742062652067726561746572207468616e20300000604482015260640161067c565b6105a96106f5600185613249565b8361113a565b5f546001600160a01b031633146107245760405162461bcd60e51b815260040161067c90613262565b5f8054821515600160a01b0260ff60a01b199091161790556040517f9a506b30e47f3823b09f67e4c0dfa5c3d8023b71825b7ceaa97677129128c9c59061077090831515815260200190565b60405180910390a150565b5f546001600160a01b031633146107a45760405162461bcd60e51b815260040161067c90613262565b6001600160a01b0381166108065760405162461bcd60e51b8152602060048201526024808201527f526f6f742072656769737472792063616e6e6f74206265207a65726f206164646044820152637265737360e01b606482015260840161067c565b600280546001600160a01b0319166001600160a01b0392909216919091179055565b5f6105a96108398462015180613299565b600384611f87565b5f5f5f5f5f5f73__$144f4fe859debe4776cdef2b99f7b97a42$__63defa8ed9886040518263ffffffff1660e01b815260040161087e91906131ff565b60a060405180830381865af4158015610899573d5f5f3e3d5ffd5b505050506040513d601f19601f820116820180604052508101906108bd91906132ac565b9398509196509450925090505f60018560018111156108de576108de613304565b1490505f8a60028111156108f4576108f4613304565b83600281111561090657610906613304565b1490505f7f2532418a107c5306fa8308c22255792cf77e4a290cbce8a840a642a3e591340b88148015610964575060018b600281111561094857610948613304565b148061096457505f8b600281111561096257610962613304565b145b806109c457507f16700a2d9168a194fc85f237af5829b5a2be05b8ae8ac4879ada34cf54a9c211881480156109c4575060028b60028111156109a8576109a8613304565b14806109c457505f8b60028111156109c2576109c2613304565b145b90505f7f1fa73686cf510f8f85757b0602de0dd72a13e68ae2092462be8b72662e7f179b87148015610a21575060018c6002811115610a0557610a05613304565b1480610a2157505f8c6002811115610a1f57610a1f613304565b145b80610a8157507f24d9929b248be7eeecaa98e105c034a50539610f3fdd4cb9c8983ef4100d615d87148015610a81575060028c6002811115610a6557610a65613304565b1480610a8157505f8c6002811115610a7f57610a7f613304565b145b90505f86158015610abd575060018d6002811115610aa157610aa1613304565b1480610abd57505f8d6002811115610abb57610abb613304565b145b80610b1d57507f12e3dc7cc8fec0205b51ff21825630865028f3be5bc64a6eec9ee5e71221319f87148015610b1d575060028d6002811115610b0157610b01613304565b1480610b1d57505f8d6002811115610b1b57610b1b613304565b145b9050848015610b295750835b8015610b325750825b8015610b3b5750815b8015610b445750805b9a50505050505050505050505b9392505050565b5f6105a9610b67846001613318565b83611bec565b5f6105a983600284611d01565b5f6105a983600284611f87565b5f80548190600160a01b900460ff1615610bd85760405162461bcd60e51b815260206004820152601260248201527110dbdb9d1c9858dd081a5cc81c185d5cd95960721b604482015260640161067c565b5f610bec610be68580613331565b3561218b565b9050610c25610bfb8580613331565b610c0990604081019061334f565b5f818110610c1957610c19613394565b905060200201356121e4565b610c5d610c328580613331565b610c4090604081019061334f565b6001818110610c5157610c51613394565b905060200201356122ac565b610cbc610c6a8580613331565b610c7890604081019061334f565b808060200260200160405190810160405280939291908181526020018383602002808284375f92019190915250610cb69250505060408701876133a8565b3561236a565b610d245760405162461bcd60e51b815260206004820152603360248201527f5468652070726f6f66207761732067656e657261746564206f757473696465206044820152721d1a19481d985b1a591a5d1e481c195c9a5bd9606a1b606482015260840161067c565b610d75610d318580613331565b610d3f90604081019061334f565b610d4c60408801886133a8565b610d5a9060208101906133bc565b610d6760408a018a6133a8565b6104a19060408101906133bc565b610dc15760405162461bcd60e51b815260206004820152601760248201527f496e76616c696420646f6d61696e206f722073636f7065000000000000000000604482015260640161067c565b610e54610dce8580613331565b610ddc90604081019061334f565b6005906002610deb8980613331565b610df990604081019061334f565b610e049291506133fe565b92610e1193929190613411565b808060200260200160405190810160405280939291908181526020018383602002808284375f92019190915250610e4f92505050602087018761343c565b612395565b5f610e5f8580613331565b610e6d90604081019061334f565b6002610e798880613331565b610e8790604081019061334f565b610e929291506133fe565b818110610ea157610ea1613394565b905060200201355f1c6003811115610ebb57610ebb613304565b90506002816003811115610ed157610ed1613304565b14158015610ef157506003816003811115610eee57610eee613304565b14155b80610f155750610f0460408601866133a8565b610f15906080810190606001612ac6565b610f725760405162461bcd60e51b815260206004820152602860248201527f4d6f636b2070726f6f667320617265206f6e6c7920616c6c6f77656420696e20604482015267646576206d6f646560c01b606482015260840161067c565b5f816003811115610f8557610f85613304565b1480610faa5750610f9960408601866133a8565b610faa906080810190606001612ac6565b61100a5760405162461bcd60e51b815260206004820152602b60248201527f53616c746564206e756c6c69666965727320617265206e6f7420737570706f7260448201526a74656420666f72206e6f7760a81b606482015260840161067c565b6001600160a01b03821663ea50d0e46110238780613331565b6110319060208101906133bc565b61103b8980613331565b61104990604081019061334f565b6040518563ffffffff1660e01b81526004016110689493929190613450565b602060405180830381865afa158015611083573d5f5f3e3d5ffd5b505050506040513d601f19601f820116820180604052508101906110a7919061349a565b93505f60016110b68780613331565b6110c490604081019061334f565b6110cf9291506133fe565b90506110db8680613331565b6110e990604081019061334f565b828181106110f9576110f9613394565b905060200201359350505050915091565b5f61111884846003856125ce565b949350505050565b5f6105a983846003856125ce565b5f6105a983848461182a565b5f5f5f73__$144f4fe859debe4776cdef2b99f7b97a42$__6384052813856040518263ffffffff1660e01b815260040161117491906131ff565b6040805180830381865af415801561118e573d5f5f3e3d5ffd5b505050506040513d601f19601f820116820180604052508101906111b291906134b5565b915091508160ff165f14611230576040805162461bcd60e51b81526020600482015260248101919091527f5468652070726f6f66206c6f77657220626f756e64206d75737420626520302c60448201527f20706c65617365207573652069734167654265747765656e20696e7374656164606482015260840161067c565b60ff85811691161491505092915050565b60408051606080820183525f80835260208301529181019190915260405163dfda037960e01b81525f9073__$144f4fe859debe4776cdef2b99f7b97a42$__9063dfda0379906112959086906004016131ff565b5f60405180830381865af41580156112af573d5f5f3e3d5ffd5b505050506040513d5f823e601f3d908101601f191682016040526112d69190810190613531565b604051630578c5d360e11b815290915073__$144f4fe859debe4776cdef2b99f7b97a42$__90630af18ba690611310908490600401613562565b5f60405180830381865af415801561132a573d5f5f3e3d5ffd5b505050506040513d5f823e601f3d908101601f191682016040526113519190810190613574565b604085015260208401526001600160a01b0316825250919050565b5f546001600160a01b031633146113955760405162461bcd60e51b815260040161067c90613262565b6001600160a01b0381166113eb5760405162461bcd60e51b815260206004820152601c60248201527f41646d696e2063616e6e6f74206265207a65726f206164647265737300000000604482015260640161067c565b5f80546001600160a01b038381166001600160a01b0319831681178455604051919092169283917f101b8081ff3b56bbf45deb824d86a3b0fd38b7e3dd42421105cf8abe9106db0b9190a35050565b5f6105a983846002856125ce565b5f6105a9836006846128c0565b5f6105a9836004846128c0565b6114aa60405180610100016040528060608152602001606081526020016060815260200160608152602001606081526020016060815260200160608152602001606081525090565b604051635450abb360e11b81525f9073__$144f4fe859debe4776cdef2b99f7b97a42$__9063a8a15766906114e39087906004016131ff565b5f60405180830381865af41580156114fd573d5f5f3e3d5ffd5b505050506040513d5f823e601f3d908101601f1916820160405261152491908101906135bf565b6040516301e9bf5760e11b815290925073__$144f4fe859debe4776cdef2b99f7b97a42$__91506303d37eae906115619084908790600401613618565b5f60405180830381865af415801561157b573d5f5f3e3d5ffd5b505050506040513d5f823e601f3d908101601f19168201604052611118919081019061363b565b5f5f6115e286868080601f0160208091040260200160405190810160405280939291908181526020018383808284375f920191909152506129ce92505050565b61165c576008600287876040516020016115fd9291906137cc565b60408051601f1981840301815290829052611617916137db565b602060405180830381855afa158015611632573d5f5f3e3d5ffd5b5050506040513d601f19601f8201168201806040525081019061165591906137f1565b901c61165e565b5f5b90505f61169f85858080601f0160208091040260200160405190810160405280939291908181526020018383808284375f920191909152506129ce92505050565b611719576008600286866040516020016116ba9291906137cc565b60408051601f19818403018152908290526116d4916137db565b602060405180830381855afa1580156116ef573d5f5f3e3d5ffd5b5050506040513d601f19601f8201168201806040525081019061171291906137f1565b901c61171b565b5f5b9050818989600381811061173157611731613394565b9050602002013514801561175d5750808989600481811061175457611754613394565b90506020020135145b9998505050505050505050565b5f546001600160a01b031633146117935760405162461bcd60e51b815260040161067c90613262565b5f5b818110156118255760015f8484848181106117b2576117b2613394565b602090810292909201358352508101919091526040015f2080546001600160a01b03191690558282828181106117ea576117ea613394565b905060200201357f6fdcbcf8f91bc23f2c9dcfe8fe01d80d1b1afbbf207298e94c0171ccc587424c60405160405180910390a2600101611795565b505050565b5f5f5f73__$144f4fe859debe4776cdef2b99f7b97a42$__6384052813856040518263ffffffff1660e01b815260040161186491906131ff565b6040805180830381865af415801561187e573d5f5f3e3d5ffd5b505050506040513d601f19601f820116820180604052508101906118a291906134b5565b915091508460ff168660ff1611156119125760405162461bcd60e51b815260206004820152602d60248201527f4d696e20616765206d757374206265206c657373207468616e206f722065717560448201526c616c20746f206d61782061676560981b606482015260840161067c565b8160ff165f0361199f5760405162461bcd60e51b815260206004820152604c60248201527f5468652070726f6f66206c6f77657220626f756e64206d757374206265206e6f60448201527f6e2d7a65726f2c20706c656173652075736520697341676542656c6f774f724560648201526b1c5d585b081a5b9cdd19585960a21b608482015260a40161067c565b8060ff165f03611a2c5760405162461bcd60e51b815260206004820152604c60248201527f5468652070726f6f6620757070657220626f756e64206d757374206265206e6f60448201527f6e2d7a65726f2c20706c656173652075736520697341676541626f76654f724560648201526b1c5d585b081a5b9cdd19585960a21b608482015260a40161067c565b8160ff168660ff16148015611a4657508060ff168560ff16145b9695505050505050565b5f6105a9611a6162015180856133fe565b600284611d01565b5f6105a9836005846128c0565b5f546001600160a01b03163314611a9f5760405162461bcd60e51b815260040161067c90613262565b5f5b83811015611b9957828282818110611abb57611abb613394565b9050602002016020810190611ad09190612af5565b60015f878785818110611ae557611ae5613394565b9050602002013581526020019081526020015f205f6101000a8154816001600160a01b0302191690836001600160a01b03160217905550828282818110611b2e57611b2e613394565b9050602002016020810190611b439190612af5565b6001600160a01b0316858583818110611b5e57611b5e613394565b905060200201357f636107338a3eb46f1f60562462f3ec11393d35fbc965991aaade3b9e7d89c3f560405160405180910390a3600101611aa1565b5050505050565b5f6105a9611bb162015180856133fe565b600384611d01565b5f6105a9611bca8462015180613299565b600284611f87565b5f6105a983600384611f87565b5f6105a9836007846128c0565b5f5f5f73__$144f4fe859debe4776cdef2b99f7b97a42$__6384052813856040518263ffffffff1660e01b8152600401611c2691906131ff565b6040805180830381865af4158015611c40573d5f5f3e3d5ffd5b505050506040513d601f19601f82011682018060405250810190611c6491906134b5565b915091508060ff165f14611ce2576040805162461bcd60e51b81526020600482015260248101919091527f5468652070726f6f6620757070657220626f756e64206d75737420626520302c60448201527f20706c65617365207573652069734167654265747765656e20696e7374656164606482015260840161067c565b5060ff848116911614905092915050565b5f61111884846002856125ce565b5f5f5f73__$144f4fe859debe4776cdef2b99f7b97a42$__6374d9a37e85876040518363ffffffff1660e01b8152600401611d3d929190613808565b6040805180830381865af4158015611d57573d5f5f3e3d5ffd5b505050506040513d601f19601f82011682018060405250810190611d7b9190613845565b91509150815f14611dfe5760405162461bcd60e51b815260206004820152604160248201527f5468652070726f6f66206c6f77657220626f756e64206d75737420626520302c60448201527f20706c6561736520757365206973446174654265747765656e20696e737465616064820152601960fa1b608482015260a40161067c565b600285600a811115611e1257611e12613304565b1480611e2f5750600385600a811115611e2d57611e2d613304565b145b611e4b5760405162461bcd60e51b815260040161067c90613867565b600285600a811115611e5f57611e5f613304565b03611e9c57805f03611e835760405162461bcd60e51b815260040161067c90613893565b611e916383aa7e80826133fe565b861492505050610b51565b805f03611ebb5760405162461bcd60e51b815260040161067c9061390b565b85149150610b519050565b6002546040516383578c1160e01b815260036004820152602481018390526001600160a01b03909116906383578c1190604401602060405180830381865afa158015611f14573d5f5f3e3d5ffd5b505050506040513d601f19601f82011682018060405250810190611f38919061349a565b611f845760405162461bcd60e51b815260206004820152601f60248201527f496e76616c69642073616e6374696f6e7320726567697374727920726f6f7400604482015260640161067c565b50565b5f5f5f73__$144f4fe859debe4776cdef2b99f7b97a42$__6374d9a37e85876040518363ffffffff1660e01b8152600401611fc3929190613808565b6040805180830381865af4158015611fdd573d5f5f3e3d5ffd5b505050506040513d601f19601f820116820180604052508101906120019190613845565b9092509050600285600a81111561201a5761201a613304565b14806120375750600385600a81111561203557612035613304565b145b6120535760405162461bcd60e51b815260040161067c90613867565b600285600a81111561206757612067613304565b036120fd5780156120ef5760405162461bcd60e51b815260206004820152604660248201527f5468652070726f6f6620757070657220626f756e64206d75737420626520302c60448201527f20706c65617365207573652069734269727468646174654265747765656e20696064820152651b9cdd19585960d21b608482015260a40161067c565b611e916383aa7e80836133fe565b80156121815760405162461bcd60e51b815260206004820152604760248201527f5468652070726f6f6620757070657220626f756e64206d75737420626520302c60448201527f20706c6561736520757365206973457870697279446174654265747765656e206064820152661a5b9cdd19585960ca1b608482015260a40161067c565b5084149050610b51565b5f818152600160205260408120546001600160a01b0316806105ac5760405162461bcd60e51b815260206004820152601260248201527115995c9a599a595c881b9bdd08199bdd5b9960721b604482015260640161067c565b6002546040516383578c1160e01b815260016004820152602481018390526001600160a01b03909116906383578c1190604401602060405180830381865afa158015612232573d5f5f3e3d5ffd5b505050506040513d601f19601f82011682018060405250810190612256919061349a565b611f845760405162461bcd60e51b815260206004820152602160248201527f496e76616c696420636572746966696361746520726567697374727920726f6f6044820152601d60fa1b606482015260840161067c565b600280546040516383578c1160e01b81526004810192909252602482018390526001600160a01b0316906383578c1190604401602060405180830381865afa1580156122fa573d5f5f3e3d5ffd5b505050506040513d601f19601f8201168201806040525081019061231e919061349a565b611f845760405162461bcd60e51b815260206004820152601d60248201527f496e76616c6964206369726375697420726567697374727920726f6f74000000604482015260640161067c565b5f5f8360028151811061237f5761237f613394565b60200260200101515f1c905061111881846129d3565b5f805b6123a283806133bc565b9050821080156123b25750835181105b15612524575f6123c284806133bc565b6123cd856001613299565b906123d9866003613299565b926123e693929190613984565b6123ef916139ab565b60f01c90505f6008600261240387806133bc565b879061241361ffff881683613299565b61241e906003613299565b9261242b93929190613984565b60405160200161243c9291906137cc565b60408051601f1981840301815290829052612456916137db565b602060405180830381855afa158015612471573d5f5f3e3d5ffd5b5050506040513d601f19601f8201168201806040525081019061249491906137f1565b901c90508583815181106124aa576124aa613394565b602002602001015181146124f55760405162461bcd60e51b8152602060048201526012602482015271125b9d985b1a590818dbdb5b5a5d1b595b9d60721b604482015260640161067c565b6125008260036139e3565b61250e9061ffff1685613299565b93508261251a816139fd565b9350505050612398565b61252e83806133bc565b9050821461257e5760405162461bcd60e51b815260206004820152601f60248201527f496e76616c696420636f6d6d697474656420696e70757473206c656e67746800604482015260640161067c565b8351811461068e5760405162461bcd60e51b815260206004820152601d60248201527f496e76616c696420706172616d6574657220636f6d6d69746d656e7473000000604482015260640161067c565b5f5f5f73__$144f4fe859debe4776cdef2b99f7b97a42$__6374d9a37e85876040518363ffffffff1660e01b815260040161260a929190613808565b6040805180830381865af4158015612624573d5f5f3e3d5ffd5b505050506040513d601f19601f820116820180604052508101906126489190613845565b91509150858711156126b45760405162461bcd60e51b815260206004820152602f60248201527f4d696e2064617465206d757374206265206c657373207468616e206f7220657160448201526e75616c20746f206d6178206461746560881b606482015260840161067c565b600285600a8111156126c8576126c8613304565b14806126e55750600385600a8111156126e3576126e3613304565b145b6127015760405162461bcd60e51b815260040161067c90613867565b600285600a81111561271557612715613304565b036127fa57815f036127aa5760405162461bcd60e51b815260206004820152605260248201527f5468652070726f6f66206c6f77657220626f756e64206d757374206265206e6f60448201527f6e2d7a65726f2c20706c656173652075736520697342697274686461746542656064820152711b1bddd3dc915c5d585b081a5b9cdd19585960721b608482015260a40161067c565b805f036127c95760405162461bcd60e51b815260040161067c90613893565b6127d76383aa7e80836133fe565b871480156127f157506127ee6383aa7e80826133fe565b86145b92505050611118565b815f0361288b5760405162461bcd60e51b815260206004820152605360248201527f5468652070726f6f66206c6f77657220626f756e64206d757374206265206e6f60448201527f6e2d7a65726f2c20706c65617365207573652069734578706972794461746542606482015272195b1bddd3dc915c5d585b081a5b9cdd195859606a1b608482015260a40161067c565b805f036128aa5760405162461bcd60e51b815260040161067c9061390b565b81871480156127f1575090941495945050505050565b5f5f5f73__$144f4fe859debe4776cdef2b99f7b97a42$__63dc8c5e9a85876040518363ffffffff1660e01b81526004016128fc929190613808565b5f60405180830381865af4158015612916573d5f5f3e3d5ffd5b505050506040513d5f823e601f3d908101601f1916820160405261293d9190810190613a15565b9150915080865114612953575f92505050610b51565b5f5b818110156129c1576129aa87828151811061297257612972613394565b602002602001015184838151811061298c5761298c613394565b60200260200101518051602091820120825192909101919091201490565b6129b9575f9350505050610b51565b600101612955565b5060019695505050505050565b511590565b5f806129df8385613299565b90508342101580156129f057508381115b8015611118575042109392505050565b5f60208284031215612a10575f5ffd5b50919050565b5f5f60408385031215612a27575f5ffd5b8235915060208301356001600160401b03811115612a43575f5ffd5b612a4f85828601612a00565b9150509250929050565b8015158114611f84575f5ffd5b5f5f60408385031215612a77575f5ffd5b8235612a8281612a59565b915060208301356001600160401b03811115612a43575f5ffd5b60ff81168114611f84575f5ffd5b5f5f60408385031215612abb575f5ffd5b8235612a8281612a9c565b5f60208284031215612ad6575f5ffd5b8135610b5181612a59565b6001600160a01b0381168114611f84575f5ffd5b5f60208284031215612b05575f5ffd5b8135610b5181612ae1565b60038110611f84575f5ffd5b5f5f5f60608486031215612b2e575f5ffd5b8335612b3981612b10565b92506020840135612b4981612b10565b915060408401356001600160401b03811115612b63575f5ffd5b612b6f86828701612a00565b9150509250925092565b5f60208284031215612b89575f5ffd5b81356001600160401b03811115612b9e575f5ffd5b820160608185031215610b51575f5ffd5b5f5f5f60608486031215612bc1575f5ffd5b833592506020840135915060408401356001600160401b03811115612b63575f5ffd5b5f60208284031215612bf4575f5ffd5b81356001600160401b03811115612c09575f5ffd5b61111884828501612a00565b5f81518084528060208401602086015e5f602082860101526020601f19601f83011685010191505092915050565b6020815260018060a01b038251166020820152602082015160408201525f60408301516060808401526111186080840182612c15565b634e487b7160e01b5f52604160045260245ffd5b60405161010081016001600160401b0381118282101715612cb057612cb0612c79565b60405290565b604051601f8201601f191681016001600160401b0381118282101715612cde57612cde612c79565b604052919050565b5f6001600160401b03821115612cfe57612cfe612c79565b5060051b60200190565b5f6001600160401b03821115612d2057612d20612c79565b50601f01601f191660200190565b5f5f60408385031215612d3f575f5ffd5b82356001600160401b03811115612d54575f5ffd5b8301601f81018513612d64575f5ffd5b8035612d77612d7282612ce6565b612cb6565b8082825260208201915060208360051b850101925087831115612d98575f5ffd5b602084015b83811015612e185780356001600160401b03811115612dba575f5ffd5b8501603f81018a13612dca575f5ffd5b6020810135612ddb612d7282612d08565b8181526040838301018c1015612def575f5ffd5b816040840160208301375f60208383010152808652505050602083019250602081019050612d9d565b50945050505060208301356001600160401b03811115612a43575f5ffd5b5f60208284031215612e46575f5ffd5b5035919050565b5f5f60408385031215612e5e575f5ffd5b82356001600160401b03811115612e73575f5ffd5b612e7f85828601612a00565b9250506020830135612e9081612a59565b809150509250929050565b602081525f82516101006020840152612eb8610120840182612c15565b90506020840151601f19848303016040850152612ed58282612c15565b9150506040840151601f19848303016060850152612ef38282612c15565b9150506060840151601f19848303016080850152612f118282612c15565b9150506080840151601f198483030160a0850152612f2f8282612c15565b91505060a0840151601f198483030160c0850152612f4d8282612c15565b91505060c0840151601f198483030160e0850152612f6b8282612c15565b91505060e0840151601f1984830301610100850152612f8a8282612c15565b95945050505050565b5f5f83601f840112612fa3575f5ffd5b5081356001600160401b03811115612fb9575f5ffd5b6020830191508360208260051b8501011115612fd3575f5ffd5b9250929050565b5f5f83601f840112612fea575f5ffd5b5081356001600160401b03811115613000575f5ffd5b602083019150836020828501011115612fd3575f5ffd5b5f5f5f5f5f5f6060878903121561302c575f5ffd5b86356001600160401b03811115613041575f5ffd5b61304d89828a01612f93565b90975095505060208701356001600160401b0381111561306b575f5ffd5b61307789828a01612fda565b90955093505060408701356001600160401b03811115613095575f5ffd5b6130a189828a01612fda565b979a9699509497509295939492505050565b5f5f602083850312156130c4575f5ffd5b82356001600160401b038111156130d9575f5ffd5b6130e585828601612f93565b90969095509350505050565b5f5f5f60608486031215613103575f5ffd5b833561310e81612a9c565b92506020840135612b4981612a9c565b5f5f5f5f60408587031215613131575f5ffd5b84356001600160401b03811115613146575f5ffd5b61315287828801612f93565b90955093505060208501356001600160401b03811115613170575f5ffd5b61317c87828801612f93565b95989497509550505050565b81835281816020850137505f828201602090810191909152601f909101601f19169091010190565b5f8135601e198336030181126131c4575f5ffd5b82016020810190356001600160401b038111156131df575f5ffd5b8036038213156131ed575f5ffd5b60208552612f8a602086018284613188565b602081525f6105a960208301846131b0565b5f5f60408385031215613222575f5ffd5b82516020840151909250612e9081612a59565b634e487b7160e01b5f52601160045260245ffd5b60ff82811682821603908111156105ac576105ac613235565b6020808252601a908201527f4e6f7420617574686f72697a65643a2061646d696e206f6e6c79000000000000604082015260600190565b808201808211156105ac576105ac613235565b5f5f5f5f5f60a086880312156132c0575f5ffd5b85516020870151909550600281106132d6575f5ffd5b60408701516060880151608089015192965090945092506132f681612b10565b809150509295509295909350565b634e487b7160e01b5f52602160045260245ffd5b60ff81811683821601908111156105ac576105ac613235565b5f8235605e19833603018112613345575f5ffd5b9190910192915050565b5f5f8335601e19843603018112613364575f5ffd5b8301803591506001600160401b0382111561337d575f5ffd5b6020019150600581901b3603821315612fd3575f5ffd5b634e487b7160e01b5f52603260045260245ffd5b5f8235607e19833603018112613345575f5ffd5b5f5f8335601e198436030181126133d1575f5ffd5b8301803591506001600160401b038211156133ea575f5ffd5b602001915036819003821315612fd3575f5ffd5b818103818111156105ac576105ac613235565b5f5f8585111561341f575f5ffd5b8386111561342b575f5ffd5b5050600583901b0193919092039150565b5f8235601e19833603018112613345575f5ffd5b604081525f613463604083018688613188565b82810360208401528381526001600160fb1b03841115613481575f5ffd5b8360051b80866020840137016020019695505050505050565b5f602082840312156134aa575f5ffd5b8151610b5181612a59565b5f5f604083850312156134c6575f5ffd5b82516134d181612a9c565b6020840151909250612e9081612a9c565b5f82601f8301126134f1575f5ffd5b8151602083015f613504612d7284612d08565b9050828152858383011115613517575f5ffd5b8282602083015e5f92810160200192909252509392505050565b5f60208284031215613541575f5ffd5b81516001600160401b03811115613556575f5ffd5b611118848285016134e2565b602081525f6105a96020830184612c15565b5f5f5f60608486031215613586575f5ffd5b835161359181612ae1565b6020850151604086015191945092506001600160401b038111156135b3575f5ffd5b612b6f868287016134e2565b5f5f604083850312156135d0575f5ffd5b82516001600160401b038111156135e5575f5ffd5b6135f1858286016134e2565b92505060208301516001600160401b0381111561360c575f5ffd5b612a4f858286016134e2565b604081525f61362a6040830185612c15565b905082151560208301529392505050565b5f6020828403121561364b575f5ffd5b81516001600160401b03811115613660575f5ffd5b82016101008185031215613672575f5ffd5b61367a612c8d565b81516001600160401b0381111561368f575f5ffd5b61369b868285016134e2565b82525060208201516001600160401b038111156136b6575f5ffd5b6136c2868285016134e2565b60208301525060408201516001600160401b038111156136e0575f5ffd5b6136ec868285016134e2565b60408301525060608201516001600160401b0381111561370a575f5ffd5b613716868285016134e2565b60608301525060808201516001600160401b03811115613734575f5ffd5b613740868285016134e2565b60808301525060a08201516001600160401b0381111561375e575f5ffd5b61376a868285016134e2565b60a08301525060c08201516001600160401b03811115613788575f5ffd5b613794868285016134e2565b60c08301525060e08201516001600160401b038111156137b2575f5ffd5b6137be868285016134e2565b60e083015250949350505050565b818382375f9101908152919050565b5f82518060208501845e5f920191825250919050565b5f60208284031215613801575f5ffd5b5051919050565b604081525f61381a60408301856131b0565b9050600b831061383857634e487b7160e01b5f52602160045260245ffd5b8260208301529392505050565b5f5f60408385031215613856575f5ffd5b505080516020909101519092909150565b602080825260129082015271496e76616c69642070726f6f66207479706560701b604082015260600190565b60208082526052908201527f5468652070726f6f6620757070657220626f756e64206d757374206265206e6f60408201527f6e2d7a65726f2c20706c656173652075736520697342697274686461746541626060820152711bdd9953dc915c5d585b081a5b9cdd19585960721b608082015260a00190565b60208082526053908201527f5468652070726f6f6620757070657220626f756e64206d757374206265206e6f60408201527f6e2d7a65726f2c20706c65617365207573652069734578706972794461746541606082015272189bdd9953dc915c5d585b081a5b9cdd195859606a1b608082015260a00190565b5f5f85851115613992575f5ffd5b8386111561399e575f5ffd5b5050820193919092039150565b80356001600160f01b031981169060028410156139dc576001600160f01b0319600285900360031b81901b82161691505b5092915050565b61ffff81811683821601908111156105ac576105ac613235565b5f60018201613a0e57613a0e613235565b5060010190565b5f5f60408385031215613a26575f5ffd5b82516001600160401b03811115613a3b575f5ffd5b8301601f81018513613a4b575f5ffd5b8051613a59612d7282612ce6565b8082825260208201915060208360051b850101925087831115613a7a575f5ffd5b602084015b83811015613aba5780516001600160401b03811115613a9c575f5ffd5b613aab8a6020838901016134e2565b84525060209283019201613a7f565b50602096909601519597959650505050505056fea2646970667358221220f755de8bb391abb11be10350f9cc3590eeac4e8d2381edac92e3b462d6f7b18564736f6c634300081d0033",
    "linkReferences": {
      "src/InputsExtractor.sol": {
        "InputsExtractor": [
          {
            "start": 1766,
            "length": 20
          },
          {
            "start": 2425,
            "length": 20
          },
          {
            "start": 4719,
            "length": 20
          },
          {
            "start": 5021,
            "length": 20
          },
          {
            "start": 5144,
            "length": 20
          },
          {
            "start": 5611,
            "length": 20
          },
          {
            "start": 5734,
            "length": 20
          },
          {
            "start": 6495,
            "length": 20
          },
          {
            "start": 7457,
            "length": 20
          },
          {
            "start": 7734,
            "length": 20
          },
          {
            "start": 8380,
            "length": 20
          },
          {
            "start": 9987,
            "length": 20
          },
          {
            "start": 10741,
            "length": 20
          }
        ]
      }
    }
  },
  "methodIdentifiers": {
    "CERTIFICATE_REGISTRY_ID()": "41a0e2c2",
    "CIRCUIT_REGISTRY_ID()": "6c40d5d6",
    "SANCTIONS_REGISTRY_ID()": "652ba33d",
    "addVerifiers(bytes32[],address[])": "a6df2c01",
    "admin()": "f851a440",
    "enforceSanctionsRoot(bool,(bytes))": "074bd4e2",
    "getBoundData((bytes))": "712f5e1c",
    "getDisclosedData((bytes),bool)": "822d00f8",
    "isAgeAbove(uint8,(bytes))": "307ad1ee",
    "isAgeAboveOrEqual(uint8,(bytes))": "e3e6525e",
    "isAgeBelow(uint8,(bytes))": "0ed1cb51",
    "isAgeBelowOrEqual(uint8,(bytes))": "64ce783d",
    "isAgeBetween(uint8,uint8,(bytes))": "90e44dd7",
    "isAgeEqual(uint8,(bytes))": "5c057843",
    "isBirthdateAfter(uint256,(bytes))": "b1bab8f2",
    "isBirthdateAfterOrEqual(uint256,(bytes))": "3e11569a",
    "isBirthdateBefore(uint256,(bytes))": "9facc38a",
    "isBirthdateBeforeOrEqual(uint256,(bytes))": "3a1e38bd",
    "isBirthdateBetween(uint256,uint256,(bytes))": "e8ba6705",
    "isBirthdateEqual(uint256,(bytes))": "782f2497",
    "isExpiryDateAfter(uint256,(bytes))": "22eb54d5",
    "isExpiryDateAfterOrEqual(uint256,(bytes))": "c17361df",
    "isExpiryDateBefore(uint256,(bytes))": "a72a8a49",
    "isExpiryDateBeforeOrEqual(uint256,(bytes))": "02298d56",
    "isExpiryDateBetween(uint256,uint256,(bytes))": "4736a714",
    "isExpiryDateEqual(uint256,(bytes))": "518e9b92",
    "isFaceMatchVerified(uint8,uint8,(bytes))": "29354ea6",
    "isIssuingCountryIn(string[],(bytes))": "7db36adf",
    "isIssuingCountryOut(string[],(bytes))": "d2bbe05f",
    "isNationalityIn(string[],(bytes))": "7f303f26",
    "isNationalityOut(string[],(bytes))": "a30470b2",
    "paused()": "5c975abb",
    "removeVerifiers(bytes32[])": "8d6937b8",
    "rootRegistry()": "b96b161c",
    "setPaused(bool)": "16c38b3c",
    "transferAdmin(address)": "75829def",
    "updateRootRegistry(address)": "18677f2a",
    "verifyProof(((bytes32,bytes,bytes32[]),(bytes),(uint256,string,string,bool)))": "4035b41d",
    "verifyScopes(bytes32[],string,string)": "847755e3",
    "vkeyHashToVerifier(bytes32)": "8163f231"
  },
  "id": 26
}