{
  "abi": [
    {
      "type": "constructor",
      "inputs": [
        {
          "name": "_rootRegistry",
          "type": "address",
          "internalType": "address"
        }
      ],
      "stateMutability": "nonpayable"
    },
    {
      "type": "function",
      "name": "CERTIFICATE_REGISTRY_ID",
      "inputs": [],
      "outputs": [
        {
          "name": "",
          "type": "bytes32",
          "internalType": "bytes32"
        }
      ],
      "stateMutability": "view"
    },
    {
      "type": "function",
      "name": "CIRCUIT_REGISTRY_ID",
      "inputs": [],
      "outputs": [
        {
          "name": "",
          "type": "bytes32",
          "internalType": "bytes32"
        }
      ],
      "stateMutability": "view"
    },
    {
      "type": "function",
      "name": "SANCTIONS_REGISTRY_ID",
      "inputs": [],
      "outputs": [
        {
          "name": "",
          "type": "bytes32",
          "internalType": "bytes32"
        }
      ],
      "stateMutability": "view"
    },
    {
      "type": "function",
      "name": "addVerifiers",
      "inputs": [
        {
          "name": "vkeyHashes",
          "type": "bytes32[]",
          "internalType": "bytes32[]"
        },
        {
          "name": "verifiers",
          "type": "address[]",
          "internalType": "address[]"
        }
      ],
      "outputs": [],
      "stateMutability": "nonpayable"
    },
    {
      "type": "function",
      "name": "admin",
      "inputs": [],
      "outputs": [
        {
          "name": "",
          "type": "address",
          "internalType": "address"
        }
      ],
      "stateMutability": "view"
    },
    {
      "type": "function",
      "name": "enforceSanctionsRoot",
      "inputs": [
        {
          "name": "params",
          "type": "tuple",
          "internalType": "struct ProofVerificationParams",
          "components": [
            {
              "name": "vkeyHash",
              "type": "bytes32",
              "internalType": "bytes32"
            },
            {
              "name": "proof",
              "type": "bytes",
              "internalType": "bytes"
            },
            {
              "name": "publicInputs",
              "type": "bytes32[]",
              "internalType": "bytes32[]"
            },
            {
              "name": "committedInputs",
              "type": "bytes",
              "internalType": "bytes"
            },
            {
              "name": "committedInputCounts",
              "type": "uint256[]",
              "internalType": "uint256[]"
            },
            {
              "name": "validityPeriodInSeconds",
              "type": "uint256",
              "internalType": "uint256"
            },
            {
              "name": "domain",
              "type": "string",
              "internalType": "string"
            },
            {
              "name": "scope",
              "type": "string",
              "internalType": "string"
            },
            {
              "name": "devMode",
              "type": "bool",
              "internalType": "bool"
            }
          ]
        }
      ],
      "outputs": [],
      "stateMutability": "view"
    },
    {
      "type": "function",
      "name": "getBoundData",
      "inputs": [
        {
          "name": "params",
          "type": "tuple",
          "internalType": "struct ProofVerificationParams",
          "components": [
            {
              "name": "vkeyHash",
              "type": "bytes32",
              "internalType": "bytes32"
            },
            {
              "name": "proof",
              "type": "bytes",
              "internalType": "bytes"
            },
            {
              "name": "publicInputs",
              "type": "bytes32[]",
              "internalType": "bytes32[]"
            },
            {
              "name": "committedInputs",
              "type": "bytes",
              "internalType": "bytes"
            },
            {
              "name": "committedInputCounts",
              "type": "uint256[]",
              "internalType": "uint256[]"
            },
            {
              "name": "validityPeriodInSeconds",
              "type": "uint256",
              "internalType": "uint256"
            },
            {
              "name": "domain",
              "type": "string",
              "internalType": "string"
            },
            {
              "name": "scope",
              "type": "string",
              "internalType": "string"
            },
            {
              "name": "devMode",
              "type": "bool",
              "internalType": "bool"
            }
          ]
        }
      ],
      "outputs": [
        {
          "name": "boundData",
          "type": "tuple",
          "internalType": "struct BoundData",
          "components": [
            {
              "name": "senderAddress",
              "type": "address",
              "internalType": "address"
            },
            {
              "name": "chainId",
              "type": "uint256",
              "internalType": "uint256"
            },
            {
              "name": "customData",
              "type": "string",
              "internalType": "string"
            }
          ]
        }
      ],
      "stateMutability": "pure"
    },
    {
      "type": "function",
      "name": "getDisclosedData",
      "inputs": [
        {
          "name": "params",
          "type": "tuple",
          "internalType": "struct ProofVerificationParams",
          "components": [
            {
              "name": "vkeyHash",
              "type": "bytes32",
              "internalType": "bytes32"
            },
            {
              "name": "proof",
              "type": "bytes",
              "internalType": "bytes"
            },
            {
              "name": "publicInputs",
              "type": "bytes32[]",
              "internalType": "bytes32[]"
            },
            {
              "name": "committedInputs",
              "type": "bytes",
              "internalType": "bytes"
            },
            {
              "name": "committedInputCounts",
              "type": "uint256[]",
              "internalType": "uint256[]"
            },
            {
              "name": "validityPeriodInSeconds",
              "type": "uint256",
              "internalType": "uint256"
            },
            {
              "name": "domain",
              "type": "string",
              "internalType": "string"
            },
            {
              "name": "scope",
              "type": "string",
              "internalType": "string"
            },
            {
              "name": "devMode",
              "type": "bool",
              "internalType": "bool"
            }
          ]
        },
        {
          "name": "isIDCard",
          "type": "bool",
          "internalType": "bool"
        }
      ],
      "outputs": [
        {
          "name": "disclosedData",
          "type": "tuple",
          "internalType": "struct DisclosedData",
          "components": [
            {
              "name": "name",
              "type": "string",
              "internalType": "string"
            },
            {
              "name": "issuingCountry",
              "type": "string",
              "internalType": "string"
            },
            {
              "name": "nationality",
              "type": "string",
              "internalType": "string"
            },
            {
              "name": "gender",
              "type": "string",
              "internalType": "string"
            },
            {
              "name": "birthDate",
              "type": "string",
              "internalType": "string"
            },
            {
              "name": "expiryDate",
              "type": "string",
              "internalType": "string"
            },
            {
              "name": "documentNumber",
              "type": "string",
              "internalType": "string"
            },
            {
              "name": "documentType",
              "type": "string",
              "internalType": "string"
            }
          ]
        }
      ],
      "stateMutability": "pure"
    },
    {
      "type": "function",
      "name": "isAgeAbove",
      "inputs": [
        {
          "name": "minAge",
          "type": "uint8",
          "internalType": "uint8"
        },
        {
          "name": "params",
          "type": "tuple",
          "internalType": "struct ProofVerificationParams",
          "components": [
            {
              "name": "vkeyHash",
              "type": "bytes32",
              "internalType": "bytes32"
            },
            {
              "name": "proof",
              "type": "bytes",
              "internalType": "bytes"
            },
            {
              "name": "publicInputs",
              "type": "bytes32[]",
              "internalType": "bytes32[]"
            },
            {
              "name": "committedInputs",
              "type": "bytes",
              "internalType": "bytes"
            },
            {
              "name": "committedInputCounts",
              "type": "uint256[]",
              "internalType": "uint256[]"
            },
            {
              "name": "validityPeriodInSeconds",
              "type": "uint256",
              "internalType": "uint256"
            },
            {
              "name": "domain",
              "type": "string",
              "internalType": "string"
            },
            {
              "name": "scope",
              "type": "string",
              "internalType": "string"
            },
            {
              "name": "devMode",
              "type": "bool",
              "internalType": "bool"
            }
          ]
        }
      ],
      "outputs": [
        {
          "name": "",
          "type": "bool",
          "internalType": "bool"
        }
      ],
      "stateMutability": "view"
    },
    {
      "type": "function",
      "name": "isAgeAboveOrEqual",
      "inputs": [
        {
          "name": "minAge",
          "type": "uint8",
          "internalType": "uint8"
        },
        {
          "name": "params",
          "type": "tuple",
          "internalType": "struct ProofVerificationParams",
          "components": [
            {
              "name": "vkeyHash",
              "type": "bytes32",
              "internalType": "bytes32"
            },
            {
              "name": "proof",
              "type": "bytes",
              "internalType": "bytes"
            },
            {
              "name": "publicInputs",
              "type": "bytes32[]",
              "internalType": "bytes32[]"
            },
            {
              "name": "committedInputs",
              "type": "bytes",
              "internalType": "bytes"
            },
            {
              "name": "committedInputCounts",
              "type": "uint256[]",
              "internalType": "uint256[]"
            },
            {
              "name": "validityPeriodInSeconds",
              "type": "uint256",
              "internalType": "uint256"
            },
            {
              "name": "domain",
              "type": "string",
              "internalType": "string"
            },
            {
              "name": "scope",
              "type": "string",
              "internalType": "string"
            },
            {
              "name": "devMode",
              "type": "bool",
              "internalType": "bool"
            }
          ]
        }
      ],
      "outputs": [
        {
          "name": "",
          "type": "bool",
          "internalType": "bool"
        }
      ],
      "stateMutability": "view"
    },
    {
      "type": "function",
      "name": "isAgeBelow",
      "inputs": [
        {
          "name": "maxAge",
          "type": "uint8",
          "internalType": "uint8"
        },
        {
          "name": "params",
          "type": "tuple",
          "internalType": "struct ProofVerificationParams",
          "components": [
            {
              "name": "vkeyHash",
              "type": "bytes32",
              "internalType": "bytes32"
            },
            {
              "name": "proof",
              "type": "bytes",
              "internalType": "bytes"
            },
            {
              "name": "publicInputs",
              "type": "bytes32[]",
              "internalType": "bytes32[]"
            },
            {
              "name": "committedInputs",
              "type": "bytes",
              "internalType": "bytes"
            },
            {
              "name": "committedInputCounts",
              "type": "uint256[]",
              "internalType": "uint256[]"
            },
            {
              "name": "validityPeriodInSeconds",
              "type": "uint256",
              "internalType": "uint256"
            },
            {
              "name": "domain",
              "type": "string",
              "internalType": "string"
            },
            {
              "name": "scope",
              "type": "string",
              "internalType": "string"
            },
            {
              "name": "devMode",
              "type": "bool",
              "internalType": "bool"
            }
          ]
        }
      ],
      "outputs": [
        {
          "name": "",
          "type": "bool",
          "internalType": "bool"
        }
      ],
      "stateMutability": "view"
    },
    {
      "type": "function",
      "name": "isAgeBelowOrEqual",
      "inputs": [
        {
          "name": "maxAge",
          "type": "uint8",
          "internalType": "uint8"
        },
        {
          "name": "params",
          "type": "tuple",
          "internalType": "struct ProofVerificationParams",
          "components": [
            {
              "name": "vkeyHash",
              "type": "bytes32",
              "internalType": "bytes32"
            },
            {
              "name": "proof",
              "type": "bytes",
              "internalType": "bytes"
            },
            {
              "name": "publicInputs",
              "type": "bytes32[]",
              "internalType": "bytes32[]"
            },
            {
              "name": "committedInputs",
              "type": "bytes",
              "internalType": "bytes"
            },
            {
              "name": "committedInputCounts",
              "type": "uint256[]",
              "internalType": "uint256[]"
            },
            {
              "name": "validityPeriodInSeconds",
              "type": "uint256",
              "internalType": "uint256"
            },
            {
              "name": "domain",
              "type": "string",
              "internalType": "string"
            },
            {
              "name": "scope",
              "type": "string",
              "internalType": "string"
            },
            {
              "name": "devMode",
              "type": "bool",
              "internalType": "bool"
            }
          ]
        }
      ],
      "outputs": [
        {
          "name": "",
          "type": "bool",
          "internalType": "bool"
        }
      ],
      "stateMutability": "view"
    },
    {
      "type": "function",
      "name": "isAgeBetween",
      "inputs": [
        {
          "name": "minAge",
          "type": "uint8",
          "internalType": "uint8"
        },
        {
          "name": "maxAge",
          "type": "uint8",
          "internalType": "uint8"
        },
        {
          "name": "params",
          "type": "tuple",
          "internalType": "struct ProofVerificationParams",
          "components": [
            {
              "name": "vkeyHash",
              "type": "bytes32",
              "internalType": "bytes32"
            },
            {
              "name": "proof",
              "type": "bytes",
              "internalType": "bytes"
            },
            {
              "name": "publicInputs",
              "type": "bytes32[]",
              "internalType": "bytes32[]"
            },
            {
              "name": "committedInputs",
              "type": "bytes",
              "internalType": "bytes"
            },
            {
              "name": "committedInputCounts",
              "type": "uint256[]",
              "internalType": "uint256[]"
            },
            {
              "name": "validityPeriodInSeconds",
              "type": "uint256",
              "internalType": "uint256"
            },
            {
              "name": "domain",
              "type": "string",
              "internalType": "string"
            },
            {
              "name": "scope",
              "type": "string",
              "internalType": "string"
            },
            {
              "name": "devMode",
              "type": "bool",
              "internalType": "bool"
            }
          ]
        }
      ],
      "outputs": [
        {
          "name": "",
          "type": "bool",
          "internalType": "bool"
        }
      ],
      "stateMutability": "view"
    },
    {
      "type": "function",
      "name": "isAgeEqual",
      "inputs": [
        {
          "name": "age",
          "type": "uint8",
          "internalType": "uint8"
        },
        {
          "name": "params",
          "type": "tuple",
          "internalType": "struct ProofVerificationParams",
          "components": [
            {
              "name": "vkeyHash",
              "type": "bytes32",
              "internalType": "bytes32"
            },
            {
              "name": "proof",
              "type": "bytes",
              "internalType": "bytes"
            },
            {
              "name": "publicInputs",
              "type": "bytes32[]",
              "internalType": "bytes32[]"
            },
            {
              "name": "committedInputs",
              "type": "bytes",
              "internalType": "bytes"
            },
            {
              "name": "committedInputCounts",
              "type": "uint256[]",
              "internalType": "uint256[]"
            },
            {
              "name": "validityPeriodInSeconds",
              "type": "uint256",
              "internalType": "uint256"
            },
            {
              "name": "domain",
              "type": "string",
              "internalType": "string"
            },
            {
              "name": "scope",
              "type": "string",
              "internalType": "string"
            },
            {
              "name": "devMode",
              "type": "bool",
              "internalType": "bool"
            }
          ]
        }
      ],
      "outputs": [
        {
          "name": "",
          "type": "bool",
          "internalType": "bool"
        }
      ],
      "stateMutability": "view"
    },
    {
      "type": "function",
      "name": "isBirthdateAfter",
      "inputs": [
        {
          "name": "minDate",
          "type": "uint256",
          "internalType": "uint256"
        },
        {
          "name": "params",
          "type": "tuple",
          "internalType": "struct ProofVerificationParams",
          "components": [
            {
              "name": "vkeyHash",
              "type": "bytes32",
              "internalType": "bytes32"
            },
            {
              "name": "proof",
              "type": "bytes",
              "internalType": "bytes"
            },
            {
              "name": "publicInputs",
              "type": "bytes32[]",
              "internalType": "bytes32[]"
            },
            {
              "name": "committedInputs",
              "type": "bytes",
              "internalType": "bytes"
            },
            {
              "name": "committedInputCounts",
              "type": "uint256[]",
              "internalType": "uint256[]"
            },
            {
              "name": "validityPeriodInSeconds",
              "type": "uint256",
              "internalType": "uint256"
            },
            {
              "name": "domain",
              "type": "string",
              "internalType": "string"
            },
            {
              "name": "scope",
              "type": "string",
              "internalType": "string"
            },
            {
              "name": "devMode",
              "type": "bool",
              "internalType": "bool"
            }
          ]
        }
      ],
      "outputs": [
        {
          "name": "",
          "type": "bool",
          "internalType": "bool"
        }
      ],
      "stateMutability": "view"
    },
    {
      "type": "function",
      "name": "isBirthdateAfterOrEqual",
      "inputs": [
        {
          "name": "minDate",
          "type": "uint256",
          "internalType": "uint256"
        },
        {
          "name": "params",
          "type": "tuple",
          "internalType": "struct ProofVerificationParams",
          "components": [
            {
              "name": "vkeyHash",
              "type": "bytes32",
              "internalType": "bytes32"
            },
            {
              "name": "proof",
              "type": "bytes",
              "internalType": "bytes"
            },
            {
              "name": "publicInputs",
              "type": "bytes32[]",
              "internalType": "bytes32[]"
            },
            {
              "name": "committedInputs",
              "type": "bytes",
              "internalType": "bytes"
            },
            {
              "name": "committedInputCounts",
              "type": "uint256[]",
              "internalType": "uint256[]"
            },
            {
              "name": "validityPeriodInSeconds",
              "type": "uint256",
              "internalType": "uint256"
            },
            {
              "name": "domain",
              "type": "string",
              "internalType": "string"
            },
            {
              "name": "scope",
              "type": "string",
              "internalType": "string"
            },
            {
              "name": "devMode",
              "type": "bool",
              "internalType": "bool"
            }
          ]
        }
      ],
      "outputs": [
        {
          "name": "",
          "type": "bool",
          "internalType": "bool"
        }
      ],
      "stateMutability": "view"
    },
    {
      "type": "function",
      "name": "isBirthdateBefore",
      "inputs": [
        {
          "name": "maxDate",
          "type": "uint256",
          "internalType": "uint256"
        },
        {
          "name": "params",
          "type": "tuple",
          "internalType": "struct ProofVerificationParams",
          "components": [
            {
              "name": "vkeyHash",
              "type": "bytes32",
              "internalType": "bytes32"
            },
            {
              "name": "proof",
              "type": "bytes",
              "internalType": "bytes"
            },
            {
              "name": "publicInputs",
              "type": "bytes32[]",
              "internalType": "bytes32[]"
            },
            {
              "name": "committedInputs",
              "type": "bytes",
              "internalType": "bytes"
            },
            {
              "name": "committedInputCounts",
              "type": "uint256[]",
              "internalType": "uint256[]"
            },
            {
              "name": "validityPeriodInSeconds",
              "type": "uint256",
              "internalType": "uint256"
            },
            {
              "name": "domain",
              "type": "string",
              "internalType": "string"
            },
            {
              "name": "scope",
              "type": "string",
              "internalType": "string"
            },
            {
              "name": "devMode",
              "type": "bool",
              "internalType": "bool"
            }
          ]
        }
      ],
      "outputs": [
        {
          "name": "",
          "type": "bool",
          "internalType": "bool"
        }
      ],
      "stateMutability": "view"
    },
    {
      "type": "function",
      "name": "isBirthdateBeforeOrEqual",
      "inputs": [
        {
          "name": "maxDate",
          "type": "uint256",
          "internalType": "uint256"
        },
        {
          "name": "params",
          "type": "tuple",
          "internalType": "struct ProofVerificationParams",
          "components": [
            {
              "name": "vkeyHash",
              "type": "bytes32",
              "internalType": "bytes32"
            },
            {
              "name": "proof",
              "type": "bytes",
              "internalType": "bytes"
            },
            {
              "name": "publicInputs",
              "type": "bytes32[]",
              "internalType": "bytes32[]"
            },
            {
              "name": "committedInputs",
              "type": "bytes",
              "internalType": "bytes"
            },
            {
              "name": "committedInputCounts",
              "type": "uint256[]",
              "internalType": "uint256[]"
            },
            {
              "name": "validityPeriodInSeconds",
              "type": "uint256",
              "internalType": "uint256"
            },
            {
              "name": "domain",
              "type": "string",
              "internalType": "string"
            },
            {
              "name": "scope",
              "type": "string",
              "internalType": "string"
            },
            {
              "name": "devMode",
              "type": "bool",
              "internalType": "bool"
            }
          ]
        }
      ],
      "outputs": [
        {
          "name": "",
          "type": "bool",
          "internalType": "bool"
        }
      ],
      "stateMutability": "view"
    },
    {
      "type": "function",
      "name": "isBirthdateBetween",
      "inputs": [
        {
          "name": "minDate",
          "type": "uint256",
          "internalType": "uint256"
        },
        {
          "name": "maxDate",
          "type": "uint256",
          "internalType": "uint256"
        },
        {
          "name": "params",
          "type": "tuple",
          "internalType": "struct ProofVerificationParams",
          "components": [
            {
              "name": "vkeyHash",
              "type": "bytes32",
              "internalType": "bytes32"
            },
            {
              "name": "proof",
              "type": "bytes",
              "internalType": "bytes"
            },
            {
              "name": "publicInputs",
              "type": "bytes32[]",
              "internalType": "bytes32[]"
            },
            {
              "name": "committedInputs",
              "type": "bytes",
              "internalType": "bytes"
            },
            {
              "name": "committedInputCounts",
              "type": "uint256[]",
              "internalType": "uint256[]"
            },
            {
              "name": "validityPeriodInSeconds",
              "type": "uint256",
              "internalType": "uint256"
            },
            {
              "name": "domain",
              "type": "string",
              "internalType": "string"
            },
            {
              "name": "scope",
              "type": "string",
              "internalType": "string"
            },
            {
              "name": "devMode",
              "type": "bool",
              "internalType": "bool"
            }
          ]
        }
      ],
      "outputs": [
        {
          "name": "",
          "type": "bool",
          "internalType": "bool"
        }
      ],
      "stateMutability": "view"
    },
    {
      "type": "function",
      "name": "isBirthdateEqual",
      "inputs": [
        {
          "name": "date",
          "type": "uint256",
          "internalType": "uint256"
        },
        {
          "name": "params",
          "type": "tuple",
          "internalType": "struct ProofVerificationParams",
          "components": [
            {
              "name": "vkeyHash",
              "type": "bytes32",
              "internalType": "bytes32"
            },
            {
              "name": "proof",
              "type": "bytes",
              "internalType": "bytes"
            },
            {
              "name": "publicInputs",
              "type": "bytes32[]",
              "internalType": "bytes32[]"
            },
            {
              "name": "committedInputs",
              "type": "bytes",
              "internalType": "bytes"
            },
            {
              "name": "committedInputCounts",
              "type": "uint256[]",
              "internalType": "uint256[]"
            },
            {
              "name": "validityPeriodInSeconds",
              "type": "uint256",
              "internalType": "uint256"
            },
            {
              "name": "domain",
              "type": "string",
              "internalType": "string"
            },
            {
              "name": "scope",
              "type": "string",
              "internalType": "string"
            },
            {
              "name": "devMode",
              "type": "bool",
              "internalType": "bool"
            }
          ]
        }
      ],
      "outputs": [
        {
          "name": "",
          "type": "bool",
          "internalType": "bool"
        }
      ],
      "stateMutability": "view"
    },
    {
      "type": "function",
      "name": "isExpiryDateAfter",
      "inputs": [
        {
          "name": "minDate",
          "type": "uint256",
          "internalType": "uint256"
        },
        {
          "name": "params",
          "type": "tuple",
          "internalType": "struct ProofVerificationParams",
          "components": [
            {
              "name": "vkeyHash",
              "type": "bytes32",
              "internalType": "bytes32"
            },
            {
              "name": "proof",
              "type": "bytes",
              "internalType": "bytes"
            },
            {
              "name": "publicInputs",
              "type": "bytes32[]",
              "internalType": "bytes32[]"
            },
            {
              "name": "committedInputs",
              "type": "bytes",
              "internalType": "bytes"
            },
            {
              "name": "committedInputCounts",
              "type": "uint256[]",
              "internalType": "uint256[]"
            },
            {
              "name": "validityPeriodInSeconds",
              "type": "uint256",
              "internalType": "uint256"
            },
            {
              "name": "domain",
              "type": "string",
              "internalType": "string"
            },
            {
              "name": "scope",
              "type": "string",
              "internalType": "string"
            },
            {
              "name": "devMode",
              "type": "bool",
              "internalType": "bool"
            }
          ]
        }
      ],
      "outputs": [
        {
          "name": "",
          "type": "bool",
          "internalType": "bool"
        }
      ],
      "stateMutability": "view"
    },
    {
      "type": "function",
      "name": "isExpiryDateAfterOrEqual",
      "inputs": [
        {
          "name": "minDate",
          "type": "uint256",
          "internalType": "uint256"
        },
        {
          "name": "params",
          "type": "tuple",
          "internalType": "struct ProofVerificationParams",
          "components": [
            {
              "name": "vkeyHash",
              "type": "bytes32",
              "internalType": "bytes32"
            },
            {
              "name": "proof",
              "type": "bytes",
              "internalType": "bytes"
            },
            {
              "name": "publicInputs",
              "type": "bytes32[]",
              "internalType": "bytes32[]"
            },
            {
              "name": "committedInputs",
              "type": "bytes",
              "internalType": "bytes"
            },
            {
              "name": "committedInputCounts",
              "type": "uint256[]",
              "internalType": "uint256[]"
            },
            {
              "name": "validityPeriodInSeconds",
              "type": "uint256",
              "internalType": "uint256"
            },
            {
              "name": "domain",
              "type": "string",
              "internalType": "string"
            },
            {
              "name": "scope",
              "type": "string",
              "internalType": "string"
            },
            {
              "name": "devMode",
              "type": "bool",
              "internalType": "bool"
            }
          ]
        }
      ],
      "outputs": [
        {
          "name": "",
          "type": "bool",
          "internalType": "bool"
        }
      ],
      "stateMutability": "view"
    },
    {
      "type": "function",
      "name": "isExpiryDateBefore",
      "inputs": [
        {
          "name": "maxDate",
          "type": "uint256",
          "internalType": "uint256"
        },
        {
          "name": "params",
          "type": "tuple",
          "internalType": "struct ProofVerificationParams",
          "components": [
            {
              "name": "vkeyHash",
              "type": "bytes32",
              "internalType": "bytes32"
            },
            {
              "name": "proof",
              "type": "bytes",
              "internalType": "bytes"
            },
            {
              "name": "publicInputs",
              "type": "bytes32[]",
              "internalType": "bytes32[]"
            },
            {
              "name": "committedInputs",
              "type": "bytes",
              "internalType": "bytes"
            },
            {
              "name": "committedInputCounts",
              "type": "uint256[]",
              "internalType": "uint256[]"
            },
            {
              "name": "validityPeriodInSeconds",
              "type": "uint256",
              "internalType": "uint256"
            },
            {
              "name": "domain",
              "type": "string",
              "internalType": "string"
            },
            {
              "name": "scope",
              "type": "string",
              "internalType": "string"
            },
            {
              "name": "devMode",
              "type": "bool",
              "internalType": "bool"
            }
          ]
        }
      ],
      "outputs": [
        {
          "name": "",
          "type": "bool",
          "internalType": "bool"
        }
      ],
      "stateMutability": "view"
    },
    {
      "type": "function",
      "name": "isExpiryDateBeforeOrEqual",
      "inputs": [
        {
          "name": "maxDate",
          "type": "uint256",
          "internalType": "uint256"
        },
        {
          "name": "params",
          "type": "tuple",
          "internalType": "struct ProofVerificationParams",
          "components": [
            {
              "name": "vkeyHash",
              "type": "bytes32",
              "internalType": "bytes32"
            },
            {
              "name": "proof",
              "type": "bytes",
              "internalType": "bytes"
            },
            {
              "name": "publicInputs",
              "type": "bytes32[]",
              "internalType": "bytes32[]"
            },
            {
              "name": "committedInputs",
              "type": "bytes",
              "internalType": "bytes"
            },
            {
              "name": "committedInputCounts",
              "type": "uint256[]",
              "internalType": "uint256[]"
            },
            {
              "name": "validityPeriodInSeconds",
              "type": "uint256",
              "internalType": "uint256"
            },
            {
              "name": "domain",
              "type": "string",
              "internalType": "string"
            },
            {
              "name": "scope",
              "type": "string",
              "internalType": "string"
            },
            {
              "name": "devMode",
              "type": "bool",
              "internalType": "bool"
            }
          ]
        }
      ],
      "outputs": [
        {
          "name": "",
          "type": "bool",
          "internalType": "bool"
        }
      ],
      "stateMutability": "view"
    },
    {
      "type": "function",
      "name": "isExpiryDateBetween",
      "inputs": [
        {
          "name": "minDate",
          "type": "uint256",
          "internalType": "uint256"
        },
        {
          "name": "maxDate",
          "type": "uint256",
          "internalType": "uint256"
        },
        {
          "name": "params",
          "type": "tuple",
          "internalType": "struct ProofVerificationParams",
          "components": [
            {
              "name": "vkeyHash",
              "type": "bytes32",
              "internalType": "bytes32"
            },
            {
              "name": "proof",
              "type": "bytes",
              "internalType": "bytes"
            },
            {
              "name": "publicInputs",
              "type": "bytes32[]",
              "internalType": "bytes32[]"
            },
            {
              "name": "committedInputs",
              "type": "bytes",
              "internalType": "bytes"
            },
            {
              "name": "committedInputCounts",
              "type": "uint256[]",
              "internalType": "uint256[]"
            },
            {
              "name": "validityPeriodInSeconds",
              "type": "uint256",
              "internalType": "uint256"
            },
            {
              "name": "domain",
              "type": "string",
              "internalType": "string"
            },
            {
              "name": "scope",
              "type": "string",
              "internalType": "string"
            },
            {
              "name": "devMode",
              "type": "bool",
              "internalType": "bool"
            }
          ]
        }
      ],
      "outputs": [
        {
          "name": "",
          "type": "bool",
          "internalType": "bool"
        }
      ],
      "stateMutability": "view"
    },
    {
      "type": "function",
      "name": "isExpiryDateEqual",
      "inputs": [
        {
          "name": "date",
          "type": "uint256",
          "internalType": "uint256"
        },
        {
          "name": "params",
          "type": "tuple",
          "internalType": "struct ProofVerificationParams",
          "components": [
            {
              "name": "vkeyHash",
              "type": "bytes32",
              "internalType": "bytes32"
            },
            {
              "name": "proof",
              "type": "bytes",
              "internalType": "bytes"
            },
            {
              "name": "publicInputs",
              "type": "bytes32[]",
              "internalType": "bytes32[]"
            },
            {
              "name": "committedInputs",
              "type": "bytes",
              "internalType": "bytes"
            },
            {
              "name": "committedInputCounts",
              "type": "uint256[]",
              "internalType": "uint256[]"
            },
            {
              "name": "validityPeriodInSeconds",
              "type": "uint256",
              "internalType": "uint256"
            },
            {
              "name": "domain",
              "type": "string",
              "internalType": "string"
            },
            {
              "name": "scope",
              "type": "string",
              "internalType": "string"
            },
            {
              "name": "devMode",
              "type": "bool",
              "internalType": "bool"
            }
          ]
        }
      ],
      "outputs": [
        {
          "name": "",
          "type": "bool",
          "internalType": "bool"
        }
      ],
      "stateMutability": "view"
    },
    {
      "type": "function",
      "name": "isIssuingCountryIn",
      "inputs": [
        {
          "name": "countryList",
          "type": "string[]",
          "internalType": "string[]"
        },
        {
          "name": "params",
          "type": "tuple",
          "internalType": "struct ProofVerificationParams",
          "components": [
            {
              "name": "vkeyHash",
              "type": "bytes32",
              "internalType": "bytes32"
            },
            {
              "name": "proof",
              "type": "bytes",
              "internalType": "bytes"
            },
            {
              "name": "publicInputs",
              "type": "bytes32[]",
              "internalType": "bytes32[]"
            },
            {
              "name": "committedInputs",
              "type": "bytes",
              "internalType": "bytes"
            },
            {
              "name": "committedInputCounts",
              "type": "uint256[]",
              "internalType": "uint256[]"
            },
            {
              "name": "validityPeriodInSeconds",
              "type": "uint256",
              "internalType": "uint256"
            },
            {
              "name": "domain",
              "type": "string",
              "internalType": "string"
            },
            {
              "name": "scope",
              "type": "string",
              "internalType": "string"
            },
            {
              "name": "devMode",
              "type": "bool",
              "internalType": "bool"
            }
          ]
        }
      ],
      "outputs": [
        {
          "name": "",
          "type": "bool",
          "internalType": "bool"
        }
      ],
      "stateMutability": "pure"
    },
    {
      "type": "function",
      "name": "isIssuingCountryOut",
      "inputs": [
        {
          "name": "countryList",
          "type": "string[]",
          "internalType": "string[]"
        },
        {
          "name": "params",
          "type": "tuple",
          "internalType": "struct ProofVerificationParams",
          "components": [
            {
              "name": "vkeyHash",
              "type": "bytes32",
              "internalType": "bytes32"
            },
            {
              "name": "proof",
              "type": "bytes",
              "internalType": "bytes"
            },
            {
              "name": "publicInputs",
              "type": "bytes32[]",
              "internalType": "bytes32[]"
            },
            {
              "name": "committedInputs",
              "type": "bytes",
              "internalType": "bytes"
            },
            {
              "name": "committedInputCounts",
              "type": "uint256[]",
              "internalType": "uint256[]"
            },
            {
              "name": "validityPeriodInSeconds",
              "type": "uint256",
              "internalType": "uint256"
            },
            {
              "name": "domain",
              "type": "string",
              "internalType": "string"
            },
            {
              "name": "scope",
              "type": "string",
              "internalType": "string"
            },
            {
              "name": "devMode",
              "type": "bool",
              "internalType": "bool"
            }
          ]
        }
      ],
      "outputs": [
        {
          "name": "",
          "type": "bool",
          "internalType": "bool"
        }
      ],
      "stateMutability": "pure"
    },
    {
      "type": "function",
      "name": "isNationalityIn",
      "inputs": [
        {
          "name": "countryList",
          "type": "string[]",
          "internalType": "string[]"
        },
        {
          "name": "params",
          "type": "tuple",
          "internalType": "struct ProofVerificationParams",
          "components": [
            {
              "name": "vkeyHash",
              "type": "bytes32",
              "internalType": "bytes32"
            },
            {
              "name": "proof",
              "type": "bytes",
              "internalType": "bytes"
            },
            {
              "name": "publicInputs",
              "type": "bytes32[]",
              "internalType": "bytes32[]"
            },
            {
              "name": "committedInputs",
              "type": "bytes",
              "internalType": "bytes"
            },
            {
              "name": "committedInputCounts",
              "type": "uint256[]",
              "internalType": "uint256[]"
            },
            {
              "name": "validityPeriodInSeconds",
              "type": "uint256",
              "internalType": "uint256"
            },
            {
              "name": "domain",
              "type": "string",
              "internalType": "string"
            },
            {
              "name": "scope",
              "type": "string",
              "internalType": "string"
            },
            {
              "name": "devMode",
              "type": "bool",
              "internalType": "bool"
            }
          ]
        }
      ],
      "outputs": [
        {
          "name": "",
          "type": "bool",
          "internalType": "bool"
        }
      ],
      "stateMutability": "pure"
    },
    {
      "type": "function",
      "name": "isNationalityOut",
      "inputs": [
        {
          "name": "countryList",
          "type": "string[]",
          "internalType": "string[]"
        },
        {
          "name": "params",
          "type": "tuple",
          "internalType": "struct ProofVerificationParams",
          "components": [
            {
              "name": "vkeyHash",
              "type": "bytes32",
              "internalType": "bytes32"
            },
            {
              "name": "proof",
              "type": "bytes",
              "internalType": "bytes"
            },
            {
              "name": "publicInputs",
              "type": "bytes32[]",
              "internalType": "bytes32[]"
            },
            {
              "name": "committedInputs",
              "type": "bytes",
              "internalType": "bytes"
            },
            {
              "name": "committedInputCounts",
              "type": "uint256[]",
              "internalType": "uint256[]"
            },
            {
              "name": "validityPeriodInSeconds",
              "type": "uint256",
              "internalType": "uint256"
            },
            {
              "name": "domain",
              "type": "string",
              "internalType": "string"
            },
            {
              "name": "scope",
              "type": "string",
              "internalType": "string"
            },
            {
              "name": "devMode",
              "type": "bool",
              "internalType": "bool"
            }
          ]
        }
      ],
      "outputs": [
        {
          "name": "",
          "type": "bool",
          "internalType": "bool"
        }
      ],
      "stateMutability": "pure"
    },
    {
      "type": "function",
      "name": "paused",
      "inputs": [],
      "outputs": [
        {
          "name": "",
          "type": "bool",
          "internalType": "bool"
        }
      ],
      "stateMutability": "view"
    },
    {
      "type": "function",
      "name": "removeVerifiers",
      "inputs": [
        {
          "name": "vkeyHashes",
          "type": "bytes32[]",
          "internalType": "bytes32[]"
        }
      ],
      "outputs": [],
      "stateMutability": "nonpayable"
    },
    {
      "type": "function",
      "name": "rootRegistry",
      "inputs": [],
      "outputs": [
        {
          "name": "",
          "type": "address",
          "internalType": "contract IRootRegistry"
        }
      ],
      "stateMutability": "view"
    },
    {
      "type": "function",
      "name": "setPaused",
      "inputs": [
        {
          "name": "_paused",
          "type": "bool",
          "internalType": "bool"
        }
      ],
      "outputs": [],
      "stateMutability": "nonpayable"
    },
    {
      "type": "function",
      "name": "transferAdmin",
      "inputs": [
        {
          "name": "newAdmin",
          "type": "address",
          "internalType": "address"
        }
      ],
      "outputs": [],
      "stateMutability": "nonpayable"
    },
    {
      "type": "function",
      "name": "updateRootRegistry",
      "inputs": [
        {
          "name": "_rootRegistry",
          "type": "address",
          "internalType": "address"
        }
      ],
      "outputs": [],
      "stateMutability": "nonpayable"
    },
    {
      "type": "function",
      "name": "verifyProof",
      "inputs": [
        {
          "name": "params",
          "type": "tuple",
          "internalType": "struct ProofVerificationParams",
          "components": [
            {
              "name": "vkeyHash",
              "type": "bytes32",
              "internalType": "bytes32"
            },
            {
              "name": "proof",
              "type": "bytes",
              "internalType": "bytes"
            },
            {
              "name": "publicInputs",
              "type": "bytes32[]",
              "internalType": "bytes32[]"
            },
            {
              "name": "committedInputs",
              "type": "bytes",
              "internalType": "bytes"
            },
            {
              "name": "committedInputCounts",
              "type": "uint256[]",
              "internalType": "uint256[]"
            },
            {
              "name": "validityPeriodInSeconds",
              "type": "uint256",
              "internalType": "uint256"
            },
            {
              "name": "domain",
              "type": "string",
              "internalType": "string"
            },
            {
              "name": "scope",
              "type": "string",
              "internalType": "string"
            },
            {
              "name": "devMode",
              "type": "bool",
              "internalType": "bool"
            }
          ]
        }
      ],
      "outputs": [
        {
          "name": "isValid",
          "type": "bool",
          "internalType": "bool"
        },
        {
          "name": "uniqueIdentifier",
          "type": "bytes32",
          "internalType": "bytes32"
        }
      ],
      "stateMutability": "view"
    },
    {
      "type": "function",
      "name": "verifyScopes",
      "inputs": [
        {
          "name": "publicInputs",
          "type": "bytes32[]",
          "internalType": "bytes32[]"
        },
        {
          "name": "domain",
          "type": "string",
          "internalType": "string"
        },
        {
          "name": "scope",
          "type": "string",
          "internalType": "string"
        }
      ],
      "outputs": [
        {
          "name": "",
          "type": "bool",
          "internalType": "bool"
        }
      ],
      "stateMutability": "pure"
    },
    {
      "type": "function",
      "name": "vkeyHashToVerifier",
      "inputs": [
        {
          "name": "",
          "type": "bytes32",
          "internalType": "bytes32"
        }
      ],
      "outputs": [
        {
          "name": "",
          "type": "address",
          "internalType": "address"
        }
      ],
      "stateMutability": "view"
    },
    {
      "type": "event",
      "name": "AdminUpdated",
      "inputs": [
        {
          "name": "oldAdmin",
          "type": "address",
          "indexed": true,
          "internalType": "address"
        },
        {
          "name": "newAdmin",
          "type": "address",
          "indexed": true,
          "internalType": "address"
        }
      ],
      "anonymous": false
    },
    {
      "type": "event",
      "name": "CertificateRegistryRootAdded",
      "inputs": [
        {
          "name": "certificateRegistryRoot",
          "type": "bytes32",
          "indexed": true,
          "internalType": "bytes32"
        }
      ],
      "anonymous": false
    },
    {
      "type": "event",
      "name": "CertificateRegistryRootRemoved",
      "inputs": [
        {
          "name": "certificateRegistryRoot",
          "type": "bytes32",
          "indexed": true,
          "internalType": "bytes32"
        }
      ],
      "anonymous": false
    },
    {
      "type": "event",
      "name": "PausedStatusChanged",
      "inputs": [
        {
          "name": "paused",
          "type": "bool",
          "indexed": false,
          "internalType": "bool"
        }
      ],
      "anonymous": false
    },
    {
      "type": "event",
      "name": "SanctionsTreesRootUpdates",
      "inputs": [
        {
          "name": "_sanctionsTreesRoot",
          "type": "bytes32",
          "indexed": true,
          "internalType": "bytes32"
        }
      ],
      "anonymous": false
    },
    {
      "type": "event",
      "name": "VerifierAdded",
      "inputs": [
        {
          "name": "vkeyHash",
          "type": "bytes32",
          "indexed": true,
          "internalType": "bytes32"
        },
        {
          "name": "verifier",
          "type": "address",
          "indexed": true,
          "internalType": "address"
        }
      ],
      "anonymous": false
    },
    {
      "type": "event",
      "name": "VerifierRemoved",
      "inputs": [
        {
          "name": "vkeyHash",
          "type": "bytes32",
          "indexed": true,
          "internalType": "bytes32"
        }
      ],
      "anonymous": false
    },
    {
      "type": "event",
      "name": "ZKPassportVerifierDeployed",
      "inputs": [
        {
          "name": "admin",
          "type": "address",
          "indexed": true,
          "internalType": "address"
        },
        {
          "name": "timestamp",
          "type": "uint256",
          "indexed": false,
          "internalType": "uint256"
        }
      ],
      "anonymous": false
    }
  ],
  "bytecode": {
    "object": "0x608060405234801561000f575f5ffd5b506040516137fc3803806137fc83398101604081905261002e916100f6565b6001600160a01b0381166100945760405162461bcd60e51b8152602060048201526024808201527f526f6f742072656769737472792063616e6e6f74206265207a65726f206164646044820152637265737360e01b606482015260840160405180910390fd5b5f8054336001600160a01b03199182168117909255600280549091166001600160a01b0384161790556040514281527ff29b53747ae7121d0958d490ad3d5cf6767119b0fdbd8389d918de3a12cf5a299060200160405180910390a250610123565b5f60208284031215610106575f5ffd5b81516001600160a01b038116811461011c575f5ffd5b9392505050565b6136cc806101305f395ff3fe608060405234801561000f575f5ffd5b5060043610610234575f3560e01c80638163f23111610135578063c4560786116100b4578063e420e35411610079578063e420e35414610520578063e718bc3214610533578063ec46f77414610546578063f851a44014610559578063f87e19b11461056b575f5ffd5b8063c4560786146104aa578063cfd9464a146104bd578063d3f6ffff146104d0578063d7bf616a146104e3578063deb7c0591461050d575f5ffd5b8063a88f1cef116100fa578063a88f1cef1461044b578063aa1346ea1461045e578063b96b161c14610471578063bf73c26c14610484578063c0940ebd14610497575f5ffd5b80638163f231146103bf578063847755e3146103ff5780638d6937b814610412578063921076c714610425578063a6df2c0114610438575f5ffd5b80634c127428116101c1578063652ba33d11610186578063652ba33d14610376578063653cfd811461037e5780636c40d5d614610391578063704876d61461039957806375829def146103ac575f5ffd5b80634c1274281461030a57806354dbe4d11461031d57806359545f45146103305780635c975abb1461035057806362067c8214610363575f5ffd5b80631e26a9dc116102075780631e26a9dc1461029b57806337889655146102bb5780633a86bd3d146102ce57806341a0e2c2146102e157806346bd0a16146102f7575f5ffd5b806304951b86146102385780630b90581b1461026057806316c38b3c1461027357806318677f2a14610288575b5f5ffd5b61024b610246366004612744565b61057e565b60405190151581526020015b60405180910390f35b61024b61026e366004612744565b6105a0565b610286610281366004612794565b6105ae565b005b6102866102963660046127c3565b610637565b6102ae6102a93660046127de565b6106e4565b604051610257919061285a565b61024b6102c9366004612960565b610847565b61024b6102dc366004612a4b565b61085c565b6102e9600181565b604051908152602001610257565b61024b610305366004612b53565b610869565b61024b610318366004612744565b610881565b61024b61032b366004612960565b61088e565b61034361033e366004612b9e565b6109df565b6040516102579190612bcf565b5f5461024b90600160a01b900460ff1681565b61024b610371366004612c05565b610b25565b6102e9600381565b61028661038c366004612b9e565b610d96565b6102e9600281565b61024b6103a7366004612744565b610e38565b6102866103ba3660046127c3565b610e45565b6103e76103cd366004612c4c565b60016020525f90815260409020546001600160a01b031681565b6040516001600160a01b039091168152602001610257565b61024b61040d366004612ce7565b610f13565b610286610420366004612d83565b6110db565b61024b610433366004612744565b61119b565b610286610446366004612dc1565b6111b4565b61024b610459366004612744565b6112de565b61024b61046c366004612960565b6112f7565b6002546103e7906001600160a01b031681565b61024b610492366004612960565b611448565b61024b6104a5366004612960565b6114af565b61024b6104b8366004612b53565b6114bb565b61024b6104cb366004612744565b6114c9565b61024b6104de366004612744565b6114d7565b6104f66104f1366004612b9e565b6114f0565b604080519215158352602083019190915201610257565b61024b61051b366004612744565b611997565b61024b61052e366004612a4b565b6119a4565b61024b610541366004612744565b6119b1565b61024b610554366004612a4b565b6119be565b5f546103e7906001600160a01b031681565b61024b610579366004612a4b565b6119cb565b5f61059761058f8462015180612e3f565b6002846119d8565b90505b92915050565b5f6105978384600285611c33565b5f546001600160a01b031633146105e05760405162461bcd60e51b81526004016105d790612e52565b60405180910390fd5b5f8054821515600160a01b0260ff60a01b199091161790556040517f9a506b30e47f3823b09f67e4c0dfa5c3d8023b71825b7ceaa97677129128c9c59061062c90831515815260200190565b60405180910390a150565b5f546001600160a01b031633146106605760405162461bcd60e51b81526004016105d790612e52565b6001600160a01b0381166106c25760405162461bcd60e51b8152602060048201526024808201527f526f6f742072656769737472792063616e6e6f74206265207a65726f206164646044820152637265737360e01b60648201526084016105d7565b600280546001600160a01b0319166001600160a01b0392909216919091179055565b61072c60405180610100016040528060608152602001606081526020016060815260200160608152602001606081526020016060815260200160608152602001606081525090565b5f73__$144f4fe859debe4776cdef2b99f7b97a42$__63ddf3eec96107546060870187612e89565b6107616080890189612ecb565b6040518563ffffffff1660e01b81526004016107809493929190612f68565b5f60405180830381865af415801561079a573d5f5f3e3d5ffd5b505050506040513d5f823e601f3d908101601f191682016040526107c19190810190612fdd565b6040516301e9bf5760e11b815290925073__$144f4fe859debe4776cdef2b99f7b97a42$__91506303d37eae906107fe9084908790600401613036565b5f60405180830381865af4158015610818573d5f5f3e3d5ffd5b505050506040513d5f823e601f3d908101601f1916820160405261083f9190810190613059565b949350505050565b5f6105976108568460016131ea565b8361088e565b5f61059783600784611f71565b5f6108778484600385611c33565b90505b9392505050565b5f610597836003846119d8565b5f80808073__$144f4fe859debe4776cdef2b99f7b97a42$__63b2b37a4c6108b96060880188612e89565b6108c660808a018a612ecb565b6040518563ffffffff1660e01b81526004016108e59493929190612f68565b606060405180830381865af4158015610900573d5f5f3e3d5ffd5b505050506040513d601f19601f820116820180604052508101906109249190613203565b925092509250610938838660a0013561209b565b6109545760405162461bcd60e51b81526004016105d790613244565b60ff8116156109cd576040805162461bcd60e51b81526020600482015260248101919091527f5468652070726f6f6620757070657220626f756e64206d75737420626520302c60448201527f20706c65617365207573652069734167654265747765656e20696e737465616460648201526084016105d7565b5060ff85811691161491505092915050565b60408051606080820183525f8083526020830152918101919091525f73__$144f4fe859debe4776cdef2b99f7b97a42$__634601173c610a226060860186612e89565b610a2f6080880188612ecb565b6040518563ffffffff1660e01b8152600401610a4e9493929190612f68565b5f60405180830381865af4158015610a68573d5f5f3e3d5ffd5b505050506040513d5f823e601f3d908101601f19168201604052610a8f91908101906132b5565b604051630578c5d360e11b815290915073__$144f4fe859debe4776cdef2b99f7b97a42$__90630af18ba690610ac99084906004016132e6565b5f60405180830381865af4158015610ae3573d5f5f3e3d5ffd5b505050506040513d5f823e601f3d908101601f19168201604052610b0a91908101906132f8565b604085015260208401526001600160a01b0316825250919050565b5f80808073__$144f4fe859debe4776cdef2b99f7b97a42$__63b2b37a4c610b506060880188612e89565b610b5d60808a018a612ecb565b6040518563ffffffff1660e01b8152600401610b7c9493929190612f68565b606060405180830381865af4158015610b97573d5f5f3e3d5ffd5b505050506040513d601f19601f82011682018060405250810190610bbb9190613203565b925092509250610bcf838660a0013561209b565b610beb5760405162461bcd60e51b81526004016105d790613244565b8560ff168760ff161115610c575760405162461bcd60e51b815260206004820152602d60248201527f4d696e20616765206d757374206265206c657373207468616e206f722065717560448201526c616c20746f206d61782061676560981b60648201526084016105d7565b8160ff165f03610ce45760405162461bcd60e51b815260206004820152604c60248201527f5468652070726f6f66206c6f77657220626f756e64206d757374206265206e6f60448201527f6e2d7a65726f2c20706c656173652075736520697341676542656c6f774f724560648201526b1c5d585b081a5b9cdd19585960a21b608482015260a4016105d7565b8060ff165f03610d715760405162461bcd60e51b815260206004820152604c60248201527f5468652070726f6f6620757070657220626f756e64206d757374206265206e6f60448201527f6e2d7a65726f2c20706c656173652075736520697341676541626f76654f724560648201526b1c5d585b081a5b9cdd19585960a21b608482015260a4016105d7565b8160ff168760ff16148015610d8b57508060ff168660ff16145b979650505050505050565b5f73__$144f4fe859debe4776cdef2b99f7b97a42$__63fbd24457610dbe6060850185612e89565b610dcb6080870187612ecb565b6040518563ffffffff1660e01b8152600401610dea9493929190612f68565b602060405180830381865af4158015610e05573d5f5f3e3d5ffd5b505050506040513d601f19601f82011682018060405250810190610e299190613343565b9050610e34816120c8565b5050565b5f610597836002846119d8565b5f546001600160a01b03163314610e6e5760405162461bcd60e51b81526004016105d790612e52565b6001600160a01b038116610ec45760405162461bcd60e51b815260206004820152601c60248201527f41646d696e2063616e6e6f74206265207a65726f20616464726573730000000060448201526064016105d7565b5f80546001600160a01b038381166001600160a01b0319831681178455604051919092169283917f101b8081ff3b56bbf45deb824d86a3b0fd38b7e3dd42421105cf8abe9106db0b9190a35050565b5f5f610f5386868080601f0160208091040260200160405190810160405280939291908181526020018383808284375f9201919091525061218992505050565b610fcd57600860028787604051602001610f6e92919061335a565b60408051601f1981840301815290829052610f8891613369565b602060405180830381855afa158015610fa3573d5f5f3e3d5ffd5b5050506040513d601f19601f82011682018060405250810190610fc69190613343565b901c610fcf565b5f5b90505f61101085858080601f0160208091040260200160405190810160405280939291908181526020018383808284375f9201919091525061218992505050565b61108a5760086002868660405160200161102b92919061335a565b60408051601f198184030181529082905261104591613369565b602060405180830381855afa158015611060573d5f5f3e3d5ffd5b5050506040513d601f19601f820116820180604052508101906110839190613343565b901c61108c565b5f5b905081898960038181106110a2576110a261337f565b905060200201351480156110ce575080898960048181106110c5576110c561337f565b90506020020135145b9998505050505050505050565b5f546001600160a01b031633146111045760405162461bcd60e51b81526004016105d790612e52565b5f5b818110156111965760015f8484848181106111235761112361337f565b602090810292909201358352508101919091526040015f2080546001600160a01b031916905582828281811061115b5761115b61337f565b905060200201357f6fdcbcf8f91bc23f2c9dcfe8fe01d80d1b1afbbf207298e94c0171ccc587424c60405160405180910390a2600101611106565b505050565b5f6105976111ac6201518085613393565b60028461218e565b5f546001600160a01b031633146111dd5760405162461bcd60e51b81526004016105d790612e52565b5f5b838110156112d7578282828181106111f9576111f961337f565b905060200201602081019061120e91906127c3565b60015f8787858181106112235761122361337f565b9050602002013581526020019081526020015f205f6101000a8154816001600160a01b0302191690836001600160a01b0316021790555082828281811061126c5761126c61337f565b905060200201602081019061128191906127c3565b6001600160a01b031685858381811061129c5761129c61337f565b905060200201357f636107338a3eb46f1f60562462f3ec11393d35fbc965991aaade3b9e7d89c3f560405160405180910390a36001016111df565b5050505050565b5f6105976112ef6201518085613393565b60038461218e565b5f80808073__$144f4fe859debe4776cdef2b99f7b97a42$__63b2b37a4c6113226060880188612e89565b61132f60808a018a612ecb565b6040518563ffffffff1660e01b815260040161134e9493929190612f68565b606060405180830381865af4158015611369573d5f5f3e3d5ffd5b505050506040513d601f19601f8201168201806040525081019061138d9190613203565b9250925092506113a1838660a0013561209b565b6113bd5760405162461bcd60e51b81526004016105d790613244565b60ff821615611436576040805162461bcd60e51b81526020600482015260248101919091527f5468652070726f6f66206c6f77657220626f756e64206d75737420626520302c60448201527f20706c65617365207573652069734167654265747765656e20696e737465616460648201526084016105d7565b60ff8681169116149250505092915050565b5f5f8360ff161161149b5760405162461bcd60e51b815260206004820152601e60248201527f4d617820616765206d7573742062652067726561746572207468616e2030000060448201526064016105d7565b6105976114a96001856133a6565b836112f7565b5f610597838484610b25565b5f6108778484600285611c33565b5f6105978384600385611c33565b5f6105976114e88462015180612e3f565b6003846119d8565b5f80548190600160a01b900460ff16156115415760405162461bcd60e51b815260206004820152601260248201527110dbdb9d1c9858dd081a5cc81c185d5cd95960721b60448201526064016105d7565b5f61154c8435612392565b905061157a61155e6040860186612ecb565b5f81811061156e5761156e61337f565b905060200201356123eb565b6115a761158a6040860186612ecb565b600181811061159b5761159b61337f565b905060200201356124b3565b6115f16115b76040860186612ecb565b808060200260200160405190810160405280939291908181526020018383602002808284375f9201919091525050505060a0860135612571565b6116595760405162461bcd60e51b815260206004820152603360248201527f5468652070726f6f66207761732067656e657261746564206f757473696465206044820152721d1a19481d985b1a591a5d1e481c195c9a5bd9606a1b60648201526084016105d7565b6116836116696040860186612ecb565b61167660c0880188612e89565b61040d60e08a018a612e89565b6116cf5760405162461bcd60e51b815260206004820152601760248201527f496e76616c696420646f6d61696e206f722073636f706500000000000000000060448201526064016105d7565b61178a6116df6040860186612ecb565b60059060016116f160408a018a612ecb565b6116fc929150613393565b92611709939291906133bf565b808060200260200160405190810160405280939291908181526020018383602002808284375f92019190915250611747925050506060870187612e89565b6117546080890189612ecb565b808060200260200160405190810160405280939291908181526020018383602002808284375f9201919091525061259c92505050565b60016117996040860186612ecb565b60016117a86040890189612ecb565b6117b3929150613393565b8181106117c2576117c261337f565b905060200201351415806117e357506117e361012085016101008601612794565b6118405760405162461bcd60e51b815260206004820152602860248201527f4d6f636b2070726f6f667320617265206f6e6c7920616c6c6f77656420696e20604482015267646576206d6f646560c01b60648201526084016105d7565b600661184f6040860186612ecb565b61185a929150613393565b6118676080860186612ecb565b9050146118c45760405162461bcd60e51b815260206004820152602560248201527f496e76616c696420636f6d6d697474656420696e70757420636f756e7473206c6044820152640cadccee8d60db1b60648201526084016105d7565b6001600160a01b03811663ea50d0e46118e06020870187612e89565b6118ed6040890189612ecb565b6040518563ffffffff1660e01b815260040161190c9493929190612f68565b602060405180830381865afa158015611927573d5f5f3e3d5ffd5b505050506040513d601f19601f8201168201806040525081019061194b91906133ea565b92505f600161195d6040870187612ecb565b611968929150613393565b90506119776040860186612ecb565b828181106119875761198761337f565b9050602002013592505050915091565b5f6105978360028461218e565b5f61059783600584611f71565b5f6105978360038461218e565b5f61059783600684611f71565b5f61059783600484611f71565b5f80808073__$144f4fe859debe4776cdef2b99f7b97a42$__638a8b3f92611a036060880188612e89565b611a1060808a018a612ecb565b8b6040518663ffffffff1660e01b8152600401611a31959493929190613419565b606060405180830381865af4158015611a4c573d5f5f3e3d5ffd5b505050506040513d601f19601f82011682018060405250810190611a70919061346e565b925092509250611a84838660a0013561209b565b611aa05760405162461bcd60e51b81526004016105d790613244565b6002866009811115611ab457611ab4613405565b1480611ad157506003866009811115611acf57611acf613405565b145b611aed5760405162461bcd60e51b81526004016105d790613499565b6002866009811115611b0157611b01613405565b03611ba3578015611b895760405162461bcd60e51b815260206004820152604660248201527f5468652070726f6f6620757070657220626f756e64206d75737420626520302c60448201527f20706c65617365207573652069734269727468646174654265747765656e20696064820152651b9cdd19585960d21b608482015260a4016105d7565b611b976383aa7e8083613393565b8714935050505061087a565b8015611c275760405162461bcd60e51b815260206004820152604760248201527f5468652070726f6f6620757070657220626f756e64206d75737420626520302c60448201527f20706c6561736520757365206973457870697279446174654265747765656e206064820152661a5b9cdd19585960ca1b608482015260a4016105d7565b508514915061087a9050565b5f80808073__$144f4fe859debe4776cdef2b99f7b97a42$__638a8b3f92611c5e6060880188612e89565b611c6b60808a018a612ecb565b8b6040518663ffffffff1660e01b8152600401611c8c959493929190613419565b606060405180830381865af4158015611ca7573d5f5f3e3d5ffd5b505050506040513d601f19601f82011682018060405250810190611ccb919061346e565b925092509250611cdf838660a0013561209b565b611cfb5760405162461bcd60e51b81526004016105d790613244565b86881115611d635760405162461bcd60e51b815260206004820152602f60248201527f4d696e2064617465206d757374206265206c657373207468616e206f7220657160448201526e75616c20746f206d6178206461746560881b60648201526084016105d7565b6002866009811115611d7757611d77613405565b1480611d9457506003866009811115611d9257611d92613405565b145b611db05760405162461bcd60e51b81526004016105d790613499565b6002866009811115611dc457611dc4613405565b03611eaa57815f03611e595760405162461bcd60e51b815260206004820152605260248201527f5468652070726f6f66206c6f77657220626f756e64206d757374206265206e6f60448201527f6e2d7a65726f2c20706c656173652075736520697342697274686461746542656064820152711b1bddd3dc915c5d585b081a5b9cdd19585960721b608482015260a4016105d7565b805f03611e785760405162461bcd60e51b81526004016105d7906134c5565b611e866383aa7e8083613393565b88148015611ea05750611e9d6383aa7e8082613393565b87145b935050505061083f565b815f03611f3b5760405162461bcd60e51b815260206004820152605360248201527f5468652070726f6f66206c6f77657220626f756e64206d757374206265206e6f60448201527f6e2d7a65726f2c20706c65617365207573652069734578706972794461746542606482015272195b1bddd3dc915c5d585b081a5b9cdd195859606a1b608482015260a4016105d7565b805f03611f5a5760405162461bcd60e51b81526004016105d79061353d565b8188148015611ea057509095149695505050505050565b5f808073__$144f4fe859debe4776cdef2b99f7b97a42$__6384d40ca0611f9b6060870187612e89565b611fa86080890189612ecb565b8a6040518663ffffffff1660e01b8152600401611fc9959493929190613419565b5f60405180830381865af4158015611fe3573d5f5f3e3d5ffd5b505050506040513d5f823e601f3d908101601f1916820160405261200a91908101906135b6565b9150915080865114612020575f9250505061087a565b5f5b8181101561208e5761207787828151811061203f5761203f61337f565b60200260200101518483815181106120595761205961337f565b60200260200101518051602091820120825192909101919091201490565b612086575f935050505061087a565b600101612022565b5060019695505050505050565b5f806120a78385612e3f565b90508342101580156120b857508381115b801561083f575042109392505050565b6002546040516383578c1160e01b815260036004820152602481018390526001600160a01b03909116906383578c1190604401602060405180830381865afa158015612116573d5f5f3e3d5ffd5b505050506040513d601f19601f8201168201806040525081019061213a91906133ea565b6121865760405162461bcd60e51b815260206004820152601f60248201527f496e76616c69642073616e6374696f6e7320726567697374727920726f6f740060448201526064016105d7565b50565b511590565b5f80808073__$144f4fe859debe4776cdef2b99f7b97a42$__638a8b3f926121b96060880188612e89565b6121c660808a018a612ecb565b8b6040518663ffffffff1660e01b81526004016121e7959493929190613419565b606060405180830381865af4158015612202573d5f5f3e3d5ffd5b505050506040513d601f19601f82011682018060405250810190612226919061346e565b92509250925061223a838660a0013561209b565b6122565760405162461bcd60e51b81526004016105d790613244565b81156122d45760405162461bcd60e51b815260206004820152604160248201527f5468652070726f6f66206c6f77657220626f756e64206d75737420626520302c60448201527f20706c6561736520757365206973446174654265747765656e20696e737465616064820152601960fa1b608482015260a4016105d7565b60028660098111156122e8576122e8613405565b14806123055750600386600981111561230357612303613405565b145b6123215760405162461bcd60e51b81526004016105d790613499565b600286600981111561233557612335613405565b0361236757805f036123595760405162461bcd60e51b81526004016105d7906134c5565b611b976383aa7e8082613393565b805f036123865760405162461bcd60e51b81526004016105d79061353d565b8614925061087a915050565b5f818152600160205260408120546001600160a01b03168061059a5760405162461bcd60e51b815260206004820152601260248201527115995c9a599a595c881b9bdd08199bdd5b9960721b60448201526064016105d7565b6002546040516383578c1160e01b815260016004820152602481018390526001600160a01b03909116906383578c1190604401602060405180830381865afa158015612439573d5f5f3e3d5ffd5b505050506040513d601f19601f8201168201806040525081019061245d91906133ea565b6121865760405162461bcd60e51b815260206004820152602160248201527f496e76616c696420636572746966696361746520726567697374727920726f6f6044820152601d60fa1b60648201526084016105d7565b600280546040516383578c1160e01b81526004810192909252602482018390526001600160a01b0316906383578c1190604401602060405180830381865afa158015612501573d5f5f3e3d5ffd5b505050506040513d601f19601f8201168201806040525081019061252591906133ea565b6121865760405162461bcd60e51b815260206004820152601d60248201527f496e76616c6964206369726375697420726567697374727920726f6f7400000060448201526064016105d7565b5f5f836002815181106125865761258661337f565b60200260200101515f1c905061083f818461209b565b5f805b82518110156126dd575f60086002878786908887815181106125c3576125c361337f565b6020026020010151886125d69190612e3f565b926125e39392919061366f565b6040516020016125f492919061335a565b60408051601f198184030181529082905261260e91613369565b602060405180830381855afa158015612629573d5f5f3e3d5ffd5b5050506040513d601f19601f8201168201806040525081019061264c9190613343565b901c90508682815181106126625761266261337f565b602002602001015181146126ad5760405162461bcd60e51b8152602060048201526012602482015271125b9d985b1a590818dbdb5b5a5d1b595b9d60721b60448201526064016105d7565b8382815181106126bf576126bf61337f565b6020026020010151836126d29190612e3f565b92505060010161259f565b508083146112d75760405162461bcd60e51b815260206004820152601f60248201527f496e76616c696420636f6d6d697474656420696e70757473206c656e6774680060448201526064016105d7565b5f610120828403121561273e575f5ffd5b50919050565b5f5f60408385031215612755575f5ffd5b8235915060208301356001600160401b03811115612771575f5ffd5b61277d8582860161272d565b9150509250929050565b8015158114612186575f5ffd5b5f602082840312156127a4575f5ffd5b813561087a81612787565b6001600160a01b0381168114612186575f5ffd5b5f602082840312156127d3575f5ffd5b813561087a816127af565b5f5f604083850312156127ef575f5ffd5b82356001600160401b03811115612804575f5ffd5b6128108582860161272d565b925050602083013561282181612787565b809150509250929050565b5f81518084528060208401602086015e5f602082860101526020601f19601f83011685010191505092915050565b602081525f8251610100602084015261287761012084018261282c565b90506020840151601f19848303016040850152612894828261282c565b9150506040840151601f198483030160608501526128b2828261282c565b9150506060840151601f198483030160808501526128d0828261282c565b9150506080840151601f198483030160a08501526128ee828261282c565b91505060a0840151601f198483030160c085015261290c828261282c565b91505060c0840151601f198483030160e085015261292a828261282c565b91505060e0840151601f1984830301610100850152612949828261282c565b95945050505050565b60ff81168114612186575f5ffd5b5f5f60408385031215612971575f5ffd5b823561297c81612952565b915060208301356001600160401b03811115612771575f5ffd5b634e487b7160e01b5f52604160045260245ffd5b60405161010081016001600160401b03811182821017156129cd576129cd612996565b60405290565b604051601f8201601f191681016001600160401b03811182821017156129fb576129fb612996565b604052919050565b5f6001600160401b03821115612a1b57612a1b612996565b5060051b60200190565b5f6001600160401b03821115612a3d57612a3d612996565b50601f01601f191660200190565b5f5f60408385031215612a5c575f5ffd5b82356001600160401b03811115612a71575f5ffd5b8301601f81018513612a81575f5ffd5b8035612a94612a8f82612a03565b6129d3565b8082825260208201915060208360051b850101925087831115612ab5575f5ffd5b602084015b83811015612b355780356001600160401b03811115612ad7575f5ffd5b8501603f81018a13612ae7575f5ffd5b6020810135612af8612a8f82612a25565b8181526040838301018c1015612b0c575f5ffd5b816040840160208301375f60208383010152808652505050602083019250602081019050612aba565b50945050505060208301356001600160401b03811115612771575f5ffd5b5f5f5f60608486031215612b65575f5ffd5b833592506020840135915060408401356001600160401b03811115612b88575f5ffd5b612b948682870161272d565b9150509250925092565b5f60208284031215612bae575f5ffd5b81356001600160401b03811115612bc3575f5ffd5b61083f8482850161272d565b6020815260018060a01b038251166020820152602082015160408201525f604083015160608084015261083f608084018261282c565b5f5f5f60608486031215612c17575f5ffd5b8335612c2281612952565b92506020840135612c3281612952565b915060408401356001600160401b03811115612b88575f5ffd5b5f60208284031215612c5c575f5ffd5b5035919050565b5f5f83601f840112612c73575f5ffd5b5081356001600160401b03811115612c89575f5ffd5b6020830191508360208260051b8501011115612ca3575f5ffd5b9250929050565b5f5f83601f840112612cba575f5ffd5b5081356001600160401b03811115612cd0575f5ffd5b602083019150836020828501011115612ca3575f5ffd5b5f5f5f5f5f5f60608789031215612cfc575f5ffd5b86356001600160401b03811115612d11575f5ffd5b612d1d89828a01612c63565b90975095505060208701356001600160401b03811115612d3b575f5ffd5b612d4789828a01612caa565b90955093505060408701356001600160401b03811115612d65575f5ffd5b612d7189828a01612caa565b979a9699509497509295939492505050565b5f5f60208385031215612d94575f5ffd5b82356001600160401b03811115612da9575f5ffd5b612db585828601612c63565b90969095509350505050565b5f5f5f5f60408587031215612dd4575f5ffd5b84356001600160401b03811115612de9575f5ffd5b612df587828801612c63565b90955093505060208501356001600160401b03811115612e13575f5ffd5b612e1f87828801612c63565b95989497509550505050565b634e487b7160e01b5f52601160045260245ffd5b8082018082111561059a5761059a612e2b565b6020808252601a908201527f4e6f7420617574686f72697a65643a2061646d696e206f6e6c79000000000000604082015260600190565b5f5f8335601e19843603018112612e9e575f5ffd5b8301803591506001600160401b03821115612eb7575f5ffd5b602001915036819003821315612ca3575f5ffd5b5f5f8335601e19843603018112612ee0575f5ffd5b8301803591506001600160401b03821115612ef9575f5ffd5b6020019150600581901b3603821315612ca3575f5ffd5b81835281816020850137505f828201602090810191909152601f909101601f19169091010190565b8183525f6001600160fb1b03831115612f4f575f5ffd5b8260051b80836020870137939093016020019392505050565b604081525f612f7b604083018688612f10565b8281036020840152610d8b818587612f38565b5f82601f830112612f9d575f5ffd5b8151602083015f612fb0612a8f84612a25565b9050828152858383011115612fc3575f5ffd5b8282602083015e5f92810160200192909252509392505050565b5f5f60408385031215612fee575f5ffd5b82516001600160401b03811115613003575f5ffd5b61300f85828601612f8e565b92505060208301516001600160401b0381111561302a575f5ffd5b61277d85828601612f8e565b604081525f613048604083018561282c565b905082151560208301529392505050565b5f60208284031215613069575f5ffd5b81516001600160401b0381111561307e575f5ffd5b82016101008185031215613090575f5ffd5b6130986129aa565b81516001600160401b038111156130ad575f5ffd5b6130b986828501612f8e565b82525060208201516001600160401b038111156130d4575f5ffd5b6130e086828501612f8e565b60208301525060408201516001600160401b038111156130fe575f5ffd5b61310a86828501612f8e565b60408301525060608201516001600160401b03811115613128575f5ffd5b61313486828501612f8e565b60608301525060808201516001600160401b03811115613152575f5ffd5b61315e86828501612f8e565b60808301525060a08201516001600160401b0381111561317c575f5ffd5b61318886828501612f8e565b60a08301525060c08201516001600160401b038111156131a6575f5ffd5b6131b286828501612f8e565b60c08301525060e08201516001600160401b038111156131d0575f5ffd5b6131dc86828501612f8e565b60e083015250949350505050565b60ff818116838216019081111561059a5761059a612e2b565b5f5f5f60608486031215613215575f5ffd5b8351602085015190935061322881612952565b604085015190925061323981612952565b809150509250925092565b6020808252604b908201527f5468652063757272656e742064617465207573656420696e207468652070726f60408201527f6f6620646f6573206e6f742066616c6c2077697468696e207468652076616c6960608201526a191a5d1e481c195c9a5bd960aa1b608082015260a00190565b5f602082840312156132c5575f5ffd5b81516001600160401b038111156132da575f5ffd5b61083f84828501612f8e565b602081525f610597602083018461282c565b5f5f5f6060848603121561330a575f5ffd5b8351613315816127af565b6020850151604086015191945092506001600160401b03811115613337575f5ffd5b612b9486828701612f8e565b5f60208284031215613353575f5ffd5b5051919050565b818382375f9101908152919050565b5f82518060208501845e5f920191825250919050565b634e487b7160e01b5f52603260045260245ffd5b8181038181111561059a5761059a612e2b565b60ff828116828216039081111561059a5761059a612e2b565b5f5f858511156133cd575f5ffd5b838611156133d9575f5ffd5b5050600583901b0193919092039150565b5f602082840312156133fa575f5ffd5b815161087a81612787565b634e487b7160e01b5f52602160045260245ffd5b606081525f61342c606083018789612f10565b828103602084015261343f818688612f38565b915050600a831061345e57634e487b7160e01b5f52602160045260245ffd5b8260408301529695505050505050565b5f5f5f60608486031215613480575f5ffd5b5050815160208301516040909301519094929350919050565b602080825260129082015271496e76616c69642070726f6f66207479706560701b604082015260600190565b60208082526052908201527f5468652070726f6f6620757070657220626f756e64206d757374206265206e6f60408201527f6e2d7a65726f2c20706c656173652075736520697342697274686461746541626060820152711bdd9953dc915c5d585b081a5b9cdd19585960721b608082015260a00190565b60208082526053908201527f5468652070726f6f6620757070657220626f756e64206d757374206265206e6f60408201527f6e2d7a65726f2c20706c65617365207573652069734578706972794461746541606082015272189bdd9953dc915c5d585b081a5b9cdd195859606a1b608082015260a00190565b5f5f604083850312156135c7575f5ffd5b82516001600160401b038111156135dc575f5ffd5b8301601f810185136135ec575f5ffd5b80516135fa612a8f82612a03565b8082825260208201915060208360051b85010192508783111561361b575f5ffd5b602084015b8381101561365b5780516001600160401b0381111561363d575f5ffd5b61364c8a602083890101612f8e565b84525060209283019201613620565b506020969096015195979596505050505050565b5f5f8585111561367d575f5ffd5b83861115613689575f5ffd5b505082019391909203915056fea26469706673582212201ad0934c58c94945ad619ae11884148cc3af0f513c363543f6833c83eb4947ff64736f6c634300081d0033",
    "linkReferences": {
      "src/InputsExtractor.sol": {
        "InputsExtractor": [
          {
            "start": 2143,
            "length": 20
          },
          {
            "start": 2307,
            "length": 20
          },
          {
            "start": 2500,
            "length": 20
          },
          {
            "start": 2861,
            "length": 20
          },
          {
            "start": 3025,
            "length": 20
          },
          {
            "start": 3163,
            "length": 20
          },
          {
            "start": 3785,
            "length": 20
          },
          {
            "start": 5165,
            "length": 20
          },
          {
            "start": 6926,
            "length": 20
          },
          {
            "start": 7529,
            "length": 20
          },
          {
            "start": 8358,
            "length": 20
          },
          {
            "start": 8900,
            "length": 20
          }
        ]
      }
    }
  },
  "methodIdentifiers": {
    "CERTIFICATE_REGISTRY_ID()": "41a0e2c2",
    "CIRCUIT_REGISTRY_ID()": "6c40d5d6",
    "SANCTIONS_REGISTRY_ID()": "652ba33d",
    "addVerifiers(bytes32[],address[])": "a6df2c01",
    "admin()": "f851a440",
    "enforceSanctionsRoot((bytes32,bytes,bytes32[],bytes,uint256[],uint256,string,string,bool))": "653cfd81",
    "getBoundData((bytes32,bytes,bytes32[],bytes,uint256[],uint256,string,string,bool))": "59545f45",
    "getDisclosedData((bytes32,bytes,bytes32[],bytes,uint256[],uint256,string,string,bool),bool)": "1e26a9dc",
    "isAgeAbove(uint8,(bytes32,bytes,bytes32[],bytes,uint256[],uint256,string,string,bool))": "37889655",
    "isAgeAboveOrEqual(uint8,(bytes32,bytes,bytes32[],bytes,uint256[],uint256,string,string,bool))": "54dbe4d1",
    "isAgeBelow(uint8,(bytes32,bytes,bytes32[],bytes,uint256[],uint256,string,string,bool))": "bf73c26c",
    "isAgeBelowOrEqual(uint8,(bytes32,bytes,bytes32[],bytes,uint256[],uint256,string,string,bool))": "aa1346ea",
    "isAgeBetween(uint8,uint8,(bytes32,bytes,bytes32[],bytes,uint256[],uint256,string,string,bool))": "62067c82",
    "isAgeEqual(uint8,(bytes32,bytes,bytes32[],bytes,uint256[],uint256,string,string,bool))": "c0940ebd",
    "isBirthdateAfter(uint256,(bytes32,bytes,bytes32[],bytes,uint256[],uint256,string,string,bool))": "04951b86",
    "isBirthdateAfterOrEqual(uint256,(bytes32,bytes,bytes32[],bytes,uint256[],uint256,string,string,bool))": "704876d6",
    "isBirthdateBefore(uint256,(bytes32,bytes,bytes32[],bytes,uint256[],uint256,string,string,bool))": "921076c7",
    "isBirthdateBeforeOrEqual(uint256,(bytes32,bytes,bytes32[],bytes,uint256[],uint256,string,string,bool))": "deb7c059",
    "isBirthdateBetween(uint256,uint256,(bytes32,bytes,bytes32[],bytes,uint256[],uint256,string,string,bool))": "c4560786",
    "isBirthdateEqual(uint256,(bytes32,bytes,bytes32[],bytes,uint256[],uint256,string,string,bool))": "0b90581b",
    "isExpiryDateAfter(uint256,(bytes32,bytes,bytes32[],bytes,uint256[],uint256,string,string,bool))": "d3f6ffff",
    "isExpiryDateAfterOrEqual(uint256,(bytes32,bytes,bytes32[],bytes,uint256[],uint256,string,string,bool))": "4c127428",
    "isExpiryDateBefore(uint256,(bytes32,bytes,bytes32[],bytes,uint256[],uint256,string,string,bool))": "a88f1cef",
    "isExpiryDateBeforeOrEqual(uint256,(bytes32,bytes,bytes32[],bytes,uint256[],uint256,string,string,bool))": "e718bc32",
    "isExpiryDateBetween(uint256,uint256,(bytes32,bytes,bytes32[],bytes,uint256[],uint256,string,string,bool))": "46bd0a16",
    "isExpiryDateEqual(uint256,(bytes32,bytes,bytes32[],bytes,uint256[],uint256,string,string,bool))": "cfd9464a",
    "isIssuingCountryIn(string[],(bytes32,bytes,bytes32[],bytes,uint256[],uint256,string,string,bool))": "ec46f774",
    "isIssuingCountryOut(string[],(bytes32,bytes,bytes32[],bytes,uint256[],uint256,string,string,bool))": "3a86bd3d",
    "isNationalityIn(string[],(bytes32,bytes,bytes32[],bytes,uint256[],uint256,string,string,bool))": "f87e19b1",
    "isNationalityOut(string[],(bytes32,bytes,bytes32[],bytes,uint256[],uint256,string,string,bool))": "e420e354",
    "paused()": "5c975abb",
    "removeVerifiers(bytes32[])": "8d6937b8",
    "rootRegistry()": "b96b161c",
    "setPaused(bool)": "16c38b3c",
    "transferAdmin(address)": "75829def",
    "updateRootRegistry(address)": "18677f2a",
    "verifyProof((bytes32,bytes,bytes32[],bytes,uint256[],uint256,string,string,bool))": "d7bf616a",
    "verifyScopes(bytes32[],string,string)": "847755e3",
    "vkeyHashToVerifier(bytes32)": "8163f231"
  },
  "id": 26
}